{
	"data": {
		"bytecode": {
			"linkReferences": {},
			"object": "6080604052662386f26fc100006008553480156200001c57600080fd5b506040516200473a3803806200473a833981810160405281019062000042919062000622565b6a52b7d2dcc80cd2e4000000838383600083838380620000676200023a60201b60201c565b73ffffffffffffffffffffffffffffffffffffffff168173ffffffffffffffffffffffffffffffffffffffff1614620000b157620000b0816200026360201b62000faa1760201c565b5b620000e27f5a988c0f00000000000000000000000000000000000000000000000000000000620002e560201b60201c565b50620001187fdeba1e292f8ba88238e10ab3c7f88bd4be4fac56cad5194b6ecceaf653468af160001b84620003bd60201b60201c565b6200014d7f2f0a68ab07768e01943a599e73362a0e17a63a72e94dd2e384d2c1d4db93275660001b83620003bd60201b60201c565b50505080600360006101000a81548160ff0219169083151502179055506200018263e33f65c360e01b620002e560201b60201c565b620001df7feafec4d89fa9619884b6b8913562645500000000000000000000000074ac49b060001b6374ac49b060e01b604051602001620001c4919062000818565b604051602081830303815290604052620003bd60201b60201c565b505050506000811162000229576040517f08c379a000000000000000000000000000000000000000000000000000000000815260040162000220906200089d565b60405180910390fd5b806007819055505050505062000ab2565b60008060009054906101000a900473ffffffffffffffffffffffffffffffffffffffff16905090565b600060149054906101000a900460ff1615620002b6576040517f08c379a0000000000000000000000000000000000000000000000000000000008152600401620002ad9062000859565b60405180910390fd5b6001600060146101000a81548160ff021916908315150217905550620002e2816200042560201b60201c565b50565b63ffffffff60e01b817bffffffffffffffffffffffffffffffffffffffffffffffffffffffff1916141562000351576040517f08c379a000000000000000000000000000000000000000000000000000000000815260040162000348906200087b565b60405180910390fd5b6001806000837bffffffffffffffffffffffffffffffffffffffffffffffffffffffff19167bffffffffffffffffffffffffffffffffffffffffffffffffffffffff1916815260200190815260200160002060006101000a81548160ff02191690831515021790555050565b80600260008481526020019081526020016000209080519060200190620003e6929190620004e9565b50817fece574603820d07bc9b91f2a932baadf4628aabcb8afba49776529c14a6104b28260405162000419919062000835565b60405180910390a25050565b60008060009054906101000a900473ffffffffffffffffffffffffffffffffffffffff169050816000806101000a81548173ffffffffffffffffffffffffffffffffffffffff021916908373ffffffffffffffffffffffffffffffffffffffff1602179055508173ffffffffffffffffffffffffffffffffffffffff168173ffffffffffffffffffffffffffffffffffffffff167f8be0079c531659141344cd1fd0a4f28419497f9722a3daafe3b4186f6b6457e060405160405180910390a35050565b828054620004f790620009e9565b90600052602060002090601f0160209004810192826200051b576000855562000567565b82601f106200053657805160ff191683800117855562000567565b8280016001018555821562000567579182015b828111156200056657825182559160200191906001019062000549565b5b5090506200057691906200057a565b5090565b5b80821115620005955760008160009055506001016200057b565b5090565b6000620005b0620005aa84620008f3565b620008bf565b905082815260208101848484011115620005c957600080fd5b620005d6848285620009b3565b509392505050565b600081519050620005ef8162000a98565b92915050565b600082601f8301126200060757600080fd5b81516200061984826020860162000599565b91505092915050565b6000806000606084860312156200063857600080fd5b600084015167ffffffffffffffff8111156200065357600080fd5b6200066186828701620005f5565b935050602084015167ffffffffffffffff8111156200067f57600080fd5b6200068d86828701620005f5565b9250506040620006a086828701620005de565b9150509250925092565b620006bf620006b98262000967565b62000a1f565b82525050565b6000620006d28262000926565b620006de818562000931565b9350620006f0818560208601620009b3565b620006fb8162000a87565b840191505092915050565b60006200071560298362000942565b91507f4f776e61626c653a206f776e65722063616e206f6e6c7920626520696e69746960008301527f61746564206f6e636500000000000000000000000000000000000000000000006020830152604082019050919050565b60006200077d601c8362000942565b91507f4552433136353a20696e76616c696420696e74657266616365206964000000006000830152602082019050919050565b6000620007bf60288362000942565b91507f4c535037436170706564537570706c793a20746f6b656e537570706c7943617060008301527f206973207a65726f0000000000000000000000000000000000000000000000006020830152604082019050919050565b6000620008268284620006aa565b60048201915081905092915050565b60006020820190508181036000830152620008518184620006c5565b905092915050565b60006020820190508181036000830152620008748162000706565b9050919050565b6000602082019050818103600083015262000896816200076e565b9050919050565b60006020820190508181036000830152620008b881620007b0565b9050919050565b6000604051905081810181811067ffffffffffffffff82111715620008e957620008e862000a58565b5b8060405250919050565b600067ffffffffffffffff82111562000911576200091062000a58565b5b601f19601f8301169050602081019050919050565b600081519050919050565b600082825260208201905092915050565b600082825260208201905092915050565b6000620009608262000993565b9050919050565b60007fffffffff0000000000000000000000000000000000000000000000000000000082169050919050565b600073ffffffffffffffffffffffffffffffffffffffff82169050919050565b60005b83811015620009d3578082015181840152602081019050620009b6565b83811115620009e3576000848401525b50505050565b6000600282049050600182168062000a0257607f821691505b6020821081141562000a195762000a1862000a29565b5b50919050565b6000819050919050565b7f4e487b7100000000000000000000000000000000000000000000000000000000600052602260045260246000fd5b7f4e487b7100000000000000000000000000000000000000000000000000000000600052604160045260246000fd5b6000601f19601f8301169050919050565b62000aa38162000953565b811462000aaf57600080fd5b50565b613c788062000ac26000396000f3fe608060405234801561001057600080fd5b506004361061012c5760003560e01c8063760d9bba116100ad578063d95b637111610071578063d95b637114610307578063e0fda79614610337578063e9893c6714610353578063f2fde38b14610371578063fad8b32a1461038d5761012c565b8063760d9bba146102795780638da5cb5b14610295578063a8a34e0a146102b3578063be399be5146102cf578063d2706c19146102eb5761012c565b806347980aa3116100f457806347980aa3146101d55780634e3e6e9c146101f157806352058d8a1461022157806370a082311461023f578063715018a61461026f5761012c565b806301ffc9a71461013157806314a6e2931461016157806318160ddd1461017d5780631e9a69501461019b578063313ce567146101b7575b600080fd5b61014b6004803603810190610146919061295b565b6103a9565b604051610158919061343d565b60405180910390f35b61017b600480360381019061017691906128c6565b610421565b005b61018561058f565b6040516101929190613745565b60405180910390f35b6101b560048036038101906101b09190612772565b610599565b005b6101bf610616565b6040516101cc9190613745565b60405180910390f35b6101ef60048036038101906101ea9190612772565b61063e565b005b61020b60048036038101906102069190612885565b610654565b604051610218919061341b565b60405180910390f35b61022961077f565b6040516102369190613745565b60405180910390f35b6102596004803603810190610254919061267e565b610789565b6040516102669190613745565b60405180910390f35b6102776107d2565b005b610293600480360381019061028e91906126e3565b61085a565b005b61029d610a06565b6040516102aa91906133a0565b60405180910390f35b6102cd60048036038101906102c891906127ae565b610a2f565b005b6102e960048036038101906102e4919061267e565b610bc1565b005b610305600480360381019061030091906129c5565b610bd6565b005b610321600480360381019061031c91906126a7565b610c55565b60405161032e9190613745565b60405180910390f35b610351600480360381019061034c91906126a7565b610d58565b005b61035b610e96565b6040516103689190613745565b60405180910390f35b61038b6004803603810190610386919061267e565b610e9c565b005b6103a760048036038101906103a2919061267e565b610f94565b005b60006103b482611021565b8061041a575060016000837bffffffffffffffffffffffffffffffffffffffffffffffffffffffff19167bffffffffffffffffffffffffffffffffffffffffffffffffffffffff1916815260200190815260200160002060009054906101000a900460ff165b9050919050565b61042961108b565b73ffffffffffffffffffffffffffffffffffffffff16610447610a06565b73ffffffffffffffffffffffffffffffffffffffff161461049d576040517f08c379a000000000000000000000000000000000000000000000000000000000815260040161049490613665565b60405180910390fd5b80518251146104e1576040517f08c379a00000000000000000000000000000000000000000000000000000000081526004016104d890613705565b60405180910390fd5b60005b825181101561058a57610577838281518110610529577f4e487b7100000000000000000000000000000000000000000000000000000000600052603260045260246000fd5b602002602001015183838151811061056a577f4e487b7100000000000000000000000000000000000000000000000000000000600052603260045260246000fd5b6020026020010151611093565b808061058290613aad565b9150506104e4565b505050565b6000600454905090565b6105d982826040518060400160405280600681526020017f72656465656d00000000000000000000000000000000000000000000000000008152506110f7565b7f4896181ff8f4543cc00db9fe9b6fb7e6f032b7eb772c72ab1ec1b4d2e03b9369828260405161060a9291906133f2565b60405180910390a15050565b6000600360009054906101000a900460ff16610633576012610636565b60005b60ff16905090565b61065061064961108b565b8383611472565b5050565b6060815167ffffffffffffffff811115610697577f4e487b7100000000000000000000000000000000000000000000000000000000600052604160045260246000fd5b6040519080825280602002602001820160405280156106ca57816020015b60608152602001906001900390816106b55790505b50905060005b825181101561077957610722838281518110610715577f4e487b7100000000000000000000000000000000000000000000000000000000600052603260045260246000fd5b602002602001015161170b565b82828151811061075b577f4e487b7100000000000000000000000000000000000000000000000000000000600052603260045260246000fd5b6020026020010181905250808061077190613aad565b9150506106d0565b50919050565b6000600754905090565b6000600560008373ffffffffffffffffffffffffffffffffffffffff1673ffffffffffffffffffffffffffffffffffffffff168152602001908152602001600020549050919050565b6107da61108b565b73ffffffffffffffffffffffffffffffffffffffff166107f8610a06565b73ffffffffffffffffffffffffffffffffffffffff161461084e576040517f08c379a000000000000000000000000000000000000000000000000000000000815260040161084590613665565b60405180910390fd5b61085860006117b0565b565b600061086461108b565b90508573ffffffffffffffffffffffffffffffffffffffff168173ffffffffffffffffffffffffffffffffffffffff16146109f1576000600660008873ffffffffffffffffffffffffffffffffffffffff1673ffffffffffffffffffffffffffffffffffffffff16815260200190815260200160002060008373ffffffffffffffffffffffffffffffffffffffff1673ffffffffffffffffffffffffffffffffffffffff1681526020019081526020016000205490508481101561095d576040517f08c379a000000000000000000000000000000000000000000000000000000000815260040161095490613505565b60405180910390fd5b6109ef878387600660008c73ffffffffffffffffffffffffffffffffffffffff1673ffffffffffffffffffffffffffffffffffffffff16815260200190815260200160002060008773ffffffffffffffffffffffffffffffffffffffff1673ffffffffffffffffffffffffffffffffffffffff168152602001908152602001600020546109ea9190613987565b611472565b505b6109fe8686868686611874565b505050505050565b60008060009054906101000a900473ffffffffffffffffffffffffffffffffffffffff16905090565b83518551148015610a41575082518551145b8015610a4e575080518551145b610a8d576040517f08c379a0000000000000000000000000000000000000000000000000000000008152600401610a8490613525565b60405180910390fd5b60005b8551811015610bb957610ba6868281518110610ad5577f4e487b7100000000000000000000000000000000000000000000000000000000600052603260045260246000fd5b6020026020010151868381518110610b16577f4e487b7100000000000000000000000000000000000000000000000000000000600052603260045260246000fd5b6020026020010151868481518110610b57577f4e487b7100000000000000000000000000000000000000000000000000000000600052603260045260246000fd5b602002602001015186868681518110610b99577f4e487b7100000000000000000000000000000000000000000000000000000000600052603260045260246000fd5b602002602001015161085a565b8080610bb190613aad565b915050610a90565b505050505050565b610bd381610bce83610789565b610599565b50565b3373ffffffffffffffffffffffffffffffffffffffff16610bf5610a06565b73ffffffffffffffffffffffffffffffffffffffff1614610c4b576040517f08c379a0000000000000000000000000000000000000000000000000000000008152600401610c4290613625565b60405180910390fd5b8060088190555050565b60008273ffffffffffffffffffffffffffffffffffffffff168273ffffffffffffffffffffffffffffffffffffffff161415610cd257600560008373ffffffffffffffffffffffffffffffffffffffff1673ffffffffffffffffffffffffffffffffffffffff168152602001908152602001600020549050610d52565b600660008373ffffffffffffffffffffffffffffffffffffffff1673ffffffffffffffffffffffffffffffffffffffff16815260200190815260200160002060008473ffffffffffffffffffffffffffffffffffffffff1673ffffffffffffffffffffffffffffffffffffffff1681526020019081526020016000205490505b92915050565b3373ffffffffffffffffffffffffffffffffffffffff16610d77610a06565b73ffffffffffffffffffffffffffffffffffffffff1614610dcd576040517f08c379a0000000000000000000000000000000000000000000000000000000008152600401610dc490613625565b60405180910390fd5b610e118260085460016040518060400160405280600581526020017f6177617264000000000000000000000000000000000000000000000000000000815250611b3a565b610e558160085460016040518060400160405280600581526020017f6177617264000000000000000000000000000000000000000000000000000000815250611b3a565b7fe2554529d99ab7a67db6b4cea2b32c7d55ae325f958861e05f304fdded867e318282600854604051610e8a939291906133bb565b60405180910390a15050565b60085481565b610ea461108b565b73ffffffffffffffffffffffffffffffffffffffff16610ec2610a06565b73ffffffffffffffffffffffffffffffffffffffff1614610f18576040517f08c379a0000000000000000000000000000000000000000000000000000000008152600401610f0f90613665565b60405180910390fd5b600073ffffffffffffffffffffffffffffffffffffffff168173ffffffffffffffffffffffffffffffffffffffff161415610f88576040517f08c379a0000000000000000000000000000000000000000000000000000000008152600401610f7f90613565565b60405180910390fd5b610f91816117b0565b50565b610fa7610f9f61108b565b826000611472565b50565b600060149054906101000a900460ff1615610ffa576040517f08c379a0000000000000000000000000000000000000000000000000000000008152600401610ff190613545565b60405180910390fd5b6001600060146101000a81548160ff02191690831515021790555061101e816117b0565b50565b60007f01ffc9a7000000000000000000000000000000000000000000000000000000007bffffffffffffffffffffffffffffffffffffffffffffffffffffffff1916827bffffffffffffffffffffffffffffffffffffffffffffffffffffffff1916149050919050565b600033905090565b806002600084815260200190815260200160002090805190602001906110ba929190612244565b50817fece574603820d07bc9b91f2a932baadf4628aabcb8afba49776529c14a6104b2826040516110eb91906134a3565b60405180910390a25050565b600073ffffffffffffffffffffffffffffffffffffffff168373ffffffffffffffffffffffffffffffffffffffff161415611167576040517f08c379a000000000000000000000000000000000000000000000000000000000815260040161115e906136e5565b60405180910390fd5b81600560008573ffffffffffffffffffffffffffffffffffffffff1673ffffffffffffffffffffffffffffffffffffffff1681526020019081526020016000205410156111e9576040517f08c379a00000000000000000000000000000000000000000000000000000000081526004016111e090613725565b60405180910390fd5b60006111f361108b565b90508373ffffffffffffffffffffffffffffffffffffffff168173ffffffffffffffffffffffffffffffffffffffff161461137b5782600660008673ffffffffffffffffffffffffffffffffffffffff1673ffffffffffffffffffffffffffffffffffffffff16815260200190815260200160002060008373ffffffffffffffffffffffffffffffffffffffff1673ffffffffffffffffffffffffffffffffffffffff1681526020019081526020016000205410156112e7576040517f08c379a00000000000000000000000000000000000000000000000000000000081526004016112de906134e5565b60405180910390fd5b82600660008673ffffffffffffffffffffffffffffffffffffffff1673ffffffffffffffffffffffffffffffffffffffff16815260200190815260200160002060008373ffffffffffffffffffffffffffffffffffffffff1673ffffffffffffffffffffffffffffffffffffffff16815260200190815260200160002060008282546113739190613987565b925050819055505b6113888460008585611b4c565b61139484600085611c5b565b82600560008673ffffffffffffffffffffffffffffffffffffffff1673ffffffffffffffffffffffffffffffffffffffff16815260200190815260200160002060008282546113e39190613987565b92505081905550600073ffffffffffffffffffffffffffffffffffffffff168473ffffffffffffffffffffffffffffffffffffffff168273ffffffffffffffffffffffffffffffffffffffff167f3997e418d2cef0b3b0e907b1e39605c3f7d32dbd061e82ea5b4a770d46a160a68660008760405161146493929190613760565b60405180910390a450505050565b8273ffffffffffffffffffffffffffffffffffffffff168273ffffffffffffffffffffffffffffffffffffffff1614156114e1576040517f08c379a00000000000000000000000000000000000000000000000000000000081526004016114d8906135a5565b60405180910390fd5b600073ffffffffffffffffffffffffffffffffffffffff168273ffffffffffffffffffffffffffffffffffffffff161415611551576040517f08c379a0000000000000000000000000000000000000000000000000000000008152600401611548906136c5565b60405180910390fd5b600073ffffffffffffffffffffffffffffffffffffffff168373ffffffffffffffffffffffffffffffffffffffff1614156115c1576040517f08c379a00000000000000000000000000000000000000000000000000000000081526004016115b8906135c5565b60405180910390fd5b80600660008573ffffffffffffffffffffffffffffffffffffffff1673ffffffffffffffffffffffffffffffffffffffff16815260200190815260200160002060008473ffffffffffffffffffffffffffffffffffffffff1673ffffffffffffffffffffffffffffffffffffffff1681526020019081526020016000208190555060008111156116ab57808373ffffffffffffffffffffffffffffffffffffffff168373ffffffffffffffffffffffffffffffffffffffff167fd66aff874162a96578e919097b6f6d153dfd89a5cec41bb331fdb0c4aec16e2c60405160405180910390a4611706565b8273ffffffffffffffffffffffffffffffffffffffff168273ffffffffffffffffffffffffffffffffffffffff167f50546e66e5f44d728365dc3908c63bc5cfeeab470722c1677e3073a6ac294aa160405160405180910390a35b505050565b606060026000838152602001908152602001600020805461172b90613a7b565b80601f016020809104026020016040519081016040528092919081815260200182805461175790613a7b565b80156117a45780601f10611779576101008083540402835291602001916117a4565b820191906000526020600020905b81548152906001019060200180831161178757829003601f168201915b50505050509050919050565b60008060009054906101000a900473ffffffffffffffffffffffffffffffffffffffff169050816000806101000a81548173ffffffffffffffffffffffffffffffffffffffff021916908373ffffffffffffffffffffffffffffffffffffffff1602179055508173ffffffffffffffffffffffffffffffffffffffff168173ffffffffffffffffffffffffffffffffffffffff167f8be0079c531659141344cd1fd0a4f28419497f9722a3daafe3b4186f6b6457e060405160405180910390a35050565b600073ffffffffffffffffffffffffffffffffffffffff168573ffffffffffffffffffffffffffffffffffffffff1614156118e4576040517f08c379a00000000000000000000000000000000000000000000000000000000081526004016118db90613645565b60405180910390fd5b600073ffffffffffffffffffffffffffffffffffffffff168473ffffffffffffffffffffffffffffffffffffffff161415611954576040517f08c379a000000000000000000000000000000000000000000000000000000000815260040161194b906136a5565b60405180910390fd5b82600560008773ffffffffffffffffffffffffffffffffffffffff1673ffffffffffffffffffffffffffffffffffffffff1681526020019081526020016000205410156119d6576040517f08c379a00000000000000000000000000000000000000000000000000000000081526004016119cd906135e5565b60405180910390fd5b60006119e061108b565b90506119ee86868685611b4c565b6119f9868686611c5b565b83600560008873ffffffffffffffffffffffffffffffffffffffff1673ffffffffffffffffffffffffffffffffffffffff1681526020019081526020016000206000828254611a489190613987565b9250508190555083600560008773ffffffffffffffffffffffffffffffffffffffff1673ffffffffffffffffffffffffffffffffffffffff1681526020019081526020016000206000828254611a9e9190613931565b925050819055508473ffffffffffffffffffffffffffffffffffffffff168673ffffffffffffffffffffffffffffffffffffffff168273ffffffffffffffffffffffffffffffffffffffff167f3997e418d2cef0b3b0e907b1e39605c3f7d32dbd061e82ea5b4a770d46a160a6878787604051611b1d93929190613760565b60405180910390a4611b328686868686611cfe565b505050505050565b611b4684848484611eb2565b50505050565b611b5584611f20565b8015611b6e5750611b6d84636bb56a1460e01b611f6d565b5b15611c5557600084848484604051602001611b8c949392919061333f565b60405160208183030381529060405290508473ffffffffffffffffffffffffffffffffffffffff16636bb56a147f40b8bec57d7b5ff0dbd9e9acd0a47dfeb0101e1a203766f5ccab00445fbf39e960001b836040518363ffffffff1660e01b8152600401611bfb929190613458565b600060405180830381600087803b158015611c1557600080fd5b505af1158015611c29573d6000803e3d6000fd5b505050506040513d6000823e3d601f19601f82011682018060405250810190611c529190612984565b50505b50505050565b600073ffffffffffffffffffffffffffffffffffffffff168373ffffffffffffffffffffffffffffffffffffffff161415611caa578060046000828254611ca29190613931565b925050819055505b600073ffffffffffffffffffffffffffffffffffffffff168273ffffffffffffffffffffffffffffffffffffffff161415611cf9578060046000828254611cf19190613987565b925050819055505b505050565b611d0784611f20565b8015611d205750611d1f84636bb56a1460e01b611f6d565b5b15611e0b57600085858584604051602001611d3e949392919061333f565b60405160208183030381529060405290508473ffffffffffffffffffffffffffffffffffffffff16636bb56a147fdbe2c314e1aee2970c72666f2ebe8933a8575263ea71e5ff6a9178e95d47a26f60001b836040518363ffffffff1660e01b8152600401611dad929190613458565b600060405180830381600087803b158015611dc757600080fd5b505af1158015611ddb573d6000803e3d6000fd5b505050506040513d6000823e3d601f19601f82011682018060405250810190611e049190612984565b5050611eab565b81611eaa57611e2f8473ffffffffffffffffffffffffffffffffffffffff16611f92565b15611e6f576040517f08c379a0000000000000000000000000000000000000000000000000000000008152600401611e6690613605565b60405180910390fd5b6040517f08c379a0000000000000000000000000000000000000000000000000000000008152600401611ea1906134c5565b60405180910390fd5b5b5050505050565b611eba61077f565b83611ec361058f565b611ecd9190613931565b1115611f0e576040517f08c379a0000000000000000000000000000000000000000000000000000000008152600401611f0590613685565b60405180910390fd5b611f1a84848484611fa5565b50505050565b6000611f4c827f01ffc9a700000000000000000000000000000000000000000000000000000000612119565b8015611f665750611f648263ffffffff60e01b612119565b155b9050919050565b6000611f7883611f20565b8015611f8a5750611f898383612119565b5b905092915050565b600080823b905060008111915050919050565b600073ffffffffffffffffffffffffffffffffffffffff168473ffffffffffffffffffffffffffffffffffffffff161415612015576040517f08c379a000000000000000000000000000000000000000000000000000000000815260040161200c90613585565b60405180910390fd5b600061201f61108b565b905061202d60008686611c5b565b83600560008773ffffffffffffffffffffffffffffffffffffffff1673ffffffffffffffffffffffffffffffffffffffff168152602001908152602001600020600082825461207c9190613931565b925050819055508473ffffffffffffffffffffffffffffffffffffffff16600073ffffffffffffffffffffffffffffffffffffffff168273ffffffffffffffffffffffffffffffffffffffff167f3997e418d2cef0b3b0e907b1e39605c3f7d32dbd061e82ea5b4a770d46a160a68787876040516120fc93929190613760565b60405180910390a4612112600086868686611cfe565b5050505050565b6000806301ffc9a760e01b836040516024016121359190613488565b604051602081830303815290604052907bffffffffffffffffffffffffffffffffffffffffffffffffffffffff19166020820180517bffffffffffffffffffffffffffffffffffffffffffffffffffffffff838183161783525050505090506000808573ffffffffffffffffffffffffffffffffffffffff16617530846040516121bf9190613389565b6000604051808303818686fa925050503d80600081146121fb576040519150601f19603f3d011682016040523d82523d6000602084013e612200565b606091505b509150915060208151101561221b576000935050505061223e565b8180156122385750808060200190518101906122379190612932565b5b93505050505b92915050565b82805461225090613a7b565b90600052602060002090601f01602090048101928261227257600085556122b9565b82601f1061228b57805160ff19168380011785556122b9565b828001600101855582156122b9579182015b828111156122b857825182559160200191906001019061229d565b5b5090506122c691906122ca565b5090565b5b808211156122e35760008160009055506001016122cb565b5090565b60006122fa6122f5846137cf565b61379e565b9050808382526020820190508285602086028201111561231957600080fd5b60005b85811015612349578161232f8882612504565b84526020840193506020830192505060018101905061231c565b5050509392505050565b6000612366612361846137fb565b61379e565b9050808382526020820190508285602086028201111561238557600080fd5b60005b858110156123b5578161239b88826125eb565b845260208401935060208301925050600181019050612388565b5050509392505050565b60006123d26123cd84613827565b61379e565b9050808382526020820190508260005b8581101561241257813585016123f88882612615565b8452602084019350602083019250506001810190506123e2565b5050509392505050565b600061242f61242a84613853565b61379e565b9050808382526020820190508285602086028201111561244e57600080fd5b60005b8581101561247e57816124648882612669565b845260208401935060208301925050600181019050612451565b5050509392505050565b600061249b6124968461387f565b61379e565b9050828152602081018484840111156124b357600080fd5b6124be848285613a39565b509392505050565b60006124d96124d48461387f565b61379e565b9050828152602081018484840111156124f157600080fd5b6124fc848285613a48565b509392505050565b60008135905061251381613bcf565b92915050565b600082601f83011261252a57600080fd5b813561253a8482602086016122e7565b91505092915050565b600082601f83011261255457600080fd5b8135612564848260208601612353565b91505092915050565b600082601f83011261257e57600080fd5b813561258e8482602086016123bf565b91505092915050565b600082601f8301126125a857600080fd5b81356125b884826020860161241c565b91505092915050565b6000813590506125d081613be6565b92915050565b6000815190506125e581613be6565b92915050565b6000813590506125fa81613bfd565b92915050565b60008135905061260f81613c14565b92915050565b600082601f83011261262657600080fd5b8135612636848260208601612488565b91505092915050565b600082601f83011261265057600080fd5b81516126608482602086016124c6565b91505092915050565b60008135905061267881613c2b565b92915050565b60006020828403121561269057600080fd5b600061269e84828501612504565b91505092915050565b600080604083850312156126ba57600080fd5b60006126c885828601612504565b92505060206126d985828601612504565b9150509250929050565b600080600080600060a086880312156126fb57600080fd5b600061270988828901612504565b955050602061271a88828901612504565b945050604061272b88828901612669565b935050606061273c888289016125c1565b925050608086013567ffffffffffffffff81111561275957600080fd5b61276588828901612615565b9150509295509295909350565b6000806040838503121561278557600080fd5b600061279385828601612504565b92505060206127a485828601612669565b9150509250929050565b600080600080600060a086880312156127c657600080fd5b600086013567ffffffffffffffff8111156127e057600080fd5b6127ec88828901612519565b955050602086013567ffffffffffffffff81111561280957600080fd5b61281588828901612519565b945050604086013567ffffffffffffffff81111561283257600080fd5b61283e88828901612597565b935050606061284f888289016125c1565b925050608086013567ffffffffffffffff81111561286c57600080fd5b6128788882890161256d565b9150509295509295909350565b60006020828403121561289757600080fd5b600082013567ffffffffffffffff8111156128b157600080fd5b6128bd84828501612543565b91505092915050565b600080604083850312156128d957600080fd5b600083013567ffffffffffffffff8111156128f357600080fd5b6128ff85828601612543565b925050602083013567ffffffffffffffff81111561291c57600080fd5b6129288582860161256d565b9150509250929050565b60006020828403121561294457600080fd5b6000612952848285016125d6565b91505092915050565b60006020828403121561296d57600080fd5b600061297b84828501612600565b91505092915050565b60006020828403121561299657600080fd5b600082015167ffffffffffffffff8111156129b057600080fd5b6129bc8482850161263f565b91505092915050565b6000602082840312156129d757600080fd5b60006129e584828501612669565b91505092915050565b60006129fa8383612aca565b905092915050565b612a0b816139bb565b82525050565b612a22612a1d826139bb565b613af6565b82525050565b6000612a33826138bf565b612a3d81856138e2565b935083602082028501612a4f856138af565b8060005b85811015612a8b5784840389528151612a6c85826129ee565b9450612a77836138d5565b925060208a01995050600181019050612a53565b50829750879550505050505092915050565b612aa6816139cd565b82525050565b612ab5816139d9565b82525050565b612ac4816139e3565b82525050565b6000612ad5826138ca565b612adf81856138f3565b9350612aef818560208601613a48565b612af881613bb1565b840191505092915050565b6000612b0e826138ca565b612b188185613904565b9350612b28818560208601613a48565b612b3181613bb1565b840191505092915050565b6000612b47826138ca565b612b518185613915565b9350612b61818560208601613a48565b80840191505092915050565b6000612b7a601b83613920565b91507f4c5350373a20746f6b656e20726563656976657220697320454f4100000000006000830152602082019050919050565b6000612bba603483613920565b91507f4c5350373a206275726e20616d6f756e742065786365656473206f706572617460008301527f6f7220617574686f72697a656420616d6f756e740000000000000000000000006020830152604082019050919050565b6000612c20603883613920565b91507f4c5350373a207472616e7366657220616d6f756e742065786365656473206f7060008301527f657261746f7220617574686f72697a656420616d6f756e7400000000000000006020830152604082019050919050565b6000612c86602883613920565b91507f4c5350373a207472616e736665724261746368206c697374206c656e6774682060008301527f6d69736d617463680000000000000000000000000000000000000000000000006020830152604082019050919050565b6000612cec602983613920565b91507f4f776e61626c653a206f776e65722063616e206f6e6c7920626520696e69746960008301527f61746564206f6e636500000000000000000000000000000000000000000000006020830152604082019050919050565b6000612d52602683613920565b91507f4f776e61626c653a206e6577206f776e657220697320746865207a65726f206160008301527f64647265737300000000000000000000000000000000000000000000000000006020830152604082019050919050565b6000612db8602a83613920565b91507f4c5350373a206d696e7420746f20746865207a65726f2061646472657373206e60008301527f6f7420616c6c6f776564000000000000000000000000000000000000000000006020830152604082019050919050565b6000612e1e604383613920565b91507f4c5350373a207570646174696e67206f70657261746f72206661696c65642c2060008301527f63616e206e6f742075736520746f6b656e206f776e6572206173206f7065726160208301527f746f7200000000000000000000000000000000000000000000000000000000006040830152606082019050919050565b6000612eaa604583613920565b91507f4c5350373a207570646174696e67206f70657261746f72206661696c65642c2060008301527f63616e206e6f7420736574206f70657261746f7220666f72207a65726f20616460208301527f64726573730000000000000000000000000000000000000000000000000000006040830152606082019050919050565b6000612f36603083613920565b91507f4c5350373a207472616e7366657220616d6f756e74206578636565647320746f60008301527f6b656e4f776e65722062616c616e6365000000000000000000000000000000006020830152604082019050919050565b6000612f9c603483613920565b91507f4c5350373a20746f6b656e20726563656976657220636f6e7472616374206d6960008301527f7373696e67204c53503120696e746572666163650000000000000000000000006020830152604082019050919050565b6000613002600c83613920565b91507f756e617574686f72697a656400000000000000000000000000000000000000006000830152602082019050919050565b6000613042602483613920565b91507f4c5350373a207472616e736665722066726f6d20746865207a65726f2061646460008301527f72657373000000000000000000000000000000000000000000000000000000006020830152604082019050919050565b60006130a8602083613920565b91507f4f776e61626c653a2063616c6c6572206973206e6f7420746865206f776e65726000830152602082019050919050565b60006130e8602883613920565b91507f4c535037436170706564537570706c793a20746f6b656e537570706c7943617060008301527f20726561636865640000000000000000000000000000000000000000000000006020830152604082019050919050565b600061314e602283613920565b91507f4c5350373a207472616e7366657220746f20746865207a65726f20616464726560008301527f73730000000000000000000000000000000000000000000000000000000000006020830152604082019050919050565b60006131b4604083613920565b91507f4c5350373a207570646174696e67206f70657261746f72206661696c65642c2060008301527f6f70657261746f722063616e206e6f74206265207a65726f20616464726573736020830152604082019050919050565b600061321a602083613920565b91507f4c5350373a206275726e2066726f6d20746865207a65726f20616464726573736000830152602082019050919050565b600061325a602683613920565b91507f4b657973206c656e677468206e6f7420657175616c20746f2076616c7565732060008301527f6c656e67746800000000000000000000000000000000000000000000000000006020830152604082019050919050565b60006132c0602c83613920565b91507f4c5350373a206275726e20616d6f756e74206578636565647320746f6b656e4f60008301527f776e65722062616c616e636500000000000000000000000000000000000000006020830152604082019050919050565b61332281613a2f565b82525050565b61333961333482613a2f565b613b1a565b82525050565b600061334b8287612a11565b60148201915061335b8286612a11565b60148201915061336b8285613328565b60208201915061337b8284612b3c565b915081905095945050505050565b60006133958284612b3c565b915081905092915050565b60006020820190506133b56000830184612a02565b92915050565b60006060820190506133d06000830186612a02565b6133dd6020830185612a02565b6133ea6040830184613319565b949350505050565b60006040820190506134076000830185612a02565b6134146020830184613319565b9392505050565b600060208201905081810360008301526134358184612a28565b905092915050565b60006020820190506134526000830184612a9d565b92915050565b600060408201905061346d6000830185612aac565b818103602083015261347f8184612b03565b90509392505050565b600060208201905061349d6000830184612abb565b92915050565b600060208201905081810360008301526134bd8184612b03565b905092915050565b600060208201905081810360008301526134de81612b6d565b9050919050565b600060208201905081810360008301526134fe81612bad565b9050919050565b6000602082019050818103600083015261351e81612c13565b9050919050565b6000602082019050818103600083015261353e81612c79565b9050919050565b6000602082019050818103600083015261355e81612cdf565b9050919050565b6000602082019050818103600083015261357e81612d45565b9050919050565b6000602082019050818103600083015261359e81612dab565b9050919050565b600060208201905081810360008301526135be81612e11565b9050919050565b600060208201905081810360008301526135de81612e9d565b9050919050565b600060208201905081810360008301526135fe81612f29565b9050919050565b6000602082019050818103600083015261361e81612f8f565b9050919050565b6000602082019050818103600083015261363e81612ff5565b9050919050565b6000602082019050818103600083015261365e81613035565b9050919050565b6000602082019050818103600083015261367e8161309b565b9050919050565b6000602082019050818103600083015261369e816130db565b9050919050565b600060208201905081810360008301526136be81613141565b9050919050565b600060208201905081810360008301526136de816131a7565b9050919050565b600060208201905081810360008301526136fe8161320d565b9050919050565b6000602082019050818103600083015261371e8161324d565b9050919050565b6000602082019050818103600083015261373e816132b3565b9050919050565b600060208201905061375a6000830184613319565b92915050565b60006060820190506137756000830186613319565b6137826020830185612a9d565b81810360408301526137948184612b03565b9050949350505050565b6000604051905081810181811067ffffffffffffffff821117156137c5576137c4613b82565b5b8060405250919050565b600067ffffffffffffffff8211156137ea576137e9613b82565b5b602082029050602081019050919050565b600067ffffffffffffffff82111561381657613815613b82565b5b602082029050602081019050919050565b600067ffffffffffffffff82111561384257613841613b82565b5b602082029050602081019050919050565b600067ffffffffffffffff82111561386e5761386d613b82565b5b602082029050602081019050919050565b600067ffffffffffffffff82111561389a57613899613b82565b5b601f19601f8301169050602081019050919050565b6000819050602082019050919050565b600081519050919050565b600081519050919050565b6000602082019050919050565b600082825260208201905092915050565b600082825260208201905092915050565b600082825260208201905092915050565b600081905092915050565b600082825260208201905092915050565b600061393c82613a2f565b915061394783613a2f565b9250827fffffffffffffffffffffffffffffffffffffffffffffffffffffffffffffffff0382111561397c5761397b613b24565b5b828201905092915050565b600061399282613a2f565b915061399d83613a2f565b9250828210156139b0576139af613b24565b5b828203905092915050565b60006139c682613a0f565b9050919050565b60008115159050919050565b6000819050919050565b60007fffffffff0000000000000000000000000000000000000000000000000000000082169050919050565b600073ffffffffffffffffffffffffffffffffffffffff82169050919050565b6000819050919050565b82818337600083830152505050565b60005b83811015613a66578082015181840152602081019050613a4b565b83811115613a75576000848401525b50505050565b60006002820490506001821680613a9357607f821691505b60208210811415613aa757613aa6613b53565b5b50919050565b6000613ab882613a2f565b91507fffffffffffffffffffffffffffffffffffffffffffffffffffffffffffffffff821415613aeb57613aea613b24565b5b600182019050919050565b6000613b0182613b08565b9050919050565b6000613b1382613bc2565b9050919050565b6000819050919050565b7f4e487b7100000000000000000000000000000000000000000000000000000000600052601160045260246000fd5b7f4e487b7100000000000000000000000000000000000000000000000000000000600052602260045260246000fd5b7f4e487b7100000000000000000000000000000000000000000000000000000000600052604160045260246000fd5b6000601f19601f8301169050919050565b60008160601b9050919050565b613bd8816139bb565b8114613be357600080fd5b50565b613bef816139cd565b8114613bfa57600080fd5b50565b613c06816139d9565b8114613c1157600080fd5b50565b613c1d816139e3565b8114613c2857600080fd5b50565b613c3481613a2f565b8114613c3f57600080fd5b5056fea26469706673582212206e0ba52fccd747f813107d563459327d17f2d86885d9bbd505feb8db4838f9b864736f6c63430008000033",
			"opcodes": "PUSH1 0x80 PUSH1 0x40 MSTORE PUSH7 0x2386F26FC10000 PUSH1 0x8 SSTORE CALLVALUE DUP1 ISZERO PUSH3 0x1C JUMPI PUSH1 0x0 DUP1 REVERT JUMPDEST POP PUSH1 0x40 MLOAD PUSH3 0x473A CODESIZE SUB DUP1 PUSH3 0x473A DUP4 CODECOPY DUP2 DUP2 ADD PUSH1 0x40 MSTORE DUP2 ADD SWAP1 PUSH3 0x42 SWAP2 SWAP1 PUSH3 0x622 JUMP JUMPDEST PUSH11 0x52B7D2DCC80CD2E4000000 DUP4 DUP4 DUP4 PUSH1 0x0 DUP4 DUP4 DUP4 DUP1 PUSH3 0x67 PUSH3 0x23A PUSH1 0x20 SHL PUSH1 0x20 SHR JUMP JUMPDEST PUSH20 0xFFFFFFFFFFFFFFFFFFFFFFFFFFFFFFFFFFFFFFFF AND DUP2 PUSH20 0xFFFFFFFFFFFFFFFFFFFFFFFFFFFFFFFFFFFFFFFF AND EQ PUSH3 0xB1 JUMPI PUSH3 0xB0 DUP2 PUSH3 0x263 PUSH1 0x20 SHL PUSH3 0xFAA OR PUSH1 0x20 SHR JUMP JUMPDEST JUMPDEST PUSH3 0xE2 PUSH32 0x5A988C0F00000000000000000000000000000000000000000000000000000000 PUSH3 0x2E5 PUSH1 0x20 SHL PUSH1 0x20 SHR JUMP JUMPDEST POP PUSH3 0x118 PUSH32 0xDEBA1E292F8BA88238E10AB3C7F88BD4BE4FAC56CAD5194B6ECCEAF653468AF1 PUSH1 0x0 SHL DUP5 PUSH3 0x3BD PUSH1 0x20 SHL PUSH1 0x20 SHR JUMP JUMPDEST PUSH3 0x14D PUSH32 0x2F0A68AB07768E01943A599E73362A0E17A63A72E94DD2E384D2C1D4DB932756 PUSH1 0x0 SHL DUP4 PUSH3 0x3BD PUSH1 0x20 SHL PUSH1 0x20 SHR JUMP JUMPDEST POP POP POP DUP1 PUSH1 0x3 PUSH1 0x0 PUSH2 0x100 EXP DUP2 SLOAD DUP2 PUSH1 0xFF MUL NOT AND SWAP1 DUP4 ISZERO ISZERO MUL OR SWAP1 SSTORE POP PUSH3 0x182 PUSH4 0xE33F65C3 PUSH1 0xE0 SHL PUSH3 0x2E5 PUSH1 0x20 SHL PUSH1 0x20 SHR JUMP JUMPDEST PUSH3 0x1DF PUSH32 0xEAFEC4D89FA9619884B6B8913562645500000000000000000000000074AC49B0 PUSH1 0x0 SHL PUSH4 0x74AC49B0 PUSH1 0xE0 SHL PUSH1 0x40 MLOAD PUSH1 0x20 ADD PUSH3 0x1C4 SWAP2 SWAP1 PUSH3 0x818 JUMP JUMPDEST PUSH1 0x40 MLOAD PUSH1 0x20 DUP2 DUP4 SUB SUB DUP2 MSTORE SWAP1 PUSH1 0x40 MSTORE PUSH3 0x3BD PUSH1 0x20 SHL PUSH1 0x20 SHR JUMP JUMPDEST POP POP POP POP PUSH1 0x0 DUP2 GT PUSH3 0x229 JUMPI PUSH1 0x40 MLOAD PUSH32 0x8C379A000000000000000000000000000000000000000000000000000000000 DUP2 MSTORE PUSH1 0x4 ADD PUSH3 0x220 SWAP1 PUSH3 0x89D JUMP JUMPDEST PUSH1 0x40 MLOAD DUP1 SWAP2 SUB SWAP1 REVERT JUMPDEST DUP1 PUSH1 0x7 DUP2 SWAP1 SSTORE POP POP POP POP POP PUSH3 0xAB2 JUMP JUMPDEST PUSH1 0x0 DUP1 PUSH1 0x0 SWAP1 SLOAD SWAP1 PUSH2 0x100 EXP SWAP1 DIV PUSH20 0xFFFFFFFFFFFFFFFFFFFFFFFFFFFFFFFFFFFFFFFF AND SWAP1 POP SWAP1 JUMP JUMPDEST PUSH1 0x0 PUSH1 0x14 SWAP1 SLOAD SWAP1 PUSH2 0x100 EXP SWAP1 DIV PUSH1 0xFF AND ISZERO PUSH3 0x2B6 JUMPI PUSH1 0x40 MLOAD PUSH32 0x8C379A000000000000000000000000000000000000000000000000000000000 DUP2 MSTORE PUSH1 0x4 ADD PUSH3 0x2AD SWAP1 PUSH3 0x859 JUMP JUMPDEST PUSH1 0x40 MLOAD DUP1 SWAP2 SUB SWAP1 REVERT JUMPDEST PUSH1 0x1 PUSH1 0x0 PUSH1 0x14 PUSH2 0x100 EXP DUP2 SLOAD DUP2 PUSH1 0xFF MUL NOT AND SWAP1 DUP4 ISZERO ISZERO MUL OR SWAP1 SSTORE POP PUSH3 0x2E2 DUP2 PUSH3 0x425 PUSH1 0x20 SHL PUSH1 0x20 SHR JUMP JUMPDEST POP JUMP JUMPDEST PUSH4 0xFFFFFFFF PUSH1 0xE0 SHL DUP2 PUSH28 0xFFFFFFFFFFFFFFFFFFFFFFFFFFFFFFFFFFFFFFFFFFFFFFFFFFFFFFFF NOT AND EQ ISZERO PUSH3 0x351 JUMPI PUSH1 0x40 MLOAD PUSH32 0x8C379A000000000000000000000000000000000000000000000000000000000 DUP2 MSTORE PUSH1 0x4 ADD PUSH3 0x348 SWAP1 PUSH3 0x87B JUMP JUMPDEST PUSH1 0x40 MLOAD DUP1 SWAP2 SUB SWAP1 REVERT JUMPDEST PUSH1 0x1 DUP1 PUSH1 0x0 DUP4 PUSH28 0xFFFFFFFFFFFFFFFFFFFFFFFFFFFFFFFFFFFFFFFFFFFFFFFFFFFFFFFF NOT AND PUSH28 0xFFFFFFFFFFFFFFFFFFFFFFFFFFFFFFFFFFFFFFFFFFFFFFFFFFFFFFFF NOT AND DUP2 MSTORE PUSH1 0x20 ADD SWAP1 DUP2 MSTORE PUSH1 0x20 ADD PUSH1 0x0 KECCAK256 PUSH1 0x0 PUSH2 0x100 EXP DUP2 SLOAD DUP2 PUSH1 0xFF MUL NOT AND SWAP1 DUP4 ISZERO ISZERO MUL OR SWAP1 SSTORE POP POP JUMP JUMPDEST DUP1 PUSH1 0x2 PUSH1 0x0 DUP5 DUP2 MSTORE PUSH1 0x20 ADD SWAP1 DUP2 MSTORE PUSH1 0x20 ADD PUSH1 0x0 KECCAK256 SWAP1 DUP1 MLOAD SWAP1 PUSH1 0x20 ADD SWAP1 PUSH3 0x3E6 SWAP3 SWAP2 SWAP1 PUSH3 0x4E9 JUMP JUMPDEST POP DUP2 PUSH32 0xECE574603820D07BC9B91F2A932BAADF4628AABCB8AFBA49776529C14A6104B2 DUP3 PUSH1 0x40 MLOAD PUSH3 0x419 SWAP2 SWAP1 PUSH3 0x835 JUMP JUMPDEST PUSH1 0x40 MLOAD DUP1 SWAP2 SUB SWAP1 LOG2 POP POP JUMP JUMPDEST PUSH1 0x0 DUP1 PUSH1 0x0 SWAP1 SLOAD SWAP1 PUSH2 0x100 EXP SWAP1 DIV PUSH20 0xFFFFFFFFFFFFFFFFFFFFFFFFFFFFFFFFFFFFFFFF AND SWAP1 POP DUP2 PUSH1 0x0 DUP1 PUSH2 0x100 EXP DUP2 SLOAD DUP2 PUSH20 0xFFFFFFFFFFFFFFFFFFFFFFFFFFFFFFFFFFFFFFFF MUL NOT AND SWAP1 DUP4 PUSH20 0xFFFFFFFFFFFFFFFFFFFFFFFFFFFFFFFFFFFFFFFF AND MUL OR SWAP1 SSTORE POP DUP2 PUSH20 0xFFFFFFFFFFFFFFFFFFFFFFFFFFFFFFFFFFFFFFFF AND DUP2 PUSH20 0xFFFFFFFFFFFFFFFFFFFFFFFFFFFFFFFFFFFFFFFF AND PUSH32 0x8BE0079C531659141344CD1FD0A4F28419497F9722A3DAAFE3B4186F6B6457E0 PUSH1 0x40 MLOAD PUSH1 0x40 MLOAD DUP1 SWAP2 SUB SWAP1 LOG3 POP POP JUMP JUMPDEST DUP3 DUP1 SLOAD PUSH3 0x4F7 SWAP1 PUSH3 0x9E9 JUMP JUMPDEST SWAP1 PUSH1 0x0 MSTORE PUSH1 0x20 PUSH1 0x0 KECCAK256 SWAP1 PUSH1 0x1F ADD PUSH1 0x20 SWAP1 DIV DUP2 ADD SWAP3 DUP3 PUSH3 0x51B JUMPI PUSH1 0x0 DUP6 SSTORE PUSH3 0x567 JUMP JUMPDEST DUP3 PUSH1 0x1F LT PUSH3 0x536 JUMPI DUP1 MLOAD PUSH1 0xFF NOT AND DUP4 DUP1 ADD OR DUP6 SSTORE PUSH3 0x567 JUMP JUMPDEST DUP3 DUP1 ADD PUSH1 0x1 ADD DUP6 SSTORE DUP3 ISZERO PUSH3 0x567 JUMPI SWAP2 DUP3 ADD JUMPDEST DUP3 DUP2 GT ISZERO PUSH3 0x566 JUMPI DUP3 MLOAD DUP3 SSTORE SWAP2 PUSH1 0x20 ADD SWAP2 SWAP1 PUSH1 0x1 ADD SWAP1 PUSH3 0x549 JUMP JUMPDEST JUMPDEST POP SWAP1 POP PUSH3 0x576 SWAP2 SWAP1 PUSH3 0x57A JUMP JUMPDEST POP SWAP1 JUMP JUMPDEST JUMPDEST DUP1 DUP3 GT ISZERO PUSH3 0x595 JUMPI PUSH1 0x0 DUP2 PUSH1 0x0 SWAP1 SSTORE POP PUSH1 0x1 ADD PUSH3 0x57B JUMP JUMPDEST POP SWAP1 JUMP JUMPDEST PUSH1 0x0 PUSH3 0x5B0 PUSH3 0x5AA DUP5 PUSH3 0x8F3 JUMP JUMPDEST PUSH3 0x8BF JUMP JUMPDEST SWAP1 POP DUP3 DUP2 MSTORE PUSH1 0x20 DUP2 ADD DUP5 DUP5 DUP5 ADD GT ISZERO PUSH3 0x5C9 JUMPI PUSH1 0x0 DUP1 REVERT JUMPDEST PUSH3 0x5D6 DUP5 DUP3 DUP6 PUSH3 0x9B3 JUMP JUMPDEST POP SWAP4 SWAP3 POP POP POP JUMP JUMPDEST PUSH1 0x0 DUP2 MLOAD SWAP1 POP PUSH3 0x5EF DUP2 PUSH3 0xA98 JUMP JUMPDEST SWAP3 SWAP2 POP POP JUMP JUMPDEST PUSH1 0x0 DUP3 PUSH1 0x1F DUP4 ADD SLT PUSH3 0x607 JUMPI PUSH1 0x0 DUP1 REVERT JUMPDEST DUP2 MLOAD PUSH3 0x619 DUP5 DUP3 PUSH1 0x20 DUP7 ADD PUSH3 0x599 JUMP JUMPDEST SWAP2 POP POP SWAP3 SWAP2 POP POP JUMP JUMPDEST PUSH1 0x0 DUP1 PUSH1 0x0 PUSH1 0x60 DUP5 DUP7 SUB SLT ISZERO PUSH3 0x638 JUMPI PUSH1 0x0 DUP1 REVERT JUMPDEST PUSH1 0x0 DUP5 ADD MLOAD PUSH8 0xFFFFFFFFFFFFFFFF DUP2 GT ISZERO PUSH3 0x653 JUMPI PUSH1 0x0 DUP1 REVERT JUMPDEST PUSH3 0x661 DUP7 DUP3 DUP8 ADD PUSH3 0x5F5 JUMP JUMPDEST SWAP4 POP POP PUSH1 0x20 DUP5 ADD MLOAD PUSH8 0xFFFFFFFFFFFFFFFF DUP2 GT ISZERO PUSH3 0x67F JUMPI PUSH1 0x0 DUP1 REVERT JUMPDEST PUSH3 0x68D DUP7 DUP3 DUP8 ADD PUSH3 0x5F5 JUMP JUMPDEST SWAP3 POP POP PUSH1 0x40 PUSH3 0x6A0 DUP7 DUP3 DUP8 ADD PUSH3 0x5DE JUMP JUMPDEST SWAP2 POP POP SWAP3 POP SWAP3 POP SWAP3 JUMP JUMPDEST PUSH3 0x6BF PUSH3 0x6B9 DUP3 PUSH3 0x967 JUMP JUMPDEST PUSH3 0xA1F JUMP JUMPDEST DUP3 MSTORE POP POP JUMP JUMPDEST PUSH1 0x0 PUSH3 0x6D2 DUP3 PUSH3 0x926 JUMP JUMPDEST PUSH3 0x6DE DUP2 DUP6 PUSH3 0x931 JUMP JUMPDEST SWAP4 POP PUSH3 0x6F0 DUP2 DUP6 PUSH1 0x20 DUP7 ADD PUSH3 0x9B3 JUMP JUMPDEST PUSH3 0x6FB DUP2 PUSH3 0xA87 JUMP JUMPDEST DUP5 ADD SWAP2 POP POP SWAP3 SWAP2 POP POP JUMP JUMPDEST PUSH1 0x0 PUSH3 0x715 PUSH1 0x29 DUP4 PUSH3 0x942 JUMP JUMPDEST SWAP2 POP PUSH32 0x4F776E61626C653A206F776E65722063616E206F6E6C7920626520696E697469 PUSH1 0x0 DUP4 ADD MSTORE PUSH32 0x61746564206F6E63650000000000000000000000000000000000000000000000 PUSH1 0x20 DUP4 ADD MSTORE PUSH1 0x40 DUP3 ADD SWAP1 POP SWAP2 SWAP1 POP JUMP JUMPDEST PUSH1 0x0 PUSH3 0x77D PUSH1 0x1C DUP4 PUSH3 0x942 JUMP JUMPDEST SWAP2 POP PUSH32 0x4552433136353A20696E76616C696420696E7465726661636520696400000000 PUSH1 0x0 DUP4 ADD MSTORE PUSH1 0x20 DUP3 ADD SWAP1 POP SWAP2 SWAP1 POP JUMP JUMPDEST PUSH1 0x0 PUSH3 0x7BF PUSH1 0x28 DUP4 PUSH3 0x942 JUMP JUMPDEST SWAP2 POP PUSH32 0x4C535037436170706564537570706C793A20746F6B656E537570706C79436170 PUSH1 0x0 DUP4 ADD MSTORE PUSH32 0x206973207A65726F000000000000000000000000000000000000000000000000 PUSH1 0x20 DUP4 ADD MSTORE PUSH1 0x40 DUP3 ADD SWAP1 POP SWAP2 SWAP1 POP JUMP JUMPDEST PUSH1 0x0 PUSH3 0x826 DUP3 DUP5 PUSH3 0x6AA JUMP JUMPDEST PUSH1 0x4 DUP3 ADD SWAP2 POP DUP2 SWAP1 POP SWAP3 SWAP2 POP POP JUMP JUMPDEST PUSH1 0x0 PUSH1 0x20 DUP3 ADD SWAP1 POP DUP2 DUP2 SUB PUSH1 0x0 DUP4 ADD MSTORE PUSH3 0x851 DUP2 DUP5 PUSH3 0x6C5 JUMP JUMPDEST SWAP1 POP SWAP3 SWAP2 POP POP JUMP JUMPDEST PUSH1 0x0 PUSH1 0x20 DUP3 ADD SWAP1 POP DUP2 DUP2 SUB PUSH1 0x0 DUP4 ADD MSTORE PUSH3 0x874 DUP2 PUSH3 0x706 JUMP JUMPDEST SWAP1 POP SWAP2 SWAP1 POP JUMP JUMPDEST PUSH1 0x0 PUSH1 0x20 DUP3 ADD SWAP1 POP DUP2 DUP2 SUB PUSH1 0x0 DUP4 ADD MSTORE PUSH3 0x896 DUP2 PUSH3 0x76E JUMP JUMPDEST SWAP1 POP SWAP2 SWAP1 POP JUMP JUMPDEST PUSH1 0x0 PUSH1 0x20 DUP3 ADD SWAP1 POP DUP2 DUP2 SUB PUSH1 0x0 DUP4 ADD MSTORE PUSH3 0x8B8 DUP2 PUSH3 0x7B0 JUMP JUMPDEST SWAP1 POP SWAP2 SWAP1 POP JUMP JUMPDEST PUSH1 0x0 PUSH1 0x40 MLOAD SWAP1 POP DUP2 DUP2 ADD DUP2 DUP2 LT PUSH8 0xFFFFFFFFFFFFFFFF DUP3 GT OR ISZERO PUSH3 0x8E9 JUMPI PUSH3 0x8E8 PUSH3 0xA58 JUMP JUMPDEST JUMPDEST DUP1 PUSH1 0x40 MSTORE POP SWAP2 SWAP1 POP JUMP JUMPDEST PUSH1 0x0 PUSH8 0xFFFFFFFFFFFFFFFF DUP3 GT ISZERO PUSH3 0x911 JUMPI PUSH3 0x910 PUSH3 0xA58 JUMP JUMPDEST JUMPDEST PUSH1 0x1F NOT PUSH1 0x1F DUP4 ADD AND SWAP1 POP PUSH1 0x20 DUP2 ADD SWAP1 POP SWAP2 SWAP1 POP JUMP JUMPDEST PUSH1 0x0 DUP2 MLOAD SWAP1 POP SWAP2 SWAP1 POP JUMP JUMPDEST PUSH1 0x0 DUP3 DUP3 MSTORE PUSH1 0x20 DUP3 ADD SWAP1 POP SWAP3 SWAP2 POP POP JUMP JUMPDEST PUSH1 0x0 DUP3 DUP3 MSTORE PUSH1 0x20 DUP3 ADD SWAP1 POP SWAP3 SWAP2 POP POP JUMP JUMPDEST PUSH1 0x0 PUSH3 0x960 DUP3 PUSH3 0x993 JUMP JUMPDEST SWAP1 POP SWAP2 SWAP1 POP JUMP JUMPDEST PUSH1 0x0 PUSH32 0xFFFFFFFF00000000000000000000000000000000000000000000000000000000 DUP3 AND SWAP1 POP SWAP2 SWAP1 POP JUMP JUMPDEST PUSH1 0x0 PUSH20 0xFFFFFFFFFFFFFFFFFFFFFFFFFFFFFFFFFFFFFFFF DUP3 AND SWAP1 POP SWAP2 SWAP1 POP JUMP JUMPDEST PUSH1 0x0 JUMPDEST DUP4 DUP2 LT ISZERO PUSH3 0x9D3 JUMPI DUP1 DUP3 ADD MLOAD DUP2 DUP5 ADD MSTORE PUSH1 0x20 DUP2 ADD SWAP1 POP PUSH3 0x9B6 JUMP JUMPDEST DUP4 DUP2 GT ISZERO PUSH3 0x9E3 JUMPI PUSH1 0x0 DUP5 DUP5 ADD MSTORE JUMPDEST POP POP POP POP JUMP JUMPDEST PUSH1 0x0 PUSH1 0x2 DUP3 DIV SWAP1 POP PUSH1 0x1 DUP3 AND DUP1 PUSH3 0xA02 JUMPI PUSH1 0x7F DUP3 AND SWAP2 POP JUMPDEST PUSH1 0x20 DUP3 LT DUP2 EQ ISZERO PUSH3 0xA19 JUMPI PUSH3 0xA18 PUSH3 0xA29 JUMP JUMPDEST JUMPDEST POP SWAP2 SWAP1 POP JUMP JUMPDEST PUSH1 0x0 DUP2 SWAP1 POP SWAP2 SWAP1 POP JUMP JUMPDEST PUSH32 0x4E487B7100000000000000000000000000000000000000000000000000000000 PUSH1 0x0 MSTORE PUSH1 0x22 PUSH1 0x4 MSTORE PUSH1 0x24 PUSH1 0x0 REVERT JUMPDEST PUSH32 0x4E487B7100000000000000000000000000000000000000000000000000000000 PUSH1 0x0 MSTORE PUSH1 0x41 PUSH1 0x4 MSTORE PUSH1 0x24 PUSH1 0x0 REVERT JUMPDEST PUSH1 0x0 PUSH1 0x1F NOT PUSH1 0x1F DUP4 ADD AND SWAP1 POP SWAP2 SWAP1 POP JUMP JUMPDEST PUSH3 0xAA3 DUP2 PUSH3 0x953 JUMP JUMPDEST DUP2 EQ PUSH3 0xAAF JUMPI PUSH1 0x0 DUP1 REVERT JUMPDEST POP JUMP JUMPDEST PUSH2 0x3C78 DUP1 PUSH3 0xAC2 PUSH1 0x0 CODECOPY PUSH1 0x0 RETURN INVALID PUSH1 0x80 PUSH1 0x40 MSTORE CALLVALUE DUP1 ISZERO PUSH2 0x10 JUMPI PUSH1 0x0 DUP1 REVERT JUMPDEST POP PUSH1 0x4 CALLDATASIZE LT PUSH2 0x12C JUMPI PUSH1 0x0 CALLDATALOAD PUSH1 0xE0 SHR DUP1 PUSH4 0x760D9BBA GT PUSH2 0xAD JUMPI DUP1 PUSH4 0xD95B6371 GT PUSH2 0x71 JUMPI DUP1 PUSH4 0xD95B6371 EQ PUSH2 0x307 JUMPI DUP1 PUSH4 0xE0FDA796 EQ PUSH2 0x337 JUMPI DUP1 PUSH4 0xE9893C67 EQ PUSH2 0x353 JUMPI DUP1 PUSH4 0xF2FDE38B EQ PUSH2 0x371 JUMPI DUP1 PUSH4 0xFAD8B32A EQ PUSH2 0x38D JUMPI PUSH2 0x12C JUMP JUMPDEST DUP1 PUSH4 0x760D9BBA EQ PUSH2 0x279 JUMPI DUP1 PUSH4 0x8DA5CB5B EQ PUSH2 0x295 JUMPI DUP1 PUSH4 0xA8A34E0A EQ PUSH2 0x2B3 JUMPI DUP1 PUSH4 0xBE399BE5 EQ PUSH2 0x2CF JUMPI DUP1 PUSH4 0xD2706C19 EQ PUSH2 0x2EB JUMPI PUSH2 0x12C JUMP JUMPDEST DUP1 PUSH4 0x47980AA3 GT PUSH2 0xF4 JUMPI DUP1 PUSH4 0x47980AA3 EQ PUSH2 0x1D5 JUMPI DUP1 PUSH4 0x4E3E6E9C EQ PUSH2 0x1F1 JUMPI DUP1 PUSH4 0x52058D8A EQ PUSH2 0x221 JUMPI DUP1 PUSH4 0x70A08231 EQ PUSH2 0x23F JUMPI DUP1 PUSH4 0x715018A6 EQ PUSH2 0x26F JUMPI PUSH2 0x12C JUMP JUMPDEST DUP1 PUSH4 0x1FFC9A7 EQ PUSH2 0x131 JUMPI DUP1 PUSH4 0x14A6E293 EQ PUSH2 0x161 JUMPI DUP1 PUSH4 0x18160DDD EQ PUSH2 0x17D JUMPI DUP1 PUSH4 0x1E9A6950 EQ PUSH2 0x19B JUMPI DUP1 PUSH4 0x313CE567 EQ PUSH2 0x1B7 JUMPI JUMPDEST PUSH1 0x0 DUP1 REVERT JUMPDEST PUSH2 0x14B PUSH1 0x4 DUP1 CALLDATASIZE SUB DUP2 ADD SWAP1 PUSH2 0x146 SWAP2 SWAP1 PUSH2 0x295B JUMP JUMPDEST PUSH2 0x3A9 JUMP JUMPDEST PUSH1 0x40 MLOAD PUSH2 0x158 SWAP2 SWAP1 PUSH2 0x343D JUMP JUMPDEST PUSH1 0x40 MLOAD DUP1 SWAP2 SUB SWAP1 RETURN JUMPDEST PUSH2 0x17B PUSH1 0x4 DUP1 CALLDATASIZE SUB DUP2 ADD SWAP1 PUSH2 0x176 SWAP2 SWAP1 PUSH2 0x28C6 JUMP JUMPDEST PUSH2 0x421 JUMP JUMPDEST STOP JUMPDEST PUSH2 0x185 PUSH2 0x58F JUMP JUMPDEST PUSH1 0x40 MLOAD PUSH2 0x192 SWAP2 SWAP1 PUSH2 0x3745 JUMP JUMPDEST PUSH1 0x40 MLOAD DUP1 SWAP2 SUB SWAP1 RETURN JUMPDEST PUSH2 0x1B5 PUSH1 0x4 DUP1 CALLDATASIZE SUB DUP2 ADD SWAP1 PUSH2 0x1B0 SWAP2 SWAP1 PUSH2 0x2772 JUMP JUMPDEST PUSH2 0x599 JUMP JUMPDEST STOP JUMPDEST PUSH2 0x1BF PUSH2 0x616 JUMP JUMPDEST PUSH1 0x40 MLOAD PUSH2 0x1CC SWAP2 SWAP1 PUSH2 0x3745 JUMP JUMPDEST PUSH1 0x40 MLOAD DUP1 SWAP2 SUB SWAP1 RETURN JUMPDEST PUSH2 0x1EF PUSH1 0x4 DUP1 CALLDATASIZE SUB DUP2 ADD SWAP1 PUSH2 0x1EA SWAP2 SWAP1 PUSH2 0x2772 JUMP JUMPDEST PUSH2 0x63E JUMP JUMPDEST STOP JUMPDEST PUSH2 0x20B PUSH1 0x4 DUP1 CALLDATASIZE SUB DUP2 ADD SWAP1 PUSH2 0x206 SWAP2 SWAP1 PUSH2 0x2885 JUMP JUMPDEST PUSH2 0x654 JUMP JUMPDEST PUSH1 0x40 MLOAD PUSH2 0x218 SWAP2 SWAP1 PUSH2 0x341B JUMP JUMPDEST PUSH1 0x40 MLOAD DUP1 SWAP2 SUB SWAP1 RETURN JUMPDEST PUSH2 0x229 PUSH2 0x77F JUMP JUMPDEST PUSH1 0x40 MLOAD PUSH2 0x236 SWAP2 SWAP1 PUSH2 0x3745 JUMP JUMPDEST PUSH1 0x40 MLOAD DUP1 SWAP2 SUB SWAP1 RETURN JUMPDEST PUSH2 0x259 PUSH1 0x4 DUP1 CALLDATASIZE SUB DUP2 ADD SWAP1 PUSH2 0x254 SWAP2 SWAP1 PUSH2 0x267E JUMP JUMPDEST PUSH2 0x789 JUMP JUMPDEST PUSH1 0x40 MLOAD PUSH2 0x266 SWAP2 SWAP1 PUSH2 0x3745 JUMP JUMPDEST PUSH1 0x40 MLOAD DUP1 SWAP2 SUB SWAP1 RETURN JUMPDEST PUSH2 0x277 PUSH2 0x7D2 JUMP JUMPDEST STOP JUMPDEST PUSH2 0x293 PUSH1 0x4 DUP1 CALLDATASIZE SUB DUP2 ADD SWAP1 PUSH2 0x28E SWAP2 SWAP1 PUSH2 0x26E3 JUMP JUMPDEST PUSH2 0x85A JUMP JUMPDEST STOP JUMPDEST PUSH2 0x29D PUSH2 0xA06 JUMP JUMPDEST PUSH1 0x40 MLOAD PUSH2 0x2AA SWAP2 SWAP1 PUSH2 0x33A0 JUMP JUMPDEST PUSH1 0x40 MLOAD DUP1 SWAP2 SUB SWAP1 RETURN JUMPDEST PUSH2 0x2CD PUSH1 0x4 DUP1 CALLDATASIZE SUB DUP2 ADD SWAP1 PUSH2 0x2C8 SWAP2 SWAP1 PUSH2 0x27AE JUMP JUMPDEST PUSH2 0xA2F JUMP JUMPDEST STOP JUMPDEST PUSH2 0x2E9 PUSH1 0x4 DUP1 CALLDATASIZE SUB DUP2 ADD SWAP1 PUSH2 0x2E4 SWAP2 SWAP1 PUSH2 0x267E JUMP JUMPDEST PUSH2 0xBC1 JUMP JUMPDEST STOP JUMPDEST PUSH2 0x305 PUSH1 0x4 DUP1 CALLDATASIZE SUB DUP2 ADD SWAP1 PUSH2 0x300 SWAP2 SWAP1 PUSH2 0x29C5 JUMP JUMPDEST PUSH2 0xBD6 JUMP JUMPDEST STOP JUMPDEST PUSH2 0x321 PUSH1 0x4 DUP1 CALLDATASIZE SUB DUP2 ADD SWAP1 PUSH2 0x31C SWAP2 SWAP1 PUSH2 0x26A7 JUMP JUMPDEST PUSH2 0xC55 JUMP JUMPDEST PUSH1 0x40 MLOAD PUSH2 0x32E SWAP2 SWAP1 PUSH2 0x3745 JUMP JUMPDEST PUSH1 0x40 MLOAD DUP1 SWAP2 SUB SWAP1 RETURN JUMPDEST PUSH2 0x351 PUSH1 0x4 DUP1 CALLDATASIZE SUB DUP2 ADD SWAP1 PUSH2 0x34C SWAP2 SWAP1 PUSH2 0x26A7 JUMP JUMPDEST PUSH2 0xD58 JUMP JUMPDEST STOP JUMPDEST PUSH2 0x35B PUSH2 0xE96 JUMP JUMPDEST PUSH1 0x40 MLOAD PUSH2 0x368 SWAP2 SWAP1 PUSH2 0x3745 JUMP JUMPDEST PUSH1 0x40 MLOAD DUP1 SWAP2 SUB SWAP1 RETURN JUMPDEST PUSH2 0x38B PUSH1 0x4 DUP1 CALLDATASIZE SUB DUP2 ADD SWAP1 PUSH2 0x386 SWAP2 SWAP1 PUSH2 0x267E JUMP JUMPDEST PUSH2 0xE9C JUMP JUMPDEST STOP JUMPDEST PUSH2 0x3A7 PUSH1 0x4 DUP1 CALLDATASIZE SUB DUP2 ADD SWAP1 PUSH2 0x3A2 SWAP2 SWAP1 PUSH2 0x267E JUMP JUMPDEST PUSH2 0xF94 JUMP JUMPDEST STOP JUMPDEST PUSH1 0x0 PUSH2 0x3B4 DUP3 PUSH2 0x1021 JUMP JUMPDEST DUP1 PUSH2 0x41A JUMPI POP PUSH1 0x1 PUSH1 0x0 DUP4 PUSH28 0xFFFFFFFFFFFFFFFFFFFFFFFFFFFFFFFFFFFFFFFFFFFFFFFFFFFFFFFF NOT AND PUSH28 0xFFFFFFFFFFFFFFFFFFFFFFFFFFFFFFFFFFFFFFFFFFFFFFFFFFFFFFFF NOT AND DUP2 MSTORE PUSH1 0x20 ADD SWAP1 DUP2 MSTORE PUSH1 0x20 ADD PUSH1 0x0 KECCAK256 PUSH1 0x0 SWAP1 SLOAD SWAP1 PUSH2 0x100 EXP SWAP1 DIV PUSH1 0xFF AND JUMPDEST SWAP1 POP SWAP2 SWAP1 POP JUMP JUMPDEST PUSH2 0x429 PUSH2 0x108B JUMP JUMPDEST PUSH20 0xFFFFFFFFFFFFFFFFFFFFFFFFFFFFFFFFFFFFFFFF AND PUSH2 0x447 PUSH2 0xA06 JUMP JUMPDEST PUSH20 0xFFFFFFFFFFFFFFFFFFFFFFFFFFFFFFFFFFFFFFFF AND EQ PUSH2 0x49D JUMPI PUSH1 0x40 MLOAD PUSH32 0x8C379A000000000000000000000000000000000000000000000000000000000 DUP2 MSTORE PUSH1 0x4 ADD PUSH2 0x494 SWAP1 PUSH2 0x3665 JUMP JUMPDEST PUSH1 0x40 MLOAD DUP1 SWAP2 SUB SWAP1 REVERT JUMPDEST DUP1 MLOAD DUP3 MLOAD EQ PUSH2 0x4E1 JUMPI PUSH1 0x40 MLOAD PUSH32 0x8C379A000000000000000000000000000000000000000000000000000000000 DUP2 MSTORE PUSH1 0x4 ADD PUSH2 0x4D8 SWAP1 PUSH2 0x3705 JUMP JUMPDEST PUSH1 0x40 MLOAD DUP1 SWAP2 SUB SWAP1 REVERT JUMPDEST PUSH1 0x0 JUMPDEST DUP3 MLOAD DUP2 LT ISZERO PUSH2 0x58A JUMPI PUSH2 0x577 DUP4 DUP3 DUP2 MLOAD DUP2 LT PUSH2 0x529 JUMPI PUSH32 0x4E487B7100000000000000000000000000000000000000000000000000000000 PUSH1 0x0 MSTORE PUSH1 0x32 PUSH1 0x4 MSTORE PUSH1 0x24 PUSH1 0x0 REVERT JUMPDEST PUSH1 0x20 MUL PUSH1 0x20 ADD ADD MLOAD DUP4 DUP4 DUP2 MLOAD DUP2 LT PUSH2 0x56A JUMPI PUSH32 0x4E487B7100000000000000000000000000000000000000000000000000000000 PUSH1 0x0 MSTORE PUSH1 0x32 PUSH1 0x4 MSTORE PUSH1 0x24 PUSH1 0x0 REVERT JUMPDEST PUSH1 0x20 MUL PUSH1 0x20 ADD ADD MLOAD PUSH2 0x1093 JUMP JUMPDEST DUP1 DUP1 PUSH2 0x582 SWAP1 PUSH2 0x3AAD JUMP JUMPDEST SWAP2 POP POP PUSH2 0x4E4 JUMP JUMPDEST POP POP POP JUMP JUMPDEST PUSH1 0x0 PUSH1 0x4 SLOAD SWAP1 POP SWAP1 JUMP JUMPDEST PUSH2 0x5D9 DUP3 DUP3 PUSH1 0x40 MLOAD DUP1 PUSH1 0x40 ADD PUSH1 0x40 MSTORE DUP1 PUSH1 0x6 DUP2 MSTORE PUSH1 0x20 ADD PUSH32 0x72656465656D0000000000000000000000000000000000000000000000000000 DUP2 MSTORE POP PUSH2 0x10F7 JUMP JUMPDEST PUSH32 0x4896181FF8F4543CC00DB9FE9B6FB7E6F032B7EB772C72AB1EC1B4D2E03B9369 DUP3 DUP3 PUSH1 0x40 MLOAD PUSH2 0x60A SWAP3 SWAP2 SWAP1 PUSH2 0x33F2 JUMP JUMPDEST PUSH1 0x40 MLOAD DUP1 SWAP2 SUB SWAP1 LOG1 POP POP JUMP JUMPDEST PUSH1 0x0 PUSH1 0x3 PUSH1 0x0 SWAP1 SLOAD SWAP1 PUSH2 0x100 EXP SWAP1 DIV PUSH1 0xFF AND PUSH2 0x633 JUMPI PUSH1 0x12 PUSH2 0x636 JUMP JUMPDEST PUSH1 0x0 JUMPDEST PUSH1 0xFF AND SWAP1 POP SWAP1 JUMP JUMPDEST PUSH2 0x650 PUSH2 0x649 PUSH2 0x108B JUMP JUMPDEST DUP4 DUP4 PUSH2 0x1472 JUMP JUMPDEST POP POP JUMP JUMPDEST PUSH1 0x60 DUP2 MLOAD PUSH8 0xFFFFFFFFFFFFFFFF DUP2 GT ISZERO PUSH2 0x697 JUMPI PUSH32 0x4E487B7100000000000000000000000000000000000000000000000000000000 PUSH1 0x0 MSTORE PUSH1 0x41 PUSH1 0x4 MSTORE PUSH1 0x24 PUSH1 0x0 REVERT JUMPDEST PUSH1 0x40 MLOAD SWAP1 DUP1 DUP3 MSTORE DUP1 PUSH1 0x20 MUL PUSH1 0x20 ADD DUP3 ADD PUSH1 0x40 MSTORE DUP1 ISZERO PUSH2 0x6CA JUMPI DUP2 PUSH1 0x20 ADD JUMPDEST PUSH1 0x60 DUP2 MSTORE PUSH1 0x20 ADD SWAP1 PUSH1 0x1 SWAP1 SUB SWAP1 DUP2 PUSH2 0x6B5 JUMPI SWAP1 POP JUMPDEST POP SWAP1 POP PUSH1 0x0 JUMPDEST DUP3 MLOAD DUP2 LT ISZERO PUSH2 0x779 JUMPI PUSH2 0x722 DUP4 DUP3 DUP2 MLOAD DUP2 LT PUSH2 0x715 JUMPI PUSH32 0x4E487B7100000000000000000000000000000000000000000000000000000000 PUSH1 0x0 MSTORE PUSH1 0x32 PUSH1 0x4 MSTORE PUSH1 0x24 PUSH1 0x0 REVERT JUMPDEST PUSH1 0x20 MUL PUSH1 0x20 ADD ADD MLOAD PUSH2 0x170B JUMP JUMPDEST DUP3 DUP3 DUP2 MLOAD DUP2 LT PUSH2 0x75B JUMPI PUSH32 0x4E487B7100000000000000000000000000000000000000000000000000000000 PUSH1 0x0 MSTORE PUSH1 0x32 PUSH1 0x4 MSTORE PUSH1 0x24 PUSH1 0x0 REVERT JUMPDEST PUSH1 0x20 MUL PUSH1 0x20 ADD ADD DUP2 SWAP1 MSTORE POP DUP1 DUP1 PUSH2 0x771 SWAP1 PUSH2 0x3AAD JUMP JUMPDEST SWAP2 POP POP PUSH2 0x6D0 JUMP JUMPDEST POP SWAP2 SWAP1 POP JUMP JUMPDEST PUSH1 0x0 PUSH1 0x7 SLOAD SWAP1 POP SWAP1 JUMP JUMPDEST PUSH1 0x0 PUSH1 0x5 PUSH1 0x0 DUP4 PUSH20 0xFFFFFFFFFFFFFFFFFFFFFFFFFFFFFFFFFFFFFFFF AND PUSH20 0xFFFFFFFFFFFFFFFFFFFFFFFFFFFFFFFFFFFFFFFF AND DUP2 MSTORE PUSH1 0x20 ADD SWAP1 DUP2 MSTORE PUSH1 0x20 ADD PUSH1 0x0 KECCAK256 SLOAD SWAP1 POP SWAP2 SWAP1 POP JUMP JUMPDEST PUSH2 0x7DA PUSH2 0x108B JUMP JUMPDEST PUSH20 0xFFFFFFFFFFFFFFFFFFFFFFFFFFFFFFFFFFFFFFFF AND PUSH2 0x7F8 PUSH2 0xA06 JUMP JUMPDEST PUSH20 0xFFFFFFFFFFFFFFFFFFFFFFFFFFFFFFFFFFFFFFFF AND EQ PUSH2 0x84E JUMPI PUSH1 0x40 MLOAD PUSH32 0x8C379A000000000000000000000000000000000000000000000000000000000 DUP2 MSTORE PUSH1 0x4 ADD PUSH2 0x845 SWAP1 PUSH2 0x3665 JUMP JUMPDEST PUSH1 0x40 MLOAD DUP1 SWAP2 SUB SWAP1 REVERT JUMPDEST PUSH2 0x858 PUSH1 0x0 PUSH2 0x17B0 JUMP JUMPDEST JUMP JUMPDEST PUSH1 0x0 PUSH2 0x864 PUSH2 0x108B JUMP JUMPDEST SWAP1 POP DUP6 PUSH20 0xFFFFFFFFFFFFFFFFFFFFFFFFFFFFFFFFFFFFFFFF AND DUP2 PUSH20 0xFFFFFFFFFFFFFFFFFFFFFFFFFFFFFFFFFFFFFFFF AND EQ PUSH2 0x9F1 JUMPI PUSH1 0x0 PUSH1 0x6 PUSH1 0x0 DUP9 PUSH20 0xFFFFFFFFFFFFFFFFFFFFFFFFFFFFFFFFFFFFFFFF AND PUSH20 0xFFFFFFFFFFFFFFFFFFFFFFFFFFFFFFFFFFFFFFFF AND DUP2 MSTORE PUSH1 0x20 ADD SWAP1 DUP2 MSTORE PUSH1 0x20 ADD PUSH1 0x0 KECCAK256 PUSH1 0x0 DUP4 PUSH20 0xFFFFFFFFFFFFFFFFFFFFFFFFFFFFFFFFFFFFFFFF AND PUSH20 0xFFFFFFFFFFFFFFFFFFFFFFFFFFFFFFFFFFFFFFFF AND DUP2 MSTORE PUSH1 0x20 ADD SWAP1 DUP2 MSTORE PUSH1 0x20 ADD PUSH1 0x0 KECCAK256 SLOAD SWAP1 POP DUP5 DUP2 LT ISZERO PUSH2 0x95D JUMPI PUSH1 0x40 MLOAD PUSH32 0x8C379A000000000000000000000000000000000000000000000000000000000 DUP2 MSTORE PUSH1 0x4 ADD PUSH2 0x954 SWAP1 PUSH2 0x3505 JUMP JUMPDEST PUSH1 0x40 MLOAD DUP1 SWAP2 SUB SWAP1 REVERT JUMPDEST PUSH2 0x9EF DUP8 DUP4 DUP8 PUSH1 0x6 PUSH1 0x0 DUP13 PUSH20 0xFFFFFFFFFFFFFFFFFFFFFFFFFFFFFFFFFFFFFFFF AND PUSH20 0xFFFFFFFFFFFFFFFFFFFFFFFFFFFFFFFFFFFFFFFF AND DUP2 MSTORE PUSH1 0x20 ADD SWAP1 DUP2 MSTORE PUSH1 0x20 ADD PUSH1 0x0 KECCAK256 PUSH1 0x0 DUP8 PUSH20 0xFFFFFFFFFFFFFFFFFFFFFFFFFFFFFFFFFFFFFFFF AND PUSH20 0xFFFFFFFFFFFFFFFFFFFFFFFFFFFFFFFFFFFFFFFF AND DUP2 MSTORE PUSH1 0x20 ADD SWAP1 DUP2 MSTORE PUSH1 0x20 ADD PUSH1 0x0 KECCAK256 SLOAD PUSH2 0x9EA SWAP2 SWAP1 PUSH2 0x3987 JUMP JUMPDEST PUSH2 0x1472 JUMP JUMPDEST POP JUMPDEST PUSH2 0x9FE DUP7 DUP7 DUP7 DUP7 DUP7 PUSH2 0x1874 JUMP JUMPDEST POP POP POP POP POP POP JUMP JUMPDEST PUSH1 0x0 DUP1 PUSH1 0x0 SWAP1 SLOAD SWAP1 PUSH2 0x100 EXP SWAP1 DIV PUSH20 0xFFFFFFFFFFFFFFFFFFFFFFFFFFFFFFFFFFFFFFFF AND SWAP1 POP SWAP1 JUMP JUMPDEST DUP4 MLOAD DUP6 MLOAD EQ DUP1 ISZERO PUSH2 0xA41 JUMPI POP DUP3 MLOAD DUP6 MLOAD EQ JUMPDEST DUP1 ISZERO PUSH2 0xA4E JUMPI POP DUP1 MLOAD DUP6 MLOAD EQ JUMPDEST PUSH2 0xA8D JUMPI PUSH1 0x40 MLOAD PUSH32 0x8C379A000000000000000000000000000000000000000000000000000000000 DUP2 MSTORE PUSH1 0x4 ADD PUSH2 0xA84 SWAP1 PUSH2 0x3525 JUMP JUMPDEST PUSH1 0x40 MLOAD DUP1 SWAP2 SUB SWAP1 REVERT JUMPDEST PUSH1 0x0 JUMPDEST DUP6 MLOAD DUP2 LT ISZERO PUSH2 0xBB9 JUMPI PUSH2 0xBA6 DUP7 DUP3 DUP2 MLOAD DUP2 LT PUSH2 0xAD5 JUMPI PUSH32 0x4E487B7100000000000000000000000000000000000000000000000000000000 PUSH1 0x0 MSTORE PUSH1 0x32 PUSH1 0x4 MSTORE PUSH1 0x24 PUSH1 0x0 REVERT JUMPDEST PUSH1 0x20 MUL PUSH1 0x20 ADD ADD MLOAD DUP7 DUP4 DUP2 MLOAD DUP2 LT PUSH2 0xB16 JUMPI PUSH32 0x4E487B7100000000000000000000000000000000000000000000000000000000 PUSH1 0x0 MSTORE PUSH1 0x32 PUSH1 0x4 MSTORE PUSH1 0x24 PUSH1 0x0 REVERT JUMPDEST PUSH1 0x20 MUL PUSH1 0x20 ADD ADD MLOAD DUP7 DUP5 DUP2 MLOAD DUP2 LT PUSH2 0xB57 JUMPI PUSH32 0x4E487B7100000000000000000000000000000000000000000000000000000000 PUSH1 0x0 MSTORE PUSH1 0x32 PUSH1 0x4 MSTORE PUSH1 0x24 PUSH1 0x0 REVERT JUMPDEST PUSH1 0x20 MUL PUSH1 0x20 ADD ADD MLOAD DUP7 DUP7 DUP7 DUP2 MLOAD DUP2 LT PUSH2 0xB99 JUMPI PUSH32 0x4E487B7100000000000000000000000000000000000000000000000000000000 PUSH1 0x0 MSTORE PUSH1 0x32 PUSH1 0x4 MSTORE PUSH1 0x24 PUSH1 0x0 REVERT JUMPDEST PUSH1 0x20 MUL PUSH1 0x20 ADD ADD MLOAD PUSH2 0x85A JUMP JUMPDEST DUP1 DUP1 PUSH2 0xBB1 SWAP1 PUSH2 0x3AAD JUMP JUMPDEST SWAP2 POP POP PUSH2 0xA90 JUMP JUMPDEST POP POP POP POP POP POP JUMP JUMPDEST PUSH2 0xBD3 DUP2 PUSH2 0xBCE DUP4 PUSH2 0x789 JUMP JUMPDEST PUSH2 0x599 JUMP JUMPDEST POP JUMP JUMPDEST CALLER PUSH20 0xFFFFFFFFFFFFFFFFFFFFFFFFFFFFFFFFFFFFFFFF AND PUSH2 0xBF5 PUSH2 0xA06 JUMP JUMPDEST PUSH20 0xFFFFFFFFFFFFFFFFFFFFFFFFFFFFFFFFFFFFFFFF AND EQ PUSH2 0xC4B JUMPI PUSH1 0x40 MLOAD PUSH32 0x8C379A000000000000000000000000000000000000000000000000000000000 DUP2 MSTORE PUSH1 0x4 ADD PUSH2 0xC42 SWAP1 PUSH2 0x3625 JUMP JUMPDEST PUSH1 0x40 MLOAD DUP1 SWAP2 SUB SWAP1 REVERT JUMPDEST DUP1 PUSH1 0x8 DUP2 SWAP1 SSTORE POP POP JUMP JUMPDEST PUSH1 0x0 DUP3 PUSH20 0xFFFFFFFFFFFFFFFFFFFFFFFFFFFFFFFFFFFFFFFF AND DUP3 PUSH20 0xFFFFFFFFFFFFFFFFFFFFFFFFFFFFFFFFFFFFFFFF AND EQ ISZERO PUSH2 0xCD2 JUMPI PUSH1 0x5 PUSH1 0x0 DUP4 PUSH20 0xFFFFFFFFFFFFFFFFFFFFFFFFFFFFFFFFFFFFFFFF AND PUSH20 0xFFFFFFFFFFFFFFFFFFFFFFFFFFFFFFFFFFFFFFFF AND DUP2 MSTORE PUSH1 0x20 ADD SWAP1 DUP2 MSTORE PUSH1 0x20 ADD PUSH1 0x0 KECCAK256 SLOAD SWAP1 POP PUSH2 0xD52 JUMP JUMPDEST PUSH1 0x6 PUSH1 0x0 DUP4 PUSH20 0xFFFFFFFFFFFFFFFFFFFFFFFFFFFFFFFFFFFFFFFF AND PUSH20 0xFFFFFFFFFFFFFFFFFFFFFFFFFFFFFFFFFFFFFFFF AND DUP2 MSTORE PUSH1 0x20 ADD SWAP1 DUP2 MSTORE PUSH1 0x20 ADD PUSH1 0x0 KECCAK256 PUSH1 0x0 DUP5 PUSH20 0xFFFFFFFFFFFFFFFFFFFFFFFFFFFFFFFFFFFFFFFF AND PUSH20 0xFFFFFFFFFFFFFFFFFFFFFFFFFFFFFFFFFFFFFFFF AND DUP2 MSTORE PUSH1 0x20 ADD SWAP1 DUP2 MSTORE PUSH1 0x20 ADD PUSH1 0x0 KECCAK256 SLOAD SWAP1 POP JUMPDEST SWAP3 SWAP2 POP POP JUMP JUMPDEST CALLER PUSH20 0xFFFFFFFFFFFFFFFFFFFFFFFFFFFFFFFFFFFFFFFF AND PUSH2 0xD77 PUSH2 0xA06 JUMP JUMPDEST PUSH20 0xFFFFFFFFFFFFFFFFFFFFFFFFFFFFFFFFFFFFFFFF AND EQ PUSH2 0xDCD JUMPI PUSH1 0x40 MLOAD PUSH32 0x8C379A000000000000000000000000000000000000000000000000000000000 DUP2 MSTORE PUSH1 0x4 ADD PUSH2 0xDC4 SWAP1 PUSH2 0x3625 JUMP JUMPDEST PUSH1 0x40 MLOAD DUP1 SWAP2 SUB SWAP1 REVERT JUMPDEST PUSH2 0xE11 DUP3 PUSH1 0x8 SLOAD PUSH1 0x1 PUSH1 0x40 MLOAD DUP1 PUSH1 0x40 ADD PUSH1 0x40 MSTORE DUP1 PUSH1 0x5 DUP2 MSTORE PUSH1 0x20 ADD PUSH32 0x6177617264000000000000000000000000000000000000000000000000000000 DUP2 MSTORE POP PUSH2 0x1B3A JUMP JUMPDEST PUSH2 0xE55 DUP2 PUSH1 0x8 SLOAD PUSH1 0x1 PUSH1 0x40 MLOAD DUP1 PUSH1 0x40 ADD PUSH1 0x40 MSTORE DUP1 PUSH1 0x5 DUP2 MSTORE PUSH1 0x20 ADD PUSH32 0x6177617264000000000000000000000000000000000000000000000000000000 DUP2 MSTORE POP PUSH2 0x1B3A JUMP JUMPDEST PUSH32 0xE2554529D99AB7A67DB6B4CEA2B32C7D55AE325F958861E05F304FDDED867E31 DUP3 DUP3 PUSH1 0x8 SLOAD PUSH1 0x40 MLOAD PUSH2 0xE8A SWAP4 SWAP3 SWAP2 SWAP1 PUSH2 0x33BB JUMP JUMPDEST PUSH1 0x40 MLOAD DUP1 SWAP2 SUB SWAP1 LOG1 POP POP JUMP JUMPDEST PUSH1 0x8 SLOAD DUP2 JUMP JUMPDEST PUSH2 0xEA4 PUSH2 0x108B JUMP JUMPDEST PUSH20 0xFFFFFFFFFFFFFFFFFFFFFFFFFFFFFFFFFFFFFFFF AND PUSH2 0xEC2 PUSH2 0xA06 JUMP JUMPDEST PUSH20 0xFFFFFFFFFFFFFFFFFFFFFFFFFFFFFFFFFFFFFFFF AND EQ PUSH2 0xF18 JUMPI PUSH1 0x40 MLOAD PUSH32 0x8C379A000000000000000000000000000000000000000000000000000000000 DUP2 MSTORE PUSH1 0x4 ADD PUSH2 0xF0F SWAP1 PUSH2 0x3665 JUMP JUMPDEST PUSH1 0x40 MLOAD DUP1 SWAP2 SUB SWAP1 REVERT JUMPDEST PUSH1 0x0 PUSH20 0xFFFFFFFFFFFFFFFFFFFFFFFFFFFFFFFFFFFFFFFF AND DUP2 PUSH20 0xFFFFFFFFFFFFFFFFFFFFFFFFFFFFFFFFFFFFFFFF AND EQ ISZERO PUSH2 0xF88 JUMPI PUSH1 0x40 MLOAD PUSH32 0x8C379A000000000000000000000000000000000000000000000000000000000 DUP2 MSTORE PUSH1 0x4 ADD PUSH2 0xF7F SWAP1 PUSH2 0x3565 JUMP JUMPDEST PUSH1 0x40 MLOAD DUP1 SWAP2 SUB SWAP1 REVERT JUMPDEST PUSH2 0xF91 DUP2 PUSH2 0x17B0 JUMP JUMPDEST POP JUMP JUMPDEST PUSH2 0xFA7 PUSH2 0xF9F PUSH2 0x108B JUMP JUMPDEST DUP3 PUSH1 0x0 PUSH2 0x1472 JUMP JUMPDEST POP JUMP JUMPDEST PUSH1 0x0 PUSH1 0x14 SWAP1 SLOAD SWAP1 PUSH2 0x100 EXP SWAP1 DIV PUSH1 0xFF AND ISZERO PUSH2 0xFFA JUMPI PUSH1 0x40 MLOAD PUSH32 0x8C379A000000000000000000000000000000000000000000000000000000000 DUP2 MSTORE PUSH1 0x4 ADD PUSH2 0xFF1 SWAP1 PUSH2 0x3545 JUMP JUMPDEST PUSH1 0x40 MLOAD DUP1 SWAP2 SUB SWAP1 REVERT JUMPDEST PUSH1 0x1 PUSH1 0x0 PUSH1 0x14 PUSH2 0x100 EXP DUP2 SLOAD DUP2 PUSH1 0xFF MUL NOT AND SWAP1 DUP4 ISZERO ISZERO MUL OR SWAP1 SSTORE POP PUSH2 0x101E DUP2 PUSH2 0x17B0 JUMP JUMPDEST POP JUMP JUMPDEST PUSH1 0x0 PUSH32 0x1FFC9A700000000000000000000000000000000000000000000000000000000 PUSH28 0xFFFFFFFFFFFFFFFFFFFFFFFFFFFFFFFFFFFFFFFFFFFFFFFFFFFFFFFF NOT AND DUP3 PUSH28 0xFFFFFFFFFFFFFFFFFFFFFFFFFFFFFFFFFFFFFFFFFFFFFFFFFFFFFFFF NOT AND EQ SWAP1 POP SWAP2 SWAP1 POP JUMP JUMPDEST PUSH1 0x0 CALLER SWAP1 POP SWAP1 JUMP JUMPDEST DUP1 PUSH1 0x2 PUSH1 0x0 DUP5 DUP2 MSTORE PUSH1 0x20 ADD SWAP1 DUP2 MSTORE PUSH1 0x20 ADD PUSH1 0x0 KECCAK256 SWAP1 DUP1 MLOAD SWAP1 PUSH1 0x20 ADD SWAP1 PUSH2 0x10BA SWAP3 SWAP2 SWAP1 PUSH2 0x2244 JUMP JUMPDEST POP DUP2 PUSH32 0xECE574603820D07BC9B91F2A932BAADF4628AABCB8AFBA49776529C14A6104B2 DUP3 PUSH1 0x40 MLOAD PUSH2 0x10EB SWAP2 SWAP1 PUSH2 0x34A3 JUMP JUMPDEST PUSH1 0x40 MLOAD DUP1 SWAP2 SUB SWAP1 LOG2 POP POP JUMP JUMPDEST PUSH1 0x0 PUSH20 0xFFFFFFFFFFFFFFFFFFFFFFFFFFFFFFFFFFFFFFFF AND DUP4 PUSH20 0xFFFFFFFFFFFFFFFFFFFFFFFFFFFFFFFFFFFFFFFF AND EQ ISZERO PUSH2 0x1167 JUMPI PUSH1 0x40 MLOAD PUSH32 0x8C379A000000000000000000000000000000000000000000000000000000000 DUP2 MSTORE PUSH1 0x4 ADD PUSH2 0x115E SWAP1 PUSH2 0x36E5 JUMP JUMPDEST PUSH1 0x40 MLOAD DUP1 SWAP2 SUB SWAP1 REVERT JUMPDEST DUP2 PUSH1 0x5 PUSH1 0x0 DUP6 PUSH20 0xFFFFFFFFFFFFFFFFFFFFFFFFFFFFFFFFFFFFFFFF AND PUSH20 0xFFFFFFFFFFFFFFFFFFFFFFFFFFFFFFFFFFFFFFFF AND DUP2 MSTORE PUSH1 0x20 ADD SWAP1 DUP2 MSTORE PUSH1 0x20 ADD PUSH1 0x0 KECCAK256 SLOAD LT ISZERO PUSH2 0x11E9 JUMPI PUSH1 0x40 MLOAD PUSH32 0x8C379A000000000000000000000000000000000000000000000000000000000 DUP2 MSTORE PUSH1 0x4 ADD PUSH2 0x11E0 SWAP1 PUSH2 0x3725 JUMP JUMPDEST PUSH1 0x40 MLOAD DUP1 SWAP2 SUB SWAP1 REVERT JUMPDEST PUSH1 0x0 PUSH2 0x11F3 PUSH2 0x108B JUMP JUMPDEST SWAP1 POP DUP4 PUSH20 0xFFFFFFFFFFFFFFFFFFFFFFFFFFFFFFFFFFFFFFFF AND DUP2 PUSH20 0xFFFFFFFFFFFFFFFFFFFFFFFFFFFFFFFFFFFFFFFF AND EQ PUSH2 0x137B JUMPI DUP3 PUSH1 0x6 PUSH1 0x0 DUP7 PUSH20 0xFFFFFFFFFFFFFFFFFFFFFFFFFFFFFFFFFFFFFFFF AND PUSH20 0xFFFFFFFFFFFFFFFFFFFFFFFFFFFFFFFFFFFFFFFF AND DUP2 MSTORE PUSH1 0x20 ADD SWAP1 DUP2 MSTORE PUSH1 0x20 ADD PUSH1 0x0 KECCAK256 PUSH1 0x0 DUP4 PUSH20 0xFFFFFFFFFFFFFFFFFFFFFFFFFFFFFFFFFFFFFFFF AND PUSH20 0xFFFFFFFFFFFFFFFFFFFFFFFFFFFFFFFFFFFFFFFF AND DUP2 MSTORE PUSH1 0x20 ADD SWAP1 DUP2 MSTORE PUSH1 0x20 ADD PUSH1 0x0 KECCAK256 SLOAD LT ISZERO PUSH2 0x12E7 JUMPI PUSH1 0x40 MLOAD PUSH32 0x8C379A000000000000000000000000000000000000000000000000000000000 DUP2 MSTORE PUSH1 0x4 ADD PUSH2 0x12DE SWAP1 PUSH2 0x34E5 JUMP JUMPDEST PUSH1 0x40 MLOAD DUP1 SWAP2 SUB SWAP1 REVERT JUMPDEST DUP3 PUSH1 0x6 PUSH1 0x0 DUP7 PUSH20 0xFFFFFFFFFFFFFFFFFFFFFFFFFFFFFFFFFFFFFFFF AND PUSH20 0xFFFFFFFFFFFFFFFFFFFFFFFFFFFFFFFFFFFFFFFF AND DUP2 MSTORE PUSH1 0x20 ADD SWAP1 DUP2 MSTORE PUSH1 0x20 ADD PUSH1 0x0 KECCAK256 PUSH1 0x0 DUP4 PUSH20 0xFFFFFFFFFFFFFFFFFFFFFFFFFFFFFFFFFFFFFFFF AND PUSH20 0xFFFFFFFFFFFFFFFFFFFFFFFFFFFFFFFFFFFFFFFF AND DUP2 MSTORE PUSH1 0x20 ADD SWAP1 DUP2 MSTORE PUSH1 0x20 ADD PUSH1 0x0 KECCAK256 PUSH1 0x0 DUP3 DUP3 SLOAD PUSH2 0x1373 SWAP2 SWAP1 PUSH2 0x3987 JUMP JUMPDEST SWAP3 POP POP DUP2 SWAP1 SSTORE POP JUMPDEST PUSH2 0x1388 DUP5 PUSH1 0x0 DUP6 DUP6 PUSH2 0x1B4C JUMP JUMPDEST PUSH2 0x1394 DUP5 PUSH1 0x0 DUP6 PUSH2 0x1C5B JUMP JUMPDEST DUP3 PUSH1 0x5 PUSH1 0x0 DUP7 PUSH20 0xFFFFFFFFFFFFFFFFFFFFFFFFFFFFFFFFFFFFFFFF AND PUSH20 0xFFFFFFFFFFFFFFFFFFFFFFFFFFFFFFFFFFFFFFFF AND DUP2 MSTORE PUSH1 0x20 ADD SWAP1 DUP2 MSTORE PUSH1 0x20 ADD PUSH1 0x0 KECCAK256 PUSH1 0x0 DUP3 DUP3 SLOAD PUSH2 0x13E3 SWAP2 SWAP1 PUSH2 0x3987 JUMP JUMPDEST SWAP3 POP POP DUP2 SWAP1 SSTORE POP PUSH1 0x0 PUSH20 0xFFFFFFFFFFFFFFFFFFFFFFFFFFFFFFFFFFFFFFFF AND DUP5 PUSH20 0xFFFFFFFFFFFFFFFFFFFFFFFFFFFFFFFFFFFFFFFF AND DUP3 PUSH20 0xFFFFFFFFFFFFFFFFFFFFFFFFFFFFFFFFFFFFFFFF AND PUSH32 0x3997E418D2CEF0B3B0E907B1E39605C3F7D32DBD061E82EA5B4A770D46A160A6 DUP7 PUSH1 0x0 DUP8 PUSH1 0x40 MLOAD PUSH2 0x1464 SWAP4 SWAP3 SWAP2 SWAP1 PUSH2 0x3760 JUMP JUMPDEST PUSH1 0x40 MLOAD DUP1 SWAP2 SUB SWAP1 LOG4 POP POP POP POP JUMP JUMPDEST DUP3 PUSH20 0xFFFFFFFFFFFFFFFFFFFFFFFFFFFFFFFFFFFFFFFF AND DUP3 PUSH20 0xFFFFFFFFFFFFFFFFFFFFFFFFFFFFFFFFFFFFFFFF AND EQ ISZERO PUSH2 0x14E1 JUMPI PUSH1 0x40 MLOAD PUSH32 0x8C379A000000000000000000000000000000000000000000000000000000000 DUP2 MSTORE PUSH1 0x4 ADD PUSH2 0x14D8 SWAP1 PUSH2 0x35A5 JUMP JUMPDEST PUSH1 0x40 MLOAD DUP1 SWAP2 SUB SWAP1 REVERT JUMPDEST PUSH1 0x0 PUSH20 0xFFFFFFFFFFFFFFFFFFFFFFFFFFFFFFFFFFFFFFFF AND DUP3 PUSH20 0xFFFFFFFFFFFFFFFFFFFFFFFFFFFFFFFFFFFFFFFF AND EQ ISZERO PUSH2 0x1551 JUMPI PUSH1 0x40 MLOAD PUSH32 0x8C379A000000000000000000000000000000000000000000000000000000000 DUP2 MSTORE PUSH1 0x4 ADD PUSH2 0x1548 SWAP1 PUSH2 0x36C5 JUMP JUMPDEST PUSH1 0x40 MLOAD DUP1 SWAP2 SUB SWAP1 REVERT JUMPDEST PUSH1 0x0 PUSH20 0xFFFFFFFFFFFFFFFFFFFFFFFFFFFFFFFFFFFFFFFF AND DUP4 PUSH20 0xFFFFFFFFFFFFFFFFFFFFFFFFFFFFFFFFFFFFFFFF AND EQ ISZERO PUSH2 0x15C1 JUMPI PUSH1 0x40 MLOAD PUSH32 0x8C379A000000000000000000000000000000000000000000000000000000000 DUP2 MSTORE PUSH1 0x4 ADD PUSH2 0x15B8 SWAP1 PUSH2 0x35C5 JUMP JUMPDEST PUSH1 0x40 MLOAD DUP1 SWAP2 SUB SWAP1 REVERT JUMPDEST DUP1 PUSH1 0x6 PUSH1 0x0 DUP6 PUSH20 0xFFFFFFFFFFFFFFFFFFFFFFFFFFFFFFFFFFFFFFFF AND PUSH20 0xFFFFFFFFFFFFFFFFFFFFFFFFFFFFFFFFFFFFFFFF AND DUP2 MSTORE PUSH1 0x20 ADD SWAP1 DUP2 MSTORE PUSH1 0x20 ADD PUSH1 0x0 KECCAK256 PUSH1 0x0 DUP5 PUSH20 0xFFFFFFFFFFFFFFFFFFFFFFFFFFFFFFFFFFFFFFFF AND PUSH20 0xFFFFFFFFFFFFFFFFFFFFFFFFFFFFFFFFFFFFFFFF AND DUP2 MSTORE PUSH1 0x20 ADD SWAP1 DUP2 MSTORE PUSH1 0x20 ADD PUSH1 0x0 KECCAK256 DUP2 SWAP1 SSTORE POP PUSH1 0x0 DUP2 GT ISZERO PUSH2 0x16AB JUMPI DUP1 DUP4 PUSH20 0xFFFFFFFFFFFFFFFFFFFFFFFFFFFFFFFFFFFFFFFF AND DUP4 PUSH20 0xFFFFFFFFFFFFFFFFFFFFFFFFFFFFFFFFFFFFFFFF AND PUSH32 0xD66AFF874162A96578E919097B6F6D153DFD89A5CEC41BB331FDB0C4AEC16E2C PUSH1 0x40 MLOAD PUSH1 0x40 MLOAD DUP1 SWAP2 SUB SWAP1 LOG4 PUSH2 0x1706 JUMP JUMPDEST DUP3 PUSH20 0xFFFFFFFFFFFFFFFFFFFFFFFFFFFFFFFFFFFFFFFF AND DUP3 PUSH20 0xFFFFFFFFFFFFFFFFFFFFFFFFFFFFFFFFFFFFFFFF AND PUSH32 0x50546E66E5F44D728365DC3908C63BC5CFEEAB470722C1677E3073A6AC294AA1 PUSH1 0x40 MLOAD PUSH1 0x40 MLOAD DUP1 SWAP2 SUB SWAP1 LOG3 JUMPDEST POP POP POP JUMP JUMPDEST PUSH1 0x60 PUSH1 0x2 PUSH1 0x0 DUP4 DUP2 MSTORE PUSH1 0x20 ADD SWAP1 DUP2 MSTORE PUSH1 0x20 ADD PUSH1 0x0 KECCAK256 DUP1 SLOAD PUSH2 0x172B SWAP1 PUSH2 0x3A7B JUMP JUMPDEST DUP1 PUSH1 0x1F ADD PUSH1 0x20 DUP1 SWAP2 DIV MUL PUSH1 0x20 ADD PUSH1 0x40 MLOAD SWAP1 DUP2 ADD PUSH1 0x40 MSTORE DUP1 SWAP3 SWAP2 SWAP1 DUP2 DUP2 MSTORE PUSH1 0x20 ADD DUP3 DUP1 SLOAD PUSH2 0x1757 SWAP1 PUSH2 0x3A7B JUMP JUMPDEST DUP1 ISZERO PUSH2 0x17A4 JUMPI DUP1 PUSH1 0x1F LT PUSH2 0x1779 JUMPI PUSH2 0x100 DUP1 DUP4 SLOAD DIV MUL DUP4 MSTORE SWAP2 PUSH1 0x20 ADD SWAP2 PUSH2 0x17A4 JUMP JUMPDEST DUP3 ADD SWAP2 SWAP1 PUSH1 0x0 MSTORE PUSH1 0x20 PUSH1 0x0 KECCAK256 SWAP1 JUMPDEST DUP2 SLOAD DUP2 MSTORE SWAP1 PUSH1 0x1 ADD SWAP1 PUSH1 0x20 ADD DUP1 DUP4 GT PUSH2 0x1787 JUMPI DUP3 SWAP1 SUB PUSH1 0x1F AND DUP3 ADD SWAP2 JUMPDEST POP POP POP POP POP SWAP1 POP SWAP2 SWAP1 POP JUMP JUMPDEST PUSH1 0x0 DUP1 PUSH1 0x0 SWAP1 SLOAD SWAP1 PUSH2 0x100 EXP SWAP1 DIV PUSH20 0xFFFFFFFFFFFFFFFFFFFFFFFFFFFFFFFFFFFFFFFF AND SWAP1 POP DUP2 PUSH1 0x0 DUP1 PUSH2 0x100 EXP DUP2 SLOAD DUP2 PUSH20 0xFFFFFFFFFFFFFFFFFFFFFFFFFFFFFFFFFFFFFFFF MUL NOT AND SWAP1 DUP4 PUSH20 0xFFFFFFFFFFFFFFFFFFFFFFFFFFFFFFFFFFFFFFFF AND MUL OR SWAP1 SSTORE POP DUP2 PUSH20 0xFFFFFFFFFFFFFFFFFFFFFFFFFFFFFFFFFFFFFFFF AND DUP2 PUSH20 0xFFFFFFFFFFFFFFFFFFFFFFFFFFFFFFFFFFFFFFFF AND PUSH32 0x8BE0079C531659141344CD1FD0A4F28419497F9722A3DAAFE3B4186F6B6457E0 PUSH1 0x40 MLOAD PUSH1 0x40 MLOAD DUP1 SWAP2 SUB SWAP1 LOG3 POP POP JUMP JUMPDEST PUSH1 0x0 PUSH20 0xFFFFFFFFFFFFFFFFFFFFFFFFFFFFFFFFFFFFFFFF AND DUP6 PUSH20 0xFFFFFFFFFFFFFFFFFFFFFFFFFFFFFFFFFFFFFFFF AND EQ ISZERO PUSH2 0x18E4 JUMPI PUSH1 0x40 MLOAD PUSH32 0x8C379A000000000000000000000000000000000000000000000000000000000 DUP2 MSTORE PUSH1 0x4 ADD PUSH2 0x18DB SWAP1 PUSH2 0x3645 JUMP JUMPDEST PUSH1 0x40 MLOAD DUP1 SWAP2 SUB SWAP1 REVERT JUMPDEST PUSH1 0x0 PUSH20 0xFFFFFFFFFFFFFFFFFFFFFFFFFFFFFFFFFFFFFFFF AND DUP5 PUSH20 0xFFFFFFFFFFFFFFFFFFFFFFFFFFFFFFFFFFFFFFFF AND EQ ISZERO PUSH2 0x1954 JUMPI PUSH1 0x40 MLOAD PUSH32 0x8C379A000000000000000000000000000000000000000000000000000000000 DUP2 MSTORE PUSH1 0x4 ADD PUSH2 0x194B SWAP1 PUSH2 0x36A5 JUMP JUMPDEST PUSH1 0x40 MLOAD DUP1 SWAP2 SUB SWAP1 REVERT JUMPDEST DUP3 PUSH1 0x5 PUSH1 0x0 DUP8 PUSH20 0xFFFFFFFFFFFFFFFFFFFFFFFFFFFFFFFFFFFFFFFF AND PUSH20 0xFFFFFFFFFFFFFFFFFFFFFFFFFFFFFFFFFFFFFFFF AND DUP2 MSTORE PUSH1 0x20 ADD SWAP1 DUP2 MSTORE PUSH1 0x20 ADD PUSH1 0x0 KECCAK256 SLOAD LT ISZERO PUSH2 0x19D6 JUMPI PUSH1 0x40 MLOAD PUSH32 0x8C379A000000000000000000000000000000000000000000000000000000000 DUP2 MSTORE PUSH1 0x4 ADD PUSH2 0x19CD SWAP1 PUSH2 0x35E5 JUMP JUMPDEST PUSH1 0x40 MLOAD DUP1 SWAP2 SUB SWAP1 REVERT JUMPDEST PUSH1 0x0 PUSH2 0x19E0 PUSH2 0x108B JUMP JUMPDEST SWAP1 POP PUSH2 0x19EE DUP7 DUP7 DUP7 DUP6 PUSH2 0x1B4C JUMP JUMPDEST PUSH2 0x19F9 DUP7 DUP7 DUP7 PUSH2 0x1C5B JUMP JUMPDEST DUP4 PUSH1 0x5 PUSH1 0x0 DUP9 PUSH20 0xFFFFFFFFFFFFFFFFFFFFFFFFFFFFFFFFFFFFFFFF AND PUSH20 0xFFFFFFFFFFFFFFFFFFFFFFFFFFFFFFFFFFFFFFFF AND DUP2 MSTORE PUSH1 0x20 ADD SWAP1 DUP2 MSTORE PUSH1 0x20 ADD PUSH1 0x0 KECCAK256 PUSH1 0x0 DUP3 DUP3 SLOAD PUSH2 0x1A48 SWAP2 SWAP1 PUSH2 0x3987 JUMP JUMPDEST SWAP3 POP POP DUP2 SWAP1 SSTORE POP DUP4 PUSH1 0x5 PUSH1 0x0 DUP8 PUSH20 0xFFFFFFFFFFFFFFFFFFFFFFFFFFFFFFFFFFFFFFFF AND PUSH20 0xFFFFFFFFFFFFFFFFFFFFFFFFFFFFFFFFFFFFFFFF AND DUP2 MSTORE PUSH1 0x20 ADD SWAP1 DUP2 MSTORE PUSH1 0x20 ADD PUSH1 0x0 KECCAK256 PUSH1 0x0 DUP3 DUP3 SLOAD PUSH2 0x1A9E SWAP2 SWAP1 PUSH2 0x3931 JUMP JUMPDEST SWAP3 POP POP DUP2 SWAP1 SSTORE POP DUP5 PUSH20 0xFFFFFFFFFFFFFFFFFFFFFFFFFFFFFFFFFFFFFFFF AND DUP7 PUSH20 0xFFFFFFFFFFFFFFFFFFFFFFFFFFFFFFFFFFFFFFFF AND DUP3 PUSH20 0xFFFFFFFFFFFFFFFFFFFFFFFFFFFFFFFFFFFFFFFF AND PUSH32 0x3997E418D2CEF0B3B0E907B1E39605C3F7D32DBD061E82EA5B4A770D46A160A6 DUP8 DUP8 DUP8 PUSH1 0x40 MLOAD PUSH2 0x1B1D SWAP4 SWAP3 SWAP2 SWAP1 PUSH2 0x3760 JUMP JUMPDEST PUSH1 0x40 MLOAD DUP1 SWAP2 SUB SWAP1 LOG4 PUSH2 0x1B32 DUP7 DUP7 DUP7 DUP7 DUP7 PUSH2 0x1CFE JUMP JUMPDEST POP POP POP POP POP POP JUMP JUMPDEST PUSH2 0x1B46 DUP5 DUP5 DUP5 DUP5 PUSH2 0x1EB2 JUMP JUMPDEST POP POP POP POP JUMP JUMPDEST PUSH2 0x1B55 DUP5 PUSH2 0x1F20 JUMP JUMPDEST DUP1 ISZERO PUSH2 0x1B6E JUMPI POP PUSH2 0x1B6D DUP5 PUSH4 0x6BB56A14 PUSH1 0xE0 SHL PUSH2 0x1F6D JUMP JUMPDEST JUMPDEST ISZERO PUSH2 0x1C55 JUMPI PUSH1 0x0 DUP5 DUP5 DUP5 DUP5 PUSH1 0x40 MLOAD PUSH1 0x20 ADD PUSH2 0x1B8C SWAP5 SWAP4 SWAP3 SWAP2 SWAP1 PUSH2 0x333F JUMP JUMPDEST PUSH1 0x40 MLOAD PUSH1 0x20 DUP2 DUP4 SUB SUB DUP2 MSTORE SWAP1 PUSH1 0x40 MSTORE SWAP1 POP DUP5 PUSH20 0xFFFFFFFFFFFFFFFFFFFFFFFFFFFFFFFFFFFFFFFF AND PUSH4 0x6BB56A14 PUSH32 0x40B8BEC57D7B5FF0DBD9E9ACD0A47DFEB0101E1A203766F5CCAB00445FBF39E9 PUSH1 0x0 SHL DUP4 PUSH1 0x40 MLOAD DUP4 PUSH4 0xFFFFFFFF AND PUSH1 0xE0 SHL DUP2 MSTORE PUSH1 0x4 ADD PUSH2 0x1BFB SWAP3 SWAP2 SWAP1 PUSH2 0x3458 JUMP JUMPDEST PUSH1 0x0 PUSH1 0x40 MLOAD DUP1 DUP4 SUB DUP2 PUSH1 0x0 DUP8 DUP1 EXTCODESIZE ISZERO DUP1 ISZERO PUSH2 0x1C15 JUMPI PUSH1 0x0 DUP1 REVERT JUMPDEST POP GAS CALL ISZERO DUP1 ISZERO PUSH2 0x1C29 JUMPI RETURNDATASIZE PUSH1 0x0 DUP1 RETURNDATACOPY RETURNDATASIZE PUSH1 0x0 REVERT JUMPDEST POP POP POP POP PUSH1 0x40 MLOAD RETURNDATASIZE PUSH1 0x0 DUP3 RETURNDATACOPY RETURNDATASIZE PUSH1 0x1F NOT PUSH1 0x1F DUP3 ADD AND DUP3 ADD DUP1 PUSH1 0x40 MSTORE POP DUP2 ADD SWAP1 PUSH2 0x1C52 SWAP2 SWAP1 PUSH2 0x2984 JUMP JUMPDEST POP POP JUMPDEST POP POP POP POP JUMP JUMPDEST PUSH1 0x0 PUSH20 0xFFFFFFFFFFFFFFFFFFFFFFFFFFFFFFFFFFFFFFFF AND DUP4 PUSH20 0xFFFFFFFFFFFFFFFFFFFFFFFFFFFFFFFFFFFFFFFF AND EQ ISZERO PUSH2 0x1CAA JUMPI DUP1 PUSH1 0x4 PUSH1 0x0 DUP3 DUP3 SLOAD PUSH2 0x1CA2 SWAP2 SWAP1 PUSH2 0x3931 JUMP JUMPDEST SWAP3 POP POP DUP2 SWAP1 SSTORE POP JUMPDEST PUSH1 0x0 PUSH20 0xFFFFFFFFFFFFFFFFFFFFFFFFFFFFFFFFFFFFFFFF AND DUP3 PUSH20 0xFFFFFFFFFFFFFFFFFFFFFFFFFFFFFFFFFFFFFFFF AND EQ ISZERO PUSH2 0x1CF9 JUMPI DUP1 PUSH1 0x4 PUSH1 0x0 DUP3 DUP3 SLOAD PUSH2 0x1CF1 SWAP2 SWAP1 PUSH2 0x3987 JUMP JUMPDEST SWAP3 POP POP DUP2 SWAP1 SSTORE POP JUMPDEST POP POP POP JUMP JUMPDEST PUSH2 0x1D07 DUP5 PUSH2 0x1F20 JUMP JUMPDEST DUP1 ISZERO PUSH2 0x1D20 JUMPI POP PUSH2 0x1D1F DUP5 PUSH4 0x6BB56A14 PUSH1 0xE0 SHL PUSH2 0x1F6D JUMP JUMPDEST JUMPDEST ISZERO PUSH2 0x1E0B JUMPI PUSH1 0x0 DUP6 DUP6 DUP6 DUP5 PUSH1 0x40 MLOAD PUSH1 0x20 ADD PUSH2 0x1D3E SWAP5 SWAP4 SWAP3 SWAP2 SWAP1 PUSH2 0x333F JUMP JUMPDEST PUSH1 0x40 MLOAD PUSH1 0x20 DUP2 DUP4 SUB SUB DUP2 MSTORE SWAP1 PUSH1 0x40 MSTORE SWAP1 POP DUP5 PUSH20 0xFFFFFFFFFFFFFFFFFFFFFFFFFFFFFFFFFFFFFFFF AND PUSH4 0x6BB56A14 PUSH32 0xDBE2C314E1AEE2970C72666F2EBE8933A8575263EA71E5FF6A9178E95D47A26F PUSH1 0x0 SHL DUP4 PUSH1 0x40 MLOAD DUP4 PUSH4 0xFFFFFFFF AND PUSH1 0xE0 SHL DUP2 MSTORE PUSH1 0x4 ADD PUSH2 0x1DAD SWAP3 SWAP2 SWAP1 PUSH2 0x3458 JUMP JUMPDEST PUSH1 0x0 PUSH1 0x40 MLOAD DUP1 DUP4 SUB DUP2 PUSH1 0x0 DUP8 DUP1 EXTCODESIZE ISZERO DUP1 ISZERO PUSH2 0x1DC7 JUMPI PUSH1 0x0 DUP1 REVERT JUMPDEST POP GAS CALL ISZERO DUP1 ISZERO PUSH2 0x1DDB JUMPI RETURNDATASIZE PUSH1 0x0 DUP1 RETURNDATACOPY RETURNDATASIZE PUSH1 0x0 REVERT JUMPDEST POP POP POP POP PUSH1 0x40 MLOAD RETURNDATASIZE PUSH1 0x0 DUP3 RETURNDATACOPY RETURNDATASIZE PUSH1 0x1F NOT PUSH1 0x1F DUP3 ADD AND DUP3 ADD DUP1 PUSH1 0x40 MSTORE POP DUP2 ADD SWAP1 PUSH2 0x1E04 SWAP2 SWAP1 PUSH2 0x2984 JUMP JUMPDEST POP POP PUSH2 0x1EAB JUMP JUMPDEST DUP2 PUSH2 0x1EAA JUMPI PUSH2 0x1E2F DUP5 PUSH20 0xFFFFFFFFFFFFFFFFFFFFFFFFFFFFFFFFFFFFFFFF AND PUSH2 0x1F92 JUMP JUMPDEST ISZERO PUSH2 0x1E6F JUMPI PUSH1 0x40 MLOAD PUSH32 0x8C379A000000000000000000000000000000000000000000000000000000000 DUP2 MSTORE PUSH1 0x4 ADD PUSH2 0x1E66 SWAP1 PUSH2 0x3605 JUMP JUMPDEST PUSH1 0x40 MLOAD DUP1 SWAP2 SUB SWAP1 REVERT JUMPDEST PUSH1 0x40 MLOAD PUSH32 0x8C379A000000000000000000000000000000000000000000000000000000000 DUP2 MSTORE PUSH1 0x4 ADD PUSH2 0x1EA1 SWAP1 PUSH2 0x34C5 JUMP JUMPDEST PUSH1 0x40 MLOAD DUP1 SWAP2 SUB SWAP1 REVERT JUMPDEST JUMPDEST POP POP POP POP POP JUMP JUMPDEST PUSH2 0x1EBA PUSH2 0x77F JUMP JUMPDEST DUP4 PUSH2 0x1EC3 PUSH2 0x58F JUMP JUMPDEST PUSH2 0x1ECD SWAP2 SWAP1 PUSH2 0x3931 JUMP JUMPDEST GT ISZERO PUSH2 0x1F0E JUMPI PUSH1 0x40 MLOAD PUSH32 0x8C379A000000000000000000000000000000000000000000000000000000000 DUP2 MSTORE PUSH1 0x4 ADD PUSH2 0x1F05 SWAP1 PUSH2 0x3685 JUMP JUMPDEST PUSH1 0x40 MLOAD DUP1 SWAP2 SUB SWAP1 REVERT JUMPDEST PUSH2 0x1F1A DUP5 DUP5 DUP5 DUP5 PUSH2 0x1FA5 JUMP JUMPDEST POP POP POP POP JUMP JUMPDEST PUSH1 0x0 PUSH2 0x1F4C DUP3 PUSH32 0x1FFC9A700000000000000000000000000000000000000000000000000000000 PUSH2 0x2119 JUMP JUMPDEST DUP1 ISZERO PUSH2 0x1F66 JUMPI POP PUSH2 0x1F64 DUP3 PUSH4 0xFFFFFFFF PUSH1 0xE0 SHL PUSH2 0x2119 JUMP JUMPDEST ISZERO JUMPDEST SWAP1 POP SWAP2 SWAP1 POP JUMP JUMPDEST PUSH1 0x0 PUSH2 0x1F78 DUP4 PUSH2 0x1F20 JUMP JUMPDEST DUP1 ISZERO PUSH2 0x1F8A JUMPI POP PUSH2 0x1F89 DUP4 DUP4 PUSH2 0x2119 JUMP JUMPDEST JUMPDEST SWAP1 POP SWAP3 SWAP2 POP POP JUMP JUMPDEST PUSH1 0x0 DUP1 DUP3 EXTCODESIZE SWAP1 POP PUSH1 0x0 DUP2 GT SWAP2 POP POP SWAP2 SWAP1 POP JUMP JUMPDEST PUSH1 0x0 PUSH20 0xFFFFFFFFFFFFFFFFFFFFFFFFFFFFFFFFFFFFFFFF AND DUP5 PUSH20 0xFFFFFFFFFFFFFFFFFFFFFFFFFFFFFFFFFFFFFFFF AND EQ ISZERO PUSH2 0x2015 JUMPI PUSH1 0x40 MLOAD PUSH32 0x8C379A000000000000000000000000000000000000000000000000000000000 DUP2 MSTORE PUSH1 0x4 ADD PUSH2 0x200C SWAP1 PUSH2 0x3585 JUMP JUMPDEST PUSH1 0x40 MLOAD DUP1 SWAP2 SUB SWAP1 REVERT JUMPDEST PUSH1 0x0 PUSH2 0x201F PUSH2 0x108B JUMP JUMPDEST SWAP1 POP PUSH2 0x202D PUSH1 0x0 DUP7 DUP7 PUSH2 0x1C5B JUMP JUMPDEST DUP4 PUSH1 0x5 PUSH1 0x0 DUP8 PUSH20 0xFFFFFFFFFFFFFFFFFFFFFFFFFFFFFFFFFFFFFFFF AND PUSH20 0xFFFFFFFFFFFFFFFFFFFFFFFFFFFFFFFFFFFFFFFF AND DUP2 MSTORE PUSH1 0x20 ADD SWAP1 DUP2 MSTORE PUSH1 0x20 ADD PUSH1 0x0 KECCAK256 PUSH1 0x0 DUP3 DUP3 SLOAD PUSH2 0x207C SWAP2 SWAP1 PUSH2 0x3931 JUMP JUMPDEST SWAP3 POP POP DUP2 SWAP1 SSTORE POP DUP5 PUSH20 0xFFFFFFFFFFFFFFFFFFFFFFFFFFFFFFFFFFFFFFFF AND PUSH1 0x0 PUSH20 0xFFFFFFFFFFFFFFFFFFFFFFFFFFFFFFFFFFFFFFFF AND DUP3 PUSH20 0xFFFFFFFFFFFFFFFFFFFFFFFFFFFFFFFFFFFFFFFF AND PUSH32 0x3997E418D2CEF0B3B0E907B1E39605C3F7D32DBD061E82EA5B4A770D46A160A6 DUP8 DUP8 DUP8 PUSH1 0x40 MLOAD PUSH2 0x20FC SWAP4 SWAP3 SWAP2 SWAP1 PUSH2 0x3760 JUMP JUMPDEST PUSH1 0x40 MLOAD DUP1 SWAP2 SUB SWAP1 LOG4 PUSH2 0x2112 PUSH1 0x0 DUP7 DUP7 DUP7 DUP7 PUSH2 0x1CFE JUMP JUMPDEST POP POP POP POP POP JUMP JUMPDEST PUSH1 0x0 DUP1 PUSH4 0x1FFC9A7 PUSH1 0xE0 SHL DUP4 PUSH1 0x40 MLOAD PUSH1 0x24 ADD PUSH2 0x2135 SWAP2 SWAP1 PUSH2 0x3488 JUMP JUMPDEST PUSH1 0x40 MLOAD PUSH1 0x20 DUP2 DUP4 SUB SUB DUP2 MSTORE SWAP1 PUSH1 0x40 MSTORE SWAP1 PUSH28 0xFFFFFFFFFFFFFFFFFFFFFFFFFFFFFFFFFFFFFFFFFFFFFFFFFFFFFFFF NOT AND PUSH1 0x20 DUP3 ADD DUP1 MLOAD PUSH28 0xFFFFFFFFFFFFFFFFFFFFFFFFFFFFFFFFFFFFFFFFFFFFFFFFFFFFFFFF DUP4 DUP2 DUP4 AND OR DUP4 MSTORE POP POP POP POP SWAP1 POP PUSH1 0x0 DUP1 DUP6 PUSH20 0xFFFFFFFFFFFFFFFFFFFFFFFFFFFFFFFFFFFFFFFF AND PUSH2 0x7530 DUP5 PUSH1 0x40 MLOAD PUSH2 0x21BF SWAP2 SWAP1 PUSH2 0x3389 JUMP JUMPDEST PUSH1 0x0 PUSH1 0x40 MLOAD DUP1 DUP4 SUB DUP2 DUP7 DUP7 STATICCALL SWAP3 POP POP POP RETURNDATASIZE DUP1 PUSH1 0x0 DUP2 EQ PUSH2 0x21FB JUMPI PUSH1 0x40 MLOAD SWAP2 POP PUSH1 0x1F NOT PUSH1 0x3F RETURNDATASIZE ADD AND DUP3 ADD PUSH1 0x40 MSTORE RETURNDATASIZE DUP3 MSTORE RETURNDATASIZE PUSH1 0x0 PUSH1 0x20 DUP5 ADD RETURNDATACOPY PUSH2 0x2200 JUMP JUMPDEST PUSH1 0x60 SWAP2 POP JUMPDEST POP SWAP2 POP SWAP2 POP PUSH1 0x20 DUP2 MLOAD LT ISZERO PUSH2 0x221B JUMPI PUSH1 0x0 SWAP4 POP POP POP POP PUSH2 0x223E JUMP JUMPDEST DUP2 DUP1 ISZERO PUSH2 0x2238 JUMPI POP DUP1 DUP1 PUSH1 0x20 ADD SWAP1 MLOAD DUP2 ADD SWAP1 PUSH2 0x2237 SWAP2 SWAP1 PUSH2 0x2932 JUMP JUMPDEST JUMPDEST SWAP4 POP POP POP POP JUMPDEST SWAP3 SWAP2 POP POP JUMP JUMPDEST DUP3 DUP1 SLOAD PUSH2 0x2250 SWAP1 PUSH2 0x3A7B JUMP JUMPDEST SWAP1 PUSH1 0x0 MSTORE PUSH1 0x20 PUSH1 0x0 KECCAK256 SWAP1 PUSH1 0x1F ADD PUSH1 0x20 SWAP1 DIV DUP2 ADD SWAP3 DUP3 PUSH2 0x2272 JUMPI PUSH1 0x0 DUP6 SSTORE PUSH2 0x22B9 JUMP JUMPDEST DUP3 PUSH1 0x1F LT PUSH2 0x228B JUMPI DUP1 MLOAD PUSH1 0xFF NOT AND DUP4 DUP1 ADD OR DUP6 SSTORE PUSH2 0x22B9 JUMP JUMPDEST DUP3 DUP1 ADD PUSH1 0x1 ADD DUP6 SSTORE DUP3 ISZERO PUSH2 0x22B9 JUMPI SWAP2 DUP3 ADD JUMPDEST DUP3 DUP2 GT ISZERO PUSH2 0x22B8 JUMPI DUP3 MLOAD DUP3 SSTORE SWAP2 PUSH1 0x20 ADD SWAP2 SWAP1 PUSH1 0x1 ADD SWAP1 PUSH2 0x229D JUMP JUMPDEST JUMPDEST POP SWAP1 POP PUSH2 0x22C6 SWAP2 SWAP1 PUSH2 0x22CA JUMP JUMPDEST POP SWAP1 JUMP JUMPDEST JUMPDEST DUP1 DUP3 GT ISZERO PUSH2 0x22E3 JUMPI PUSH1 0x0 DUP2 PUSH1 0x0 SWAP1 SSTORE POP PUSH1 0x1 ADD PUSH2 0x22CB JUMP JUMPDEST POP SWAP1 JUMP JUMPDEST PUSH1 0x0 PUSH2 0x22FA PUSH2 0x22F5 DUP5 PUSH2 0x37CF JUMP JUMPDEST PUSH2 0x379E JUMP JUMPDEST SWAP1 POP DUP1 DUP4 DUP3 MSTORE PUSH1 0x20 DUP3 ADD SWAP1 POP DUP3 DUP6 PUSH1 0x20 DUP7 MUL DUP3 ADD GT ISZERO PUSH2 0x2319 JUMPI PUSH1 0x0 DUP1 REVERT JUMPDEST PUSH1 0x0 JUMPDEST DUP6 DUP2 LT ISZERO PUSH2 0x2349 JUMPI DUP2 PUSH2 0x232F DUP9 DUP3 PUSH2 0x2504 JUMP JUMPDEST DUP5 MSTORE PUSH1 0x20 DUP5 ADD SWAP4 POP PUSH1 0x20 DUP4 ADD SWAP3 POP POP PUSH1 0x1 DUP2 ADD SWAP1 POP PUSH2 0x231C JUMP JUMPDEST POP POP POP SWAP4 SWAP3 POP POP POP JUMP JUMPDEST PUSH1 0x0 PUSH2 0x2366 PUSH2 0x2361 DUP5 PUSH2 0x37FB JUMP JUMPDEST PUSH2 0x379E JUMP JUMPDEST SWAP1 POP DUP1 DUP4 DUP3 MSTORE PUSH1 0x20 DUP3 ADD SWAP1 POP DUP3 DUP6 PUSH1 0x20 DUP7 MUL DUP3 ADD GT ISZERO PUSH2 0x2385 JUMPI PUSH1 0x0 DUP1 REVERT JUMPDEST PUSH1 0x0 JUMPDEST DUP6 DUP2 LT ISZERO PUSH2 0x23B5 JUMPI DUP2 PUSH2 0x239B DUP9 DUP3 PUSH2 0x25EB JUMP JUMPDEST DUP5 MSTORE PUSH1 0x20 DUP5 ADD SWAP4 POP PUSH1 0x20 DUP4 ADD SWAP3 POP POP PUSH1 0x1 DUP2 ADD SWAP1 POP PUSH2 0x2388 JUMP JUMPDEST POP POP POP SWAP4 SWAP3 POP POP POP JUMP JUMPDEST PUSH1 0x0 PUSH2 0x23D2 PUSH2 0x23CD DUP5 PUSH2 0x3827 JUMP JUMPDEST PUSH2 0x379E JUMP JUMPDEST SWAP1 POP DUP1 DUP4 DUP3 MSTORE PUSH1 0x20 DUP3 ADD SWAP1 POP DUP3 PUSH1 0x0 JUMPDEST DUP6 DUP2 LT ISZERO PUSH2 0x2412 JUMPI DUP2 CALLDATALOAD DUP6 ADD PUSH2 0x23F8 DUP9 DUP3 PUSH2 0x2615 JUMP JUMPDEST DUP5 MSTORE PUSH1 0x20 DUP5 ADD SWAP4 POP PUSH1 0x20 DUP4 ADD SWAP3 POP POP PUSH1 0x1 DUP2 ADD SWAP1 POP PUSH2 0x23E2 JUMP JUMPDEST POP POP POP SWAP4 SWAP3 POP POP POP JUMP JUMPDEST PUSH1 0x0 PUSH2 0x242F PUSH2 0x242A DUP5 PUSH2 0x3853 JUMP JUMPDEST PUSH2 0x379E JUMP JUMPDEST SWAP1 POP DUP1 DUP4 DUP3 MSTORE PUSH1 0x20 DUP3 ADD SWAP1 POP DUP3 DUP6 PUSH1 0x20 DUP7 MUL DUP3 ADD GT ISZERO PUSH2 0x244E JUMPI PUSH1 0x0 DUP1 REVERT JUMPDEST PUSH1 0x0 JUMPDEST DUP6 DUP2 LT ISZERO PUSH2 0x247E JUMPI DUP2 PUSH2 0x2464 DUP9 DUP3 PUSH2 0x2669 JUMP JUMPDEST DUP5 MSTORE PUSH1 0x20 DUP5 ADD SWAP4 POP PUSH1 0x20 DUP4 ADD SWAP3 POP POP PUSH1 0x1 DUP2 ADD SWAP1 POP PUSH2 0x2451 JUMP JUMPDEST POP POP POP SWAP4 SWAP3 POP POP POP JUMP JUMPDEST PUSH1 0x0 PUSH2 0x249B PUSH2 0x2496 DUP5 PUSH2 0x387F JUMP JUMPDEST PUSH2 0x379E JUMP JUMPDEST SWAP1 POP DUP3 DUP2 MSTORE PUSH1 0x20 DUP2 ADD DUP5 DUP5 DUP5 ADD GT ISZERO PUSH2 0x24B3 JUMPI PUSH1 0x0 DUP1 REVERT JUMPDEST PUSH2 0x24BE DUP5 DUP3 DUP6 PUSH2 0x3A39 JUMP JUMPDEST POP SWAP4 SWAP3 POP POP POP JUMP JUMPDEST PUSH1 0x0 PUSH2 0x24D9 PUSH2 0x24D4 DUP5 PUSH2 0x387F JUMP JUMPDEST PUSH2 0x379E JUMP JUMPDEST SWAP1 POP DUP3 DUP2 MSTORE PUSH1 0x20 DUP2 ADD DUP5 DUP5 DUP5 ADD GT ISZERO PUSH2 0x24F1 JUMPI PUSH1 0x0 DUP1 REVERT JUMPDEST PUSH2 0x24FC DUP5 DUP3 DUP6 PUSH2 0x3A48 JUMP JUMPDEST POP SWAP4 SWAP3 POP POP POP JUMP JUMPDEST PUSH1 0x0 DUP2 CALLDATALOAD SWAP1 POP PUSH2 0x2513 DUP2 PUSH2 0x3BCF JUMP JUMPDEST SWAP3 SWAP2 POP POP JUMP JUMPDEST PUSH1 0x0 DUP3 PUSH1 0x1F DUP4 ADD SLT PUSH2 0x252A JUMPI PUSH1 0x0 DUP1 REVERT JUMPDEST DUP2 CALLDATALOAD PUSH2 0x253A DUP5 DUP3 PUSH1 0x20 DUP7 ADD PUSH2 0x22E7 JUMP JUMPDEST SWAP2 POP POP SWAP3 SWAP2 POP POP JUMP JUMPDEST PUSH1 0x0 DUP3 PUSH1 0x1F DUP4 ADD SLT PUSH2 0x2554 JUMPI PUSH1 0x0 DUP1 REVERT JUMPDEST DUP2 CALLDATALOAD PUSH2 0x2564 DUP5 DUP3 PUSH1 0x20 DUP7 ADD PUSH2 0x2353 JUMP JUMPDEST SWAP2 POP POP SWAP3 SWAP2 POP POP JUMP JUMPDEST PUSH1 0x0 DUP3 PUSH1 0x1F DUP4 ADD SLT PUSH2 0x257E JUMPI PUSH1 0x0 DUP1 REVERT JUMPDEST DUP2 CALLDATALOAD PUSH2 0x258E DUP5 DUP3 PUSH1 0x20 DUP7 ADD PUSH2 0x23BF JUMP JUMPDEST SWAP2 POP POP SWAP3 SWAP2 POP POP JUMP JUMPDEST PUSH1 0x0 DUP3 PUSH1 0x1F DUP4 ADD SLT PUSH2 0x25A8 JUMPI PUSH1 0x0 DUP1 REVERT JUMPDEST DUP2 CALLDATALOAD PUSH2 0x25B8 DUP5 DUP3 PUSH1 0x20 DUP7 ADD PUSH2 0x241C JUMP JUMPDEST SWAP2 POP POP SWAP3 SWAP2 POP POP JUMP JUMPDEST PUSH1 0x0 DUP2 CALLDATALOAD SWAP1 POP PUSH2 0x25D0 DUP2 PUSH2 0x3BE6 JUMP JUMPDEST SWAP3 SWAP2 POP POP JUMP JUMPDEST PUSH1 0x0 DUP2 MLOAD SWAP1 POP PUSH2 0x25E5 DUP2 PUSH2 0x3BE6 JUMP JUMPDEST SWAP3 SWAP2 POP POP JUMP JUMPDEST PUSH1 0x0 DUP2 CALLDATALOAD SWAP1 POP PUSH2 0x25FA DUP2 PUSH2 0x3BFD JUMP JUMPDEST SWAP3 SWAP2 POP POP JUMP JUMPDEST PUSH1 0x0 DUP2 CALLDATALOAD SWAP1 POP PUSH2 0x260F DUP2 PUSH2 0x3C14 JUMP JUMPDEST SWAP3 SWAP2 POP POP JUMP JUMPDEST PUSH1 0x0 DUP3 PUSH1 0x1F DUP4 ADD SLT PUSH2 0x2626 JUMPI PUSH1 0x0 DUP1 REVERT JUMPDEST DUP2 CALLDATALOAD PUSH2 0x2636 DUP5 DUP3 PUSH1 0x20 DUP7 ADD PUSH2 0x2488 JUMP JUMPDEST SWAP2 POP POP SWAP3 SWAP2 POP POP JUMP JUMPDEST PUSH1 0x0 DUP3 PUSH1 0x1F DUP4 ADD SLT PUSH2 0x2650 JUMPI PUSH1 0x0 DUP1 REVERT JUMPDEST DUP2 MLOAD PUSH2 0x2660 DUP5 DUP3 PUSH1 0x20 DUP7 ADD PUSH2 0x24C6 JUMP JUMPDEST SWAP2 POP POP SWAP3 SWAP2 POP POP JUMP JUMPDEST PUSH1 0x0 DUP2 CALLDATALOAD SWAP1 POP PUSH2 0x2678 DUP2 PUSH2 0x3C2B JUMP JUMPDEST SWAP3 SWAP2 POP POP JUMP JUMPDEST PUSH1 0x0 PUSH1 0x20 DUP3 DUP5 SUB SLT ISZERO PUSH2 0x2690 JUMPI PUSH1 0x0 DUP1 REVERT JUMPDEST PUSH1 0x0 PUSH2 0x269E DUP5 DUP3 DUP6 ADD PUSH2 0x2504 JUMP JUMPDEST SWAP2 POP POP SWAP3 SWAP2 POP POP JUMP JUMPDEST PUSH1 0x0 DUP1 PUSH1 0x40 DUP4 DUP6 SUB SLT ISZERO PUSH2 0x26BA JUMPI PUSH1 0x0 DUP1 REVERT JUMPDEST PUSH1 0x0 PUSH2 0x26C8 DUP6 DUP3 DUP7 ADD PUSH2 0x2504 JUMP JUMPDEST SWAP3 POP POP PUSH1 0x20 PUSH2 0x26D9 DUP6 DUP3 DUP7 ADD PUSH2 0x2504 JUMP JUMPDEST SWAP2 POP POP SWAP3 POP SWAP3 SWAP1 POP JUMP JUMPDEST PUSH1 0x0 DUP1 PUSH1 0x0 DUP1 PUSH1 0x0 PUSH1 0xA0 DUP7 DUP9 SUB SLT ISZERO PUSH2 0x26FB JUMPI PUSH1 0x0 DUP1 REVERT JUMPDEST PUSH1 0x0 PUSH2 0x2709 DUP9 DUP3 DUP10 ADD PUSH2 0x2504 JUMP JUMPDEST SWAP6 POP POP PUSH1 0x20 PUSH2 0x271A DUP9 DUP3 DUP10 ADD PUSH2 0x2504 JUMP JUMPDEST SWAP5 POP POP PUSH1 0x40 PUSH2 0x272B DUP9 DUP3 DUP10 ADD PUSH2 0x2669 JUMP JUMPDEST SWAP4 POP POP PUSH1 0x60 PUSH2 0x273C DUP9 DUP3 DUP10 ADD PUSH2 0x25C1 JUMP JUMPDEST SWAP3 POP POP PUSH1 0x80 DUP7 ADD CALLDATALOAD PUSH8 0xFFFFFFFFFFFFFFFF DUP2 GT ISZERO PUSH2 0x2759 JUMPI PUSH1 0x0 DUP1 REVERT JUMPDEST PUSH2 0x2765 DUP9 DUP3 DUP10 ADD PUSH2 0x2615 JUMP JUMPDEST SWAP2 POP POP SWAP3 SWAP6 POP SWAP3 SWAP6 SWAP1 SWAP4 POP JUMP JUMPDEST PUSH1 0x0 DUP1 PUSH1 0x40 DUP4 DUP6 SUB SLT ISZERO PUSH2 0x2785 JUMPI PUSH1 0x0 DUP1 REVERT JUMPDEST PUSH1 0x0 PUSH2 0x2793 DUP6 DUP3 DUP7 ADD PUSH2 0x2504 JUMP JUMPDEST SWAP3 POP POP PUSH1 0x20 PUSH2 0x27A4 DUP6 DUP3 DUP7 ADD PUSH2 0x2669 JUMP JUMPDEST SWAP2 POP POP SWAP3 POP SWAP3 SWAP1 POP JUMP JUMPDEST PUSH1 0x0 DUP1 PUSH1 0x0 DUP1 PUSH1 0x0 PUSH1 0xA0 DUP7 DUP9 SUB SLT ISZERO PUSH2 0x27C6 JUMPI PUSH1 0x0 DUP1 REVERT JUMPDEST PUSH1 0x0 DUP7 ADD CALLDATALOAD PUSH8 0xFFFFFFFFFFFFFFFF DUP2 GT ISZERO PUSH2 0x27E0 JUMPI PUSH1 0x0 DUP1 REVERT JUMPDEST PUSH2 0x27EC DUP9 DUP3 DUP10 ADD PUSH2 0x2519 JUMP JUMPDEST SWAP6 POP POP PUSH1 0x20 DUP7 ADD CALLDATALOAD PUSH8 0xFFFFFFFFFFFFFFFF DUP2 GT ISZERO PUSH2 0x2809 JUMPI PUSH1 0x0 DUP1 REVERT JUMPDEST PUSH2 0x2815 DUP9 DUP3 DUP10 ADD PUSH2 0x2519 JUMP JUMPDEST SWAP5 POP POP PUSH1 0x40 DUP7 ADD CALLDATALOAD PUSH8 0xFFFFFFFFFFFFFFFF DUP2 GT ISZERO PUSH2 0x2832 JUMPI PUSH1 0x0 DUP1 REVERT JUMPDEST PUSH2 0x283E DUP9 DUP3 DUP10 ADD PUSH2 0x2597 JUMP JUMPDEST SWAP4 POP POP PUSH1 0x60 PUSH2 0x284F DUP9 DUP3 DUP10 ADD PUSH2 0x25C1 JUMP JUMPDEST SWAP3 POP POP PUSH1 0x80 DUP7 ADD CALLDATALOAD PUSH8 0xFFFFFFFFFFFFFFFF DUP2 GT ISZERO PUSH2 0x286C JUMPI PUSH1 0x0 DUP1 REVERT JUMPDEST PUSH2 0x2878 DUP9 DUP3 DUP10 ADD PUSH2 0x256D JUMP JUMPDEST SWAP2 POP POP SWAP3 SWAP6 POP SWAP3 SWAP6 SWAP1 SWAP4 POP JUMP JUMPDEST PUSH1 0x0 PUSH1 0x20 DUP3 DUP5 SUB SLT ISZERO PUSH2 0x2897 JUMPI PUSH1 0x0 DUP1 REVERT JUMPDEST PUSH1 0x0 DUP3 ADD CALLDATALOAD PUSH8 0xFFFFFFFFFFFFFFFF DUP2 GT ISZERO PUSH2 0x28B1 JUMPI PUSH1 0x0 DUP1 REVERT JUMPDEST PUSH2 0x28BD DUP5 DUP3 DUP6 ADD PUSH2 0x2543 JUMP JUMPDEST SWAP2 POP POP SWAP3 SWAP2 POP POP JUMP JUMPDEST PUSH1 0x0 DUP1 PUSH1 0x40 DUP4 DUP6 SUB SLT ISZERO PUSH2 0x28D9 JUMPI PUSH1 0x0 DUP1 REVERT JUMPDEST PUSH1 0x0 DUP4 ADD CALLDATALOAD PUSH8 0xFFFFFFFFFFFFFFFF DUP2 GT ISZERO PUSH2 0x28F3 JUMPI PUSH1 0x0 DUP1 REVERT JUMPDEST PUSH2 0x28FF DUP6 DUP3 DUP7 ADD PUSH2 0x2543 JUMP JUMPDEST SWAP3 POP POP PUSH1 0x20 DUP4 ADD CALLDATALOAD PUSH8 0xFFFFFFFFFFFFFFFF DUP2 GT ISZERO PUSH2 0x291C JUMPI PUSH1 0x0 DUP1 REVERT JUMPDEST PUSH2 0x2928 DUP6 DUP3 DUP7 ADD PUSH2 0x256D JUMP JUMPDEST SWAP2 POP POP SWAP3 POP SWAP3 SWAP1 POP JUMP JUMPDEST PUSH1 0x0 PUSH1 0x20 DUP3 DUP5 SUB SLT ISZERO PUSH2 0x2944 JUMPI PUSH1 0x0 DUP1 REVERT JUMPDEST PUSH1 0x0 PUSH2 0x2952 DUP5 DUP3 DUP6 ADD PUSH2 0x25D6 JUMP JUMPDEST SWAP2 POP POP SWAP3 SWAP2 POP POP JUMP JUMPDEST PUSH1 0x0 PUSH1 0x20 DUP3 DUP5 SUB SLT ISZERO PUSH2 0x296D JUMPI PUSH1 0x0 DUP1 REVERT JUMPDEST PUSH1 0x0 PUSH2 0x297B DUP5 DUP3 DUP6 ADD PUSH2 0x2600 JUMP JUMPDEST SWAP2 POP POP SWAP3 SWAP2 POP POP JUMP JUMPDEST PUSH1 0x0 PUSH1 0x20 DUP3 DUP5 SUB SLT ISZERO PUSH2 0x2996 JUMPI PUSH1 0x0 DUP1 REVERT JUMPDEST PUSH1 0x0 DUP3 ADD MLOAD PUSH8 0xFFFFFFFFFFFFFFFF DUP2 GT ISZERO PUSH2 0x29B0 JUMPI PUSH1 0x0 DUP1 REVERT JUMPDEST PUSH2 0x29BC DUP5 DUP3 DUP6 ADD PUSH2 0x263F JUMP JUMPDEST SWAP2 POP POP SWAP3 SWAP2 POP POP JUMP JUMPDEST PUSH1 0x0 PUSH1 0x20 DUP3 DUP5 SUB SLT ISZERO PUSH2 0x29D7 JUMPI PUSH1 0x0 DUP1 REVERT JUMPDEST PUSH1 0x0 PUSH2 0x29E5 DUP5 DUP3 DUP6 ADD PUSH2 0x2669 JUMP JUMPDEST SWAP2 POP POP SWAP3 SWAP2 POP POP JUMP JUMPDEST PUSH1 0x0 PUSH2 0x29FA DUP4 DUP4 PUSH2 0x2ACA JUMP JUMPDEST SWAP1 POP SWAP3 SWAP2 POP POP JUMP JUMPDEST PUSH2 0x2A0B DUP2 PUSH2 0x39BB JUMP JUMPDEST DUP3 MSTORE POP POP JUMP JUMPDEST PUSH2 0x2A22 PUSH2 0x2A1D DUP3 PUSH2 0x39BB JUMP JUMPDEST PUSH2 0x3AF6 JUMP JUMPDEST DUP3 MSTORE POP POP JUMP JUMPDEST PUSH1 0x0 PUSH2 0x2A33 DUP3 PUSH2 0x38BF JUMP JUMPDEST PUSH2 0x2A3D DUP2 DUP6 PUSH2 0x38E2 JUMP JUMPDEST SWAP4 POP DUP4 PUSH1 0x20 DUP3 MUL DUP6 ADD PUSH2 0x2A4F DUP6 PUSH2 0x38AF JUMP JUMPDEST DUP1 PUSH1 0x0 JUMPDEST DUP6 DUP2 LT ISZERO PUSH2 0x2A8B JUMPI DUP5 DUP5 SUB DUP10 MSTORE DUP2 MLOAD PUSH2 0x2A6C DUP6 DUP3 PUSH2 0x29EE JUMP JUMPDEST SWAP5 POP PUSH2 0x2A77 DUP4 PUSH2 0x38D5 JUMP JUMPDEST SWAP3 POP PUSH1 0x20 DUP11 ADD SWAP10 POP POP PUSH1 0x1 DUP2 ADD SWAP1 POP PUSH2 0x2A53 JUMP JUMPDEST POP DUP3 SWAP8 POP DUP8 SWAP6 POP POP POP POP POP POP SWAP3 SWAP2 POP POP JUMP JUMPDEST PUSH2 0x2AA6 DUP2 PUSH2 0x39CD JUMP JUMPDEST DUP3 MSTORE POP POP JUMP JUMPDEST PUSH2 0x2AB5 DUP2 PUSH2 0x39D9 JUMP JUMPDEST DUP3 MSTORE POP POP JUMP JUMPDEST PUSH2 0x2AC4 DUP2 PUSH2 0x39E3 JUMP JUMPDEST DUP3 MSTORE POP POP JUMP JUMPDEST PUSH1 0x0 PUSH2 0x2AD5 DUP3 PUSH2 0x38CA JUMP JUMPDEST PUSH2 0x2ADF DUP2 DUP6 PUSH2 0x38F3 JUMP JUMPDEST SWAP4 POP PUSH2 0x2AEF DUP2 DUP6 PUSH1 0x20 DUP7 ADD PUSH2 0x3A48 JUMP JUMPDEST PUSH2 0x2AF8 DUP2 PUSH2 0x3BB1 JUMP JUMPDEST DUP5 ADD SWAP2 POP POP SWAP3 SWAP2 POP POP JUMP JUMPDEST PUSH1 0x0 PUSH2 0x2B0E DUP3 PUSH2 0x38CA JUMP JUMPDEST PUSH2 0x2B18 DUP2 DUP6 PUSH2 0x3904 JUMP JUMPDEST SWAP4 POP PUSH2 0x2B28 DUP2 DUP6 PUSH1 0x20 DUP7 ADD PUSH2 0x3A48 JUMP JUMPDEST PUSH2 0x2B31 DUP2 PUSH2 0x3BB1 JUMP JUMPDEST DUP5 ADD SWAP2 POP POP SWAP3 SWAP2 POP POP JUMP JUMPDEST PUSH1 0x0 PUSH2 0x2B47 DUP3 PUSH2 0x38CA JUMP JUMPDEST PUSH2 0x2B51 DUP2 DUP6 PUSH2 0x3915 JUMP JUMPDEST SWAP4 POP PUSH2 0x2B61 DUP2 DUP6 PUSH1 0x20 DUP7 ADD PUSH2 0x3A48 JUMP JUMPDEST DUP1 DUP5 ADD SWAP2 POP POP SWAP3 SWAP2 POP POP JUMP JUMPDEST PUSH1 0x0 PUSH2 0x2B7A PUSH1 0x1B DUP4 PUSH2 0x3920 JUMP JUMPDEST SWAP2 POP PUSH32 0x4C5350373A20746F6B656E20726563656976657220697320454F410000000000 PUSH1 0x0 DUP4 ADD MSTORE PUSH1 0x20 DUP3 ADD SWAP1 POP SWAP2 SWAP1 POP JUMP JUMPDEST PUSH1 0x0 PUSH2 0x2BBA PUSH1 0x34 DUP4 PUSH2 0x3920 JUMP JUMPDEST SWAP2 POP PUSH32 0x4C5350373A206275726E20616D6F756E742065786365656473206F7065726174 PUSH1 0x0 DUP4 ADD MSTORE PUSH32 0x6F7220617574686F72697A656420616D6F756E74000000000000000000000000 PUSH1 0x20 DUP4 ADD MSTORE PUSH1 0x40 DUP3 ADD SWAP1 POP SWAP2 SWAP1 POP JUMP JUMPDEST PUSH1 0x0 PUSH2 0x2C20 PUSH1 0x38 DUP4 PUSH2 0x3920 JUMP JUMPDEST SWAP2 POP PUSH32 0x4C5350373A207472616E7366657220616D6F756E742065786365656473206F70 PUSH1 0x0 DUP4 ADD MSTORE PUSH32 0x657261746F7220617574686F72697A656420616D6F756E740000000000000000 PUSH1 0x20 DUP4 ADD MSTORE PUSH1 0x40 DUP3 ADD SWAP1 POP SWAP2 SWAP1 POP JUMP JUMPDEST PUSH1 0x0 PUSH2 0x2C86 PUSH1 0x28 DUP4 PUSH2 0x3920 JUMP JUMPDEST SWAP2 POP PUSH32 0x4C5350373A207472616E736665724261746368206C697374206C656E67746820 PUSH1 0x0 DUP4 ADD MSTORE PUSH32 0x6D69736D61746368000000000000000000000000000000000000000000000000 PUSH1 0x20 DUP4 ADD MSTORE PUSH1 0x40 DUP3 ADD SWAP1 POP SWAP2 SWAP1 POP JUMP JUMPDEST PUSH1 0x0 PUSH2 0x2CEC PUSH1 0x29 DUP4 PUSH2 0x3920 JUMP JUMPDEST SWAP2 POP PUSH32 0x4F776E61626C653A206F776E65722063616E206F6E6C7920626520696E697469 PUSH1 0x0 DUP4 ADD MSTORE PUSH32 0x61746564206F6E63650000000000000000000000000000000000000000000000 PUSH1 0x20 DUP4 ADD MSTORE PUSH1 0x40 DUP3 ADD SWAP1 POP SWAP2 SWAP1 POP JUMP JUMPDEST PUSH1 0x0 PUSH2 0x2D52 PUSH1 0x26 DUP4 PUSH2 0x3920 JUMP JUMPDEST SWAP2 POP PUSH32 0x4F776E61626C653A206E6577206F776E657220697320746865207A65726F2061 PUSH1 0x0 DUP4 ADD MSTORE PUSH32 0x6464726573730000000000000000000000000000000000000000000000000000 PUSH1 0x20 DUP4 ADD MSTORE PUSH1 0x40 DUP3 ADD SWAP1 POP SWAP2 SWAP1 POP JUMP JUMPDEST PUSH1 0x0 PUSH2 0x2DB8 PUSH1 0x2A DUP4 PUSH2 0x3920 JUMP JUMPDEST SWAP2 POP PUSH32 0x4C5350373A206D696E7420746F20746865207A65726F2061646472657373206E PUSH1 0x0 DUP4 ADD MSTORE PUSH32 0x6F7420616C6C6F77656400000000000000000000000000000000000000000000 PUSH1 0x20 DUP4 ADD MSTORE PUSH1 0x40 DUP3 ADD SWAP1 POP SWAP2 SWAP1 POP JUMP JUMPDEST PUSH1 0x0 PUSH2 0x2E1E PUSH1 0x43 DUP4 PUSH2 0x3920 JUMP JUMPDEST SWAP2 POP PUSH32 0x4C5350373A207570646174696E67206F70657261746F72206661696C65642C20 PUSH1 0x0 DUP4 ADD MSTORE PUSH32 0x63616E206E6F742075736520746F6B656E206F776E6572206173206F70657261 PUSH1 0x20 DUP4 ADD MSTORE PUSH32 0x746F720000000000000000000000000000000000000000000000000000000000 PUSH1 0x40 DUP4 ADD MSTORE PUSH1 0x60 DUP3 ADD SWAP1 POP SWAP2 SWAP1 POP JUMP JUMPDEST PUSH1 0x0 PUSH2 0x2EAA PUSH1 0x45 DUP4 PUSH2 0x3920 JUMP JUMPDEST SWAP2 POP PUSH32 0x4C5350373A207570646174696E67206F70657261746F72206661696C65642C20 PUSH1 0x0 DUP4 ADD MSTORE PUSH32 0x63616E206E6F7420736574206F70657261746F7220666F72207A65726F206164 PUSH1 0x20 DUP4 ADD MSTORE PUSH32 0x6472657373000000000000000000000000000000000000000000000000000000 PUSH1 0x40 DUP4 ADD MSTORE PUSH1 0x60 DUP3 ADD SWAP1 POP SWAP2 SWAP1 POP JUMP JUMPDEST PUSH1 0x0 PUSH2 0x2F36 PUSH1 0x30 DUP4 PUSH2 0x3920 JUMP JUMPDEST SWAP2 POP PUSH32 0x4C5350373A207472616E7366657220616D6F756E74206578636565647320746F PUSH1 0x0 DUP4 ADD MSTORE PUSH32 0x6B656E4F776E65722062616C616E636500000000000000000000000000000000 PUSH1 0x20 DUP4 ADD MSTORE PUSH1 0x40 DUP3 ADD SWAP1 POP SWAP2 SWAP1 POP JUMP JUMPDEST PUSH1 0x0 PUSH2 0x2F9C PUSH1 0x34 DUP4 PUSH2 0x3920 JUMP JUMPDEST SWAP2 POP PUSH32 0x4C5350373A20746F6B656E20726563656976657220636F6E7472616374206D69 PUSH1 0x0 DUP4 ADD MSTORE PUSH32 0x7373696E67204C53503120696E74657266616365000000000000000000000000 PUSH1 0x20 DUP4 ADD MSTORE PUSH1 0x40 DUP3 ADD SWAP1 POP SWAP2 SWAP1 POP JUMP JUMPDEST PUSH1 0x0 PUSH2 0x3002 PUSH1 0xC DUP4 PUSH2 0x3920 JUMP JUMPDEST SWAP2 POP PUSH32 0x756E617574686F72697A65640000000000000000000000000000000000000000 PUSH1 0x0 DUP4 ADD MSTORE PUSH1 0x20 DUP3 ADD SWAP1 POP SWAP2 SWAP1 POP JUMP JUMPDEST PUSH1 0x0 PUSH2 0x3042 PUSH1 0x24 DUP4 PUSH2 0x3920 JUMP JUMPDEST SWAP2 POP PUSH32 0x4C5350373A207472616E736665722066726F6D20746865207A65726F20616464 PUSH1 0x0 DUP4 ADD MSTORE PUSH32 0x7265737300000000000000000000000000000000000000000000000000000000 PUSH1 0x20 DUP4 ADD MSTORE PUSH1 0x40 DUP3 ADD SWAP1 POP SWAP2 SWAP1 POP JUMP JUMPDEST PUSH1 0x0 PUSH2 0x30A8 PUSH1 0x20 DUP4 PUSH2 0x3920 JUMP JUMPDEST SWAP2 POP PUSH32 0x4F776E61626C653A2063616C6C6572206973206E6F7420746865206F776E6572 PUSH1 0x0 DUP4 ADD MSTORE PUSH1 0x20 DUP3 ADD SWAP1 POP SWAP2 SWAP1 POP JUMP JUMPDEST PUSH1 0x0 PUSH2 0x30E8 PUSH1 0x28 DUP4 PUSH2 0x3920 JUMP JUMPDEST SWAP2 POP PUSH32 0x4C535037436170706564537570706C793A20746F6B656E537570706C79436170 PUSH1 0x0 DUP4 ADD MSTORE PUSH32 0x2072656163686564000000000000000000000000000000000000000000000000 PUSH1 0x20 DUP4 ADD MSTORE PUSH1 0x40 DUP3 ADD SWAP1 POP SWAP2 SWAP1 POP JUMP JUMPDEST PUSH1 0x0 PUSH2 0x314E PUSH1 0x22 DUP4 PUSH2 0x3920 JUMP JUMPDEST SWAP2 POP PUSH32 0x4C5350373A207472616E7366657220746F20746865207A65726F206164647265 PUSH1 0x0 DUP4 ADD MSTORE PUSH32 0x7373000000000000000000000000000000000000000000000000000000000000 PUSH1 0x20 DUP4 ADD MSTORE PUSH1 0x40 DUP3 ADD SWAP1 POP SWAP2 SWAP1 POP JUMP JUMPDEST PUSH1 0x0 PUSH2 0x31B4 PUSH1 0x40 DUP4 PUSH2 0x3920 JUMP JUMPDEST SWAP2 POP PUSH32 0x4C5350373A207570646174696E67206F70657261746F72206661696C65642C20 PUSH1 0x0 DUP4 ADD MSTORE PUSH32 0x6F70657261746F722063616E206E6F74206265207A65726F2061646472657373 PUSH1 0x20 DUP4 ADD MSTORE PUSH1 0x40 DUP3 ADD SWAP1 POP SWAP2 SWAP1 POP JUMP JUMPDEST PUSH1 0x0 PUSH2 0x321A PUSH1 0x20 DUP4 PUSH2 0x3920 JUMP JUMPDEST SWAP2 POP PUSH32 0x4C5350373A206275726E2066726F6D20746865207A65726F2061646472657373 PUSH1 0x0 DUP4 ADD MSTORE PUSH1 0x20 DUP3 ADD SWAP1 POP SWAP2 SWAP1 POP JUMP JUMPDEST PUSH1 0x0 PUSH2 0x325A PUSH1 0x26 DUP4 PUSH2 0x3920 JUMP JUMPDEST SWAP2 POP PUSH32 0x4B657973206C656E677468206E6F7420657175616C20746F2076616C75657320 PUSH1 0x0 DUP4 ADD MSTORE PUSH32 0x6C656E6774680000000000000000000000000000000000000000000000000000 PUSH1 0x20 DUP4 ADD MSTORE PUSH1 0x40 DUP3 ADD SWAP1 POP SWAP2 SWAP1 POP JUMP JUMPDEST PUSH1 0x0 PUSH2 0x32C0 PUSH1 0x2C DUP4 PUSH2 0x3920 JUMP JUMPDEST SWAP2 POP PUSH32 0x4C5350373A206275726E20616D6F756E74206578636565647320746F6B656E4F PUSH1 0x0 DUP4 ADD MSTORE PUSH32 0x776E65722062616C616E63650000000000000000000000000000000000000000 PUSH1 0x20 DUP4 ADD MSTORE PUSH1 0x40 DUP3 ADD SWAP1 POP SWAP2 SWAP1 POP JUMP JUMPDEST PUSH2 0x3322 DUP2 PUSH2 0x3A2F JUMP JUMPDEST DUP3 MSTORE POP POP JUMP JUMPDEST PUSH2 0x3339 PUSH2 0x3334 DUP3 PUSH2 0x3A2F JUMP JUMPDEST PUSH2 0x3B1A JUMP JUMPDEST DUP3 MSTORE POP POP JUMP JUMPDEST PUSH1 0x0 PUSH2 0x334B DUP3 DUP8 PUSH2 0x2A11 JUMP JUMPDEST PUSH1 0x14 DUP3 ADD SWAP2 POP PUSH2 0x335B DUP3 DUP7 PUSH2 0x2A11 JUMP JUMPDEST PUSH1 0x14 DUP3 ADD SWAP2 POP PUSH2 0x336B DUP3 DUP6 PUSH2 0x3328 JUMP JUMPDEST PUSH1 0x20 DUP3 ADD SWAP2 POP PUSH2 0x337B DUP3 DUP5 PUSH2 0x2B3C JUMP JUMPDEST SWAP2 POP DUP2 SWAP1 POP SWAP6 SWAP5 POP POP POP POP POP JUMP JUMPDEST PUSH1 0x0 PUSH2 0x3395 DUP3 DUP5 PUSH2 0x2B3C JUMP JUMPDEST SWAP2 POP DUP2 SWAP1 POP SWAP3 SWAP2 POP POP JUMP JUMPDEST PUSH1 0x0 PUSH1 0x20 DUP3 ADD SWAP1 POP PUSH2 0x33B5 PUSH1 0x0 DUP4 ADD DUP5 PUSH2 0x2A02 JUMP JUMPDEST SWAP3 SWAP2 POP POP JUMP JUMPDEST PUSH1 0x0 PUSH1 0x60 DUP3 ADD SWAP1 POP PUSH2 0x33D0 PUSH1 0x0 DUP4 ADD DUP7 PUSH2 0x2A02 JUMP JUMPDEST PUSH2 0x33DD PUSH1 0x20 DUP4 ADD DUP6 PUSH2 0x2A02 JUMP JUMPDEST PUSH2 0x33EA PUSH1 0x40 DUP4 ADD DUP5 PUSH2 0x3319 JUMP JUMPDEST SWAP5 SWAP4 POP POP POP POP JUMP JUMPDEST PUSH1 0x0 PUSH1 0x40 DUP3 ADD SWAP1 POP PUSH2 0x3407 PUSH1 0x0 DUP4 ADD DUP6 PUSH2 0x2A02 JUMP JUMPDEST PUSH2 0x3414 PUSH1 0x20 DUP4 ADD DUP5 PUSH2 0x3319 JUMP JUMPDEST SWAP4 SWAP3 POP POP POP JUMP JUMPDEST PUSH1 0x0 PUSH1 0x20 DUP3 ADD SWAP1 POP DUP2 DUP2 SUB PUSH1 0x0 DUP4 ADD MSTORE PUSH2 0x3435 DUP2 DUP5 PUSH2 0x2A28 JUMP JUMPDEST SWAP1 POP SWAP3 SWAP2 POP POP JUMP JUMPDEST PUSH1 0x0 PUSH1 0x20 DUP3 ADD SWAP1 POP PUSH2 0x3452 PUSH1 0x0 DUP4 ADD DUP5 PUSH2 0x2A9D JUMP JUMPDEST SWAP3 SWAP2 POP POP JUMP JUMPDEST PUSH1 0x0 PUSH1 0x40 DUP3 ADD SWAP1 POP PUSH2 0x346D PUSH1 0x0 DUP4 ADD DUP6 PUSH2 0x2AAC JUMP JUMPDEST DUP2 DUP2 SUB PUSH1 0x20 DUP4 ADD MSTORE PUSH2 0x347F DUP2 DUP5 PUSH2 0x2B03 JUMP JUMPDEST SWAP1 POP SWAP4 SWAP3 POP POP POP JUMP JUMPDEST PUSH1 0x0 PUSH1 0x20 DUP3 ADD SWAP1 POP PUSH2 0x349D PUSH1 0x0 DUP4 ADD DUP5 PUSH2 0x2ABB JUMP JUMPDEST SWAP3 SWAP2 POP POP JUMP JUMPDEST PUSH1 0x0 PUSH1 0x20 DUP3 ADD SWAP1 POP DUP2 DUP2 SUB PUSH1 0x0 DUP4 ADD MSTORE PUSH2 0x34BD DUP2 DUP5 PUSH2 0x2B03 JUMP JUMPDEST SWAP1 POP SWAP3 SWAP2 POP POP JUMP JUMPDEST PUSH1 0x0 PUSH1 0x20 DUP3 ADD SWAP1 POP DUP2 DUP2 SUB PUSH1 0x0 DUP4 ADD MSTORE PUSH2 0x34DE DUP2 PUSH2 0x2B6D JUMP JUMPDEST SWAP1 POP SWAP2 SWAP1 POP JUMP JUMPDEST PUSH1 0x0 PUSH1 0x20 DUP3 ADD SWAP1 POP DUP2 DUP2 SUB PUSH1 0x0 DUP4 ADD MSTORE PUSH2 0x34FE DUP2 PUSH2 0x2BAD JUMP JUMPDEST SWAP1 POP SWAP2 SWAP1 POP JUMP JUMPDEST PUSH1 0x0 PUSH1 0x20 DUP3 ADD SWAP1 POP DUP2 DUP2 SUB PUSH1 0x0 DUP4 ADD MSTORE PUSH2 0x351E DUP2 PUSH2 0x2C13 JUMP JUMPDEST SWAP1 POP SWAP2 SWAP1 POP JUMP JUMPDEST PUSH1 0x0 PUSH1 0x20 DUP3 ADD SWAP1 POP DUP2 DUP2 SUB PUSH1 0x0 DUP4 ADD MSTORE PUSH2 0x353E DUP2 PUSH2 0x2C79 JUMP JUMPDEST SWAP1 POP SWAP2 SWAP1 POP JUMP JUMPDEST PUSH1 0x0 PUSH1 0x20 DUP3 ADD SWAP1 POP DUP2 DUP2 SUB PUSH1 0x0 DUP4 ADD MSTORE PUSH2 0x355E DUP2 PUSH2 0x2CDF JUMP JUMPDEST SWAP1 POP SWAP2 SWAP1 POP JUMP JUMPDEST PUSH1 0x0 PUSH1 0x20 DUP3 ADD SWAP1 POP DUP2 DUP2 SUB PUSH1 0x0 DUP4 ADD MSTORE PUSH2 0x357E DUP2 PUSH2 0x2D45 JUMP JUMPDEST SWAP1 POP SWAP2 SWAP1 POP JUMP JUMPDEST PUSH1 0x0 PUSH1 0x20 DUP3 ADD SWAP1 POP DUP2 DUP2 SUB PUSH1 0x0 DUP4 ADD MSTORE PUSH2 0x359E DUP2 PUSH2 0x2DAB JUMP JUMPDEST SWAP1 POP SWAP2 SWAP1 POP JUMP JUMPDEST PUSH1 0x0 PUSH1 0x20 DUP3 ADD SWAP1 POP DUP2 DUP2 SUB PUSH1 0x0 DUP4 ADD MSTORE PUSH2 0x35BE DUP2 PUSH2 0x2E11 JUMP JUMPDEST SWAP1 POP SWAP2 SWAP1 POP JUMP JUMPDEST PUSH1 0x0 PUSH1 0x20 DUP3 ADD SWAP1 POP DUP2 DUP2 SUB PUSH1 0x0 DUP4 ADD MSTORE PUSH2 0x35DE DUP2 PUSH2 0x2E9D JUMP JUMPDEST SWAP1 POP SWAP2 SWAP1 POP JUMP JUMPDEST PUSH1 0x0 PUSH1 0x20 DUP3 ADD SWAP1 POP DUP2 DUP2 SUB PUSH1 0x0 DUP4 ADD MSTORE PUSH2 0x35FE DUP2 PUSH2 0x2F29 JUMP JUMPDEST SWAP1 POP SWAP2 SWAP1 POP JUMP JUMPDEST PUSH1 0x0 PUSH1 0x20 DUP3 ADD SWAP1 POP DUP2 DUP2 SUB PUSH1 0x0 DUP4 ADD MSTORE PUSH2 0x361E DUP2 PUSH2 0x2F8F JUMP JUMPDEST SWAP1 POP SWAP2 SWAP1 POP JUMP JUMPDEST PUSH1 0x0 PUSH1 0x20 DUP3 ADD SWAP1 POP DUP2 DUP2 SUB PUSH1 0x0 DUP4 ADD MSTORE PUSH2 0x363E DUP2 PUSH2 0x2FF5 JUMP JUMPDEST SWAP1 POP SWAP2 SWAP1 POP JUMP JUMPDEST PUSH1 0x0 PUSH1 0x20 DUP3 ADD SWAP1 POP DUP2 DUP2 SUB PUSH1 0x0 DUP4 ADD MSTORE PUSH2 0x365E DUP2 PUSH2 0x3035 JUMP JUMPDEST SWAP1 POP SWAP2 SWAP1 POP JUMP JUMPDEST PUSH1 0x0 PUSH1 0x20 DUP3 ADD SWAP1 POP DUP2 DUP2 SUB PUSH1 0x0 DUP4 ADD MSTORE PUSH2 0x367E DUP2 PUSH2 0x309B JUMP JUMPDEST SWAP1 POP SWAP2 SWAP1 POP JUMP JUMPDEST PUSH1 0x0 PUSH1 0x20 DUP3 ADD SWAP1 POP DUP2 DUP2 SUB PUSH1 0x0 DUP4 ADD MSTORE PUSH2 0x369E DUP2 PUSH2 0x30DB JUMP JUMPDEST SWAP1 POP SWAP2 SWAP1 POP JUMP JUMPDEST PUSH1 0x0 PUSH1 0x20 DUP3 ADD SWAP1 POP DUP2 DUP2 SUB PUSH1 0x0 DUP4 ADD MSTORE PUSH2 0x36BE DUP2 PUSH2 0x3141 JUMP JUMPDEST SWAP1 POP SWAP2 SWAP1 POP JUMP JUMPDEST PUSH1 0x0 PUSH1 0x20 DUP3 ADD SWAP1 POP DUP2 DUP2 SUB PUSH1 0x0 DUP4 ADD MSTORE PUSH2 0x36DE DUP2 PUSH2 0x31A7 JUMP JUMPDEST SWAP1 POP SWAP2 SWAP1 POP JUMP JUMPDEST PUSH1 0x0 PUSH1 0x20 DUP3 ADD SWAP1 POP DUP2 DUP2 SUB PUSH1 0x0 DUP4 ADD MSTORE PUSH2 0x36FE DUP2 PUSH2 0x320D JUMP JUMPDEST SWAP1 POP SWAP2 SWAP1 POP JUMP JUMPDEST PUSH1 0x0 PUSH1 0x20 DUP3 ADD SWAP1 POP DUP2 DUP2 SUB PUSH1 0x0 DUP4 ADD MSTORE PUSH2 0x371E DUP2 PUSH2 0x324D JUMP JUMPDEST SWAP1 POP SWAP2 SWAP1 POP JUMP JUMPDEST PUSH1 0x0 PUSH1 0x20 DUP3 ADD SWAP1 POP DUP2 DUP2 SUB PUSH1 0x0 DUP4 ADD MSTORE PUSH2 0x373E DUP2 PUSH2 0x32B3 JUMP JUMPDEST SWAP1 POP SWAP2 SWAP1 POP JUMP JUMPDEST PUSH1 0x0 PUSH1 0x20 DUP3 ADD SWAP1 POP PUSH2 0x375A PUSH1 0x0 DUP4 ADD DUP5 PUSH2 0x3319 JUMP JUMPDEST SWAP3 SWAP2 POP POP JUMP JUMPDEST PUSH1 0x0 PUSH1 0x60 DUP3 ADD SWAP1 POP PUSH2 0x3775 PUSH1 0x0 DUP4 ADD DUP7 PUSH2 0x3319 JUMP JUMPDEST PUSH2 0x3782 PUSH1 0x20 DUP4 ADD DUP6 PUSH2 0x2A9D JUMP JUMPDEST DUP2 DUP2 SUB PUSH1 0x40 DUP4 ADD MSTORE PUSH2 0x3794 DUP2 DUP5 PUSH2 0x2B03 JUMP JUMPDEST SWAP1 POP SWAP5 SWAP4 POP POP POP POP JUMP JUMPDEST PUSH1 0x0 PUSH1 0x40 MLOAD SWAP1 POP DUP2 DUP2 ADD DUP2 DUP2 LT PUSH8 0xFFFFFFFFFFFFFFFF DUP3 GT OR ISZERO PUSH2 0x37C5 JUMPI PUSH2 0x37C4 PUSH2 0x3B82 JUMP JUMPDEST JUMPDEST DUP1 PUSH1 0x40 MSTORE POP SWAP2 SWAP1 POP JUMP JUMPDEST PUSH1 0x0 PUSH8 0xFFFFFFFFFFFFFFFF DUP3 GT ISZERO PUSH2 0x37EA JUMPI PUSH2 0x37E9 PUSH2 0x3B82 JUMP JUMPDEST JUMPDEST PUSH1 0x20 DUP3 MUL SWAP1 POP PUSH1 0x20 DUP2 ADD SWAP1 POP SWAP2 SWAP1 POP JUMP JUMPDEST PUSH1 0x0 PUSH8 0xFFFFFFFFFFFFFFFF DUP3 GT ISZERO PUSH2 0x3816 JUMPI PUSH2 0x3815 PUSH2 0x3B82 JUMP JUMPDEST JUMPDEST PUSH1 0x20 DUP3 MUL SWAP1 POP PUSH1 0x20 DUP2 ADD SWAP1 POP SWAP2 SWAP1 POP JUMP JUMPDEST PUSH1 0x0 PUSH8 0xFFFFFFFFFFFFFFFF DUP3 GT ISZERO PUSH2 0x3842 JUMPI PUSH2 0x3841 PUSH2 0x3B82 JUMP JUMPDEST JUMPDEST PUSH1 0x20 DUP3 MUL SWAP1 POP PUSH1 0x20 DUP2 ADD SWAP1 POP SWAP2 SWAP1 POP JUMP JUMPDEST PUSH1 0x0 PUSH8 0xFFFFFFFFFFFFFFFF DUP3 GT ISZERO PUSH2 0x386E JUMPI PUSH2 0x386D PUSH2 0x3B82 JUMP JUMPDEST JUMPDEST PUSH1 0x20 DUP3 MUL SWAP1 POP PUSH1 0x20 DUP2 ADD SWAP1 POP SWAP2 SWAP1 POP JUMP JUMPDEST PUSH1 0x0 PUSH8 0xFFFFFFFFFFFFFFFF DUP3 GT ISZERO PUSH2 0x389A JUMPI PUSH2 0x3899 PUSH2 0x3B82 JUMP JUMPDEST JUMPDEST PUSH1 0x1F NOT PUSH1 0x1F DUP4 ADD AND SWAP1 POP PUSH1 0x20 DUP2 ADD SWAP1 POP SWAP2 SWAP1 POP JUMP JUMPDEST PUSH1 0x0 DUP2 SWAP1 POP PUSH1 0x20 DUP3 ADD SWAP1 POP SWAP2 SWAP1 POP JUMP JUMPDEST PUSH1 0x0 DUP2 MLOAD SWAP1 POP SWAP2 SWAP1 POP JUMP JUMPDEST PUSH1 0x0 DUP2 MLOAD SWAP1 POP SWAP2 SWAP1 POP JUMP JUMPDEST PUSH1 0x0 PUSH1 0x20 DUP3 ADD SWAP1 POP SWAP2 SWAP1 POP JUMP JUMPDEST PUSH1 0x0 DUP3 DUP3 MSTORE PUSH1 0x20 DUP3 ADD SWAP1 POP SWAP3 SWAP2 POP POP JUMP JUMPDEST PUSH1 0x0 DUP3 DUP3 MSTORE PUSH1 0x20 DUP3 ADD SWAP1 POP SWAP3 SWAP2 POP POP JUMP JUMPDEST PUSH1 0x0 DUP3 DUP3 MSTORE PUSH1 0x20 DUP3 ADD SWAP1 POP SWAP3 SWAP2 POP POP JUMP JUMPDEST PUSH1 0x0 DUP2 SWAP1 POP SWAP3 SWAP2 POP POP JUMP JUMPDEST PUSH1 0x0 DUP3 DUP3 MSTORE PUSH1 0x20 DUP3 ADD SWAP1 POP SWAP3 SWAP2 POP POP JUMP JUMPDEST PUSH1 0x0 PUSH2 0x393C DUP3 PUSH2 0x3A2F JUMP JUMPDEST SWAP2 POP PUSH2 0x3947 DUP4 PUSH2 0x3A2F JUMP JUMPDEST SWAP3 POP DUP3 PUSH32 0xFFFFFFFFFFFFFFFFFFFFFFFFFFFFFFFFFFFFFFFFFFFFFFFFFFFFFFFFFFFFFFFF SUB DUP3 GT ISZERO PUSH2 0x397C JUMPI PUSH2 0x397B PUSH2 0x3B24 JUMP JUMPDEST JUMPDEST DUP3 DUP3 ADD SWAP1 POP SWAP3 SWAP2 POP POP JUMP JUMPDEST PUSH1 0x0 PUSH2 0x3992 DUP3 PUSH2 0x3A2F JUMP JUMPDEST SWAP2 POP PUSH2 0x399D DUP4 PUSH2 0x3A2F JUMP JUMPDEST SWAP3 POP DUP3 DUP3 LT ISZERO PUSH2 0x39B0 JUMPI PUSH2 0x39AF PUSH2 0x3B24 JUMP JUMPDEST JUMPDEST DUP3 DUP3 SUB SWAP1 POP SWAP3 SWAP2 POP POP JUMP JUMPDEST PUSH1 0x0 PUSH2 0x39C6 DUP3 PUSH2 0x3A0F JUMP JUMPDEST SWAP1 POP SWAP2 SWAP1 POP JUMP JUMPDEST PUSH1 0x0 DUP2 ISZERO ISZERO SWAP1 POP SWAP2 SWAP1 POP JUMP JUMPDEST PUSH1 0x0 DUP2 SWAP1 POP SWAP2 SWAP1 POP JUMP JUMPDEST PUSH1 0x0 PUSH32 0xFFFFFFFF00000000000000000000000000000000000000000000000000000000 DUP3 AND SWAP1 POP SWAP2 SWAP1 POP JUMP JUMPDEST PUSH1 0x0 PUSH20 0xFFFFFFFFFFFFFFFFFFFFFFFFFFFFFFFFFFFFFFFF DUP3 AND SWAP1 POP SWAP2 SWAP1 POP JUMP JUMPDEST PUSH1 0x0 DUP2 SWAP1 POP SWAP2 SWAP1 POP JUMP JUMPDEST DUP3 DUP2 DUP4 CALLDATACOPY PUSH1 0x0 DUP4 DUP4 ADD MSTORE POP POP POP JUMP JUMPDEST PUSH1 0x0 JUMPDEST DUP4 DUP2 LT ISZERO PUSH2 0x3A66 JUMPI DUP1 DUP3 ADD MLOAD DUP2 DUP5 ADD MSTORE PUSH1 0x20 DUP2 ADD SWAP1 POP PUSH2 0x3A4B JUMP JUMPDEST DUP4 DUP2 GT ISZERO PUSH2 0x3A75 JUMPI PUSH1 0x0 DUP5 DUP5 ADD MSTORE JUMPDEST POP POP POP POP JUMP JUMPDEST PUSH1 0x0 PUSH1 0x2 DUP3 DIV SWAP1 POP PUSH1 0x1 DUP3 AND DUP1 PUSH2 0x3A93 JUMPI PUSH1 0x7F DUP3 AND SWAP2 POP JUMPDEST PUSH1 0x20 DUP3 LT DUP2 EQ ISZERO PUSH2 0x3AA7 JUMPI PUSH2 0x3AA6 PUSH2 0x3B53 JUMP JUMPDEST JUMPDEST POP SWAP2 SWAP1 POP JUMP JUMPDEST PUSH1 0x0 PUSH2 0x3AB8 DUP3 PUSH2 0x3A2F JUMP JUMPDEST SWAP2 POP PUSH32 0xFFFFFFFFFFFFFFFFFFFFFFFFFFFFFFFFFFFFFFFFFFFFFFFFFFFFFFFFFFFFFFFF DUP3 EQ ISZERO PUSH2 0x3AEB JUMPI PUSH2 0x3AEA PUSH2 0x3B24 JUMP JUMPDEST JUMPDEST PUSH1 0x1 DUP3 ADD SWAP1 POP SWAP2 SWAP1 POP JUMP JUMPDEST PUSH1 0x0 PUSH2 0x3B01 DUP3 PUSH2 0x3B08 JUMP JUMPDEST SWAP1 POP SWAP2 SWAP1 POP JUMP JUMPDEST PUSH1 0x0 PUSH2 0x3B13 DUP3 PUSH2 0x3BC2 JUMP JUMPDEST SWAP1 POP SWAP2 SWAP1 POP JUMP JUMPDEST PUSH1 0x0 DUP2 SWAP1 POP SWAP2 SWAP1 POP JUMP JUMPDEST PUSH32 0x4E487B7100000000000000000000000000000000000000000000000000000000 PUSH1 0x0 MSTORE PUSH1 0x11 PUSH1 0x4 MSTORE PUSH1 0x24 PUSH1 0x0 REVERT JUMPDEST PUSH32 0x4E487B7100000000000000000000000000000000000000000000000000000000 PUSH1 0x0 MSTORE PUSH1 0x22 PUSH1 0x4 MSTORE PUSH1 0x24 PUSH1 0x0 REVERT JUMPDEST PUSH32 0x4E487B7100000000000000000000000000000000000000000000000000000000 PUSH1 0x0 MSTORE PUSH1 0x41 PUSH1 0x4 MSTORE PUSH1 0x24 PUSH1 0x0 REVERT JUMPDEST PUSH1 0x0 PUSH1 0x1F NOT PUSH1 0x1F DUP4 ADD AND SWAP1 POP SWAP2 SWAP1 POP JUMP JUMPDEST PUSH1 0x0 DUP2 PUSH1 0x60 SHL SWAP1 POP SWAP2 SWAP1 POP JUMP JUMPDEST PUSH2 0x3BD8 DUP2 PUSH2 0x39BB JUMP JUMPDEST DUP2 EQ PUSH2 0x3BE3 JUMPI PUSH1 0x0 DUP1 REVERT JUMPDEST POP JUMP JUMPDEST PUSH2 0x3BEF DUP2 PUSH2 0x39CD JUMP JUMPDEST DUP2 EQ PUSH2 0x3BFA JUMPI PUSH1 0x0 DUP1 REVERT JUMPDEST POP JUMP JUMPDEST PUSH2 0x3C06 DUP2 PUSH2 0x39D9 JUMP JUMPDEST DUP2 EQ PUSH2 0x3C11 JUMPI PUSH1 0x0 DUP1 REVERT JUMPDEST POP JUMP JUMPDEST PUSH2 0x3C1D DUP2 PUSH2 0x39E3 JUMP JUMPDEST DUP2 EQ PUSH2 0x3C28 JUMPI PUSH1 0x0 DUP1 REVERT JUMPDEST POP JUMP JUMPDEST PUSH2 0x3C34 DUP2 PUSH2 0x3A2F JUMP JUMPDEST DUP2 EQ PUSH2 0x3C3F JUMPI PUSH1 0x0 DUP1 REVERT JUMPDEST POP JUMP INVALID LOG2 PUSH5 0x6970667358 0x22 SLT KECCAK256 PUSH15 0xBA52FCCD747F813107D563459327D OR CALLCODE 0xD8 PUSH9 0x85D9BBD505FEB8DB48 CODESIZE 0xF9 0xB8 PUSH5 0x736F6C6343 STOP ADDMOD STOP STOP CALLER "
		},
		"gasEstimates": {
			"creation": {
				"codeDepositCost": "3096000",
				"executionCost": "infinite",
				"totalCost": "infinite"
			},
			"external": {
				"authorizeOperator(address,uint256)": "22992",
				"award(address,address)": "infinite",
				"awardAmount()": "1195",
				"balanceOf(address)": "1630",
				"decimals()": "1319",
				"getData(bytes32[])": "infinite",
				"isOperatorFor(address,address)": "infinite",
				"owner()": "1267",
				"redeem(address,uint256)": "infinite",
				"redeemAll(address)": "infinite",
				"renounceOwnership()": "24485",
				"revokeOperator(address)": "7518",
				"setAwardAmount(uint256)": "21436",
				"setData(bytes32[],bytes[])": "infinite",
				"supportsInterface(bytes4)": "1659",
				"tokenSupplyCap()": "1204",
				"totalSupply()": "1205",
				"transfer(address,address,uint256,bool,bytes)": "infinite",
				"transferBatch(address[],address[],uint256[],bool,bytes[])": "infinite",
				"transferOwnership(address)": "24811"
			}
		},
		"methodIdentifiers": {
			"authorizeOperator(address,uint256)": "47980aa3",
			"award(address,address)": "e0fda796",
			"awardAmount()": "e9893c67",
			"balanceOf(address)": "70a08231",
			"decimals()": "313ce567",
			"getData(bytes32[])": "4e3e6e9c",
			"isOperatorFor(address,address)": "d95b6371",
			"owner()": "8da5cb5b",
			"redeem(address,uint256)": "1e9a6950",
			"redeemAll(address)": "be399be5",
			"renounceOwnership()": "715018a6",
			"revokeOperator(address)": "fad8b32a",
			"setAwardAmount(uint256)": "d2706c19",
			"setData(bytes32[],bytes[])": "14a6e293",
			"supportsInterface(bytes4)": "01ffc9a7",
			"tokenSupplyCap()": "52058d8a",
			"totalSupply()": "18160ddd",
			"transfer(address,address,uint256,bool,bytes)": "760d9bba",
			"transferBatch(address[],address[],uint256[],bool,bytes[])": "a8a34e0a",
			"transferOwnership(address)": "f2fde38b"
		}
	},
	"abi": [
		{
			"inputs": [
				{
					"internalType": "string",
					"name": "name",
					"type": "string"
				},
				{
					"internalType": "string",
					"name": "symbol",
					"type": "string"
				},
				{
					"internalType": "address",
					"name": "contributor",
					"type": "address"
				}
			],
			"stateMutability": "nonpayable",
			"type": "constructor"
		},
		{
			"anonymous": false,
			"inputs": [
				{
					"indexed": true,
					"internalType": "address",
					"name": "operator",
					"type": "address"
				},
				{
					"indexed": true,
					"internalType": "address",
					"name": "tokenOwner",
					"type": "address"
				},
				{
					"indexed": true,
					"internalType": "uint256",
					"name": "amount",
					"type": "uint256"
				}
			],
			"name": "AuthorizedOperator",
			"type": "event"
		},
		{
			"anonymous": false,
			"inputs": [
				{
					"indexed": false,
					"internalType": "address",
					"name": "contributor",
					"type": "address"
				},
				{
					"indexed": false,
					"internalType": "address",
					"name": "student",
					"type": "address"
				},
				{
					"indexed": false,
					"internalType": "uint256",
					"name": "amount",
					"type": "uint256"
				}
			],
			"name": "Awarded",
			"type": "event"
		},
		{
			"anonymous": false,
			"inputs": [
				{
					"indexed": true,
					"internalType": "bytes32",
					"name": "key",
					"type": "bytes32"
				},
				{
					"indexed": false,
					"internalType": "bytes",
					"name": "value",
					"type": "bytes"
				}
			],
			"name": "DataChanged",
			"type": "event"
		},
		{
			"anonymous": false,
			"inputs": [
				{
					"indexed": true,
					"internalType": "address",
					"name": "previousOwner",
					"type": "address"
				},
				{
					"indexed": true,
					"internalType": "address",
					"name": "newOwner",
					"type": "address"
				}
			],
			"name": "OwnershipTransferred",
			"type": "event"
		},
		{
			"anonymous": false,
			"inputs": [
				{
					"indexed": false,
					"internalType": "address",
					"name": "awardee",
					"type": "address"
				},
				{
					"indexed": false,
					"internalType": "uint256",
					"name": "amount",
					"type": "uint256"
				}
			],
			"name": "Redeemed",
			"type": "event"
		},
		{
			"anonymous": false,
			"inputs": [
				{
					"indexed": true,
					"internalType": "address",
					"name": "operator",
					"type": "address"
				},
				{
					"indexed": true,
					"internalType": "address",
					"name": "tokenOwner",
					"type": "address"
				}
			],
			"name": "RevokedOperator",
			"type": "event"
		},
		{
			"anonymous": false,
			"inputs": [
				{
					"indexed": true,
					"internalType": "address",
					"name": "operator",
					"type": "address"
				},
				{
					"indexed": true,
					"internalType": "address",
					"name": "from",
					"type": "address"
				},
				{
					"indexed": true,
					"internalType": "address",
					"name": "to",
					"type": "address"
				},
				{
					"indexed": false,
					"internalType": "uint256",
					"name": "amount",
					"type": "uint256"
				},
				{
					"indexed": false,
					"internalType": "bool",
					"name": "force",
					"type": "bool"
				},
				{
					"indexed": false,
					"internalType": "bytes",
					"name": "data",
					"type": "bytes"
				}
			],
			"name": "Transfer",
			"type": "event"
		},
		{
			"inputs": [
				{
					"internalType": "address",
					"name": "operator",
					"type": "address"
				},
				{
					"internalType": "uint256",
					"name": "amount",
					"type": "uint256"
				}
			],
			"name": "authorizeOperator",
			"outputs": [],
			"stateMutability": "nonpayable",
			"type": "function"
		},
		{
			"inputs": [
				{
					"internalType": "address",
					"name": "contributor",
					"type": "address"
				},
				{
					"internalType": "address",
					"name": "student",
					"type": "address"
				}
			],
			"name": "award",
			"outputs": [],
			"stateMutability": "nonpayable",
			"type": "function"
		},
		{
			"inputs": [],
			"name": "awardAmount",
			"outputs": [
				{
					"internalType": "uint256",
					"name": "",
					"type": "uint256"
				}
			],
			"stateMutability": "view",
			"type": "function"
		},
		{
			"inputs": [
				{
					"internalType": "address",
					"name": "tokenOwner",
					"type": "address"
				}
			],
			"name": "balanceOf",
			"outputs": [
				{
					"internalType": "uint256",
					"name": "",
					"type": "uint256"
				}
			],
			"stateMutability": "view",
			"type": "function"
		},
		{
			"inputs": [],
			"name": "decimals",
			"outputs": [
				{
					"internalType": "uint256",
					"name": "",
					"type": "uint256"
				}
			],
			"stateMutability": "view",
			"type": "function"
		},
		{
			"inputs": [
				{
					"internalType": "bytes32[]",
					"name": "_keys",
					"type": "bytes32[]"
				}
			],
			"name": "getData",
			"outputs": [
				{
					"internalType": "bytes[]",
					"name": "values",
					"type": "bytes[]"
				}
			],
			"stateMutability": "view",
			"type": "function"
		},
		{
			"inputs": [
				{
					"internalType": "address",
					"name": "operator",
					"type": "address"
				},
				{
					"internalType": "address",
					"name": "tokenOwner",
					"type": "address"
				}
			],
			"name": "isOperatorFor",
			"outputs": [
				{
					"internalType": "uint256",
					"name": "",
					"type": "uint256"
				}
			],
			"stateMutability": "view",
			"type": "function"
		},
		{
			"inputs": [],
			"name": "owner",
			"outputs": [
				{
					"internalType": "address",
					"name": "",
					"type": "address"
				}
			],
			"stateMutability": "view",
			"type": "function"
		},
		{
			"inputs": [
				{
					"internalType": "address",
					"name": "awardee",
					"type": "address"
				},
				{
					"internalType": "uint256",
					"name": "amount",
					"type": "uint256"
				}
			],
			"name": "redeem",
			"outputs": [],
			"stateMutability": "nonpayable",
			"type": "function"
		},
		{
			"inputs": [
				{
					"internalType": "address",
					"name": "from",
					"type": "address"
				}
			],
			"name": "redeemAll",
			"outputs": [],
			"stateMutability": "nonpayable",
			"type": "function"
		},
		{
			"inputs": [],
			"name": "renounceOwnership",
			"outputs": [],
			"stateMutability": "nonpayable",
			"type": "function"
		},
		{
			"inputs": [
				{
					"internalType": "address",
					"name": "operator",
					"type": "address"
				}
			],
			"name": "revokeOperator",
			"outputs": [],
			"stateMutability": "nonpayable",
			"type": "function"
		},
		{
			"inputs": [
				{
					"internalType": "uint256",
					"name": "amount",
					"type": "uint256"
				}
			],
			"name": "setAwardAmount",
			"outputs": [],
			"stateMutability": "nonpayable",
			"type": "function"
		},
		{
			"inputs": [
				{
					"internalType": "bytes32[]",
					"name": "_keys",
					"type": "bytes32[]"
				},
				{
					"internalType": "bytes[]",
					"name": "_values",
					"type": "bytes[]"
				}
			],
			"name": "setData",
			"outputs": [],
			"stateMutability": "nonpayable",
			"type": "function"
		},
		{
			"inputs": [
				{
					"internalType": "bytes4",
					"name": "interfaceId",
					"type": "bytes4"
				}
			],
			"name": "supportsInterface",
			"outputs": [
				{
					"internalType": "bool",
					"name": "",
					"type": "bool"
				}
			],
			"stateMutability": "view",
			"type": "function"
		},
		{
			"inputs": [],
			"name": "tokenSupplyCap",
			"outputs": [
				{
					"internalType": "uint256",
					"name": "",
					"type": "uint256"
				}
			],
			"stateMutability": "view",
			"type": "function"
		},
		{
			"inputs": [],
			"name": "totalSupply",
			"outputs": [
				{
					"internalType": "uint256",
					"name": "",
					"type": "uint256"
				}
			],
			"stateMutability": "view",
			"type": "function"
		},
		{
			"inputs": [
				{
					"internalType": "address",
					"name": "from",
					"type": "address"
				},
				{
					"internalType": "address",
					"name": "to",
					"type": "address"
				},
				{
					"internalType": "uint256",
					"name": "amount",
					"type": "uint256"
				},
				{
					"internalType": "bool",
					"name": "force",
					"type": "bool"
				},
				{
					"internalType": "bytes",
					"name": "data",
					"type": "bytes"
				}
			],
			"name": "transfer",
			"outputs": [],
			"stateMutability": "nonpayable",
			"type": "function"
		},
		{
			"inputs": [
				{
					"internalType": "address[]",
					"name": "from",
					"type": "address[]"
				},
				{
					"internalType": "address[]",
					"name": "to",
					"type": "address[]"
				},
				{
					"internalType": "uint256[]",
					"name": "amount",
					"type": "uint256[]"
				},
				{
					"internalType": "bool",
					"name": "force",
					"type": "bool"
				},
				{
					"internalType": "bytes[]",
					"name": "data",
					"type": "bytes[]"
				}
			],
			"name": "transferBatch",
			"outputs": [],
			"stateMutability": "nonpayable",
			"type": "function"
		},
		{
			"inputs": [
				{
					"internalType": "address",
					"name": "newOwner",
					"type": "address"
				}
			],
			"name": "transferOwnership",
			"outputs": [],
			"stateMutability": "nonpayable",
			"type": "function"
		}
	]
}