{
	"data": {
		"bytecode": {
			"linkReferences": {},
			"object": "6080604052662386f26fc100006008553480156200001c57600080fd5b5060405162004ff838038062004ff88339818101604052810190620000429190620006b1565b6a52b7d2dcc80cd2e400000083838660008383838062000067620002bd60201b60201c565b73ffffffffffffffffffffffffffffffffffffffff168173ffffffffffffffffffffffffffffffffffffffff1614620000b157620000b081620002e660201b620011c61760201c565b5b620000e27f5a988c0f000000000000000000000000000000000000000000000000000000006200036860201b60201c565b50620001187fdeba1e292f8ba88238e10ab3c7f88bd4be4fac56cad5194b6ecceaf653468af160001b846200044060201b60201c565b6200014d7f2f0a68ab07768e01943a599e73362a0e17a63a72e94dd2e384d2c1d4db93275660001b836200044060201b60201c565b50505080600360006101000a81548160ff0219169083151502179055506200018263e33f65c360e01b6200036860201b60201c565b620001df7feafec4d89fa9619884b6b8913562645500000000000000000000000074ac49b060001b6374ac49b060e01b604051602001620001c4919062000832565b6040516020818303038152906040526200044060201b60201c565b505050506000811162000229576040517f08c379a00000000000000000000000000000000000000000000000000000000081526004016200022090620008b7565b60405180910390fd5b806007819055505083600960006101000a81548173ffffffffffffffffffffffffffffffffffffffff021916908373ffffffffffffffffffffffffffffffffffffffff16021790555080600a60006101000a81548173ffffffffffffffffffffffffffffffffffffffff021916908373ffffffffffffffffffffffffffffffffffffffff1602179055505050505062000bd5565b60008060009054906101000a900473ffffffffffffffffffffffffffffffffffffffff16905090565b600060149054906101000a900460ff161562000339576040517f08c379a0000000000000000000000000000000000000000000000000000000008152600401620003309062000873565b60405180910390fd5b6001600060146101000a81548160ff0219169083151502179055506200036581620004a860201b60201c565b50565b63ffffffff60e01b817bffffffffffffffffffffffffffffffffffffffffffffffffffffffff19161415620003d4576040517f08c379a0000000000000000000000000000000000000000000000000000000008152600401620003cb9062000895565b60405180910390fd5b6001806000837bffffffffffffffffffffffffffffffffffffffffffffffffffffffff19167bffffffffffffffffffffffffffffffffffffffffffffffffffffffff1916815260200190815260200160002060006101000a81548160ff02191690831515021790555050565b80600260008481526020019081526020016000209080519060200190620004699291906200056c565b50817fece574603820d07bc9b91f2a932baadf4628aabcb8afba49776529c14a6104b2826040516200049c91906200084f565b60405180910390a25050565b60008060009054906101000a900473ffffffffffffffffffffffffffffffffffffffff169050816000806101000a81548173ffffffffffffffffffffffffffffffffffffffff021916908373ffffffffffffffffffffffffffffffffffffffff1602179055508173ffffffffffffffffffffffffffffffffffffffff168173ffffffffffffffffffffffffffffffffffffffff167f8be0079c531659141344cd1fd0a4f28419497f9722a3daafe3b4186f6b6457e060405160405180910390a35050565b8280546200057a90620009fb565b90600052602060002090601f0160209004810192826200059e5760008555620005ea565b82601f10620005b957805160ff1916838001178555620005ea565b82800160010185558215620005ea579182015b82811115620005e9578251825591602001919060010190620005cc565b5b509050620005f99190620005fd565b5090565b5b8082111562000618576000816000905550600101620005fe565b5090565b6000620006336200062d8462000902565b620008d9565b90508281526020810184848401111562000652576200065162000ad4565b5b6200065f848285620009c5565b509392505050565b600081519050620006788162000bbb565b92915050565b600082601f83011262000696576200069562000acf565b5b8151620006a88482602086016200061c565b91505092915050565b60008060008060808587031215620006ce57620006cd62000ade565b5b6000620006de8782880162000667565b945050602085015167ffffffffffffffff81111562000702576200070162000ad9565b5b62000710878288016200067e565b935050604085015167ffffffffffffffff81111562000734576200073362000ad9565b5b62000742878288016200067e565b9250506060620007558782880162000667565b91505092959194509250565b62000776620007708262000979565b62000a67565b82525050565b6000620007898262000938565b62000795818562000943565b9350620007a7818560208601620009c5565b620007b28162000ae3565b840191505092915050565b6000620007cc60298362000954565b9150620007d98262000af4565b604082019050919050565b6000620007f3601c8362000954565b9150620008008262000b43565b602082019050919050565b60006200081a60288362000954565b9150620008278262000b6c565b604082019050919050565b600062000840828462000761565b60048201915081905092915050565b600060208201905081810360008301526200086b81846200077c565b905092915050565b600060208201905081810360008301526200088e81620007bd565b9050919050565b60006020820190508181036000830152620008b081620007e4565b9050919050565b60006020820190508181036000830152620008d2816200080b565b9050919050565b6000620008e5620008f8565b9050620008f3828262000a31565b919050565b6000604051905090565b600067ffffffffffffffff82111562000920576200091f62000aa0565b5b6200092b8262000ae3565b9050602081019050919050565b600081519050919050565b600082825260208201905092915050565b600082825260208201905092915050565b60006200097282620009a5565b9050919050565b60007fffffffff0000000000000000000000000000000000000000000000000000000082169050919050565b600073ffffffffffffffffffffffffffffffffffffffff82169050919050565b60005b83811015620009e5578082015181840152602081019050620009c8565b83811115620009f5576000848401525b50505050565b6000600282049050600182168062000a1457607f821691505b6020821081141562000a2b5762000a2a62000a71565b5b50919050565b62000a3c8262000ae3565b810181811067ffffffffffffffff8211171562000a5e5762000a5d62000aa0565b5b80604052505050565b6000819050919050565b7f4e487b7100000000000000000000000000000000000000000000000000000000600052602260045260246000fd5b7f4e487b7100000000000000000000000000000000000000000000000000000000600052604160045260246000fd5b600080fd5b600080fd5b600080fd5b600080fd5b6000601f19601f8301169050919050565b7f4f776e61626c653a206f776e65722063616e206f6e6c7920626520696e69746960008201527f61746564206f6e63650000000000000000000000000000000000000000000000602082015250565b7f4552433136353a20696e76616c696420696e7465726661636520696400000000600082015250565b7f4c535037436170706564537570706c793a20746f6b656e537570706c7943617060008201527f206973207a65726f000000000000000000000000000000000000000000000000602082015250565b62000bc68162000965565b811462000bd257600080fd5b50565b6144138062000be56000396000f3fe608060405234801561001057600080fd5b50600436106101585760003560e01c80638da5cb5b116100c3578063d95b63711161007c578063d95b63711461038d578063e9893c67146103bd578063f2fde38b146103db578063f851a440146103f7578063fad8b32a14610415578063fbdd25e41461043157610158565b80638da5cb5b146102df57806395d89b41146102fd578063a8a34e0a1461031b578063ba80d78714610337578063be399be514610355578063d2706c191461037157610158565b806347980aa31161011557806347980aa31461021f5780634e3e6e9c1461023b57806352058d8a1461026b57806370a0823114610289578063715018a6146102b9578063760d9bba146102c357610158565b806301ffc9a71461015d57806306fdde031461018d57806314a6e293146101ab57806318160ddd146101c75780631e9a6950146101e5578063313ce56714610201575b600080fd5b61017760048036038101906101729190612e42565b61044d565b6040516101849190613524565b60405180910390f35b6101956104c5565b6040516101a291906135ac565b60405180910390f35b6101c560048036038101906101c09190612d54565b6104ff565b005b6101cf610621565b6040516101dc919061384e565b60405180910390f35b6101ff60048036038101906101fa9190612be0565b61062b565b005b610209610738565b604051610216919061384e565b60405180910390f35b61023960048036038101906102349190612be0565b610760565b005b61025560048036038101906102509190612d0b565b610776565b6040516102629190613502565b60405180910390f35b61027361082f565b604051610280919061384e565b60405180910390f35b6102a3600480360381019061029e9190612adc565b610839565b6040516102b0919061384e565b60405180910390f35b6102c1610882565b005b6102dd60048036038101906102d89190612b49565b61090a565b005b6102e7610ab6565b6040516102f49190613465565b60405180910390f35b610305610adf565b60405161031291906135ac565b60405180910390f35b61033560048036038101906103309190612c20565b610b19565b005b61033f610c13565b60405161034c9190613465565b60405180910390f35b61036f600480360381019061036a9190612adc565b610c39565b005b61038b60048036038101906103869190612eb8565b610d53565b005b6103a760048036038101906103a29190612b09565b610ded565b6040516103b4919061384e565b60405180910390f35b6103c5610ef0565b6040516103d2919061384e565b60405180910390f35b6103f560048036038101906103f09190612adc565b610ef6565b005b6103ff610fee565b60405161040c9190613465565b60405180910390f35b61042f600480360381019061042a9190612adc565b611014565b005b61044b60048036038101906104469190612adc565b61102a565b005b60006104588261123d565b806104be575060016000837bffffffffffffffffffffffffffffffffffffffffffffffffffffffff19167bffffffffffffffffffffffffffffffffffffffffffffffffffffffff1916815260200190815260200160002060009054906101000a900460ff165b9050919050565b606060006104f6307fdeba1e292f8ba88238e10ab3c7f88bd4be4fac56cad5194b6ecceaf653468af160001b6112a7565b90508091505090565b6105076113d0565b73ffffffffffffffffffffffffffffffffffffffff16610525610ab6565b73ffffffffffffffffffffffffffffffffffffffff161461057b576040517f08c379a00000000000000000000000000000000000000000000000000000000081526004016105729061376e565b60405180910390fd5b80518251146105bf576040517f08c379a00000000000000000000000000000000000000000000000000000000081526004016105b69061380e565b60405180910390fd5b60005b825181101561061c576106098382815181106105e1576105e0613cf5565b5b60200260200101518383815181106105fc576105fb613cf5565b5b60200260200101516113d8565b808061061490613c20565b9150506105c2565b505050565b6000600454905090565b3373ffffffffffffffffffffffffffffffffffffffff16600960009054906101000a900473ffffffffffffffffffffffffffffffffffffffff1673ffffffffffffffffffffffffffffffffffffffff16146106bb576040517f08c379a00000000000000000000000000000000000000000000000000000000081526004016106b29061372e565b60405180910390fd5b6106fb82826040518060400160405280600681526020017f72656465656d000000000000000000000000000000000000000000000000000081525061143c565b7f4896181ff8f4543cc00db9fe9b6fb7e6f032b7eb772c72ab1ec1b4d2e03b9369828260405161072c9291906134b7565b60405180910390a15050565b6000600360009054906101000a900460ff16610755576012610758565b60005b60ff16905090565b61077261076b6113d0565b83836117b7565b5050565b6060815167ffffffffffffffff81111561079357610792613d24565b5b6040519080825280602002602001820160405280156107c657816020015b60608152602001906001900390816107b15790505b50905060005b8251811015610829576107f88382815181106107eb576107ea613cf5565b5b6020026020010151611a50565b82828151811061080b5761080a613cf5565b5b6020026020010181905250808061082190613c20565b9150506107cc565b50919050565b6000600754905090565b6000600560008373ffffffffffffffffffffffffffffffffffffffff1673ffffffffffffffffffffffffffffffffffffffff168152602001908152602001600020549050919050565b61088a6113d0565b73ffffffffffffffffffffffffffffffffffffffff166108a8610ab6565b73ffffffffffffffffffffffffffffffffffffffff16146108fe576040517f08c379a00000000000000000000000000000000000000000000000000000000081526004016108f59061376e565b60405180910390fd5b6109086000611af5565b565b60006109146113d0565b90508573ffffffffffffffffffffffffffffffffffffffff168173ffffffffffffffffffffffffffffffffffffffff1614610aa1576000600660008873ffffffffffffffffffffffffffffffffffffffff1673ffffffffffffffffffffffffffffffffffffffff16815260200190815260200160002060008373ffffffffffffffffffffffffffffffffffffffff1673ffffffffffffffffffffffffffffffffffffffff16815260200190815260200160002054905084811015610a0d576040517f08c379a0000000000000000000000000000000000000000000000000000000008152600401610a049061360e565b60405180910390fd5b610a9f878387600660008c73ffffffffffffffffffffffffffffffffffffffff1673ffffffffffffffffffffffffffffffffffffffff16815260200190815260200160002060008773ffffffffffffffffffffffffffffffffffffffff1673ffffffffffffffffffffffffffffffffffffffff16815260200190815260200160002054610a9a9190613ac9565b6117b7565b505b610aae8686868686611bb9565b505050505050565b60008060009054906101000a900473ffffffffffffffffffffffffffffffffffffffff16905090565b60606000610b10307f2f0a68ab07768e01943a599e73362a0e17a63a72e94dd2e384d2c1d4db93275660001b6112a7565b90508091505090565b83518551148015610b2b575082518551145b8015610b38575080518551145b610b77576040517f08c379a0000000000000000000000000000000000000000000000000000000008152600401610b6e9061362e565b60405180910390fd5b60005b8551811015610c0b57610bf8868281518110610b9957610b98613cf5565b5b6020026020010151868381518110610bb457610bb3613cf5565b5b6020026020010151868481518110610bcf57610bce613cf5565b5b602002602001015186868681518110610beb57610bea613cf5565b5b602002602001015161090a565b8080610c0390613c20565b915050610b7a565b505050505050565b600a60009054906101000a900473ffffffffffffffffffffffffffffffffffffffff1681565b3373ffffffffffffffffffffffffffffffffffffffff16600960009054906101000a900473ffffffffffffffffffffffffffffffffffffffff1673ffffffffffffffffffffffffffffffffffffffff1614610cc9576040517f08c379a0000000000000000000000000000000000000000000000000000000008152600401610cc09061372e565b60405180910390fd5b6000610cd482610839565b9050610d1682826040518060400160405280600681526020017f72656465656d000000000000000000000000000000000000000000000000000081525061143c565b7f4896181ff8f4543cc00db9fe9b6fb7e6f032b7eb772c72ab1ec1b4d2e03b93698282604051610d479291906134b7565b60405180910390a15050565b3373ffffffffffffffffffffffffffffffffffffffff16600960009054906101000a900473ffffffffffffffffffffffffffffffffffffffff1673ffffffffffffffffffffffffffffffffffffffff1614610de3576040517f08c379a0000000000000000000000000000000000000000000000000000000008152600401610dda9061372e565b60405180910390fd5b8060088190555050565b60008273ffffffffffffffffffffffffffffffffffffffff168273ffffffffffffffffffffffffffffffffffffffff161415610e6a57600560008373ffffffffffffffffffffffffffffffffffffffff1673ffffffffffffffffffffffffffffffffffffffff168152602001908152602001600020549050610eea565b600660008373ffffffffffffffffffffffffffffffffffffffff1673ffffffffffffffffffffffffffffffffffffffff16815260200190815260200160002060008473ffffffffffffffffffffffffffffffffffffffff1673ffffffffffffffffffffffffffffffffffffffff1681526020019081526020016000205490505b92915050565b60085481565b610efe6113d0565b73ffffffffffffffffffffffffffffffffffffffff16610f1c610ab6565b73ffffffffffffffffffffffffffffffffffffffff1614610f72576040517f08c379a0000000000000000000000000000000000000000000000000000000008152600401610f699061376e565b60405180910390fd5b600073ffffffffffffffffffffffffffffffffffffffff168173ffffffffffffffffffffffffffffffffffffffff161415610fe2576040517f08c379a0000000000000000000000000000000000000000000000000000000008152600401610fd99061366e565b60405180910390fd5b610feb81611af5565b50565b600960009054906101000a900473ffffffffffffffffffffffffffffffffffffffff1681565b61102761101f6113d0565b8260006117b7565b50565b3373ffffffffffffffffffffffffffffffffffffffff16600960009054906101000a900473ffffffffffffffffffffffffffffffffffffffff1673ffffffffffffffffffffffffffffffffffffffff16146110ba576040517f08c379a00000000000000000000000000000000000000000000000000000000081526004016110b19061372e565b60405180910390fd5b611120600a60009054906101000a900473ffffffffffffffffffffffffffffffffffffffff1660085460016040518060400160405280600581526020017f6177617264000000000000000000000000000000000000000000000000000000815250611e7f565b6111648160085460016040518060400160405280600581526020017f6177617264000000000000000000000000000000000000000000000000000000815250611e7f565b7fe2554529d99ab7a67db6b4cea2b32c7d55ae325f958861e05f304fdded867e31600a60009054906101000a900473ffffffffffffffffffffffffffffffffffffffff16826008546040516111bb93929190613480565b60405180910390a150565b600060149054906101000a900460ff1615611216576040517f08c379a000000000000000000000000000000000000000000000000000000000815260040161120d9061364e565b60405180910390fd5b6001600060146101000a81548160ff02191690831515021790555061123a81611af5565b50565b60007f01ffc9a7000000000000000000000000000000000000000000000000000000007bffffffffffffffffffffffffffffffffffffffffffffffffffffffff1916827bffffffffffffffffffffffffffffffffffffffffffffffffffffffff1916149050919050565b60606000600167ffffffffffffffff8111156112c6576112c5613d24565b5b6040519080825280602002602001820160405280156112f45781602001602082028036833780820191505090505b509050828160008151811061130c5761130b613cf5565b5b60200260200101818152505060008473ffffffffffffffffffffffffffffffffffffffff16634e3e6e9c836040518263ffffffff1660e01b815260040161135391906134e0565b60006040518083038186803b15801561136b57600080fd5b505afa15801561137f573d6000803e3d6000fd5b505050506040513d6000823e3d601f19601f820116820180604052508101906113a89190612dcc565b6000815181106113bb576113ba613cf5565b5b60200260200101519050809250505092915050565b600033905090565b806002600084815260200190815260200160002090805190602001906113ff929190612589565b50817fece574603820d07bc9b91f2a932baadf4628aabcb8afba49776529c14a6104b282604051611430919061358a565b60405180910390a25050565b600073ffffffffffffffffffffffffffffffffffffffff168373ffffffffffffffffffffffffffffffffffffffff1614156114ac576040517f08c379a00000000000000000000000000000000000000000000000000000000081526004016114a3906137ee565b60405180910390fd5b81600560008573ffffffffffffffffffffffffffffffffffffffff1673ffffffffffffffffffffffffffffffffffffffff16815260200190815260200160002054101561152e576040517f08c379a00000000000000000000000000000000000000000000000000000000081526004016115259061382e565b60405180910390fd5b60006115386113d0565b90508373ffffffffffffffffffffffffffffffffffffffff168173ffffffffffffffffffffffffffffffffffffffff16146116c05782600660008673ffffffffffffffffffffffffffffffffffffffff1673ffffffffffffffffffffffffffffffffffffffff16815260200190815260200160002060008373ffffffffffffffffffffffffffffffffffffffff1673ffffffffffffffffffffffffffffffffffffffff16815260200190815260200160002054101561162c576040517f08c379a0000000000000000000000000000000000000000000000000000000008152600401611623906135ee565b60405180910390fd5b82600660008673ffffffffffffffffffffffffffffffffffffffff1673ffffffffffffffffffffffffffffffffffffffff16815260200190815260200160002060008373ffffffffffffffffffffffffffffffffffffffff1673ffffffffffffffffffffffffffffffffffffffff16815260200190815260200160002060008282546116b89190613ac9565b925050819055505b6116cd8460008585611e91565b6116d984600085611fa0565b82600560008673ffffffffffffffffffffffffffffffffffffffff1673ffffffffffffffffffffffffffffffffffffffff16815260200190815260200160002060008282546117289190613ac9565b92505081905550600073ffffffffffffffffffffffffffffffffffffffff168473ffffffffffffffffffffffffffffffffffffffff168273ffffffffffffffffffffffffffffffffffffffff167f3997e418d2cef0b3b0e907b1e39605c3f7d32dbd061e82ea5b4a770d46a160a6866000876040516117a993929190613869565b60405180910390a450505050565b8273ffffffffffffffffffffffffffffffffffffffff168273ffffffffffffffffffffffffffffffffffffffff161415611826576040517f08c379a000000000000000000000000000000000000000000000000000000000815260040161181d906136ae565b60405180910390fd5b600073ffffffffffffffffffffffffffffffffffffffff168273ffffffffffffffffffffffffffffffffffffffff161415611896576040517f08c379a000000000000000000000000000000000000000000000000000000000815260040161188d906137ce565b60405180910390fd5b600073ffffffffffffffffffffffffffffffffffffffff168373ffffffffffffffffffffffffffffffffffffffff161415611906576040517f08c379a00000000000000000000000000000000000000000000000000000000081526004016118fd906136ce565b60405180910390fd5b80600660008573ffffffffffffffffffffffffffffffffffffffff1673ffffffffffffffffffffffffffffffffffffffff16815260200190815260200160002060008473ffffffffffffffffffffffffffffffffffffffff1673ffffffffffffffffffffffffffffffffffffffff1681526020019081526020016000208190555060008111156119f057808373ffffffffffffffffffffffffffffffffffffffff168373ffffffffffffffffffffffffffffffffffffffff167fd66aff874162a96578e919097b6f6d153dfd89a5cec41bb331fdb0c4aec16e2c60405160405180910390a4611a4b565b8273ffffffffffffffffffffffffffffffffffffffff168273ffffffffffffffffffffffffffffffffffffffff167f50546e66e5f44d728365dc3908c63bc5cfeeab470722c1677e3073a6ac294aa160405160405180910390a35b505050565b6060600260008381526020019081526020016000208054611a7090613bbd565b80601f0160208091040260200160405190810160405280929190818152602001828054611a9c90613bbd565b8015611ae95780601f10611abe57610100808354040283529160200191611ae9565b820191906000526020600020905b815481529060010190602001808311611acc57829003601f168201915b50505050509050919050565b60008060009054906101000a900473ffffffffffffffffffffffffffffffffffffffff169050816000806101000a81548173ffffffffffffffffffffffffffffffffffffffff021916908373ffffffffffffffffffffffffffffffffffffffff1602179055508173ffffffffffffffffffffffffffffffffffffffff168173ffffffffffffffffffffffffffffffffffffffff167f8be0079c531659141344cd1fd0a4f28419497f9722a3daafe3b4186f6b6457e060405160405180910390a35050565b600073ffffffffffffffffffffffffffffffffffffffff168573ffffffffffffffffffffffffffffffffffffffff161415611c29576040517f08c379a0000000000000000000000000000000000000000000000000000000008152600401611c209061374e565b60405180910390fd5b600073ffffffffffffffffffffffffffffffffffffffff168473ffffffffffffffffffffffffffffffffffffffff161415611c99576040517f08c379a0000000000000000000000000000000000000000000000000000000008152600401611c90906137ae565b60405180910390fd5b82600560008773ffffffffffffffffffffffffffffffffffffffff1673ffffffffffffffffffffffffffffffffffffffff168152602001908152602001600020541015611d1b576040517f08c379a0000000000000000000000000000000000000000000000000000000008152600401611d12906136ee565b60405180910390fd5b6000611d256113d0565b9050611d3386868685611e91565b611d3e868686611fa0565b83600560008873ffffffffffffffffffffffffffffffffffffffff1673ffffffffffffffffffffffffffffffffffffffff1681526020019081526020016000206000828254611d8d9190613ac9565b9250508190555083600560008773ffffffffffffffffffffffffffffffffffffffff1673ffffffffffffffffffffffffffffffffffffffff1681526020019081526020016000206000828254611de39190613a73565b925050819055508473ffffffffffffffffffffffffffffffffffffffff168673ffffffffffffffffffffffffffffffffffffffff168273ffffffffffffffffffffffffffffffffffffffff167f3997e418d2cef0b3b0e907b1e39605c3f7d32dbd061e82ea5b4a770d46a160a6878787604051611e6293929190613869565b60405180910390a4611e778686868686612043565b505050505050565b611e8b848484846121f7565b50505050565b611e9a84612265565b8015611eb35750611eb284636bb56a1460e01b6122b2565b5b15611f9a57600084848484604051602001611ed19493929190613404565b60405160208183030381529060405290508473ffffffffffffffffffffffffffffffffffffffff16636bb56a147f40b8bec57d7b5ff0dbd9e9acd0a47dfeb0101e1a203766f5ccab00445fbf39e960001b836040518363ffffffff1660e01b8152600401611f4092919061353f565b600060405180830381600087803b158015611f5a57600080fd5b505af1158015611f6e573d6000803e3d6000fd5b505050506040513d6000823e3d601f19601f82011682018060405250810190611f979190612e6f565b50505b50505050565b600073ffffffffffffffffffffffffffffffffffffffff168373ffffffffffffffffffffffffffffffffffffffff161415611fef578060046000828254611fe79190613a73565b925050819055505b600073ffffffffffffffffffffffffffffffffffffffff168273ffffffffffffffffffffffffffffffffffffffff16141561203e5780600460008282546120369190613ac9565b925050819055505b505050565b61204c84612265565b8015612065575061206484636bb56a1460e01b6122b2565b5b15612150576000858585846040516020016120839493929190613404565b60405160208183030381529060405290508473ffffffffffffffffffffffffffffffffffffffff16636bb56a147fdbe2c314e1aee2970c72666f2ebe8933a8575263ea71e5ff6a9178e95d47a26f60001b836040518363ffffffff1660e01b81526004016120f292919061353f565b600060405180830381600087803b15801561210c57600080fd5b505af1158015612120573d6000803e3d6000fd5b505050506040513d6000823e3d601f19601f820116820180604052508101906121499190612e6f565b50506121f0565b816121ef576121748473ffffffffffffffffffffffffffffffffffffffff166122d7565b156121b4576040517f08c379a00000000000000000000000000000000000000000000000000000000081526004016121ab9061370e565b60405180910390fd5b6040517f08c379a00000000000000000000000000000000000000000000000000000000081526004016121e6906135ce565b60405180910390fd5b5b5050505050565b6121ff61082f565b83612208610621565b6122129190613a73565b1115612253576040517f08c379a000000000000000000000000000000000000000000000000000000000815260040161224a9061378e565b60405180910390fd5b61225f848484846122ea565b50505050565b6000612291827f01ffc9a70000000000000000000000000000000000000000000000000000000061245e565b80156122ab57506122a98263ffffffff60e01b61245e565b155b9050919050565b60006122bd83612265565b80156122cf57506122ce838361245e565b5b905092915050565b600080823b905060008111915050919050565b600073ffffffffffffffffffffffffffffffffffffffff168473ffffffffffffffffffffffffffffffffffffffff16141561235a576040517f08c379a00000000000000000000000000000000000000000000000000000000081526004016123519061368e565b60405180910390fd5b60006123646113d0565b905061237260008686611fa0565b83600560008773ffffffffffffffffffffffffffffffffffffffff1673ffffffffffffffffffffffffffffffffffffffff16815260200190815260200160002060008282546123c19190613a73565b925050819055508473ffffffffffffffffffffffffffffffffffffffff16600073ffffffffffffffffffffffffffffffffffffffff168273ffffffffffffffffffffffffffffffffffffffff167f3997e418d2cef0b3b0e907b1e39605c3f7d32dbd061e82ea5b4a770d46a160a687878760405161244193929190613869565b60405180910390a4612457600086868686612043565b5050505050565b6000806301ffc9a760e01b8360405160240161247a919061356f565b604051602081830303815290604052907bffffffffffffffffffffffffffffffffffffffffffffffffffffffff19166020820180517bffffffffffffffffffffffffffffffffffffffffffffffffffffffff838183161783525050505090506000808573ffffffffffffffffffffffffffffffffffffffff1661753084604051612504919061344e565b6000604051808303818686fa925050503d8060008114612540576040519150601f19603f3d011682016040523d82523d6000602084013e612545565b606091505b50915091506020815110156125605760009350505050612583565b81801561257d57508080602001905181019061257c9190612e15565b5b93505050505b92915050565b82805461259590613bbd565b90600052602060002090601f0160209004810192826125b757600085556125fe565b82601f106125d057805160ff19168380011785556125fe565b828001600101855582156125fe579182015b828111156125fd5782518255916020019190600101906125e2565b5b50905061260b919061260f565b5090565b5b80821115612628576000816000905550600101612610565b5090565b600061263f61263a846138cc565b6138a7565b9050808382526020820190508285602086028201111561266257612661613d58565b5b60005b858110156126925781612678888261291c565b845260208401935060208301925050600181019050612665565b5050509392505050565b60006126af6126aa846138f8565b6138a7565b905080838252602082019050828560208602820111156126d2576126d1613d58565b5b60005b8581101561270257816126e88882612a41565b8452602084019350602083019250506001810190506126d5565b5050509392505050565b600061271f61271a84613924565b6138a7565b9050808382526020820190508285602086028201111561274257612741613d58565b5b60005b8581101561279057813567ffffffffffffffff81111561276857612767613d53565b5b8086016127758982612a6b565b85526020850194506020840193505050600181019050612745565b5050509392505050565b60006127ad6127a884613924565b6138a7565b905080838252602082019050828560208602820111156127d0576127cf613d58565b5b60005b8581101561281e57815167ffffffffffffffff8111156127f6576127f5613d53565b5b8086016128038982612a99565b855260208501945060208401935050506001810190506127d3565b5050509392505050565b600061283b61283684613950565b6138a7565b9050808382526020820190508285602086028201111561285e5761285d613d58565b5b60005b8581101561288e57816128748882612ac7565b845260208401935060208301925050600181019050612861565b5050509392505050565b60006128ab6128a68461397c565b6138a7565b9050828152602081018484840111156128c7576128c6613d5d565b5b6128d2848285613b7b565b509392505050565b60006128ed6128e88461397c565b6138a7565b90508281526020810184848401111561290957612908613d5d565b5b612914848285613b8a565b509392505050565b60008135905061292b8161436a565b92915050565b600082601f83011261294657612945613d53565b5b813561295684826020860161262c565b91505092915050565b600082601f83011261297457612973613d53565b5b813561298484826020860161269c565b91505092915050565b600082601f8301126129a2576129a1613d53565b5b81356129b284826020860161270c565b91505092915050565b600082601f8301126129d0576129cf613d53565b5b81516129e084826020860161279a565b91505092915050565b600082601f8301126129fe576129fd613d53565b5b8135612a0e848260208601612828565b91505092915050565b600081359050612a2681614381565b92915050565b600081519050612a3b81614381565b92915050565b600081359050612a5081614398565b92915050565b600081359050612a65816143af565b92915050565b600082601f830112612a8057612a7f613d53565b5b8135612a90848260208601612898565b91505092915050565b600082601f830112612aae57612aad613d53565b5b8151612abe8482602086016128da565b91505092915050565b600081359050612ad6816143c6565b92915050565b600060208284031215612af257612af1613d67565b5b6000612b008482850161291c565b91505092915050565b60008060408385031215612b2057612b1f613d67565b5b6000612b2e8582860161291c565b9250506020612b3f8582860161291c565b9150509250929050565b600080600080600060a08688031215612b6557612b64613d67565b5b6000612b738882890161291c565b9550506020612b848882890161291c565b9450506040612b9588828901612ac7565b9350506060612ba688828901612a17565b925050608086013567ffffffffffffffff811115612bc757612bc6613d62565b5b612bd388828901612a6b565b9150509295509295909350565b60008060408385031215612bf757612bf6613d67565b5b6000612c058582860161291c565b9250506020612c1685828601612ac7565b9150509250929050565b600080600080600060a08688031215612c3c57612c3b613d67565b5b600086013567ffffffffffffffff811115612c5a57612c59613d62565b5b612c6688828901612931565b955050602086013567ffffffffffffffff811115612c8757612c86613d62565b5b612c9388828901612931565b945050604086013567ffffffffffffffff811115612cb457612cb3613d62565b5b612cc0888289016129e9565b9350506060612cd188828901612a17565b925050608086013567ffffffffffffffff811115612cf257612cf1613d62565b5b612cfe8882890161298d565b9150509295509295909350565b600060208284031215612d2157612d20613d67565b5b600082013567ffffffffffffffff811115612d3f57612d3e613d62565b5b612d4b8482850161295f565b91505092915050565b60008060408385031215612d6b57612d6a613d67565b5b600083013567ffffffffffffffff811115612d8957612d88613d62565b5b612d958582860161295f565b925050602083013567ffffffffffffffff811115612db657612db5613d62565b5b612dc28582860161298d565b9150509250929050565b600060208284031215612de257612de1613d67565b5b600082015167ffffffffffffffff811115612e0057612dff613d62565b5b612e0c848285016129bb565b91505092915050565b600060208284031215612e2b57612e2a613d67565b5b6000612e3984828501612a2c565b91505092915050565b600060208284031215612e5857612e57613d67565b5b6000612e6684828501612a56565b91505092915050565b600060208284031215612e8557612e84613d67565b5b600082015167ffffffffffffffff811115612ea357612ea2613d62565b5b612eaf84828501612a99565b91505092915050565b600060208284031215612ece57612ecd613d67565b5b6000612edc84828501612ac7565b91505092915050565b6000612ef18383613019565b60208301905092915050565b6000612f098383613046565b905092915050565b612f1a81613afd565b82525050565b612f31612f2c82613afd565b613c69565b82525050565b6000612f42826139cd565b612f4c8185613a13565b9350612f57836139ad565b8060005b83811015612f88578151612f6f8882612ee5565b9750612f7a836139f9565b925050600181019050612f5b565b5085935050505092915050565b6000612fa0826139d8565b612faa8185613a24565b935083602082028501612fbc856139bd565b8060005b85811015612ff85784840389528151612fd98582612efd565b9450612fe483613a06565b925060208a01995050600181019050612fc0565b50829750879550505050505092915050565b61301381613b0f565b82525050565b61302281613b1b565b82525050565b61303181613b1b565b82525050565b61304081613b25565b82525050565b6000613051826139e3565b61305b8185613a35565b935061306b818560208601613b8a565b61307481613d6c565b840191505092915050565b600061308a826139e3565b6130948185613a46565b93506130a4818560208601613b8a565b6130ad81613d6c565b840191505092915050565b60006130c3826139e3565b6130cd8185613a57565b93506130dd818560208601613b8a565b80840191505092915050565b60006130f4826139ee565b6130fe8185613a62565b935061310e818560208601613b8a565b61311781613d6c565b840191505092915050565b600061312f601b83613a62565b915061313a82613d8a565b602082019050919050565b6000613152603483613a62565b915061315d82613db3565b604082019050919050565b6000613175603883613a62565b915061318082613e02565b604082019050919050565b6000613198602883613a62565b91506131a382613e51565b604082019050919050565b60006131bb602983613a62565b91506131c682613ea0565b604082019050919050565b60006131de602683613a62565b91506131e982613eef565b604082019050919050565b6000613201602a83613a62565b915061320c82613f3e565b604082019050919050565b6000613224604383613a62565b915061322f82613f8d565b606082019050919050565b6000613247604583613a62565b915061325282614002565b606082019050919050565b600061326a603083613a62565b915061327582614077565b604082019050919050565b600061328d603483613a62565b9150613298826140c6565b604082019050919050565b60006132b0600c83613a62565b91506132bb82614115565b602082019050919050565b60006132d3602483613a62565b91506132de8261413e565b604082019050919050565b60006132f6602083613a62565b91506133018261418d565b602082019050919050565b6000613319602883613a62565b9150613324826141b6565b604082019050919050565b600061333c602283613a62565b915061334782614205565b604082019050919050565b600061335f604083613a62565b915061336a82614254565b604082019050919050565b6000613382602083613a62565b915061338d826142a3565b602082019050919050565b60006133a5602683613a62565b91506133b0826142cc565b604082019050919050565b60006133c8602c83613a62565b91506133d38261431b565b604082019050919050565b6133e781613b71565b82525050565b6133fe6133f982613b71565b613c8d565b82525050565b60006134108287612f20565b6014820191506134208286612f20565b60148201915061343082856133ed565b60208201915061344082846130b8565b915081905095945050505050565b600061345a82846130b8565b915081905092915050565b600060208201905061347a6000830184612f11565b92915050565b60006060820190506134956000830186612f11565b6134a26020830185612f11565b6134af60408301846133de565b949350505050565b60006040820190506134cc6000830185612f11565b6134d960208301846133de565b9392505050565b600060208201905081810360008301526134fa8184612f37565b905092915050565b6000602082019050818103600083015261351c8184612f95565b905092915050565b6000602082019050613539600083018461300a565b92915050565b60006040820190506135546000830185613028565b8181036020830152613566818461307f565b90509392505050565b60006020820190506135846000830184613037565b92915050565b600060208201905081810360008301526135a4818461307f565b905092915050565b600060208201905081810360008301526135c681846130e9565b905092915050565b600060208201905081810360008301526135e781613122565b9050919050565b6000602082019050818103600083015261360781613145565b9050919050565b6000602082019050818103600083015261362781613168565b9050919050565b600060208201905081810360008301526136478161318b565b9050919050565b60006020820190508181036000830152613667816131ae565b9050919050565b60006020820190508181036000830152613687816131d1565b9050919050565b600060208201905081810360008301526136a7816131f4565b9050919050565b600060208201905081810360008301526136c781613217565b9050919050565b600060208201905081810360008301526136e78161323a565b9050919050565b600060208201905081810360008301526137078161325d565b9050919050565b6000602082019050818103600083015261372781613280565b9050919050565b60006020820190508181036000830152613747816132a3565b9050919050565b60006020820190508181036000830152613767816132c6565b9050919050565b60006020820190508181036000830152613787816132e9565b9050919050565b600060208201905081810360008301526137a78161330c565b9050919050565b600060208201905081810360008301526137c78161332f565b9050919050565b600060208201905081810360008301526137e781613352565b9050919050565b6000602082019050818103600083015261380781613375565b9050919050565b6000602082019050818103600083015261382781613398565b9050919050565b60006020820190508181036000830152613847816133bb565b9050919050565b600060208201905061386360008301846133de565b92915050565b600060608201905061387e60008301866133de565b61388b602083018561300a565b818103604083015261389d818461307f565b9050949350505050565b60006138b16138c2565b90506138bd8282613bef565b919050565b6000604051905090565b600067ffffffffffffffff8211156138e7576138e6613d24565b5b602082029050602081019050919050565b600067ffffffffffffffff82111561391357613912613d24565b5b602082029050602081019050919050565b600067ffffffffffffffff82111561393f5761393e613d24565b5b602082029050602081019050919050565b600067ffffffffffffffff82111561396b5761396a613d24565b5b602082029050602081019050919050565b600067ffffffffffffffff82111561399757613996613d24565b5b6139a082613d6c565b9050602081019050919050565b6000819050602082019050919050565b6000819050602082019050919050565b600081519050919050565b600081519050919050565b600081519050919050565b600081519050919050565b6000602082019050919050565b6000602082019050919050565b600082825260208201905092915050565b600082825260208201905092915050565b600082825260208201905092915050565b600082825260208201905092915050565b600081905092915050565b600082825260208201905092915050565b6000613a7e82613b71565b9150613a8983613b71565b9250827fffffffffffffffffffffffffffffffffffffffffffffffffffffffffffffffff03821115613abe57613abd613c97565b5b828201905092915050565b6000613ad482613b71565b9150613adf83613b71565b925082821015613af257613af1613c97565b5b828203905092915050565b6000613b0882613b51565b9050919050565b60008115159050919050565b6000819050919050565b60007fffffffff0000000000000000000000000000000000000000000000000000000082169050919050565b600073ffffffffffffffffffffffffffffffffffffffff82169050919050565b6000819050919050565b82818337600083830152505050565b60005b83811015613ba8578082015181840152602081019050613b8d565b83811115613bb7576000848401525b50505050565b60006002820490506001821680613bd557607f821691505b60208210811415613be957613be8613cc6565b5b50919050565b613bf882613d6c565b810181811067ffffffffffffffff82111715613c1757613c16613d24565b5b80604052505050565b6000613c2b82613b71565b91507fffffffffffffffffffffffffffffffffffffffffffffffffffffffffffffffff821415613c5e57613c5d613c97565b5b600182019050919050565b6000613c7482613c7b565b9050919050565b6000613c8682613d7d565b9050919050565b6000819050919050565b7f4e487b7100000000000000000000000000000000000000000000000000000000600052601160045260246000fd5b7f4e487b7100000000000000000000000000000000000000000000000000000000600052602260045260246000fd5b7f4e487b7100000000000000000000000000000000000000000000000000000000600052603260045260246000fd5b7f4e487b7100000000000000000000000000000000000000000000000000000000600052604160045260246000fd5b600080fd5b600080fd5b600080fd5b600080fd5b600080fd5b6000601f19601f8301169050919050565b60008160601b9050919050565b7f4c5350373a20746f6b656e20726563656976657220697320454f410000000000600082015250565b7f4c5350373a206275726e20616d6f756e742065786365656473206f706572617460008201527f6f7220617574686f72697a656420616d6f756e74000000000000000000000000602082015250565b7f4c5350373a207472616e7366657220616d6f756e742065786365656473206f7060008201527f657261746f7220617574686f72697a656420616d6f756e740000000000000000602082015250565b7f4c5350373a207472616e736665724261746368206c697374206c656e6774682060008201527f6d69736d61746368000000000000000000000000000000000000000000000000602082015250565b7f4f776e61626c653a206f776e65722063616e206f6e6c7920626520696e69746960008201527f61746564206f6e63650000000000000000000000000000000000000000000000602082015250565b7f4f776e61626c653a206e6577206f776e657220697320746865207a65726f206160008201527f6464726573730000000000000000000000000000000000000000000000000000602082015250565b7f4c5350373a206d696e7420746f20746865207a65726f2061646472657373206e60008201527f6f7420616c6c6f77656400000000000000000000000000000000000000000000602082015250565b7f4c5350373a207570646174696e67206f70657261746f72206661696c65642c2060008201527f63616e206e6f742075736520746f6b656e206f776e6572206173206f7065726160208201527f746f720000000000000000000000000000000000000000000000000000000000604082015250565b7f4c5350373a207570646174696e67206f70657261746f72206661696c65642c2060008201527f63616e206e6f7420736574206f70657261746f7220666f72207a65726f20616460208201527f6472657373000000000000000000000000000000000000000000000000000000604082015250565b7f4c5350373a207472616e7366657220616d6f756e74206578636565647320746f60008201527f6b656e4f776e65722062616c616e636500000000000000000000000000000000602082015250565b7f4c5350373a20746f6b656e20726563656976657220636f6e7472616374206d6960008201527f7373696e67204c53503120696e74657266616365000000000000000000000000602082015250565b7f756e617574686f72697a65640000000000000000000000000000000000000000600082015250565b7f4c5350373a207472616e736665722066726f6d20746865207a65726f2061646460008201527f7265737300000000000000000000000000000000000000000000000000000000602082015250565b7f4f776e61626c653a2063616c6c6572206973206e6f7420746865206f776e6572600082015250565b7f4c535037436170706564537570706c793a20746f6b656e537570706c7943617060008201527f2072656163686564000000000000000000000000000000000000000000000000602082015250565b7f4c5350373a207472616e7366657220746f20746865207a65726f20616464726560008201527f7373000000000000000000000000000000000000000000000000000000000000602082015250565b7f4c5350373a207570646174696e67206f70657261746f72206661696c65642c2060008201527f6f70657261746f722063616e206e6f74206265207a65726f2061646472657373602082015250565b7f4c5350373a206275726e2066726f6d20746865207a65726f2061646472657373600082015250565b7f4b657973206c656e677468206e6f7420657175616c20746f2076616c7565732060008201527f6c656e6774680000000000000000000000000000000000000000000000000000602082015250565b7f4c5350373a206275726e20616d6f756e74206578636565647320746f6b656e4f60008201527f776e65722062616c616e63650000000000000000000000000000000000000000602082015250565b61437381613afd565b811461437e57600080fd5b50565b61438a81613b0f565b811461439557600080fd5b50565b6143a181613b1b565b81146143ac57600080fd5b50565b6143b881613b25565b81146143c357600080fd5b50565b6143cf81613b71565b81146143da57600080fd5b5056fea2646970667358221220dc3579d8abb25f5d17546a44b78e0422858b4bde8b6ebb8db379afabf6160dd264736f6c63430008070033",
			"opcodes": "PUSH1 0x80 PUSH1 0x40 MSTORE PUSH7 0x2386F26FC10000 PUSH1 0x8 SSTORE CALLVALUE DUP1 ISZERO PUSH3 0x1C JUMPI PUSH1 0x0 DUP1 REVERT JUMPDEST POP PUSH1 0x40 MLOAD PUSH3 0x4FF8 CODESIZE SUB DUP1 PUSH3 0x4FF8 DUP4 CODECOPY DUP2 DUP2 ADD PUSH1 0x40 MSTORE DUP2 ADD SWAP1 PUSH3 0x42 SWAP2 SWAP1 PUSH3 0x6B1 JUMP JUMPDEST PUSH11 0x52B7D2DCC80CD2E4000000 DUP4 DUP4 DUP7 PUSH1 0x0 DUP4 DUP4 DUP4 DUP1 PUSH3 0x67 PUSH3 0x2BD PUSH1 0x20 SHL PUSH1 0x20 SHR JUMP JUMPDEST PUSH20 0xFFFFFFFFFFFFFFFFFFFFFFFFFFFFFFFFFFFFFFFF AND DUP2 PUSH20 0xFFFFFFFFFFFFFFFFFFFFFFFFFFFFFFFFFFFFFFFF AND EQ PUSH3 0xB1 JUMPI PUSH3 0xB0 DUP2 PUSH3 0x2E6 PUSH1 0x20 SHL PUSH3 0x11C6 OR PUSH1 0x20 SHR JUMP JUMPDEST JUMPDEST PUSH3 0xE2 PUSH32 0x5A988C0F00000000000000000000000000000000000000000000000000000000 PUSH3 0x368 PUSH1 0x20 SHL PUSH1 0x20 SHR JUMP JUMPDEST POP PUSH3 0x118 PUSH32 0xDEBA1E292F8BA88238E10AB3C7F88BD4BE4FAC56CAD5194B6ECCEAF653468AF1 PUSH1 0x0 SHL DUP5 PUSH3 0x440 PUSH1 0x20 SHL PUSH1 0x20 SHR JUMP JUMPDEST PUSH3 0x14D PUSH32 0x2F0A68AB07768E01943A599E73362A0E17A63A72E94DD2E384D2C1D4DB932756 PUSH1 0x0 SHL DUP4 PUSH3 0x440 PUSH1 0x20 SHL PUSH1 0x20 SHR JUMP JUMPDEST POP POP POP DUP1 PUSH1 0x3 PUSH1 0x0 PUSH2 0x100 EXP DUP2 SLOAD DUP2 PUSH1 0xFF MUL NOT AND SWAP1 DUP4 ISZERO ISZERO MUL OR SWAP1 SSTORE POP PUSH3 0x182 PUSH4 0xE33F65C3 PUSH1 0xE0 SHL PUSH3 0x368 PUSH1 0x20 SHL PUSH1 0x20 SHR JUMP JUMPDEST PUSH3 0x1DF PUSH32 0xEAFEC4D89FA9619884B6B8913562645500000000000000000000000074AC49B0 PUSH1 0x0 SHL PUSH4 0x74AC49B0 PUSH1 0xE0 SHL PUSH1 0x40 MLOAD PUSH1 0x20 ADD PUSH3 0x1C4 SWAP2 SWAP1 PUSH3 0x832 JUMP JUMPDEST PUSH1 0x40 MLOAD PUSH1 0x20 DUP2 DUP4 SUB SUB DUP2 MSTORE SWAP1 PUSH1 0x40 MSTORE PUSH3 0x440 PUSH1 0x20 SHL PUSH1 0x20 SHR JUMP JUMPDEST POP POP POP POP PUSH1 0x0 DUP2 GT PUSH3 0x229 JUMPI PUSH1 0x40 MLOAD PUSH32 0x8C379A000000000000000000000000000000000000000000000000000000000 DUP2 MSTORE PUSH1 0x4 ADD PUSH3 0x220 SWAP1 PUSH3 0x8B7 JUMP JUMPDEST PUSH1 0x40 MLOAD DUP1 SWAP2 SUB SWAP1 REVERT JUMPDEST DUP1 PUSH1 0x7 DUP2 SWAP1 SSTORE POP POP DUP4 PUSH1 0x9 PUSH1 0x0 PUSH2 0x100 EXP DUP2 SLOAD DUP2 PUSH20 0xFFFFFFFFFFFFFFFFFFFFFFFFFFFFFFFFFFFFFFFF MUL NOT AND SWAP1 DUP4 PUSH20 0xFFFFFFFFFFFFFFFFFFFFFFFFFFFFFFFFFFFFFFFF AND MUL OR SWAP1 SSTORE POP DUP1 PUSH1 0xA PUSH1 0x0 PUSH2 0x100 EXP DUP2 SLOAD DUP2 PUSH20 0xFFFFFFFFFFFFFFFFFFFFFFFFFFFFFFFFFFFFFFFF MUL NOT AND SWAP1 DUP4 PUSH20 0xFFFFFFFFFFFFFFFFFFFFFFFFFFFFFFFFFFFFFFFF AND MUL OR SWAP1 SSTORE POP POP POP POP POP PUSH3 0xBD5 JUMP JUMPDEST PUSH1 0x0 DUP1 PUSH1 0x0 SWAP1 SLOAD SWAP1 PUSH2 0x100 EXP SWAP1 DIV PUSH20 0xFFFFFFFFFFFFFFFFFFFFFFFFFFFFFFFFFFFFFFFF AND SWAP1 POP SWAP1 JUMP JUMPDEST PUSH1 0x0 PUSH1 0x14 SWAP1 SLOAD SWAP1 PUSH2 0x100 EXP SWAP1 DIV PUSH1 0xFF AND ISZERO PUSH3 0x339 JUMPI PUSH1 0x40 MLOAD PUSH32 0x8C379A000000000000000000000000000000000000000000000000000000000 DUP2 MSTORE PUSH1 0x4 ADD PUSH3 0x330 SWAP1 PUSH3 0x873 JUMP JUMPDEST PUSH1 0x40 MLOAD DUP1 SWAP2 SUB SWAP1 REVERT JUMPDEST PUSH1 0x1 PUSH1 0x0 PUSH1 0x14 PUSH2 0x100 EXP DUP2 SLOAD DUP2 PUSH1 0xFF MUL NOT AND SWAP1 DUP4 ISZERO ISZERO MUL OR SWAP1 SSTORE POP PUSH3 0x365 DUP2 PUSH3 0x4A8 PUSH1 0x20 SHL PUSH1 0x20 SHR JUMP JUMPDEST POP JUMP JUMPDEST PUSH4 0xFFFFFFFF PUSH1 0xE0 SHL DUP2 PUSH28 0xFFFFFFFFFFFFFFFFFFFFFFFFFFFFFFFFFFFFFFFFFFFFFFFFFFFFFFFF NOT AND EQ ISZERO PUSH3 0x3D4 JUMPI PUSH1 0x40 MLOAD PUSH32 0x8C379A000000000000000000000000000000000000000000000000000000000 DUP2 MSTORE PUSH1 0x4 ADD PUSH3 0x3CB SWAP1 PUSH3 0x895 JUMP JUMPDEST PUSH1 0x40 MLOAD DUP1 SWAP2 SUB SWAP1 REVERT JUMPDEST PUSH1 0x1 DUP1 PUSH1 0x0 DUP4 PUSH28 0xFFFFFFFFFFFFFFFFFFFFFFFFFFFFFFFFFFFFFFFFFFFFFFFFFFFFFFFF NOT AND PUSH28 0xFFFFFFFFFFFFFFFFFFFFFFFFFFFFFFFFFFFFFFFFFFFFFFFFFFFFFFFF NOT AND DUP2 MSTORE PUSH1 0x20 ADD SWAP1 DUP2 MSTORE PUSH1 0x20 ADD PUSH1 0x0 KECCAK256 PUSH1 0x0 PUSH2 0x100 EXP DUP2 SLOAD DUP2 PUSH1 0xFF MUL NOT AND SWAP1 DUP4 ISZERO ISZERO MUL OR SWAP1 SSTORE POP POP JUMP JUMPDEST DUP1 PUSH1 0x2 PUSH1 0x0 DUP5 DUP2 MSTORE PUSH1 0x20 ADD SWAP1 DUP2 MSTORE PUSH1 0x20 ADD PUSH1 0x0 KECCAK256 SWAP1 DUP1 MLOAD SWAP1 PUSH1 0x20 ADD SWAP1 PUSH3 0x469 SWAP3 SWAP2 SWAP1 PUSH3 0x56C JUMP JUMPDEST POP DUP2 PUSH32 0xECE574603820D07BC9B91F2A932BAADF4628AABCB8AFBA49776529C14A6104B2 DUP3 PUSH1 0x40 MLOAD PUSH3 0x49C SWAP2 SWAP1 PUSH3 0x84F JUMP JUMPDEST PUSH1 0x40 MLOAD DUP1 SWAP2 SUB SWAP1 LOG2 POP POP JUMP JUMPDEST PUSH1 0x0 DUP1 PUSH1 0x0 SWAP1 SLOAD SWAP1 PUSH2 0x100 EXP SWAP1 DIV PUSH20 0xFFFFFFFFFFFFFFFFFFFFFFFFFFFFFFFFFFFFFFFF AND SWAP1 POP DUP2 PUSH1 0x0 DUP1 PUSH2 0x100 EXP DUP2 SLOAD DUP2 PUSH20 0xFFFFFFFFFFFFFFFFFFFFFFFFFFFFFFFFFFFFFFFF MUL NOT AND SWAP1 DUP4 PUSH20 0xFFFFFFFFFFFFFFFFFFFFFFFFFFFFFFFFFFFFFFFF AND MUL OR SWAP1 SSTORE POP DUP2 PUSH20 0xFFFFFFFFFFFFFFFFFFFFFFFFFFFFFFFFFFFFFFFF AND DUP2 PUSH20 0xFFFFFFFFFFFFFFFFFFFFFFFFFFFFFFFFFFFFFFFF AND PUSH32 0x8BE0079C531659141344CD1FD0A4F28419497F9722A3DAAFE3B4186F6B6457E0 PUSH1 0x40 MLOAD PUSH1 0x40 MLOAD DUP1 SWAP2 SUB SWAP1 LOG3 POP POP JUMP JUMPDEST DUP3 DUP1 SLOAD PUSH3 0x57A SWAP1 PUSH3 0x9FB JUMP JUMPDEST SWAP1 PUSH1 0x0 MSTORE PUSH1 0x20 PUSH1 0x0 KECCAK256 SWAP1 PUSH1 0x1F ADD PUSH1 0x20 SWAP1 DIV DUP2 ADD SWAP3 DUP3 PUSH3 0x59E JUMPI PUSH1 0x0 DUP6 SSTORE PUSH3 0x5EA JUMP JUMPDEST DUP3 PUSH1 0x1F LT PUSH3 0x5B9 JUMPI DUP1 MLOAD PUSH1 0xFF NOT AND DUP4 DUP1 ADD OR DUP6 SSTORE PUSH3 0x5EA JUMP JUMPDEST DUP3 DUP1 ADD PUSH1 0x1 ADD DUP6 SSTORE DUP3 ISZERO PUSH3 0x5EA JUMPI SWAP2 DUP3 ADD JUMPDEST DUP3 DUP2 GT ISZERO PUSH3 0x5E9 JUMPI DUP3 MLOAD DUP3 SSTORE SWAP2 PUSH1 0x20 ADD SWAP2 SWAP1 PUSH1 0x1 ADD SWAP1 PUSH3 0x5CC JUMP JUMPDEST JUMPDEST POP SWAP1 POP PUSH3 0x5F9 SWAP2 SWAP1 PUSH3 0x5FD JUMP JUMPDEST POP SWAP1 JUMP JUMPDEST JUMPDEST DUP1 DUP3 GT ISZERO PUSH3 0x618 JUMPI PUSH1 0x0 DUP2 PUSH1 0x0 SWAP1 SSTORE POP PUSH1 0x1 ADD PUSH3 0x5FE JUMP JUMPDEST POP SWAP1 JUMP JUMPDEST PUSH1 0x0 PUSH3 0x633 PUSH3 0x62D DUP5 PUSH3 0x902 JUMP JUMPDEST PUSH3 0x8D9 JUMP JUMPDEST SWAP1 POP DUP3 DUP2 MSTORE PUSH1 0x20 DUP2 ADD DUP5 DUP5 DUP5 ADD GT ISZERO PUSH3 0x652 JUMPI PUSH3 0x651 PUSH3 0xAD4 JUMP JUMPDEST JUMPDEST PUSH3 0x65F DUP5 DUP3 DUP6 PUSH3 0x9C5 JUMP JUMPDEST POP SWAP4 SWAP3 POP POP POP JUMP JUMPDEST PUSH1 0x0 DUP2 MLOAD SWAP1 POP PUSH3 0x678 DUP2 PUSH3 0xBBB JUMP JUMPDEST SWAP3 SWAP2 POP POP JUMP JUMPDEST PUSH1 0x0 DUP3 PUSH1 0x1F DUP4 ADD SLT PUSH3 0x696 JUMPI PUSH3 0x695 PUSH3 0xACF JUMP JUMPDEST JUMPDEST DUP2 MLOAD PUSH3 0x6A8 DUP5 DUP3 PUSH1 0x20 DUP7 ADD PUSH3 0x61C JUMP JUMPDEST SWAP2 POP POP SWAP3 SWAP2 POP POP JUMP JUMPDEST PUSH1 0x0 DUP1 PUSH1 0x0 DUP1 PUSH1 0x80 DUP6 DUP8 SUB SLT ISZERO PUSH3 0x6CE JUMPI PUSH3 0x6CD PUSH3 0xADE JUMP JUMPDEST JUMPDEST PUSH1 0x0 PUSH3 0x6DE DUP8 DUP3 DUP9 ADD PUSH3 0x667 JUMP JUMPDEST SWAP5 POP POP PUSH1 0x20 DUP6 ADD MLOAD PUSH8 0xFFFFFFFFFFFFFFFF DUP2 GT ISZERO PUSH3 0x702 JUMPI PUSH3 0x701 PUSH3 0xAD9 JUMP JUMPDEST JUMPDEST PUSH3 0x710 DUP8 DUP3 DUP9 ADD PUSH3 0x67E JUMP JUMPDEST SWAP4 POP POP PUSH1 0x40 DUP6 ADD MLOAD PUSH8 0xFFFFFFFFFFFFFFFF DUP2 GT ISZERO PUSH3 0x734 JUMPI PUSH3 0x733 PUSH3 0xAD9 JUMP JUMPDEST JUMPDEST PUSH3 0x742 DUP8 DUP3 DUP9 ADD PUSH3 0x67E JUMP JUMPDEST SWAP3 POP POP PUSH1 0x60 PUSH3 0x755 DUP8 DUP3 DUP9 ADD PUSH3 0x667 JUMP JUMPDEST SWAP2 POP POP SWAP3 SWAP6 SWAP2 SWAP5 POP SWAP3 POP JUMP JUMPDEST PUSH3 0x776 PUSH3 0x770 DUP3 PUSH3 0x979 JUMP JUMPDEST PUSH3 0xA67 JUMP JUMPDEST DUP3 MSTORE POP POP JUMP JUMPDEST PUSH1 0x0 PUSH3 0x789 DUP3 PUSH3 0x938 JUMP JUMPDEST PUSH3 0x795 DUP2 DUP6 PUSH3 0x943 JUMP JUMPDEST SWAP4 POP PUSH3 0x7A7 DUP2 DUP6 PUSH1 0x20 DUP7 ADD PUSH3 0x9C5 JUMP JUMPDEST PUSH3 0x7B2 DUP2 PUSH3 0xAE3 JUMP JUMPDEST DUP5 ADD SWAP2 POP POP SWAP3 SWAP2 POP POP JUMP JUMPDEST PUSH1 0x0 PUSH3 0x7CC PUSH1 0x29 DUP4 PUSH3 0x954 JUMP JUMPDEST SWAP2 POP PUSH3 0x7D9 DUP3 PUSH3 0xAF4 JUMP JUMPDEST PUSH1 0x40 DUP3 ADD SWAP1 POP SWAP2 SWAP1 POP JUMP JUMPDEST PUSH1 0x0 PUSH3 0x7F3 PUSH1 0x1C DUP4 PUSH3 0x954 JUMP JUMPDEST SWAP2 POP PUSH3 0x800 DUP3 PUSH3 0xB43 JUMP JUMPDEST PUSH1 0x20 DUP3 ADD SWAP1 POP SWAP2 SWAP1 POP JUMP JUMPDEST PUSH1 0x0 PUSH3 0x81A PUSH1 0x28 DUP4 PUSH3 0x954 JUMP JUMPDEST SWAP2 POP PUSH3 0x827 DUP3 PUSH3 0xB6C JUMP JUMPDEST PUSH1 0x40 DUP3 ADD SWAP1 POP SWAP2 SWAP1 POP JUMP JUMPDEST PUSH1 0x0 PUSH3 0x840 DUP3 DUP5 PUSH3 0x761 JUMP JUMPDEST PUSH1 0x4 DUP3 ADD SWAP2 POP DUP2 SWAP1 POP SWAP3 SWAP2 POP POP JUMP JUMPDEST PUSH1 0x0 PUSH1 0x20 DUP3 ADD SWAP1 POP DUP2 DUP2 SUB PUSH1 0x0 DUP4 ADD MSTORE PUSH3 0x86B DUP2 DUP5 PUSH3 0x77C JUMP JUMPDEST SWAP1 POP SWAP3 SWAP2 POP POP JUMP JUMPDEST PUSH1 0x0 PUSH1 0x20 DUP3 ADD SWAP1 POP DUP2 DUP2 SUB PUSH1 0x0 DUP4 ADD MSTORE PUSH3 0x88E DUP2 PUSH3 0x7BD JUMP JUMPDEST SWAP1 POP SWAP2 SWAP1 POP JUMP JUMPDEST PUSH1 0x0 PUSH1 0x20 DUP3 ADD SWAP1 POP DUP2 DUP2 SUB PUSH1 0x0 DUP4 ADD MSTORE PUSH3 0x8B0 DUP2 PUSH3 0x7E4 JUMP JUMPDEST SWAP1 POP SWAP2 SWAP1 POP JUMP JUMPDEST PUSH1 0x0 PUSH1 0x20 DUP3 ADD SWAP1 POP DUP2 DUP2 SUB PUSH1 0x0 DUP4 ADD MSTORE PUSH3 0x8D2 DUP2 PUSH3 0x80B JUMP JUMPDEST SWAP1 POP SWAP2 SWAP1 POP JUMP JUMPDEST PUSH1 0x0 PUSH3 0x8E5 PUSH3 0x8F8 JUMP JUMPDEST SWAP1 POP PUSH3 0x8F3 DUP3 DUP3 PUSH3 0xA31 JUMP JUMPDEST SWAP2 SWAP1 POP JUMP JUMPDEST PUSH1 0x0 PUSH1 0x40 MLOAD SWAP1 POP SWAP1 JUMP JUMPDEST PUSH1 0x0 PUSH8 0xFFFFFFFFFFFFFFFF DUP3 GT ISZERO PUSH3 0x920 JUMPI PUSH3 0x91F PUSH3 0xAA0 JUMP JUMPDEST JUMPDEST PUSH3 0x92B DUP3 PUSH3 0xAE3 JUMP JUMPDEST SWAP1 POP PUSH1 0x20 DUP2 ADD SWAP1 POP SWAP2 SWAP1 POP JUMP JUMPDEST PUSH1 0x0 DUP2 MLOAD SWAP1 POP SWAP2 SWAP1 POP JUMP JUMPDEST PUSH1 0x0 DUP3 DUP3 MSTORE PUSH1 0x20 DUP3 ADD SWAP1 POP SWAP3 SWAP2 POP POP JUMP JUMPDEST PUSH1 0x0 DUP3 DUP3 MSTORE PUSH1 0x20 DUP3 ADD SWAP1 POP SWAP3 SWAP2 POP POP JUMP JUMPDEST PUSH1 0x0 PUSH3 0x972 DUP3 PUSH3 0x9A5 JUMP JUMPDEST SWAP1 POP SWAP2 SWAP1 POP JUMP JUMPDEST PUSH1 0x0 PUSH32 0xFFFFFFFF00000000000000000000000000000000000000000000000000000000 DUP3 AND SWAP1 POP SWAP2 SWAP1 POP JUMP JUMPDEST PUSH1 0x0 PUSH20 0xFFFFFFFFFFFFFFFFFFFFFFFFFFFFFFFFFFFFFFFF DUP3 AND SWAP1 POP SWAP2 SWAP1 POP JUMP JUMPDEST PUSH1 0x0 JUMPDEST DUP4 DUP2 LT ISZERO PUSH3 0x9E5 JUMPI DUP1 DUP3 ADD MLOAD DUP2 DUP5 ADD MSTORE PUSH1 0x20 DUP2 ADD SWAP1 POP PUSH3 0x9C8 JUMP JUMPDEST DUP4 DUP2 GT ISZERO PUSH3 0x9F5 JUMPI PUSH1 0x0 DUP5 DUP5 ADD MSTORE JUMPDEST POP POP POP POP JUMP JUMPDEST PUSH1 0x0 PUSH1 0x2 DUP3 DIV SWAP1 POP PUSH1 0x1 DUP3 AND DUP1 PUSH3 0xA14 JUMPI PUSH1 0x7F DUP3 AND SWAP2 POP JUMPDEST PUSH1 0x20 DUP3 LT DUP2 EQ ISZERO PUSH3 0xA2B JUMPI PUSH3 0xA2A PUSH3 0xA71 JUMP JUMPDEST JUMPDEST POP SWAP2 SWAP1 POP JUMP JUMPDEST PUSH3 0xA3C DUP3 PUSH3 0xAE3 JUMP JUMPDEST DUP2 ADD DUP2 DUP2 LT PUSH8 0xFFFFFFFFFFFFFFFF DUP3 GT OR ISZERO PUSH3 0xA5E JUMPI PUSH3 0xA5D PUSH3 0xAA0 JUMP JUMPDEST JUMPDEST DUP1 PUSH1 0x40 MSTORE POP POP POP JUMP JUMPDEST PUSH1 0x0 DUP2 SWAP1 POP SWAP2 SWAP1 POP JUMP JUMPDEST PUSH32 0x4E487B7100000000000000000000000000000000000000000000000000000000 PUSH1 0x0 MSTORE PUSH1 0x22 PUSH1 0x4 MSTORE PUSH1 0x24 PUSH1 0x0 REVERT JUMPDEST PUSH32 0x4E487B7100000000000000000000000000000000000000000000000000000000 PUSH1 0x0 MSTORE PUSH1 0x41 PUSH1 0x4 MSTORE PUSH1 0x24 PUSH1 0x0 REVERT JUMPDEST PUSH1 0x0 DUP1 REVERT JUMPDEST PUSH1 0x0 DUP1 REVERT JUMPDEST PUSH1 0x0 DUP1 REVERT JUMPDEST PUSH1 0x0 DUP1 REVERT JUMPDEST PUSH1 0x0 PUSH1 0x1F NOT PUSH1 0x1F DUP4 ADD AND SWAP1 POP SWAP2 SWAP1 POP JUMP JUMPDEST PUSH32 0x4F776E61626C653A206F776E65722063616E206F6E6C7920626520696E697469 PUSH1 0x0 DUP3 ADD MSTORE PUSH32 0x61746564206F6E63650000000000000000000000000000000000000000000000 PUSH1 0x20 DUP3 ADD MSTORE POP JUMP JUMPDEST PUSH32 0x4552433136353A20696E76616C696420696E7465726661636520696400000000 PUSH1 0x0 DUP3 ADD MSTORE POP JUMP JUMPDEST PUSH32 0x4C535037436170706564537570706C793A20746F6B656E537570706C79436170 PUSH1 0x0 DUP3 ADD MSTORE PUSH32 0x206973207A65726F000000000000000000000000000000000000000000000000 PUSH1 0x20 DUP3 ADD MSTORE POP JUMP JUMPDEST PUSH3 0xBC6 DUP2 PUSH3 0x965 JUMP JUMPDEST DUP2 EQ PUSH3 0xBD2 JUMPI PUSH1 0x0 DUP1 REVERT JUMPDEST POP JUMP JUMPDEST PUSH2 0x4413 DUP1 PUSH3 0xBE5 PUSH1 0x0 CODECOPY PUSH1 0x0 RETURN INVALID PUSH1 0x80 PUSH1 0x40 MSTORE CALLVALUE DUP1 ISZERO PUSH2 0x10 JUMPI PUSH1 0x0 DUP1 REVERT JUMPDEST POP PUSH1 0x4 CALLDATASIZE LT PUSH2 0x158 JUMPI PUSH1 0x0 CALLDATALOAD PUSH1 0xE0 SHR DUP1 PUSH4 0x8DA5CB5B GT PUSH2 0xC3 JUMPI DUP1 PUSH4 0xD95B6371 GT PUSH2 0x7C JUMPI DUP1 PUSH4 0xD95B6371 EQ PUSH2 0x38D JUMPI DUP1 PUSH4 0xE9893C67 EQ PUSH2 0x3BD JUMPI DUP1 PUSH4 0xF2FDE38B EQ PUSH2 0x3DB JUMPI DUP1 PUSH4 0xF851A440 EQ PUSH2 0x3F7 JUMPI DUP1 PUSH4 0xFAD8B32A EQ PUSH2 0x415 JUMPI DUP1 PUSH4 0xFBDD25E4 EQ PUSH2 0x431 JUMPI PUSH2 0x158 JUMP JUMPDEST DUP1 PUSH4 0x8DA5CB5B EQ PUSH2 0x2DF JUMPI DUP1 PUSH4 0x95D89B41 EQ PUSH2 0x2FD JUMPI DUP1 PUSH4 0xA8A34E0A EQ PUSH2 0x31B JUMPI DUP1 PUSH4 0xBA80D787 EQ PUSH2 0x337 JUMPI DUP1 PUSH4 0xBE399BE5 EQ PUSH2 0x355 JUMPI DUP1 PUSH4 0xD2706C19 EQ PUSH2 0x371 JUMPI PUSH2 0x158 JUMP JUMPDEST DUP1 PUSH4 0x47980AA3 GT PUSH2 0x115 JUMPI DUP1 PUSH4 0x47980AA3 EQ PUSH2 0x21F JUMPI DUP1 PUSH4 0x4E3E6E9C EQ PUSH2 0x23B JUMPI DUP1 PUSH4 0x52058D8A EQ PUSH2 0x26B JUMPI DUP1 PUSH4 0x70A08231 EQ PUSH2 0x289 JUMPI DUP1 PUSH4 0x715018A6 EQ PUSH2 0x2B9 JUMPI DUP1 PUSH4 0x760D9BBA EQ PUSH2 0x2C3 JUMPI PUSH2 0x158 JUMP JUMPDEST DUP1 PUSH4 0x1FFC9A7 EQ PUSH2 0x15D JUMPI DUP1 PUSH4 0x6FDDE03 EQ PUSH2 0x18D JUMPI DUP1 PUSH4 0x14A6E293 EQ PUSH2 0x1AB JUMPI DUP1 PUSH4 0x18160DDD EQ PUSH2 0x1C7 JUMPI DUP1 PUSH4 0x1E9A6950 EQ PUSH2 0x1E5 JUMPI DUP1 PUSH4 0x313CE567 EQ PUSH2 0x201 JUMPI JUMPDEST PUSH1 0x0 DUP1 REVERT JUMPDEST PUSH2 0x177 PUSH1 0x4 DUP1 CALLDATASIZE SUB DUP2 ADD SWAP1 PUSH2 0x172 SWAP2 SWAP1 PUSH2 0x2E42 JUMP JUMPDEST PUSH2 0x44D JUMP JUMPDEST PUSH1 0x40 MLOAD PUSH2 0x184 SWAP2 SWAP1 PUSH2 0x3524 JUMP JUMPDEST PUSH1 0x40 MLOAD DUP1 SWAP2 SUB SWAP1 RETURN JUMPDEST PUSH2 0x195 PUSH2 0x4C5 JUMP JUMPDEST PUSH1 0x40 MLOAD PUSH2 0x1A2 SWAP2 SWAP1 PUSH2 0x35AC JUMP JUMPDEST PUSH1 0x40 MLOAD DUP1 SWAP2 SUB SWAP1 RETURN JUMPDEST PUSH2 0x1C5 PUSH1 0x4 DUP1 CALLDATASIZE SUB DUP2 ADD SWAP1 PUSH2 0x1C0 SWAP2 SWAP1 PUSH2 0x2D54 JUMP JUMPDEST PUSH2 0x4FF JUMP JUMPDEST STOP JUMPDEST PUSH2 0x1CF PUSH2 0x621 JUMP JUMPDEST PUSH1 0x40 MLOAD PUSH2 0x1DC SWAP2 SWAP1 PUSH2 0x384E JUMP JUMPDEST PUSH1 0x40 MLOAD DUP1 SWAP2 SUB SWAP1 RETURN JUMPDEST PUSH2 0x1FF PUSH1 0x4 DUP1 CALLDATASIZE SUB DUP2 ADD SWAP1 PUSH2 0x1FA SWAP2 SWAP1 PUSH2 0x2BE0 JUMP JUMPDEST PUSH2 0x62B JUMP JUMPDEST STOP JUMPDEST PUSH2 0x209 PUSH2 0x738 JUMP JUMPDEST PUSH1 0x40 MLOAD PUSH2 0x216 SWAP2 SWAP1 PUSH2 0x384E JUMP JUMPDEST PUSH1 0x40 MLOAD DUP1 SWAP2 SUB SWAP1 RETURN JUMPDEST PUSH2 0x239 PUSH1 0x4 DUP1 CALLDATASIZE SUB DUP2 ADD SWAP1 PUSH2 0x234 SWAP2 SWAP1 PUSH2 0x2BE0 JUMP JUMPDEST PUSH2 0x760 JUMP JUMPDEST STOP JUMPDEST PUSH2 0x255 PUSH1 0x4 DUP1 CALLDATASIZE SUB DUP2 ADD SWAP1 PUSH2 0x250 SWAP2 SWAP1 PUSH2 0x2D0B JUMP JUMPDEST PUSH2 0x776 JUMP JUMPDEST PUSH1 0x40 MLOAD PUSH2 0x262 SWAP2 SWAP1 PUSH2 0x3502 JUMP JUMPDEST PUSH1 0x40 MLOAD DUP1 SWAP2 SUB SWAP1 RETURN JUMPDEST PUSH2 0x273 PUSH2 0x82F JUMP JUMPDEST PUSH1 0x40 MLOAD PUSH2 0x280 SWAP2 SWAP1 PUSH2 0x384E JUMP JUMPDEST PUSH1 0x40 MLOAD DUP1 SWAP2 SUB SWAP1 RETURN JUMPDEST PUSH2 0x2A3 PUSH1 0x4 DUP1 CALLDATASIZE SUB DUP2 ADD SWAP1 PUSH2 0x29E SWAP2 SWAP1 PUSH2 0x2ADC JUMP JUMPDEST PUSH2 0x839 JUMP JUMPDEST PUSH1 0x40 MLOAD PUSH2 0x2B0 SWAP2 SWAP1 PUSH2 0x384E JUMP JUMPDEST PUSH1 0x40 MLOAD DUP1 SWAP2 SUB SWAP1 RETURN JUMPDEST PUSH2 0x2C1 PUSH2 0x882 JUMP JUMPDEST STOP JUMPDEST PUSH2 0x2DD PUSH1 0x4 DUP1 CALLDATASIZE SUB DUP2 ADD SWAP1 PUSH2 0x2D8 SWAP2 SWAP1 PUSH2 0x2B49 JUMP JUMPDEST PUSH2 0x90A JUMP JUMPDEST STOP JUMPDEST PUSH2 0x2E7 PUSH2 0xAB6 JUMP JUMPDEST PUSH1 0x40 MLOAD PUSH2 0x2F4 SWAP2 SWAP1 PUSH2 0x3465 JUMP JUMPDEST PUSH1 0x40 MLOAD DUP1 SWAP2 SUB SWAP1 RETURN JUMPDEST PUSH2 0x305 PUSH2 0xADF JUMP JUMPDEST PUSH1 0x40 MLOAD PUSH2 0x312 SWAP2 SWAP1 PUSH2 0x35AC JUMP JUMPDEST PUSH1 0x40 MLOAD DUP1 SWAP2 SUB SWAP1 RETURN JUMPDEST PUSH2 0x335 PUSH1 0x4 DUP1 CALLDATASIZE SUB DUP2 ADD SWAP1 PUSH2 0x330 SWAP2 SWAP1 PUSH2 0x2C20 JUMP JUMPDEST PUSH2 0xB19 JUMP JUMPDEST STOP JUMPDEST PUSH2 0x33F PUSH2 0xC13 JUMP JUMPDEST PUSH1 0x40 MLOAD PUSH2 0x34C SWAP2 SWAP1 PUSH2 0x3465 JUMP JUMPDEST PUSH1 0x40 MLOAD DUP1 SWAP2 SUB SWAP1 RETURN JUMPDEST PUSH2 0x36F PUSH1 0x4 DUP1 CALLDATASIZE SUB DUP2 ADD SWAP1 PUSH2 0x36A SWAP2 SWAP1 PUSH2 0x2ADC JUMP JUMPDEST PUSH2 0xC39 JUMP JUMPDEST STOP JUMPDEST PUSH2 0x38B PUSH1 0x4 DUP1 CALLDATASIZE SUB DUP2 ADD SWAP1 PUSH2 0x386 SWAP2 SWAP1 PUSH2 0x2EB8 JUMP JUMPDEST PUSH2 0xD53 JUMP JUMPDEST STOP JUMPDEST PUSH2 0x3A7 PUSH1 0x4 DUP1 CALLDATASIZE SUB DUP2 ADD SWAP1 PUSH2 0x3A2 SWAP2 SWAP1 PUSH2 0x2B09 JUMP JUMPDEST PUSH2 0xDED JUMP JUMPDEST PUSH1 0x40 MLOAD PUSH2 0x3B4 SWAP2 SWAP1 PUSH2 0x384E JUMP JUMPDEST PUSH1 0x40 MLOAD DUP1 SWAP2 SUB SWAP1 RETURN JUMPDEST PUSH2 0x3C5 PUSH2 0xEF0 JUMP JUMPDEST PUSH1 0x40 MLOAD PUSH2 0x3D2 SWAP2 SWAP1 PUSH2 0x384E JUMP JUMPDEST PUSH1 0x40 MLOAD DUP1 SWAP2 SUB SWAP1 RETURN JUMPDEST PUSH2 0x3F5 PUSH1 0x4 DUP1 CALLDATASIZE SUB DUP2 ADD SWAP1 PUSH2 0x3F0 SWAP2 SWAP1 PUSH2 0x2ADC JUMP JUMPDEST PUSH2 0xEF6 JUMP JUMPDEST STOP JUMPDEST PUSH2 0x3FF PUSH2 0xFEE JUMP JUMPDEST PUSH1 0x40 MLOAD PUSH2 0x40C SWAP2 SWAP1 PUSH2 0x3465 JUMP JUMPDEST PUSH1 0x40 MLOAD DUP1 SWAP2 SUB SWAP1 RETURN JUMPDEST PUSH2 0x42F PUSH1 0x4 DUP1 CALLDATASIZE SUB DUP2 ADD SWAP1 PUSH2 0x42A SWAP2 SWAP1 PUSH2 0x2ADC JUMP JUMPDEST PUSH2 0x1014 JUMP JUMPDEST STOP JUMPDEST PUSH2 0x44B PUSH1 0x4 DUP1 CALLDATASIZE SUB DUP2 ADD SWAP1 PUSH2 0x446 SWAP2 SWAP1 PUSH2 0x2ADC JUMP JUMPDEST PUSH2 0x102A JUMP JUMPDEST STOP JUMPDEST PUSH1 0x0 PUSH2 0x458 DUP3 PUSH2 0x123D JUMP JUMPDEST DUP1 PUSH2 0x4BE JUMPI POP PUSH1 0x1 PUSH1 0x0 DUP4 PUSH28 0xFFFFFFFFFFFFFFFFFFFFFFFFFFFFFFFFFFFFFFFFFFFFFFFFFFFFFFFF NOT AND PUSH28 0xFFFFFFFFFFFFFFFFFFFFFFFFFFFFFFFFFFFFFFFFFFFFFFFFFFFFFFFF NOT AND DUP2 MSTORE PUSH1 0x20 ADD SWAP1 DUP2 MSTORE PUSH1 0x20 ADD PUSH1 0x0 KECCAK256 PUSH1 0x0 SWAP1 SLOAD SWAP1 PUSH2 0x100 EXP SWAP1 DIV PUSH1 0xFF AND JUMPDEST SWAP1 POP SWAP2 SWAP1 POP JUMP JUMPDEST PUSH1 0x60 PUSH1 0x0 PUSH2 0x4F6 ADDRESS PUSH32 0xDEBA1E292F8BA88238E10AB3C7F88BD4BE4FAC56CAD5194B6ECCEAF653468AF1 PUSH1 0x0 SHL PUSH2 0x12A7 JUMP JUMPDEST SWAP1 POP DUP1 SWAP2 POP POP SWAP1 JUMP JUMPDEST PUSH2 0x507 PUSH2 0x13D0 JUMP JUMPDEST PUSH20 0xFFFFFFFFFFFFFFFFFFFFFFFFFFFFFFFFFFFFFFFF AND PUSH2 0x525 PUSH2 0xAB6 JUMP JUMPDEST PUSH20 0xFFFFFFFFFFFFFFFFFFFFFFFFFFFFFFFFFFFFFFFF AND EQ PUSH2 0x57B JUMPI PUSH1 0x40 MLOAD PUSH32 0x8C379A000000000000000000000000000000000000000000000000000000000 DUP2 MSTORE PUSH1 0x4 ADD PUSH2 0x572 SWAP1 PUSH2 0x376E JUMP JUMPDEST PUSH1 0x40 MLOAD DUP1 SWAP2 SUB SWAP1 REVERT JUMPDEST DUP1 MLOAD DUP3 MLOAD EQ PUSH2 0x5BF JUMPI PUSH1 0x40 MLOAD PUSH32 0x8C379A000000000000000000000000000000000000000000000000000000000 DUP2 MSTORE PUSH1 0x4 ADD PUSH2 0x5B6 SWAP1 PUSH2 0x380E JUMP JUMPDEST PUSH1 0x40 MLOAD DUP1 SWAP2 SUB SWAP1 REVERT JUMPDEST PUSH1 0x0 JUMPDEST DUP3 MLOAD DUP2 LT ISZERO PUSH2 0x61C JUMPI PUSH2 0x609 DUP4 DUP3 DUP2 MLOAD DUP2 LT PUSH2 0x5E1 JUMPI PUSH2 0x5E0 PUSH2 0x3CF5 JUMP JUMPDEST JUMPDEST PUSH1 0x20 MUL PUSH1 0x20 ADD ADD MLOAD DUP4 DUP4 DUP2 MLOAD DUP2 LT PUSH2 0x5FC JUMPI PUSH2 0x5FB PUSH2 0x3CF5 JUMP JUMPDEST JUMPDEST PUSH1 0x20 MUL PUSH1 0x20 ADD ADD MLOAD PUSH2 0x13D8 JUMP JUMPDEST DUP1 DUP1 PUSH2 0x614 SWAP1 PUSH2 0x3C20 JUMP JUMPDEST SWAP2 POP POP PUSH2 0x5C2 JUMP JUMPDEST POP POP POP JUMP JUMPDEST PUSH1 0x0 PUSH1 0x4 SLOAD SWAP1 POP SWAP1 JUMP JUMPDEST CALLER PUSH20 0xFFFFFFFFFFFFFFFFFFFFFFFFFFFFFFFFFFFFFFFF AND PUSH1 0x9 PUSH1 0x0 SWAP1 SLOAD SWAP1 PUSH2 0x100 EXP SWAP1 DIV PUSH20 0xFFFFFFFFFFFFFFFFFFFFFFFFFFFFFFFFFFFFFFFF AND PUSH20 0xFFFFFFFFFFFFFFFFFFFFFFFFFFFFFFFFFFFFFFFF AND EQ PUSH2 0x6BB JUMPI PUSH1 0x40 MLOAD PUSH32 0x8C379A000000000000000000000000000000000000000000000000000000000 DUP2 MSTORE PUSH1 0x4 ADD PUSH2 0x6B2 SWAP1 PUSH2 0x372E JUMP JUMPDEST PUSH1 0x40 MLOAD DUP1 SWAP2 SUB SWAP1 REVERT JUMPDEST PUSH2 0x6FB DUP3 DUP3 PUSH1 0x40 MLOAD DUP1 PUSH1 0x40 ADD PUSH1 0x40 MSTORE DUP1 PUSH1 0x6 DUP2 MSTORE PUSH1 0x20 ADD PUSH32 0x72656465656D0000000000000000000000000000000000000000000000000000 DUP2 MSTORE POP PUSH2 0x143C JUMP JUMPDEST PUSH32 0x4896181FF8F4543CC00DB9FE9B6FB7E6F032B7EB772C72AB1EC1B4D2E03B9369 DUP3 DUP3 PUSH1 0x40 MLOAD PUSH2 0x72C SWAP3 SWAP2 SWAP1 PUSH2 0x34B7 JUMP JUMPDEST PUSH1 0x40 MLOAD DUP1 SWAP2 SUB SWAP1 LOG1 POP POP JUMP JUMPDEST PUSH1 0x0 PUSH1 0x3 PUSH1 0x0 SWAP1 SLOAD SWAP1 PUSH2 0x100 EXP SWAP1 DIV PUSH1 0xFF AND PUSH2 0x755 JUMPI PUSH1 0x12 PUSH2 0x758 JUMP JUMPDEST PUSH1 0x0 JUMPDEST PUSH1 0xFF AND SWAP1 POP SWAP1 JUMP JUMPDEST PUSH2 0x772 PUSH2 0x76B PUSH2 0x13D0 JUMP JUMPDEST DUP4 DUP4 PUSH2 0x17B7 JUMP JUMPDEST POP POP JUMP JUMPDEST PUSH1 0x60 DUP2 MLOAD PUSH8 0xFFFFFFFFFFFFFFFF DUP2 GT ISZERO PUSH2 0x793 JUMPI PUSH2 0x792 PUSH2 0x3D24 JUMP JUMPDEST JUMPDEST PUSH1 0x40 MLOAD SWAP1 DUP1 DUP3 MSTORE DUP1 PUSH1 0x20 MUL PUSH1 0x20 ADD DUP3 ADD PUSH1 0x40 MSTORE DUP1 ISZERO PUSH2 0x7C6 JUMPI DUP2 PUSH1 0x20 ADD JUMPDEST PUSH1 0x60 DUP2 MSTORE PUSH1 0x20 ADD SWAP1 PUSH1 0x1 SWAP1 SUB SWAP1 DUP2 PUSH2 0x7B1 JUMPI SWAP1 POP JUMPDEST POP SWAP1 POP PUSH1 0x0 JUMPDEST DUP3 MLOAD DUP2 LT ISZERO PUSH2 0x829 JUMPI PUSH2 0x7F8 DUP4 DUP3 DUP2 MLOAD DUP2 LT PUSH2 0x7EB JUMPI PUSH2 0x7EA PUSH2 0x3CF5 JUMP JUMPDEST JUMPDEST PUSH1 0x20 MUL PUSH1 0x20 ADD ADD MLOAD PUSH2 0x1A50 JUMP JUMPDEST DUP3 DUP3 DUP2 MLOAD DUP2 LT PUSH2 0x80B JUMPI PUSH2 0x80A PUSH2 0x3CF5 JUMP JUMPDEST JUMPDEST PUSH1 0x20 MUL PUSH1 0x20 ADD ADD DUP2 SWAP1 MSTORE POP DUP1 DUP1 PUSH2 0x821 SWAP1 PUSH2 0x3C20 JUMP JUMPDEST SWAP2 POP POP PUSH2 0x7CC JUMP JUMPDEST POP SWAP2 SWAP1 POP JUMP JUMPDEST PUSH1 0x0 PUSH1 0x7 SLOAD SWAP1 POP SWAP1 JUMP JUMPDEST PUSH1 0x0 PUSH1 0x5 PUSH1 0x0 DUP4 PUSH20 0xFFFFFFFFFFFFFFFFFFFFFFFFFFFFFFFFFFFFFFFF AND PUSH20 0xFFFFFFFFFFFFFFFFFFFFFFFFFFFFFFFFFFFFFFFF AND DUP2 MSTORE PUSH1 0x20 ADD SWAP1 DUP2 MSTORE PUSH1 0x20 ADD PUSH1 0x0 KECCAK256 SLOAD SWAP1 POP SWAP2 SWAP1 POP JUMP JUMPDEST PUSH2 0x88A PUSH2 0x13D0 JUMP JUMPDEST PUSH20 0xFFFFFFFFFFFFFFFFFFFFFFFFFFFFFFFFFFFFFFFF AND PUSH2 0x8A8 PUSH2 0xAB6 JUMP JUMPDEST PUSH20 0xFFFFFFFFFFFFFFFFFFFFFFFFFFFFFFFFFFFFFFFF AND EQ PUSH2 0x8FE JUMPI PUSH1 0x40 MLOAD PUSH32 0x8C379A000000000000000000000000000000000000000000000000000000000 DUP2 MSTORE PUSH1 0x4 ADD PUSH2 0x8F5 SWAP1 PUSH2 0x376E JUMP JUMPDEST PUSH1 0x40 MLOAD DUP1 SWAP2 SUB SWAP1 REVERT JUMPDEST PUSH2 0x908 PUSH1 0x0 PUSH2 0x1AF5 JUMP JUMPDEST JUMP JUMPDEST PUSH1 0x0 PUSH2 0x914 PUSH2 0x13D0 JUMP JUMPDEST SWAP1 POP DUP6 PUSH20 0xFFFFFFFFFFFFFFFFFFFFFFFFFFFFFFFFFFFFFFFF AND DUP2 PUSH20 0xFFFFFFFFFFFFFFFFFFFFFFFFFFFFFFFFFFFFFFFF AND EQ PUSH2 0xAA1 JUMPI PUSH1 0x0 PUSH1 0x6 PUSH1 0x0 DUP9 PUSH20 0xFFFFFFFFFFFFFFFFFFFFFFFFFFFFFFFFFFFFFFFF AND PUSH20 0xFFFFFFFFFFFFFFFFFFFFFFFFFFFFFFFFFFFFFFFF AND DUP2 MSTORE PUSH1 0x20 ADD SWAP1 DUP2 MSTORE PUSH1 0x20 ADD PUSH1 0x0 KECCAK256 PUSH1 0x0 DUP4 PUSH20 0xFFFFFFFFFFFFFFFFFFFFFFFFFFFFFFFFFFFFFFFF AND PUSH20 0xFFFFFFFFFFFFFFFFFFFFFFFFFFFFFFFFFFFFFFFF AND DUP2 MSTORE PUSH1 0x20 ADD SWAP1 DUP2 MSTORE PUSH1 0x20 ADD PUSH1 0x0 KECCAK256 SLOAD SWAP1 POP DUP5 DUP2 LT ISZERO PUSH2 0xA0D JUMPI PUSH1 0x40 MLOAD PUSH32 0x8C379A000000000000000000000000000000000000000000000000000000000 DUP2 MSTORE PUSH1 0x4 ADD PUSH2 0xA04 SWAP1 PUSH2 0x360E JUMP JUMPDEST PUSH1 0x40 MLOAD DUP1 SWAP2 SUB SWAP1 REVERT JUMPDEST PUSH2 0xA9F DUP8 DUP4 DUP8 PUSH1 0x6 PUSH1 0x0 DUP13 PUSH20 0xFFFFFFFFFFFFFFFFFFFFFFFFFFFFFFFFFFFFFFFF AND PUSH20 0xFFFFFFFFFFFFFFFFFFFFFFFFFFFFFFFFFFFFFFFF AND DUP2 MSTORE PUSH1 0x20 ADD SWAP1 DUP2 MSTORE PUSH1 0x20 ADD PUSH1 0x0 KECCAK256 PUSH1 0x0 DUP8 PUSH20 0xFFFFFFFFFFFFFFFFFFFFFFFFFFFFFFFFFFFFFFFF AND PUSH20 0xFFFFFFFFFFFFFFFFFFFFFFFFFFFFFFFFFFFFFFFF AND DUP2 MSTORE PUSH1 0x20 ADD SWAP1 DUP2 MSTORE PUSH1 0x20 ADD PUSH1 0x0 KECCAK256 SLOAD PUSH2 0xA9A SWAP2 SWAP1 PUSH2 0x3AC9 JUMP JUMPDEST PUSH2 0x17B7 JUMP JUMPDEST POP JUMPDEST PUSH2 0xAAE DUP7 DUP7 DUP7 DUP7 DUP7 PUSH2 0x1BB9 JUMP JUMPDEST POP POP POP POP POP POP JUMP JUMPDEST PUSH1 0x0 DUP1 PUSH1 0x0 SWAP1 SLOAD SWAP1 PUSH2 0x100 EXP SWAP1 DIV PUSH20 0xFFFFFFFFFFFFFFFFFFFFFFFFFFFFFFFFFFFFFFFF AND SWAP1 POP SWAP1 JUMP JUMPDEST PUSH1 0x60 PUSH1 0x0 PUSH2 0xB10 ADDRESS PUSH32 0x2F0A68AB07768E01943A599E73362A0E17A63A72E94DD2E384D2C1D4DB932756 PUSH1 0x0 SHL PUSH2 0x12A7 JUMP JUMPDEST SWAP1 POP DUP1 SWAP2 POP POP SWAP1 JUMP JUMPDEST DUP4 MLOAD DUP6 MLOAD EQ DUP1 ISZERO PUSH2 0xB2B JUMPI POP DUP3 MLOAD DUP6 MLOAD EQ JUMPDEST DUP1 ISZERO PUSH2 0xB38 JUMPI POP DUP1 MLOAD DUP6 MLOAD EQ JUMPDEST PUSH2 0xB77 JUMPI PUSH1 0x40 MLOAD PUSH32 0x8C379A000000000000000000000000000000000000000000000000000000000 DUP2 MSTORE PUSH1 0x4 ADD PUSH2 0xB6E SWAP1 PUSH2 0x362E JUMP JUMPDEST PUSH1 0x40 MLOAD DUP1 SWAP2 SUB SWAP1 REVERT JUMPDEST PUSH1 0x0 JUMPDEST DUP6 MLOAD DUP2 LT ISZERO PUSH2 0xC0B JUMPI PUSH2 0xBF8 DUP7 DUP3 DUP2 MLOAD DUP2 LT PUSH2 0xB99 JUMPI PUSH2 0xB98 PUSH2 0x3CF5 JUMP JUMPDEST JUMPDEST PUSH1 0x20 MUL PUSH1 0x20 ADD ADD MLOAD DUP7 DUP4 DUP2 MLOAD DUP2 LT PUSH2 0xBB4 JUMPI PUSH2 0xBB3 PUSH2 0x3CF5 JUMP JUMPDEST JUMPDEST PUSH1 0x20 MUL PUSH1 0x20 ADD ADD MLOAD DUP7 DUP5 DUP2 MLOAD DUP2 LT PUSH2 0xBCF JUMPI PUSH2 0xBCE PUSH2 0x3CF5 JUMP JUMPDEST JUMPDEST PUSH1 0x20 MUL PUSH1 0x20 ADD ADD MLOAD DUP7 DUP7 DUP7 DUP2 MLOAD DUP2 LT PUSH2 0xBEB JUMPI PUSH2 0xBEA PUSH2 0x3CF5 JUMP JUMPDEST JUMPDEST PUSH1 0x20 MUL PUSH1 0x20 ADD ADD MLOAD PUSH2 0x90A JUMP JUMPDEST DUP1 DUP1 PUSH2 0xC03 SWAP1 PUSH2 0x3C20 JUMP JUMPDEST SWAP2 POP POP PUSH2 0xB7A JUMP JUMPDEST POP POP POP POP POP POP JUMP JUMPDEST PUSH1 0xA PUSH1 0x0 SWAP1 SLOAD SWAP1 PUSH2 0x100 EXP SWAP1 DIV PUSH20 0xFFFFFFFFFFFFFFFFFFFFFFFFFFFFFFFFFFFFFFFF AND DUP2 JUMP JUMPDEST CALLER PUSH20 0xFFFFFFFFFFFFFFFFFFFFFFFFFFFFFFFFFFFFFFFF AND PUSH1 0x9 PUSH1 0x0 SWAP1 SLOAD SWAP1 PUSH2 0x100 EXP SWAP1 DIV PUSH20 0xFFFFFFFFFFFFFFFFFFFFFFFFFFFFFFFFFFFFFFFF AND PUSH20 0xFFFFFFFFFFFFFFFFFFFFFFFFFFFFFFFFFFFFFFFF AND EQ PUSH2 0xCC9 JUMPI PUSH1 0x40 MLOAD PUSH32 0x8C379A000000000000000000000000000000000000000000000000000000000 DUP2 MSTORE PUSH1 0x4 ADD PUSH2 0xCC0 SWAP1 PUSH2 0x372E JUMP JUMPDEST PUSH1 0x40 MLOAD DUP1 SWAP2 SUB SWAP1 REVERT JUMPDEST PUSH1 0x0 PUSH2 0xCD4 DUP3 PUSH2 0x839 JUMP JUMPDEST SWAP1 POP PUSH2 0xD16 DUP3 DUP3 PUSH1 0x40 MLOAD DUP1 PUSH1 0x40 ADD PUSH1 0x40 MSTORE DUP1 PUSH1 0x6 DUP2 MSTORE PUSH1 0x20 ADD PUSH32 0x72656465656D0000000000000000000000000000000000000000000000000000 DUP2 MSTORE POP PUSH2 0x143C JUMP JUMPDEST PUSH32 0x4896181FF8F4543CC00DB9FE9B6FB7E6F032B7EB772C72AB1EC1B4D2E03B9369 DUP3 DUP3 PUSH1 0x40 MLOAD PUSH2 0xD47 SWAP3 SWAP2 SWAP1 PUSH2 0x34B7 JUMP JUMPDEST PUSH1 0x40 MLOAD DUP1 SWAP2 SUB SWAP1 LOG1 POP POP JUMP JUMPDEST CALLER PUSH20 0xFFFFFFFFFFFFFFFFFFFFFFFFFFFFFFFFFFFFFFFF AND PUSH1 0x9 PUSH1 0x0 SWAP1 SLOAD SWAP1 PUSH2 0x100 EXP SWAP1 DIV PUSH20 0xFFFFFFFFFFFFFFFFFFFFFFFFFFFFFFFFFFFFFFFF AND PUSH20 0xFFFFFFFFFFFFFFFFFFFFFFFFFFFFFFFFFFFFFFFF AND EQ PUSH2 0xDE3 JUMPI PUSH1 0x40 MLOAD PUSH32 0x8C379A000000000000000000000000000000000000000000000000000000000 DUP2 MSTORE PUSH1 0x4 ADD PUSH2 0xDDA SWAP1 PUSH2 0x372E JUMP JUMPDEST PUSH1 0x40 MLOAD DUP1 SWAP2 SUB SWAP1 REVERT JUMPDEST DUP1 PUSH1 0x8 DUP2 SWAP1 SSTORE POP POP JUMP JUMPDEST PUSH1 0x0 DUP3 PUSH20 0xFFFFFFFFFFFFFFFFFFFFFFFFFFFFFFFFFFFFFFFF AND DUP3 PUSH20 0xFFFFFFFFFFFFFFFFFFFFFFFFFFFFFFFFFFFFFFFF AND EQ ISZERO PUSH2 0xE6A JUMPI PUSH1 0x5 PUSH1 0x0 DUP4 PUSH20 0xFFFFFFFFFFFFFFFFFFFFFFFFFFFFFFFFFFFFFFFF AND PUSH20 0xFFFFFFFFFFFFFFFFFFFFFFFFFFFFFFFFFFFFFFFF AND DUP2 MSTORE PUSH1 0x20 ADD SWAP1 DUP2 MSTORE PUSH1 0x20 ADD PUSH1 0x0 KECCAK256 SLOAD SWAP1 POP PUSH2 0xEEA JUMP JUMPDEST PUSH1 0x6 PUSH1 0x0 DUP4 PUSH20 0xFFFFFFFFFFFFFFFFFFFFFFFFFFFFFFFFFFFFFFFF AND PUSH20 0xFFFFFFFFFFFFFFFFFFFFFFFFFFFFFFFFFFFFFFFF AND DUP2 MSTORE PUSH1 0x20 ADD SWAP1 DUP2 MSTORE PUSH1 0x20 ADD PUSH1 0x0 KECCAK256 PUSH1 0x0 DUP5 PUSH20 0xFFFFFFFFFFFFFFFFFFFFFFFFFFFFFFFFFFFFFFFF AND PUSH20 0xFFFFFFFFFFFFFFFFFFFFFFFFFFFFFFFFFFFFFFFF AND DUP2 MSTORE PUSH1 0x20 ADD SWAP1 DUP2 MSTORE PUSH1 0x20 ADD PUSH1 0x0 KECCAK256 SLOAD SWAP1 POP JUMPDEST SWAP3 SWAP2 POP POP JUMP JUMPDEST PUSH1 0x8 SLOAD DUP2 JUMP JUMPDEST PUSH2 0xEFE PUSH2 0x13D0 JUMP JUMPDEST PUSH20 0xFFFFFFFFFFFFFFFFFFFFFFFFFFFFFFFFFFFFFFFF AND PUSH2 0xF1C PUSH2 0xAB6 JUMP JUMPDEST PUSH20 0xFFFFFFFFFFFFFFFFFFFFFFFFFFFFFFFFFFFFFFFF AND EQ PUSH2 0xF72 JUMPI PUSH1 0x40 MLOAD PUSH32 0x8C379A000000000000000000000000000000000000000000000000000000000 DUP2 MSTORE PUSH1 0x4 ADD PUSH2 0xF69 SWAP1 PUSH2 0x376E JUMP JUMPDEST PUSH1 0x40 MLOAD DUP1 SWAP2 SUB SWAP1 REVERT JUMPDEST PUSH1 0x0 PUSH20 0xFFFFFFFFFFFFFFFFFFFFFFFFFFFFFFFFFFFFFFFF AND DUP2 PUSH20 0xFFFFFFFFFFFFFFFFFFFFFFFFFFFFFFFFFFFFFFFF AND EQ ISZERO PUSH2 0xFE2 JUMPI PUSH1 0x40 MLOAD PUSH32 0x8C379A000000000000000000000000000000000000000000000000000000000 DUP2 MSTORE PUSH1 0x4 ADD PUSH2 0xFD9 SWAP1 PUSH2 0x366E JUMP JUMPDEST PUSH1 0x40 MLOAD DUP1 SWAP2 SUB SWAP1 REVERT JUMPDEST PUSH2 0xFEB DUP2 PUSH2 0x1AF5 JUMP JUMPDEST POP JUMP JUMPDEST PUSH1 0x9 PUSH1 0x0 SWAP1 SLOAD SWAP1 PUSH2 0x100 EXP SWAP1 DIV PUSH20 0xFFFFFFFFFFFFFFFFFFFFFFFFFFFFFFFFFFFFFFFF AND DUP2 JUMP JUMPDEST PUSH2 0x1027 PUSH2 0x101F PUSH2 0x13D0 JUMP JUMPDEST DUP3 PUSH1 0x0 PUSH2 0x17B7 JUMP JUMPDEST POP JUMP JUMPDEST CALLER PUSH20 0xFFFFFFFFFFFFFFFFFFFFFFFFFFFFFFFFFFFFFFFF AND PUSH1 0x9 PUSH1 0x0 SWAP1 SLOAD SWAP1 PUSH2 0x100 EXP SWAP1 DIV PUSH20 0xFFFFFFFFFFFFFFFFFFFFFFFFFFFFFFFFFFFFFFFF AND PUSH20 0xFFFFFFFFFFFFFFFFFFFFFFFFFFFFFFFFFFFFFFFF AND EQ PUSH2 0x10BA JUMPI PUSH1 0x40 MLOAD PUSH32 0x8C379A000000000000000000000000000000000000000000000000000000000 DUP2 MSTORE PUSH1 0x4 ADD PUSH2 0x10B1 SWAP1 PUSH2 0x372E JUMP JUMPDEST PUSH1 0x40 MLOAD DUP1 SWAP2 SUB SWAP1 REVERT JUMPDEST PUSH2 0x1120 PUSH1 0xA PUSH1 0x0 SWAP1 SLOAD SWAP1 PUSH2 0x100 EXP SWAP1 DIV PUSH20 0xFFFFFFFFFFFFFFFFFFFFFFFFFFFFFFFFFFFFFFFF AND PUSH1 0x8 SLOAD PUSH1 0x1 PUSH1 0x40 MLOAD DUP1 PUSH1 0x40 ADD PUSH1 0x40 MSTORE DUP1 PUSH1 0x5 DUP2 MSTORE PUSH1 0x20 ADD PUSH32 0x6177617264000000000000000000000000000000000000000000000000000000 DUP2 MSTORE POP PUSH2 0x1E7F JUMP JUMPDEST PUSH2 0x1164 DUP2 PUSH1 0x8 SLOAD PUSH1 0x1 PUSH1 0x40 MLOAD DUP1 PUSH1 0x40 ADD PUSH1 0x40 MSTORE DUP1 PUSH1 0x5 DUP2 MSTORE PUSH1 0x20 ADD PUSH32 0x6177617264000000000000000000000000000000000000000000000000000000 DUP2 MSTORE POP PUSH2 0x1E7F JUMP JUMPDEST PUSH32 0xE2554529D99AB7A67DB6B4CEA2B32C7D55AE325F958861E05F304FDDED867E31 PUSH1 0xA PUSH1 0x0 SWAP1 SLOAD SWAP1 PUSH2 0x100 EXP SWAP1 DIV PUSH20 0xFFFFFFFFFFFFFFFFFFFFFFFFFFFFFFFFFFFFFFFF AND DUP3 PUSH1 0x8 SLOAD PUSH1 0x40 MLOAD PUSH2 0x11BB SWAP4 SWAP3 SWAP2 SWAP1 PUSH2 0x3480 JUMP JUMPDEST PUSH1 0x40 MLOAD DUP1 SWAP2 SUB SWAP1 LOG1 POP JUMP JUMPDEST PUSH1 0x0 PUSH1 0x14 SWAP1 SLOAD SWAP1 PUSH2 0x100 EXP SWAP1 DIV PUSH1 0xFF AND ISZERO PUSH2 0x1216 JUMPI PUSH1 0x40 MLOAD PUSH32 0x8C379A000000000000000000000000000000000000000000000000000000000 DUP2 MSTORE PUSH1 0x4 ADD PUSH2 0x120D SWAP1 PUSH2 0x364E JUMP JUMPDEST PUSH1 0x40 MLOAD DUP1 SWAP2 SUB SWAP1 REVERT JUMPDEST PUSH1 0x1 PUSH1 0x0 PUSH1 0x14 PUSH2 0x100 EXP DUP2 SLOAD DUP2 PUSH1 0xFF MUL NOT AND SWAP1 DUP4 ISZERO ISZERO MUL OR SWAP1 SSTORE POP PUSH2 0x123A DUP2 PUSH2 0x1AF5 JUMP JUMPDEST POP JUMP JUMPDEST PUSH1 0x0 PUSH32 0x1FFC9A700000000000000000000000000000000000000000000000000000000 PUSH28 0xFFFFFFFFFFFFFFFFFFFFFFFFFFFFFFFFFFFFFFFFFFFFFFFFFFFFFFFF NOT AND DUP3 PUSH28 0xFFFFFFFFFFFFFFFFFFFFFFFFFFFFFFFFFFFFFFFFFFFFFFFFFFFFFFFF NOT AND EQ SWAP1 POP SWAP2 SWAP1 POP JUMP JUMPDEST PUSH1 0x60 PUSH1 0x0 PUSH1 0x1 PUSH8 0xFFFFFFFFFFFFFFFF DUP2 GT ISZERO PUSH2 0x12C6 JUMPI PUSH2 0x12C5 PUSH2 0x3D24 JUMP JUMPDEST JUMPDEST PUSH1 0x40 MLOAD SWAP1 DUP1 DUP3 MSTORE DUP1 PUSH1 0x20 MUL PUSH1 0x20 ADD DUP3 ADD PUSH1 0x40 MSTORE DUP1 ISZERO PUSH2 0x12F4 JUMPI DUP2 PUSH1 0x20 ADD PUSH1 0x20 DUP3 MUL DUP1 CALLDATASIZE DUP4 CALLDATACOPY DUP1 DUP3 ADD SWAP2 POP POP SWAP1 POP JUMPDEST POP SWAP1 POP DUP3 DUP2 PUSH1 0x0 DUP2 MLOAD DUP2 LT PUSH2 0x130C JUMPI PUSH2 0x130B PUSH2 0x3CF5 JUMP JUMPDEST JUMPDEST PUSH1 0x20 MUL PUSH1 0x20 ADD ADD DUP2 DUP2 MSTORE POP POP PUSH1 0x0 DUP5 PUSH20 0xFFFFFFFFFFFFFFFFFFFFFFFFFFFFFFFFFFFFFFFF AND PUSH4 0x4E3E6E9C DUP4 PUSH1 0x40 MLOAD DUP3 PUSH4 0xFFFFFFFF AND PUSH1 0xE0 SHL DUP2 MSTORE PUSH1 0x4 ADD PUSH2 0x1353 SWAP2 SWAP1 PUSH2 0x34E0 JUMP JUMPDEST PUSH1 0x0 PUSH1 0x40 MLOAD DUP1 DUP4 SUB DUP2 DUP7 DUP1 EXTCODESIZE ISZERO DUP1 ISZERO PUSH2 0x136B JUMPI PUSH1 0x0 DUP1 REVERT JUMPDEST POP GAS STATICCALL ISZERO DUP1 ISZERO PUSH2 0x137F JUMPI RETURNDATASIZE PUSH1 0x0 DUP1 RETURNDATACOPY RETURNDATASIZE PUSH1 0x0 REVERT JUMPDEST POP POP POP POP PUSH1 0x40 MLOAD RETURNDATASIZE PUSH1 0x0 DUP3 RETURNDATACOPY RETURNDATASIZE PUSH1 0x1F NOT PUSH1 0x1F DUP3 ADD AND DUP3 ADD DUP1 PUSH1 0x40 MSTORE POP DUP2 ADD SWAP1 PUSH2 0x13A8 SWAP2 SWAP1 PUSH2 0x2DCC JUMP JUMPDEST PUSH1 0x0 DUP2 MLOAD DUP2 LT PUSH2 0x13BB JUMPI PUSH2 0x13BA PUSH2 0x3CF5 JUMP JUMPDEST JUMPDEST PUSH1 0x20 MUL PUSH1 0x20 ADD ADD MLOAD SWAP1 POP DUP1 SWAP3 POP POP POP SWAP3 SWAP2 POP POP JUMP JUMPDEST PUSH1 0x0 CALLER SWAP1 POP SWAP1 JUMP JUMPDEST DUP1 PUSH1 0x2 PUSH1 0x0 DUP5 DUP2 MSTORE PUSH1 0x20 ADD SWAP1 DUP2 MSTORE PUSH1 0x20 ADD PUSH1 0x0 KECCAK256 SWAP1 DUP1 MLOAD SWAP1 PUSH1 0x20 ADD SWAP1 PUSH2 0x13FF SWAP3 SWAP2 SWAP1 PUSH2 0x2589 JUMP JUMPDEST POP DUP2 PUSH32 0xECE574603820D07BC9B91F2A932BAADF4628AABCB8AFBA49776529C14A6104B2 DUP3 PUSH1 0x40 MLOAD PUSH2 0x1430 SWAP2 SWAP1 PUSH2 0x358A JUMP JUMPDEST PUSH1 0x40 MLOAD DUP1 SWAP2 SUB SWAP1 LOG2 POP POP JUMP JUMPDEST PUSH1 0x0 PUSH20 0xFFFFFFFFFFFFFFFFFFFFFFFFFFFFFFFFFFFFFFFF AND DUP4 PUSH20 0xFFFFFFFFFFFFFFFFFFFFFFFFFFFFFFFFFFFFFFFF AND EQ ISZERO PUSH2 0x14AC JUMPI PUSH1 0x40 MLOAD PUSH32 0x8C379A000000000000000000000000000000000000000000000000000000000 DUP2 MSTORE PUSH1 0x4 ADD PUSH2 0x14A3 SWAP1 PUSH2 0x37EE JUMP JUMPDEST PUSH1 0x40 MLOAD DUP1 SWAP2 SUB SWAP1 REVERT JUMPDEST DUP2 PUSH1 0x5 PUSH1 0x0 DUP6 PUSH20 0xFFFFFFFFFFFFFFFFFFFFFFFFFFFFFFFFFFFFFFFF AND PUSH20 0xFFFFFFFFFFFFFFFFFFFFFFFFFFFFFFFFFFFFFFFF AND DUP2 MSTORE PUSH1 0x20 ADD SWAP1 DUP2 MSTORE PUSH1 0x20 ADD PUSH1 0x0 KECCAK256 SLOAD LT ISZERO PUSH2 0x152E JUMPI PUSH1 0x40 MLOAD PUSH32 0x8C379A000000000000000000000000000000000000000000000000000000000 DUP2 MSTORE PUSH1 0x4 ADD PUSH2 0x1525 SWAP1 PUSH2 0x382E JUMP JUMPDEST PUSH1 0x40 MLOAD DUP1 SWAP2 SUB SWAP1 REVERT JUMPDEST PUSH1 0x0 PUSH2 0x1538 PUSH2 0x13D0 JUMP JUMPDEST SWAP1 POP DUP4 PUSH20 0xFFFFFFFFFFFFFFFFFFFFFFFFFFFFFFFFFFFFFFFF AND DUP2 PUSH20 0xFFFFFFFFFFFFFFFFFFFFFFFFFFFFFFFFFFFFFFFF AND EQ PUSH2 0x16C0 JUMPI DUP3 PUSH1 0x6 PUSH1 0x0 DUP7 PUSH20 0xFFFFFFFFFFFFFFFFFFFFFFFFFFFFFFFFFFFFFFFF AND PUSH20 0xFFFFFFFFFFFFFFFFFFFFFFFFFFFFFFFFFFFFFFFF AND DUP2 MSTORE PUSH1 0x20 ADD SWAP1 DUP2 MSTORE PUSH1 0x20 ADD PUSH1 0x0 KECCAK256 PUSH1 0x0 DUP4 PUSH20 0xFFFFFFFFFFFFFFFFFFFFFFFFFFFFFFFFFFFFFFFF AND PUSH20 0xFFFFFFFFFFFFFFFFFFFFFFFFFFFFFFFFFFFFFFFF AND DUP2 MSTORE PUSH1 0x20 ADD SWAP1 DUP2 MSTORE PUSH1 0x20 ADD PUSH1 0x0 KECCAK256 SLOAD LT ISZERO PUSH2 0x162C JUMPI PUSH1 0x40 MLOAD PUSH32 0x8C379A000000000000000000000000000000000000000000000000000000000 DUP2 MSTORE PUSH1 0x4 ADD PUSH2 0x1623 SWAP1 PUSH2 0x35EE JUMP JUMPDEST PUSH1 0x40 MLOAD DUP1 SWAP2 SUB SWAP1 REVERT JUMPDEST DUP3 PUSH1 0x6 PUSH1 0x0 DUP7 PUSH20 0xFFFFFFFFFFFFFFFFFFFFFFFFFFFFFFFFFFFFFFFF AND PUSH20 0xFFFFFFFFFFFFFFFFFFFFFFFFFFFFFFFFFFFFFFFF AND DUP2 MSTORE PUSH1 0x20 ADD SWAP1 DUP2 MSTORE PUSH1 0x20 ADD PUSH1 0x0 KECCAK256 PUSH1 0x0 DUP4 PUSH20 0xFFFFFFFFFFFFFFFFFFFFFFFFFFFFFFFFFFFFFFFF AND PUSH20 0xFFFFFFFFFFFFFFFFFFFFFFFFFFFFFFFFFFFFFFFF AND DUP2 MSTORE PUSH1 0x20 ADD SWAP1 DUP2 MSTORE PUSH1 0x20 ADD PUSH1 0x0 KECCAK256 PUSH1 0x0 DUP3 DUP3 SLOAD PUSH2 0x16B8 SWAP2 SWAP1 PUSH2 0x3AC9 JUMP JUMPDEST SWAP3 POP POP DUP2 SWAP1 SSTORE POP JUMPDEST PUSH2 0x16CD DUP5 PUSH1 0x0 DUP6 DUP6 PUSH2 0x1E91 JUMP JUMPDEST PUSH2 0x16D9 DUP5 PUSH1 0x0 DUP6 PUSH2 0x1FA0 JUMP JUMPDEST DUP3 PUSH1 0x5 PUSH1 0x0 DUP7 PUSH20 0xFFFFFFFFFFFFFFFFFFFFFFFFFFFFFFFFFFFFFFFF AND PUSH20 0xFFFFFFFFFFFFFFFFFFFFFFFFFFFFFFFFFFFFFFFF AND DUP2 MSTORE PUSH1 0x20 ADD SWAP1 DUP2 MSTORE PUSH1 0x20 ADD PUSH1 0x0 KECCAK256 PUSH1 0x0 DUP3 DUP3 SLOAD PUSH2 0x1728 SWAP2 SWAP1 PUSH2 0x3AC9 JUMP JUMPDEST SWAP3 POP POP DUP2 SWAP1 SSTORE POP PUSH1 0x0 PUSH20 0xFFFFFFFFFFFFFFFFFFFFFFFFFFFFFFFFFFFFFFFF AND DUP5 PUSH20 0xFFFFFFFFFFFFFFFFFFFFFFFFFFFFFFFFFFFFFFFF AND DUP3 PUSH20 0xFFFFFFFFFFFFFFFFFFFFFFFFFFFFFFFFFFFFFFFF AND PUSH32 0x3997E418D2CEF0B3B0E907B1E39605C3F7D32DBD061E82EA5B4A770D46A160A6 DUP7 PUSH1 0x0 DUP8 PUSH1 0x40 MLOAD PUSH2 0x17A9 SWAP4 SWAP3 SWAP2 SWAP1 PUSH2 0x3869 JUMP JUMPDEST PUSH1 0x40 MLOAD DUP1 SWAP2 SUB SWAP1 LOG4 POP POP POP POP JUMP JUMPDEST DUP3 PUSH20 0xFFFFFFFFFFFFFFFFFFFFFFFFFFFFFFFFFFFFFFFF AND DUP3 PUSH20 0xFFFFFFFFFFFFFFFFFFFFFFFFFFFFFFFFFFFFFFFF AND EQ ISZERO PUSH2 0x1826 JUMPI PUSH1 0x40 MLOAD PUSH32 0x8C379A000000000000000000000000000000000000000000000000000000000 DUP2 MSTORE PUSH1 0x4 ADD PUSH2 0x181D SWAP1 PUSH2 0x36AE JUMP JUMPDEST PUSH1 0x40 MLOAD DUP1 SWAP2 SUB SWAP1 REVERT JUMPDEST PUSH1 0x0 PUSH20 0xFFFFFFFFFFFFFFFFFFFFFFFFFFFFFFFFFFFFFFFF AND DUP3 PUSH20 0xFFFFFFFFFFFFFFFFFFFFFFFFFFFFFFFFFFFFFFFF AND EQ ISZERO PUSH2 0x1896 JUMPI PUSH1 0x40 MLOAD PUSH32 0x8C379A000000000000000000000000000000000000000000000000000000000 DUP2 MSTORE PUSH1 0x4 ADD PUSH2 0x188D SWAP1 PUSH2 0x37CE JUMP JUMPDEST PUSH1 0x40 MLOAD DUP1 SWAP2 SUB SWAP1 REVERT JUMPDEST PUSH1 0x0 PUSH20 0xFFFFFFFFFFFFFFFFFFFFFFFFFFFFFFFFFFFFFFFF AND DUP4 PUSH20 0xFFFFFFFFFFFFFFFFFFFFFFFFFFFFFFFFFFFFFFFF AND EQ ISZERO PUSH2 0x1906 JUMPI PUSH1 0x40 MLOAD PUSH32 0x8C379A000000000000000000000000000000000000000000000000000000000 DUP2 MSTORE PUSH1 0x4 ADD PUSH2 0x18FD SWAP1 PUSH2 0x36CE JUMP JUMPDEST PUSH1 0x40 MLOAD DUP1 SWAP2 SUB SWAP1 REVERT JUMPDEST DUP1 PUSH1 0x6 PUSH1 0x0 DUP6 PUSH20 0xFFFFFFFFFFFFFFFFFFFFFFFFFFFFFFFFFFFFFFFF AND PUSH20 0xFFFFFFFFFFFFFFFFFFFFFFFFFFFFFFFFFFFFFFFF AND DUP2 MSTORE PUSH1 0x20 ADD SWAP1 DUP2 MSTORE PUSH1 0x20 ADD PUSH1 0x0 KECCAK256 PUSH1 0x0 DUP5 PUSH20 0xFFFFFFFFFFFFFFFFFFFFFFFFFFFFFFFFFFFFFFFF AND PUSH20 0xFFFFFFFFFFFFFFFFFFFFFFFFFFFFFFFFFFFFFFFF AND DUP2 MSTORE PUSH1 0x20 ADD SWAP1 DUP2 MSTORE PUSH1 0x20 ADD PUSH1 0x0 KECCAK256 DUP2 SWAP1 SSTORE POP PUSH1 0x0 DUP2 GT ISZERO PUSH2 0x19F0 JUMPI DUP1 DUP4 PUSH20 0xFFFFFFFFFFFFFFFFFFFFFFFFFFFFFFFFFFFFFFFF AND DUP4 PUSH20 0xFFFFFFFFFFFFFFFFFFFFFFFFFFFFFFFFFFFFFFFF AND PUSH32 0xD66AFF874162A96578E919097B6F6D153DFD89A5CEC41BB331FDB0C4AEC16E2C PUSH1 0x40 MLOAD PUSH1 0x40 MLOAD DUP1 SWAP2 SUB SWAP1 LOG4 PUSH2 0x1A4B JUMP JUMPDEST DUP3 PUSH20 0xFFFFFFFFFFFFFFFFFFFFFFFFFFFFFFFFFFFFFFFF AND DUP3 PUSH20 0xFFFFFFFFFFFFFFFFFFFFFFFFFFFFFFFFFFFFFFFF AND PUSH32 0x50546E66E5F44D728365DC3908C63BC5CFEEAB470722C1677E3073A6AC294AA1 PUSH1 0x40 MLOAD PUSH1 0x40 MLOAD DUP1 SWAP2 SUB SWAP1 LOG3 JUMPDEST POP POP POP JUMP JUMPDEST PUSH1 0x60 PUSH1 0x2 PUSH1 0x0 DUP4 DUP2 MSTORE PUSH1 0x20 ADD SWAP1 DUP2 MSTORE PUSH1 0x20 ADD PUSH1 0x0 KECCAK256 DUP1 SLOAD PUSH2 0x1A70 SWAP1 PUSH2 0x3BBD JUMP JUMPDEST DUP1 PUSH1 0x1F ADD PUSH1 0x20 DUP1 SWAP2 DIV MUL PUSH1 0x20 ADD PUSH1 0x40 MLOAD SWAP1 DUP2 ADD PUSH1 0x40 MSTORE DUP1 SWAP3 SWAP2 SWAP1 DUP2 DUP2 MSTORE PUSH1 0x20 ADD DUP3 DUP1 SLOAD PUSH2 0x1A9C SWAP1 PUSH2 0x3BBD JUMP JUMPDEST DUP1 ISZERO PUSH2 0x1AE9 JUMPI DUP1 PUSH1 0x1F LT PUSH2 0x1ABE JUMPI PUSH2 0x100 DUP1 DUP4 SLOAD DIV MUL DUP4 MSTORE SWAP2 PUSH1 0x20 ADD SWAP2 PUSH2 0x1AE9 JUMP JUMPDEST DUP3 ADD SWAP2 SWAP1 PUSH1 0x0 MSTORE PUSH1 0x20 PUSH1 0x0 KECCAK256 SWAP1 JUMPDEST DUP2 SLOAD DUP2 MSTORE SWAP1 PUSH1 0x1 ADD SWAP1 PUSH1 0x20 ADD DUP1 DUP4 GT PUSH2 0x1ACC JUMPI DUP3 SWAP1 SUB PUSH1 0x1F AND DUP3 ADD SWAP2 JUMPDEST POP POP POP POP POP SWAP1 POP SWAP2 SWAP1 POP JUMP JUMPDEST PUSH1 0x0 DUP1 PUSH1 0x0 SWAP1 SLOAD SWAP1 PUSH2 0x100 EXP SWAP1 DIV PUSH20 0xFFFFFFFFFFFFFFFFFFFFFFFFFFFFFFFFFFFFFFFF AND SWAP1 POP DUP2 PUSH1 0x0 DUP1 PUSH2 0x100 EXP DUP2 SLOAD DUP2 PUSH20 0xFFFFFFFFFFFFFFFFFFFFFFFFFFFFFFFFFFFFFFFF MUL NOT AND SWAP1 DUP4 PUSH20 0xFFFFFFFFFFFFFFFFFFFFFFFFFFFFFFFFFFFFFFFF AND MUL OR SWAP1 SSTORE POP DUP2 PUSH20 0xFFFFFFFFFFFFFFFFFFFFFFFFFFFFFFFFFFFFFFFF AND DUP2 PUSH20 0xFFFFFFFFFFFFFFFFFFFFFFFFFFFFFFFFFFFFFFFF AND PUSH32 0x8BE0079C531659141344CD1FD0A4F28419497F9722A3DAAFE3B4186F6B6457E0 PUSH1 0x40 MLOAD PUSH1 0x40 MLOAD DUP1 SWAP2 SUB SWAP1 LOG3 POP POP JUMP JUMPDEST PUSH1 0x0 PUSH20 0xFFFFFFFFFFFFFFFFFFFFFFFFFFFFFFFFFFFFFFFF AND DUP6 PUSH20 0xFFFFFFFFFFFFFFFFFFFFFFFFFFFFFFFFFFFFFFFF AND EQ ISZERO PUSH2 0x1C29 JUMPI PUSH1 0x40 MLOAD PUSH32 0x8C379A000000000000000000000000000000000000000000000000000000000 DUP2 MSTORE PUSH1 0x4 ADD PUSH2 0x1C20 SWAP1 PUSH2 0x374E JUMP JUMPDEST PUSH1 0x40 MLOAD DUP1 SWAP2 SUB SWAP1 REVERT JUMPDEST PUSH1 0x0 PUSH20 0xFFFFFFFFFFFFFFFFFFFFFFFFFFFFFFFFFFFFFFFF AND DUP5 PUSH20 0xFFFFFFFFFFFFFFFFFFFFFFFFFFFFFFFFFFFFFFFF AND EQ ISZERO PUSH2 0x1C99 JUMPI PUSH1 0x40 MLOAD PUSH32 0x8C379A000000000000000000000000000000000000000000000000000000000 DUP2 MSTORE PUSH1 0x4 ADD PUSH2 0x1C90 SWAP1 PUSH2 0x37AE JUMP JUMPDEST PUSH1 0x40 MLOAD DUP1 SWAP2 SUB SWAP1 REVERT JUMPDEST DUP3 PUSH1 0x5 PUSH1 0x0 DUP8 PUSH20 0xFFFFFFFFFFFFFFFFFFFFFFFFFFFFFFFFFFFFFFFF AND PUSH20 0xFFFFFFFFFFFFFFFFFFFFFFFFFFFFFFFFFFFFFFFF AND DUP2 MSTORE PUSH1 0x20 ADD SWAP1 DUP2 MSTORE PUSH1 0x20 ADD PUSH1 0x0 KECCAK256 SLOAD LT ISZERO PUSH2 0x1D1B JUMPI PUSH1 0x40 MLOAD PUSH32 0x8C379A000000000000000000000000000000000000000000000000000000000 DUP2 MSTORE PUSH1 0x4 ADD PUSH2 0x1D12 SWAP1 PUSH2 0x36EE JUMP JUMPDEST PUSH1 0x40 MLOAD DUP1 SWAP2 SUB SWAP1 REVERT JUMPDEST PUSH1 0x0 PUSH2 0x1D25 PUSH2 0x13D0 JUMP JUMPDEST SWAP1 POP PUSH2 0x1D33 DUP7 DUP7 DUP7 DUP6 PUSH2 0x1E91 JUMP JUMPDEST PUSH2 0x1D3E DUP7 DUP7 DUP7 PUSH2 0x1FA0 JUMP JUMPDEST DUP4 PUSH1 0x5 PUSH1 0x0 DUP9 PUSH20 0xFFFFFFFFFFFFFFFFFFFFFFFFFFFFFFFFFFFFFFFF AND PUSH20 0xFFFFFFFFFFFFFFFFFFFFFFFFFFFFFFFFFFFFFFFF AND DUP2 MSTORE PUSH1 0x20 ADD SWAP1 DUP2 MSTORE PUSH1 0x20 ADD PUSH1 0x0 KECCAK256 PUSH1 0x0 DUP3 DUP3 SLOAD PUSH2 0x1D8D SWAP2 SWAP1 PUSH2 0x3AC9 JUMP JUMPDEST SWAP3 POP POP DUP2 SWAP1 SSTORE POP DUP4 PUSH1 0x5 PUSH1 0x0 DUP8 PUSH20 0xFFFFFFFFFFFFFFFFFFFFFFFFFFFFFFFFFFFFFFFF AND PUSH20 0xFFFFFFFFFFFFFFFFFFFFFFFFFFFFFFFFFFFFFFFF AND DUP2 MSTORE PUSH1 0x20 ADD SWAP1 DUP2 MSTORE PUSH1 0x20 ADD PUSH1 0x0 KECCAK256 PUSH1 0x0 DUP3 DUP3 SLOAD PUSH2 0x1DE3 SWAP2 SWAP1 PUSH2 0x3A73 JUMP JUMPDEST SWAP3 POP POP DUP2 SWAP1 SSTORE POP DUP5 PUSH20 0xFFFFFFFFFFFFFFFFFFFFFFFFFFFFFFFFFFFFFFFF AND DUP7 PUSH20 0xFFFFFFFFFFFFFFFFFFFFFFFFFFFFFFFFFFFFFFFF AND DUP3 PUSH20 0xFFFFFFFFFFFFFFFFFFFFFFFFFFFFFFFFFFFFFFFF AND PUSH32 0x3997E418D2CEF0B3B0E907B1E39605C3F7D32DBD061E82EA5B4A770D46A160A6 DUP8 DUP8 DUP8 PUSH1 0x40 MLOAD PUSH2 0x1E62 SWAP4 SWAP3 SWAP2 SWAP1 PUSH2 0x3869 JUMP JUMPDEST PUSH1 0x40 MLOAD DUP1 SWAP2 SUB SWAP1 LOG4 PUSH2 0x1E77 DUP7 DUP7 DUP7 DUP7 DUP7 PUSH2 0x2043 JUMP JUMPDEST POP POP POP POP POP POP JUMP JUMPDEST PUSH2 0x1E8B DUP5 DUP5 DUP5 DUP5 PUSH2 0x21F7 JUMP JUMPDEST POP POP POP POP JUMP JUMPDEST PUSH2 0x1E9A DUP5 PUSH2 0x2265 JUMP JUMPDEST DUP1 ISZERO PUSH2 0x1EB3 JUMPI POP PUSH2 0x1EB2 DUP5 PUSH4 0x6BB56A14 PUSH1 0xE0 SHL PUSH2 0x22B2 JUMP JUMPDEST JUMPDEST ISZERO PUSH2 0x1F9A JUMPI PUSH1 0x0 DUP5 DUP5 DUP5 DUP5 PUSH1 0x40 MLOAD PUSH1 0x20 ADD PUSH2 0x1ED1 SWAP5 SWAP4 SWAP3 SWAP2 SWAP1 PUSH2 0x3404 JUMP JUMPDEST PUSH1 0x40 MLOAD PUSH1 0x20 DUP2 DUP4 SUB SUB DUP2 MSTORE SWAP1 PUSH1 0x40 MSTORE SWAP1 POP DUP5 PUSH20 0xFFFFFFFFFFFFFFFFFFFFFFFFFFFFFFFFFFFFFFFF AND PUSH4 0x6BB56A14 PUSH32 0x40B8BEC57D7B5FF0DBD9E9ACD0A47DFEB0101E1A203766F5CCAB00445FBF39E9 PUSH1 0x0 SHL DUP4 PUSH1 0x40 MLOAD DUP4 PUSH4 0xFFFFFFFF AND PUSH1 0xE0 SHL DUP2 MSTORE PUSH1 0x4 ADD PUSH2 0x1F40 SWAP3 SWAP2 SWAP1 PUSH2 0x353F JUMP JUMPDEST PUSH1 0x0 PUSH1 0x40 MLOAD DUP1 DUP4 SUB DUP2 PUSH1 0x0 DUP8 DUP1 EXTCODESIZE ISZERO DUP1 ISZERO PUSH2 0x1F5A JUMPI PUSH1 0x0 DUP1 REVERT JUMPDEST POP GAS CALL ISZERO DUP1 ISZERO PUSH2 0x1F6E JUMPI RETURNDATASIZE PUSH1 0x0 DUP1 RETURNDATACOPY RETURNDATASIZE PUSH1 0x0 REVERT JUMPDEST POP POP POP POP PUSH1 0x40 MLOAD RETURNDATASIZE PUSH1 0x0 DUP3 RETURNDATACOPY RETURNDATASIZE PUSH1 0x1F NOT PUSH1 0x1F DUP3 ADD AND DUP3 ADD DUP1 PUSH1 0x40 MSTORE POP DUP2 ADD SWAP1 PUSH2 0x1F97 SWAP2 SWAP1 PUSH2 0x2E6F JUMP JUMPDEST POP POP JUMPDEST POP POP POP POP JUMP JUMPDEST PUSH1 0x0 PUSH20 0xFFFFFFFFFFFFFFFFFFFFFFFFFFFFFFFFFFFFFFFF AND DUP4 PUSH20 0xFFFFFFFFFFFFFFFFFFFFFFFFFFFFFFFFFFFFFFFF AND EQ ISZERO PUSH2 0x1FEF JUMPI DUP1 PUSH1 0x4 PUSH1 0x0 DUP3 DUP3 SLOAD PUSH2 0x1FE7 SWAP2 SWAP1 PUSH2 0x3A73 JUMP JUMPDEST SWAP3 POP POP DUP2 SWAP1 SSTORE POP JUMPDEST PUSH1 0x0 PUSH20 0xFFFFFFFFFFFFFFFFFFFFFFFFFFFFFFFFFFFFFFFF AND DUP3 PUSH20 0xFFFFFFFFFFFFFFFFFFFFFFFFFFFFFFFFFFFFFFFF AND EQ ISZERO PUSH2 0x203E JUMPI DUP1 PUSH1 0x4 PUSH1 0x0 DUP3 DUP3 SLOAD PUSH2 0x2036 SWAP2 SWAP1 PUSH2 0x3AC9 JUMP JUMPDEST SWAP3 POP POP DUP2 SWAP1 SSTORE POP JUMPDEST POP POP POP JUMP JUMPDEST PUSH2 0x204C DUP5 PUSH2 0x2265 JUMP JUMPDEST DUP1 ISZERO PUSH2 0x2065 JUMPI POP PUSH2 0x2064 DUP5 PUSH4 0x6BB56A14 PUSH1 0xE0 SHL PUSH2 0x22B2 JUMP JUMPDEST JUMPDEST ISZERO PUSH2 0x2150 JUMPI PUSH1 0x0 DUP6 DUP6 DUP6 DUP5 PUSH1 0x40 MLOAD PUSH1 0x20 ADD PUSH2 0x2083 SWAP5 SWAP4 SWAP3 SWAP2 SWAP1 PUSH2 0x3404 JUMP JUMPDEST PUSH1 0x40 MLOAD PUSH1 0x20 DUP2 DUP4 SUB SUB DUP2 MSTORE SWAP1 PUSH1 0x40 MSTORE SWAP1 POP DUP5 PUSH20 0xFFFFFFFFFFFFFFFFFFFFFFFFFFFFFFFFFFFFFFFF AND PUSH4 0x6BB56A14 PUSH32 0xDBE2C314E1AEE2970C72666F2EBE8933A8575263EA71E5FF6A9178E95D47A26F PUSH1 0x0 SHL DUP4 PUSH1 0x40 MLOAD DUP4 PUSH4 0xFFFFFFFF AND PUSH1 0xE0 SHL DUP2 MSTORE PUSH1 0x4 ADD PUSH2 0x20F2 SWAP3 SWAP2 SWAP1 PUSH2 0x353F JUMP JUMPDEST PUSH1 0x0 PUSH1 0x40 MLOAD DUP1 DUP4 SUB DUP2 PUSH1 0x0 DUP8 DUP1 EXTCODESIZE ISZERO DUP1 ISZERO PUSH2 0x210C JUMPI PUSH1 0x0 DUP1 REVERT JUMPDEST POP GAS CALL ISZERO DUP1 ISZERO PUSH2 0x2120 JUMPI RETURNDATASIZE PUSH1 0x0 DUP1 RETURNDATACOPY RETURNDATASIZE PUSH1 0x0 REVERT JUMPDEST POP POP POP POP PUSH1 0x40 MLOAD RETURNDATASIZE PUSH1 0x0 DUP3 RETURNDATACOPY RETURNDATASIZE PUSH1 0x1F NOT PUSH1 0x1F DUP3 ADD AND DUP3 ADD DUP1 PUSH1 0x40 MSTORE POP DUP2 ADD SWAP1 PUSH2 0x2149 SWAP2 SWAP1 PUSH2 0x2E6F JUMP JUMPDEST POP POP PUSH2 0x21F0 JUMP JUMPDEST DUP2 PUSH2 0x21EF JUMPI PUSH2 0x2174 DUP5 PUSH20 0xFFFFFFFFFFFFFFFFFFFFFFFFFFFFFFFFFFFFFFFF AND PUSH2 0x22D7 JUMP JUMPDEST ISZERO PUSH2 0x21B4 JUMPI PUSH1 0x40 MLOAD PUSH32 0x8C379A000000000000000000000000000000000000000000000000000000000 DUP2 MSTORE PUSH1 0x4 ADD PUSH2 0x21AB SWAP1 PUSH2 0x370E JUMP JUMPDEST PUSH1 0x40 MLOAD DUP1 SWAP2 SUB SWAP1 REVERT JUMPDEST PUSH1 0x40 MLOAD PUSH32 0x8C379A000000000000000000000000000000000000000000000000000000000 DUP2 MSTORE PUSH1 0x4 ADD PUSH2 0x21E6 SWAP1 PUSH2 0x35CE JUMP JUMPDEST PUSH1 0x40 MLOAD DUP1 SWAP2 SUB SWAP1 REVERT JUMPDEST JUMPDEST POP POP POP POP POP JUMP JUMPDEST PUSH2 0x21FF PUSH2 0x82F JUMP JUMPDEST DUP4 PUSH2 0x2208 PUSH2 0x621 JUMP JUMPDEST PUSH2 0x2212 SWAP2 SWAP1 PUSH2 0x3A73 JUMP JUMPDEST GT ISZERO PUSH2 0x2253 JUMPI PUSH1 0x40 MLOAD PUSH32 0x8C379A000000000000000000000000000000000000000000000000000000000 DUP2 MSTORE PUSH1 0x4 ADD PUSH2 0x224A SWAP1 PUSH2 0x378E JUMP JUMPDEST PUSH1 0x40 MLOAD DUP1 SWAP2 SUB SWAP1 REVERT JUMPDEST PUSH2 0x225F DUP5 DUP5 DUP5 DUP5 PUSH2 0x22EA JUMP JUMPDEST POP POP POP POP JUMP JUMPDEST PUSH1 0x0 PUSH2 0x2291 DUP3 PUSH32 0x1FFC9A700000000000000000000000000000000000000000000000000000000 PUSH2 0x245E JUMP JUMPDEST DUP1 ISZERO PUSH2 0x22AB JUMPI POP PUSH2 0x22A9 DUP3 PUSH4 0xFFFFFFFF PUSH1 0xE0 SHL PUSH2 0x245E JUMP JUMPDEST ISZERO JUMPDEST SWAP1 POP SWAP2 SWAP1 POP JUMP JUMPDEST PUSH1 0x0 PUSH2 0x22BD DUP4 PUSH2 0x2265 JUMP JUMPDEST DUP1 ISZERO PUSH2 0x22CF JUMPI POP PUSH2 0x22CE DUP4 DUP4 PUSH2 0x245E JUMP JUMPDEST JUMPDEST SWAP1 POP SWAP3 SWAP2 POP POP JUMP JUMPDEST PUSH1 0x0 DUP1 DUP3 EXTCODESIZE SWAP1 POP PUSH1 0x0 DUP2 GT SWAP2 POP POP SWAP2 SWAP1 POP JUMP JUMPDEST PUSH1 0x0 PUSH20 0xFFFFFFFFFFFFFFFFFFFFFFFFFFFFFFFFFFFFFFFF AND DUP5 PUSH20 0xFFFFFFFFFFFFFFFFFFFFFFFFFFFFFFFFFFFFFFFF AND EQ ISZERO PUSH2 0x235A JUMPI PUSH1 0x40 MLOAD PUSH32 0x8C379A000000000000000000000000000000000000000000000000000000000 DUP2 MSTORE PUSH1 0x4 ADD PUSH2 0x2351 SWAP1 PUSH2 0x368E JUMP JUMPDEST PUSH1 0x40 MLOAD DUP1 SWAP2 SUB SWAP1 REVERT JUMPDEST PUSH1 0x0 PUSH2 0x2364 PUSH2 0x13D0 JUMP JUMPDEST SWAP1 POP PUSH2 0x2372 PUSH1 0x0 DUP7 DUP7 PUSH2 0x1FA0 JUMP JUMPDEST DUP4 PUSH1 0x5 PUSH1 0x0 DUP8 PUSH20 0xFFFFFFFFFFFFFFFFFFFFFFFFFFFFFFFFFFFFFFFF AND PUSH20 0xFFFFFFFFFFFFFFFFFFFFFFFFFFFFFFFFFFFFFFFF AND DUP2 MSTORE PUSH1 0x20 ADD SWAP1 DUP2 MSTORE PUSH1 0x20 ADD PUSH1 0x0 KECCAK256 PUSH1 0x0 DUP3 DUP3 SLOAD PUSH2 0x23C1 SWAP2 SWAP1 PUSH2 0x3A73 JUMP JUMPDEST SWAP3 POP POP DUP2 SWAP1 SSTORE POP DUP5 PUSH20 0xFFFFFFFFFFFFFFFFFFFFFFFFFFFFFFFFFFFFFFFF AND PUSH1 0x0 PUSH20 0xFFFFFFFFFFFFFFFFFFFFFFFFFFFFFFFFFFFFFFFF AND DUP3 PUSH20 0xFFFFFFFFFFFFFFFFFFFFFFFFFFFFFFFFFFFFFFFF AND PUSH32 0x3997E418D2CEF0B3B0E907B1E39605C3F7D32DBD061E82EA5B4A770D46A160A6 DUP8 DUP8 DUP8 PUSH1 0x40 MLOAD PUSH2 0x2441 SWAP4 SWAP3 SWAP2 SWAP1 PUSH2 0x3869 JUMP JUMPDEST PUSH1 0x40 MLOAD DUP1 SWAP2 SUB SWAP1 LOG4 PUSH2 0x2457 PUSH1 0x0 DUP7 DUP7 DUP7 DUP7 PUSH2 0x2043 JUMP JUMPDEST POP POP POP POP POP JUMP JUMPDEST PUSH1 0x0 DUP1 PUSH4 0x1FFC9A7 PUSH1 0xE0 SHL DUP4 PUSH1 0x40 MLOAD PUSH1 0x24 ADD PUSH2 0x247A SWAP2 SWAP1 PUSH2 0x356F JUMP JUMPDEST PUSH1 0x40 MLOAD PUSH1 0x20 DUP2 DUP4 SUB SUB DUP2 MSTORE SWAP1 PUSH1 0x40 MSTORE SWAP1 PUSH28 0xFFFFFFFFFFFFFFFFFFFFFFFFFFFFFFFFFFFFFFFFFFFFFFFFFFFFFFFF NOT AND PUSH1 0x20 DUP3 ADD DUP1 MLOAD PUSH28 0xFFFFFFFFFFFFFFFFFFFFFFFFFFFFFFFFFFFFFFFFFFFFFFFFFFFFFFFF DUP4 DUP2 DUP4 AND OR DUP4 MSTORE POP POP POP POP SWAP1 POP PUSH1 0x0 DUP1 DUP6 PUSH20 0xFFFFFFFFFFFFFFFFFFFFFFFFFFFFFFFFFFFFFFFF AND PUSH2 0x7530 DUP5 PUSH1 0x40 MLOAD PUSH2 0x2504 SWAP2 SWAP1 PUSH2 0x344E JUMP JUMPDEST PUSH1 0x0 PUSH1 0x40 MLOAD DUP1 DUP4 SUB DUP2 DUP7 DUP7 STATICCALL SWAP3 POP POP POP RETURNDATASIZE DUP1 PUSH1 0x0 DUP2 EQ PUSH2 0x2540 JUMPI PUSH1 0x40 MLOAD SWAP2 POP PUSH1 0x1F NOT PUSH1 0x3F RETURNDATASIZE ADD AND DUP3 ADD PUSH1 0x40 MSTORE RETURNDATASIZE DUP3 MSTORE RETURNDATASIZE PUSH1 0x0 PUSH1 0x20 DUP5 ADD RETURNDATACOPY PUSH2 0x2545 JUMP JUMPDEST PUSH1 0x60 SWAP2 POP JUMPDEST POP SWAP2 POP SWAP2 POP PUSH1 0x20 DUP2 MLOAD LT ISZERO PUSH2 0x2560 JUMPI PUSH1 0x0 SWAP4 POP POP POP POP PUSH2 0x2583 JUMP JUMPDEST DUP2 DUP1 ISZERO PUSH2 0x257D JUMPI POP DUP1 DUP1 PUSH1 0x20 ADD SWAP1 MLOAD DUP2 ADD SWAP1 PUSH2 0x257C SWAP2 SWAP1 PUSH2 0x2E15 JUMP JUMPDEST JUMPDEST SWAP4 POP POP POP POP JUMPDEST SWAP3 SWAP2 POP POP JUMP JUMPDEST DUP3 DUP1 SLOAD PUSH2 0x2595 SWAP1 PUSH2 0x3BBD JUMP JUMPDEST SWAP1 PUSH1 0x0 MSTORE PUSH1 0x20 PUSH1 0x0 KECCAK256 SWAP1 PUSH1 0x1F ADD PUSH1 0x20 SWAP1 DIV DUP2 ADD SWAP3 DUP3 PUSH2 0x25B7 JUMPI PUSH1 0x0 DUP6 SSTORE PUSH2 0x25FE JUMP JUMPDEST DUP3 PUSH1 0x1F LT PUSH2 0x25D0 JUMPI DUP1 MLOAD PUSH1 0xFF NOT AND DUP4 DUP1 ADD OR DUP6 SSTORE PUSH2 0x25FE JUMP JUMPDEST DUP3 DUP1 ADD PUSH1 0x1 ADD DUP6 SSTORE DUP3 ISZERO PUSH2 0x25FE JUMPI SWAP2 DUP3 ADD JUMPDEST DUP3 DUP2 GT ISZERO PUSH2 0x25FD JUMPI DUP3 MLOAD DUP3 SSTORE SWAP2 PUSH1 0x20 ADD SWAP2 SWAP1 PUSH1 0x1 ADD SWAP1 PUSH2 0x25E2 JUMP JUMPDEST JUMPDEST POP SWAP1 POP PUSH2 0x260B SWAP2 SWAP1 PUSH2 0x260F JUMP JUMPDEST POP SWAP1 JUMP JUMPDEST JUMPDEST DUP1 DUP3 GT ISZERO PUSH2 0x2628 JUMPI PUSH1 0x0 DUP2 PUSH1 0x0 SWAP1 SSTORE POP PUSH1 0x1 ADD PUSH2 0x2610 JUMP JUMPDEST POP SWAP1 JUMP JUMPDEST PUSH1 0x0 PUSH2 0x263F PUSH2 0x263A DUP5 PUSH2 0x38CC JUMP JUMPDEST PUSH2 0x38A7 JUMP JUMPDEST SWAP1 POP DUP1 DUP4 DUP3 MSTORE PUSH1 0x20 DUP3 ADD SWAP1 POP DUP3 DUP6 PUSH1 0x20 DUP7 MUL DUP3 ADD GT ISZERO PUSH2 0x2662 JUMPI PUSH2 0x2661 PUSH2 0x3D58 JUMP JUMPDEST JUMPDEST PUSH1 0x0 JUMPDEST DUP6 DUP2 LT ISZERO PUSH2 0x2692 JUMPI DUP2 PUSH2 0x2678 DUP9 DUP3 PUSH2 0x291C JUMP JUMPDEST DUP5 MSTORE PUSH1 0x20 DUP5 ADD SWAP4 POP PUSH1 0x20 DUP4 ADD SWAP3 POP POP PUSH1 0x1 DUP2 ADD SWAP1 POP PUSH2 0x2665 JUMP JUMPDEST POP POP POP SWAP4 SWAP3 POP POP POP JUMP JUMPDEST PUSH1 0x0 PUSH2 0x26AF PUSH2 0x26AA DUP5 PUSH2 0x38F8 JUMP JUMPDEST PUSH2 0x38A7 JUMP JUMPDEST SWAP1 POP DUP1 DUP4 DUP3 MSTORE PUSH1 0x20 DUP3 ADD SWAP1 POP DUP3 DUP6 PUSH1 0x20 DUP7 MUL DUP3 ADD GT ISZERO PUSH2 0x26D2 JUMPI PUSH2 0x26D1 PUSH2 0x3D58 JUMP JUMPDEST JUMPDEST PUSH1 0x0 JUMPDEST DUP6 DUP2 LT ISZERO PUSH2 0x2702 JUMPI DUP2 PUSH2 0x26E8 DUP9 DUP3 PUSH2 0x2A41 JUMP JUMPDEST DUP5 MSTORE PUSH1 0x20 DUP5 ADD SWAP4 POP PUSH1 0x20 DUP4 ADD SWAP3 POP POP PUSH1 0x1 DUP2 ADD SWAP1 POP PUSH2 0x26D5 JUMP JUMPDEST POP POP POP SWAP4 SWAP3 POP POP POP JUMP JUMPDEST PUSH1 0x0 PUSH2 0x271F PUSH2 0x271A DUP5 PUSH2 0x3924 JUMP JUMPDEST PUSH2 0x38A7 JUMP JUMPDEST SWAP1 POP DUP1 DUP4 DUP3 MSTORE PUSH1 0x20 DUP3 ADD SWAP1 POP DUP3 DUP6 PUSH1 0x20 DUP7 MUL DUP3 ADD GT ISZERO PUSH2 0x2742 JUMPI PUSH2 0x2741 PUSH2 0x3D58 JUMP JUMPDEST JUMPDEST PUSH1 0x0 JUMPDEST DUP6 DUP2 LT ISZERO PUSH2 0x2790 JUMPI DUP2 CALLDATALOAD PUSH8 0xFFFFFFFFFFFFFFFF DUP2 GT ISZERO PUSH2 0x2768 JUMPI PUSH2 0x2767 PUSH2 0x3D53 JUMP JUMPDEST JUMPDEST DUP1 DUP7 ADD PUSH2 0x2775 DUP10 DUP3 PUSH2 0x2A6B JUMP JUMPDEST DUP6 MSTORE PUSH1 0x20 DUP6 ADD SWAP5 POP PUSH1 0x20 DUP5 ADD SWAP4 POP POP POP PUSH1 0x1 DUP2 ADD SWAP1 POP PUSH2 0x2745 JUMP JUMPDEST POP POP POP SWAP4 SWAP3 POP POP POP JUMP JUMPDEST PUSH1 0x0 PUSH2 0x27AD PUSH2 0x27A8 DUP5 PUSH2 0x3924 JUMP JUMPDEST PUSH2 0x38A7 JUMP JUMPDEST SWAP1 POP DUP1 DUP4 DUP3 MSTORE PUSH1 0x20 DUP3 ADD SWAP1 POP DUP3 DUP6 PUSH1 0x20 DUP7 MUL DUP3 ADD GT ISZERO PUSH2 0x27D0 JUMPI PUSH2 0x27CF PUSH2 0x3D58 JUMP JUMPDEST JUMPDEST PUSH1 0x0 JUMPDEST DUP6 DUP2 LT ISZERO PUSH2 0x281E JUMPI DUP2 MLOAD PUSH8 0xFFFFFFFFFFFFFFFF DUP2 GT ISZERO PUSH2 0x27F6 JUMPI PUSH2 0x27F5 PUSH2 0x3D53 JUMP JUMPDEST JUMPDEST DUP1 DUP7 ADD PUSH2 0x2803 DUP10 DUP3 PUSH2 0x2A99 JUMP JUMPDEST DUP6 MSTORE PUSH1 0x20 DUP6 ADD SWAP5 POP PUSH1 0x20 DUP5 ADD SWAP4 POP POP POP PUSH1 0x1 DUP2 ADD SWAP1 POP PUSH2 0x27D3 JUMP JUMPDEST POP POP POP SWAP4 SWAP3 POP POP POP JUMP JUMPDEST PUSH1 0x0 PUSH2 0x283B PUSH2 0x2836 DUP5 PUSH2 0x3950 JUMP JUMPDEST PUSH2 0x38A7 JUMP JUMPDEST SWAP1 POP DUP1 DUP4 DUP3 MSTORE PUSH1 0x20 DUP3 ADD SWAP1 POP DUP3 DUP6 PUSH1 0x20 DUP7 MUL DUP3 ADD GT ISZERO PUSH2 0x285E JUMPI PUSH2 0x285D PUSH2 0x3D58 JUMP JUMPDEST JUMPDEST PUSH1 0x0 JUMPDEST DUP6 DUP2 LT ISZERO PUSH2 0x288E JUMPI DUP2 PUSH2 0x2874 DUP9 DUP3 PUSH2 0x2AC7 JUMP JUMPDEST DUP5 MSTORE PUSH1 0x20 DUP5 ADD SWAP4 POP PUSH1 0x20 DUP4 ADD SWAP3 POP POP PUSH1 0x1 DUP2 ADD SWAP1 POP PUSH2 0x2861 JUMP JUMPDEST POP POP POP SWAP4 SWAP3 POP POP POP JUMP JUMPDEST PUSH1 0x0 PUSH2 0x28AB PUSH2 0x28A6 DUP5 PUSH2 0x397C JUMP JUMPDEST PUSH2 0x38A7 JUMP JUMPDEST SWAP1 POP DUP3 DUP2 MSTORE PUSH1 0x20 DUP2 ADD DUP5 DUP5 DUP5 ADD GT ISZERO PUSH2 0x28C7 JUMPI PUSH2 0x28C6 PUSH2 0x3D5D JUMP JUMPDEST JUMPDEST PUSH2 0x28D2 DUP5 DUP3 DUP6 PUSH2 0x3B7B JUMP JUMPDEST POP SWAP4 SWAP3 POP POP POP JUMP JUMPDEST PUSH1 0x0 PUSH2 0x28ED PUSH2 0x28E8 DUP5 PUSH2 0x397C JUMP JUMPDEST PUSH2 0x38A7 JUMP JUMPDEST SWAP1 POP DUP3 DUP2 MSTORE PUSH1 0x20 DUP2 ADD DUP5 DUP5 DUP5 ADD GT ISZERO PUSH2 0x2909 JUMPI PUSH2 0x2908 PUSH2 0x3D5D JUMP JUMPDEST JUMPDEST PUSH2 0x2914 DUP5 DUP3 DUP6 PUSH2 0x3B8A JUMP JUMPDEST POP SWAP4 SWAP3 POP POP POP JUMP JUMPDEST PUSH1 0x0 DUP2 CALLDATALOAD SWAP1 POP PUSH2 0x292B DUP2 PUSH2 0x436A JUMP JUMPDEST SWAP3 SWAP2 POP POP JUMP JUMPDEST PUSH1 0x0 DUP3 PUSH1 0x1F DUP4 ADD SLT PUSH2 0x2946 JUMPI PUSH2 0x2945 PUSH2 0x3D53 JUMP JUMPDEST JUMPDEST DUP2 CALLDATALOAD PUSH2 0x2956 DUP5 DUP3 PUSH1 0x20 DUP7 ADD PUSH2 0x262C JUMP JUMPDEST SWAP2 POP POP SWAP3 SWAP2 POP POP JUMP JUMPDEST PUSH1 0x0 DUP3 PUSH1 0x1F DUP4 ADD SLT PUSH2 0x2974 JUMPI PUSH2 0x2973 PUSH2 0x3D53 JUMP JUMPDEST JUMPDEST DUP2 CALLDATALOAD PUSH2 0x2984 DUP5 DUP3 PUSH1 0x20 DUP7 ADD PUSH2 0x269C JUMP JUMPDEST SWAP2 POP POP SWAP3 SWAP2 POP POP JUMP JUMPDEST PUSH1 0x0 DUP3 PUSH1 0x1F DUP4 ADD SLT PUSH2 0x29A2 JUMPI PUSH2 0x29A1 PUSH2 0x3D53 JUMP JUMPDEST JUMPDEST DUP2 CALLDATALOAD PUSH2 0x29B2 DUP5 DUP3 PUSH1 0x20 DUP7 ADD PUSH2 0x270C JUMP JUMPDEST SWAP2 POP POP SWAP3 SWAP2 POP POP JUMP JUMPDEST PUSH1 0x0 DUP3 PUSH1 0x1F DUP4 ADD SLT PUSH2 0x29D0 JUMPI PUSH2 0x29CF PUSH2 0x3D53 JUMP JUMPDEST JUMPDEST DUP2 MLOAD PUSH2 0x29E0 DUP5 DUP3 PUSH1 0x20 DUP7 ADD PUSH2 0x279A JUMP JUMPDEST SWAP2 POP POP SWAP3 SWAP2 POP POP JUMP JUMPDEST PUSH1 0x0 DUP3 PUSH1 0x1F DUP4 ADD SLT PUSH2 0x29FE JUMPI PUSH2 0x29FD PUSH2 0x3D53 JUMP JUMPDEST JUMPDEST DUP2 CALLDATALOAD PUSH2 0x2A0E DUP5 DUP3 PUSH1 0x20 DUP7 ADD PUSH2 0x2828 JUMP JUMPDEST SWAP2 POP POP SWAP3 SWAP2 POP POP JUMP JUMPDEST PUSH1 0x0 DUP2 CALLDATALOAD SWAP1 POP PUSH2 0x2A26 DUP2 PUSH2 0x4381 JUMP JUMPDEST SWAP3 SWAP2 POP POP JUMP JUMPDEST PUSH1 0x0 DUP2 MLOAD SWAP1 POP PUSH2 0x2A3B DUP2 PUSH2 0x4381 JUMP JUMPDEST SWAP3 SWAP2 POP POP JUMP JUMPDEST PUSH1 0x0 DUP2 CALLDATALOAD SWAP1 POP PUSH2 0x2A50 DUP2 PUSH2 0x4398 JUMP JUMPDEST SWAP3 SWAP2 POP POP JUMP JUMPDEST PUSH1 0x0 DUP2 CALLDATALOAD SWAP1 POP PUSH2 0x2A65 DUP2 PUSH2 0x43AF JUMP JUMPDEST SWAP3 SWAP2 POP POP JUMP JUMPDEST PUSH1 0x0 DUP3 PUSH1 0x1F DUP4 ADD SLT PUSH2 0x2A80 JUMPI PUSH2 0x2A7F PUSH2 0x3D53 JUMP JUMPDEST JUMPDEST DUP2 CALLDATALOAD PUSH2 0x2A90 DUP5 DUP3 PUSH1 0x20 DUP7 ADD PUSH2 0x2898 JUMP JUMPDEST SWAP2 POP POP SWAP3 SWAP2 POP POP JUMP JUMPDEST PUSH1 0x0 DUP3 PUSH1 0x1F DUP4 ADD SLT PUSH2 0x2AAE JUMPI PUSH2 0x2AAD PUSH2 0x3D53 JUMP JUMPDEST JUMPDEST DUP2 MLOAD PUSH2 0x2ABE DUP5 DUP3 PUSH1 0x20 DUP7 ADD PUSH2 0x28DA JUMP JUMPDEST SWAP2 POP POP SWAP3 SWAP2 POP POP JUMP JUMPDEST PUSH1 0x0 DUP2 CALLDATALOAD SWAP1 POP PUSH2 0x2AD6 DUP2 PUSH2 0x43C6 JUMP JUMPDEST SWAP3 SWAP2 POP POP JUMP JUMPDEST PUSH1 0x0 PUSH1 0x20 DUP3 DUP5 SUB SLT ISZERO PUSH2 0x2AF2 JUMPI PUSH2 0x2AF1 PUSH2 0x3D67 JUMP JUMPDEST JUMPDEST PUSH1 0x0 PUSH2 0x2B00 DUP5 DUP3 DUP6 ADD PUSH2 0x291C JUMP JUMPDEST SWAP2 POP POP SWAP3 SWAP2 POP POP JUMP JUMPDEST PUSH1 0x0 DUP1 PUSH1 0x40 DUP4 DUP6 SUB SLT ISZERO PUSH2 0x2B20 JUMPI PUSH2 0x2B1F PUSH2 0x3D67 JUMP JUMPDEST JUMPDEST PUSH1 0x0 PUSH2 0x2B2E DUP6 DUP3 DUP7 ADD PUSH2 0x291C JUMP JUMPDEST SWAP3 POP POP PUSH1 0x20 PUSH2 0x2B3F DUP6 DUP3 DUP7 ADD PUSH2 0x291C JUMP JUMPDEST SWAP2 POP POP SWAP3 POP SWAP3 SWAP1 POP JUMP JUMPDEST PUSH1 0x0 DUP1 PUSH1 0x0 DUP1 PUSH1 0x0 PUSH1 0xA0 DUP7 DUP9 SUB SLT ISZERO PUSH2 0x2B65 JUMPI PUSH2 0x2B64 PUSH2 0x3D67 JUMP JUMPDEST JUMPDEST PUSH1 0x0 PUSH2 0x2B73 DUP9 DUP3 DUP10 ADD PUSH2 0x291C JUMP JUMPDEST SWAP6 POP POP PUSH1 0x20 PUSH2 0x2B84 DUP9 DUP3 DUP10 ADD PUSH2 0x291C JUMP JUMPDEST SWAP5 POP POP PUSH1 0x40 PUSH2 0x2B95 DUP9 DUP3 DUP10 ADD PUSH2 0x2AC7 JUMP JUMPDEST SWAP4 POP POP PUSH1 0x60 PUSH2 0x2BA6 DUP9 DUP3 DUP10 ADD PUSH2 0x2A17 JUMP JUMPDEST SWAP3 POP POP PUSH1 0x80 DUP7 ADD CALLDATALOAD PUSH8 0xFFFFFFFFFFFFFFFF DUP2 GT ISZERO PUSH2 0x2BC7 JUMPI PUSH2 0x2BC6 PUSH2 0x3D62 JUMP JUMPDEST JUMPDEST PUSH2 0x2BD3 DUP9 DUP3 DUP10 ADD PUSH2 0x2A6B JUMP JUMPDEST SWAP2 POP POP SWAP3 SWAP6 POP SWAP3 SWAP6 SWAP1 SWAP4 POP JUMP JUMPDEST PUSH1 0x0 DUP1 PUSH1 0x40 DUP4 DUP6 SUB SLT ISZERO PUSH2 0x2BF7 JUMPI PUSH2 0x2BF6 PUSH2 0x3D67 JUMP JUMPDEST JUMPDEST PUSH1 0x0 PUSH2 0x2C05 DUP6 DUP3 DUP7 ADD PUSH2 0x291C JUMP JUMPDEST SWAP3 POP POP PUSH1 0x20 PUSH2 0x2C16 DUP6 DUP3 DUP7 ADD PUSH2 0x2AC7 JUMP JUMPDEST SWAP2 POP POP SWAP3 POP SWAP3 SWAP1 POP JUMP JUMPDEST PUSH1 0x0 DUP1 PUSH1 0x0 DUP1 PUSH1 0x0 PUSH1 0xA0 DUP7 DUP9 SUB SLT ISZERO PUSH2 0x2C3C JUMPI PUSH2 0x2C3B PUSH2 0x3D67 JUMP JUMPDEST JUMPDEST PUSH1 0x0 DUP7 ADD CALLDATALOAD PUSH8 0xFFFFFFFFFFFFFFFF DUP2 GT ISZERO PUSH2 0x2C5A JUMPI PUSH2 0x2C59 PUSH2 0x3D62 JUMP JUMPDEST JUMPDEST PUSH2 0x2C66 DUP9 DUP3 DUP10 ADD PUSH2 0x2931 JUMP JUMPDEST SWAP6 POP POP PUSH1 0x20 DUP7 ADD CALLDATALOAD PUSH8 0xFFFFFFFFFFFFFFFF DUP2 GT ISZERO PUSH2 0x2C87 JUMPI PUSH2 0x2C86 PUSH2 0x3D62 JUMP JUMPDEST JUMPDEST PUSH2 0x2C93 DUP9 DUP3 DUP10 ADD PUSH2 0x2931 JUMP JUMPDEST SWAP5 POP POP PUSH1 0x40 DUP7 ADD CALLDATALOAD PUSH8 0xFFFFFFFFFFFFFFFF DUP2 GT ISZERO PUSH2 0x2CB4 JUMPI PUSH2 0x2CB3 PUSH2 0x3D62 JUMP JUMPDEST JUMPDEST PUSH2 0x2CC0 DUP9 DUP3 DUP10 ADD PUSH2 0x29E9 JUMP JUMPDEST SWAP4 POP POP PUSH1 0x60 PUSH2 0x2CD1 DUP9 DUP3 DUP10 ADD PUSH2 0x2A17 JUMP JUMPDEST SWAP3 POP POP PUSH1 0x80 DUP7 ADD CALLDATALOAD PUSH8 0xFFFFFFFFFFFFFFFF DUP2 GT ISZERO PUSH2 0x2CF2 JUMPI PUSH2 0x2CF1 PUSH2 0x3D62 JUMP JUMPDEST JUMPDEST PUSH2 0x2CFE DUP9 DUP3 DUP10 ADD PUSH2 0x298D JUMP JUMPDEST SWAP2 POP POP SWAP3 SWAP6 POP SWAP3 SWAP6 SWAP1 SWAP4 POP JUMP JUMPDEST PUSH1 0x0 PUSH1 0x20 DUP3 DUP5 SUB SLT ISZERO PUSH2 0x2D21 JUMPI PUSH2 0x2D20 PUSH2 0x3D67 JUMP JUMPDEST JUMPDEST PUSH1 0x0 DUP3 ADD CALLDATALOAD PUSH8 0xFFFFFFFFFFFFFFFF DUP2 GT ISZERO PUSH2 0x2D3F JUMPI PUSH2 0x2D3E PUSH2 0x3D62 JUMP JUMPDEST JUMPDEST PUSH2 0x2D4B DUP5 DUP3 DUP6 ADD PUSH2 0x295F JUMP JUMPDEST SWAP2 POP POP SWAP3 SWAP2 POP POP JUMP JUMPDEST PUSH1 0x0 DUP1 PUSH1 0x40 DUP4 DUP6 SUB SLT ISZERO PUSH2 0x2D6B JUMPI PUSH2 0x2D6A PUSH2 0x3D67 JUMP JUMPDEST JUMPDEST PUSH1 0x0 DUP4 ADD CALLDATALOAD PUSH8 0xFFFFFFFFFFFFFFFF DUP2 GT ISZERO PUSH2 0x2D89 JUMPI PUSH2 0x2D88 PUSH2 0x3D62 JUMP JUMPDEST JUMPDEST PUSH2 0x2D95 DUP6 DUP3 DUP7 ADD PUSH2 0x295F JUMP JUMPDEST SWAP3 POP POP PUSH1 0x20 DUP4 ADD CALLDATALOAD PUSH8 0xFFFFFFFFFFFFFFFF DUP2 GT ISZERO PUSH2 0x2DB6 JUMPI PUSH2 0x2DB5 PUSH2 0x3D62 JUMP JUMPDEST JUMPDEST PUSH2 0x2DC2 DUP6 DUP3 DUP7 ADD PUSH2 0x298D JUMP JUMPDEST SWAP2 POP POP SWAP3 POP SWAP3 SWAP1 POP JUMP JUMPDEST PUSH1 0x0 PUSH1 0x20 DUP3 DUP5 SUB SLT ISZERO PUSH2 0x2DE2 JUMPI PUSH2 0x2DE1 PUSH2 0x3D67 JUMP JUMPDEST JUMPDEST PUSH1 0x0 DUP3 ADD MLOAD PUSH8 0xFFFFFFFFFFFFFFFF DUP2 GT ISZERO PUSH2 0x2E00 JUMPI PUSH2 0x2DFF PUSH2 0x3D62 JUMP JUMPDEST JUMPDEST PUSH2 0x2E0C DUP5 DUP3 DUP6 ADD PUSH2 0x29BB JUMP JUMPDEST SWAP2 POP POP SWAP3 SWAP2 POP POP JUMP JUMPDEST PUSH1 0x0 PUSH1 0x20 DUP3 DUP5 SUB SLT ISZERO PUSH2 0x2E2B JUMPI PUSH2 0x2E2A PUSH2 0x3D67 JUMP JUMPDEST JUMPDEST PUSH1 0x0 PUSH2 0x2E39 DUP5 DUP3 DUP6 ADD PUSH2 0x2A2C JUMP JUMPDEST SWAP2 POP POP SWAP3 SWAP2 POP POP JUMP JUMPDEST PUSH1 0x0 PUSH1 0x20 DUP3 DUP5 SUB SLT ISZERO PUSH2 0x2E58 JUMPI PUSH2 0x2E57 PUSH2 0x3D67 JUMP JUMPDEST JUMPDEST PUSH1 0x0 PUSH2 0x2E66 DUP5 DUP3 DUP6 ADD PUSH2 0x2A56 JUMP JUMPDEST SWAP2 POP POP SWAP3 SWAP2 POP POP JUMP JUMPDEST PUSH1 0x0 PUSH1 0x20 DUP3 DUP5 SUB SLT ISZERO PUSH2 0x2E85 JUMPI PUSH2 0x2E84 PUSH2 0x3D67 JUMP JUMPDEST JUMPDEST PUSH1 0x0 DUP3 ADD MLOAD PUSH8 0xFFFFFFFFFFFFFFFF DUP2 GT ISZERO PUSH2 0x2EA3 JUMPI PUSH2 0x2EA2 PUSH2 0x3D62 JUMP JUMPDEST JUMPDEST PUSH2 0x2EAF DUP5 DUP3 DUP6 ADD PUSH2 0x2A99 JUMP JUMPDEST SWAP2 POP POP SWAP3 SWAP2 POP POP JUMP JUMPDEST PUSH1 0x0 PUSH1 0x20 DUP3 DUP5 SUB SLT ISZERO PUSH2 0x2ECE JUMPI PUSH2 0x2ECD PUSH2 0x3D67 JUMP JUMPDEST JUMPDEST PUSH1 0x0 PUSH2 0x2EDC DUP5 DUP3 DUP6 ADD PUSH2 0x2AC7 JUMP JUMPDEST SWAP2 POP POP SWAP3 SWAP2 POP POP JUMP JUMPDEST PUSH1 0x0 PUSH2 0x2EF1 DUP4 DUP4 PUSH2 0x3019 JUMP JUMPDEST PUSH1 0x20 DUP4 ADD SWAP1 POP SWAP3 SWAP2 POP POP JUMP JUMPDEST PUSH1 0x0 PUSH2 0x2F09 DUP4 DUP4 PUSH2 0x3046 JUMP JUMPDEST SWAP1 POP SWAP3 SWAP2 POP POP JUMP JUMPDEST PUSH2 0x2F1A DUP2 PUSH2 0x3AFD JUMP JUMPDEST DUP3 MSTORE POP POP JUMP JUMPDEST PUSH2 0x2F31 PUSH2 0x2F2C DUP3 PUSH2 0x3AFD JUMP JUMPDEST PUSH2 0x3C69 JUMP JUMPDEST DUP3 MSTORE POP POP JUMP JUMPDEST PUSH1 0x0 PUSH2 0x2F42 DUP3 PUSH2 0x39CD JUMP JUMPDEST PUSH2 0x2F4C DUP2 DUP6 PUSH2 0x3A13 JUMP JUMPDEST SWAP4 POP PUSH2 0x2F57 DUP4 PUSH2 0x39AD JUMP JUMPDEST DUP1 PUSH1 0x0 JUMPDEST DUP4 DUP2 LT ISZERO PUSH2 0x2F88 JUMPI DUP2 MLOAD PUSH2 0x2F6F DUP9 DUP3 PUSH2 0x2EE5 JUMP JUMPDEST SWAP8 POP PUSH2 0x2F7A DUP4 PUSH2 0x39F9 JUMP JUMPDEST SWAP3 POP POP PUSH1 0x1 DUP2 ADD SWAP1 POP PUSH2 0x2F5B JUMP JUMPDEST POP DUP6 SWAP4 POP POP POP POP SWAP3 SWAP2 POP POP JUMP JUMPDEST PUSH1 0x0 PUSH2 0x2FA0 DUP3 PUSH2 0x39D8 JUMP JUMPDEST PUSH2 0x2FAA DUP2 DUP6 PUSH2 0x3A24 JUMP JUMPDEST SWAP4 POP DUP4 PUSH1 0x20 DUP3 MUL DUP6 ADD PUSH2 0x2FBC DUP6 PUSH2 0x39BD JUMP JUMPDEST DUP1 PUSH1 0x0 JUMPDEST DUP6 DUP2 LT ISZERO PUSH2 0x2FF8 JUMPI DUP5 DUP5 SUB DUP10 MSTORE DUP2 MLOAD PUSH2 0x2FD9 DUP6 DUP3 PUSH2 0x2EFD JUMP JUMPDEST SWAP5 POP PUSH2 0x2FE4 DUP4 PUSH2 0x3A06 JUMP JUMPDEST SWAP3 POP PUSH1 0x20 DUP11 ADD SWAP10 POP POP PUSH1 0x1 DUP2 ADD SWAP1 POP PUSH2 0x2FC0 JUMP JUMPDEST POP DUP3 SWAP8 POP DUP8 SWAP6 POP POP POP POP POP POP SWAP3 SWAP2 POP POP JUMP JUMPDEST PUSH2 0x3013 DUP2 PUSH2 0x3B0F JUMP JUMPDEST DUP3 MSTORE POP POP JUMP JUMPDEST PUSH2 0x3022 DUP2 PUSH2 0x3B1B JUMP JUMPDEST DUP3 MSTORE POP POP JUMP JUMPDEST PUSH2 0x3031 DUP2 PUSH2 0x3B1B JUMP JUMPDEST DUP3 MSTORE POP POP JUMP JUMPDEST PUSH2 0x3040 DUP2 PUSH2 0x3B25 JUMP JUMPDEST DUP3 MSTORE POP POP JUMP JUMPDEST PUSH1 0x0 PUSH2 0x3051 DUP3 PUSH2 0x39E3 JUMP JUMPDEST PUSH2 0x305B DUP2 DUP6 PUSH2 0x3A35 JUMP JUMPDEST SWAP4 POP PUSH2 0x306B DUP2 DUP6 PUSH1 0x20 DUP7 ADD PUSH2 0x3B8A JUMP JUMPDEST PUSH2 0x3074 DUP2 PUSH2 0x3D6C JUMP JUMPDEST DUP5 ADD SWAP2 POP POP SWAP3 SWAP2 POP POP JUMP JUMPDEST PUSH1 0x0 PUSH2 0x308A DUP3 PUSH2 0x39E3 JUMP JUMPDEST PUSH2 0x3094 DUP2 DUP6 PUSH2 0x3A46 JUMP JUMPDEST SWAP4 POP PUSH2 0x30A4 DUP2 DUP6 PUSH1 0x20 DUP7 ADD PUSH2 0x3B8A JUMP JUMPDEST PUSH2 0x30AD DUP2 PUSH2 0x3D6C JUMP JUMPDEST DUP5 ADD SWAP2 POP POP SWAP3 SWAP2 POP POP JUMP JUMPDEST PUSH1 0x0 PUSH2 0x30C3 DUP3 PUSH2 0x39E3 JUMP JUMPDEST PUSH2 0x30CD DUP2 DUP6 PUSH2 0x3A57 JUMP JUMPDEST SWAP4 POP PUSH2 0x30DD DUP2 DUP6 PUSH1 0x20 DUP7 ADD PUSH2 0x3B8A JUMP JUMPDEST DUP1 DUP5 ADD SWAP2 POP POP SWAP3 SWAP2 POP POP JUMP JUMPDEST PUSH1 0x0 PUSH2 0x30F4 DUP3 PUSH2 0x39EE JUMP JUMPDEST PUSH2 0x30FE DUP2 DUP6 PUSH2 0x3A62 JUMP JUMPDEST SWAP4 POP PUSH2 0x310E DUP2 DUP6 PUSH1 0x20 DUP7 ADD PUSH2 0x3B8A JUMP JUMPDEST PUSH2 0x3117 DUP2 PUSH2 0x3D6C JUMP JUMPDEST DUP5 ADD SWAP2 POP POP SWAP3 SWAP2 POP POP JUMP JUMPDEST PUSH1 0x0 PUSH2 0x312F PUSH1 0x1B DUP4 PUSH2 0x3A62 JUMP JUMPDEST SWAP2 POP PUSH2 0x313A DUP3 PUSH2 0x3D8A JUMP JUMPDEST PUSH1 0x20 DUP3 ADD SWAP1 POP SWAP2 SWAP1 POP JUMP JUMPDEST PUSH1 0x0 PUSH2 0x3152 PUSH1 0x34 DUP4 PUSH2 0x3A62 JUMP JUMPDEST SWAP2 POP PUSH2 0x315D DUP3 PUSH2 0x3DB3 JUMP JUMPDEST PUSH1 0x40 DUP3 ADD SWAP1 POP SWAP2 SWAP1 POP JUMP JUMPDEST PUSH1 0x0 PUSH2 0x3175 PUSH1 0x38 DUP4 PUSH2 0x3A62 JUMP JUMPDEST SWAP2 POP PUSH2 0x3180 DUP3 PUSH2 0x3E02 JUMP JUMPDEST PUSH1 0x40 DUP3 ADD SWAP1 POP SWAP2 SWAP1 POP JUMP JUMPDEST PUSH1 0x0 PUSH2 0x3198 PUSH1 0x28 DUP4 PUSH2 0x3A62 JUMP JUMPDEST SWAP2 POP PUSH2 0x31A3 DUP3 PUSH2 0x3E51 JUMP JUMPDEST PUSH1 0x40 DUP3 ADD SWAP1 POP SWAP2 SWAP1 POP JUMP JUMPDEST PUSH1 0x0 PUSH2 0x31BB PUSH1 0x29 DUP4 PUSH2 0x3A62 JUMP JUMPDEST SWAP2 POP PUSH2 0x31C6 DUP3 PUSH2 0x3EA0 JUMP JUMPDEST PUSH1 0x40 DUP3 ADD SWAP1 POP SWAP2 SWAP1 POP JUMP JUMPDEST PUSH1 0x0 PUSH2 0x31DE PUSH1 0x26 DUP4 PUSH2 0x3A62 JUMP JUMPDEST SWAP2 POP PUSH2 0x31E9 DUP3 PUSH2 0x3EEF JUMP JUMPDEST PUSH1 0x40 DUP3 ADD SWAP1 POP SWAP2 SWAP1 POP JUMP JUMPDEST PUSH1 0x0 PUSH2 0x3201 PUSH1 0x2A DUP4 PUSH2 0x3A62 JUMP JUMPDEST SWAP2 POP PUSH2 0x320C DUP3 PUSH2 0x3F3E JUMP JUMPDEST PUSH1 0x40 DUP3 ADD SWAP1 POP SWAP2 SWAP1 POP JUMP JUMPDEST PUSH1 0x0 PUSH2 0x3224 PUSH1 0x43 DUP4 PUSH2 0x3A62 JUMP JUMPDEST SWAP2 POP PUSH2 0x322F DUP3 PUSH2 0x3F8D JUMP JUMPDEST PUSH1 0x60 DUP3 ADD SWAP1 POP SWAP2 SWAP1 POP JUMP JUMPDEST PUSH1 0x0 PUSH2 0x3247 PUSH1 0x45 DUP4 PUSH2 0x3A62 JUMP JUMPDEST SWAP2 POP PUSH2 0x3252 DUP3 PUSH2 0x4002 JUMP JUMPDEST PUSH1 0x60 DUP3 ADD SWAP1 POP SWAP2 SWAP1 POP JUMP JUMPDEST PUSH1 0x0 PUSH2 0x326A PUSH1 0x30 DUP4 PUSH2 0x3A62 JUMP JUMPDEST SWAP2 POP PUSH2 0x3275 DUP3 PUSH2 0x4077 JUMP JUMPDEST PUSH1 0x40 DUP3 ADD SWAP1 POP SWAP2 SWAP1 POP JUMP JUMPDEST PUSH1 0x0 PUSH2 0x328D PUSH1 0x34 DUP4 PUSH2 0x3A62 JUMP JUMPDEST SWAP2 POP PUSH2 0x3298 DUP3 PUSH2 0x40C6 JUMP JUMPDEST PUSH1 0x40 DUP3 ADD SWAP1 POP SWAP2 SWAP1 POP JUMP JUMPDEST PUSH1 0x0 PUSH2 0x32B0 PUSH1 0xC DUP4 PUSH2 0x3A62 JUMP JUMPDEST SWAP2 POP PUSH2 0x32BB DUP3 PUSH2 0x4115 JUMP JUMPDEST PUSH1 0x20 DUP3 ADD SWAP1 POP SWAP2 SWAP1 POP JUMP JUMPDEST PUSH1 0x0 PUSH2 0x32D3 PUSH1 0x24 DUP4 PUSH2 0x3A62 JUMP JUMPDEST SWAP2 POP PUSH2 0x32DE DUP3 PUSH2 0x413E JUMP JUMPDEST PUSH1 0x40 DUP3 ADD SWAP1 POP SWAP2 SWAP1 POP JUMP JUMPDEST PUSH1 0x0 PUSH2 0x32F6 PUSH1 0x20 DUP4 PUSH2 0x3A62 JUMP JUMPDEST SWAP2 POP PUSH2 0x3301 DUP3 PUSH2 0x418D JUMP JUMPDEST PUSH1 0x20 DUP3 ADD SWAP1 POP SWAP2 SWAP1 POP JUMP JUMPDEST PUSH1 0x0 PUSH2 0x3319 PUSH1 0x28 DUP4 PUSH2 0x3A62 JUMP JUMPDEST SWAP2 POP PUSH2 0x3324 DUP3 PUSH2 0x41B6 JUMP JUMPDEST PUSH1 0x40 DUP3 ADD SWAP1 POP SWAP2 SWAP1 POP JUMP JUMPDEST PUSH1 0x0 PUSH2 0x333C PUSH1 0x22 DUP4 PUSH2 0x3A62 JUMP JUMPDEST SWAP2 POP PUSH2 0x3347 DUP3 PUSH2 0x4205 JUMP JUMPDEST PUSH1 0x40 DUP3 ADD SWAP1 POP SWAP2 SWAP1 POP JUMP JUMPDEST PUSH1 0x0 PUSH2 0x335F PUSH1 0x40 DUP4 PUSH2 0x3A62 JUMP JUMPDEST SWAP2 POP PUSH2 0x336A DUP3 PUSH2 0x4254 JUMP JUMPDEST PUSH1 0x40 DUP3 ADD SWAP1 POP SWAP2 SWAP1 POP JUMP JUMPDEST PUSH1 0x0 PUSH2 0x3382 PUSH1 0x20 DUP4 PUSH2 0x3A62 JUMP JUMPDEST SWAP2 POP PUSH2 0x338D DUP3 PUSH2 0x42A3 JUMP JUMPDEST PUSH1 0x20 DUP3 ADD SWAP1 POP SWAP2 SWAP1 POP JUMP JUMPDEST PUSH1 0x0 PUSH2 0x33A5 PUSH1 0x26 DUP4 PUSH2 0x3A62 JUMP JUMPDEST SWAP2 POP PUSH2 0x33B0 DUP3 PUSH2 0x42CC JUMP JUMPDEST PUSH1 0x40 DUP3 ADD SWAP1 POP SWAP2 SWAP1 POP JUMP JUMPDEST PUSH1 0x0 PUSH2 0x33C8 PUSH1 0x2C DUP4 PUSH2 0x3A62 JUMP JUMPDEST SWAP2 POP PUSH2 0x33D3 DUP3 PUSH2 0x431B JUMP JUMPDEST PUSH1 0x40 DUP3 ADD SWAP1 POP SWAP2 SWAP1 POP JUMP JUMPDEST PUSH2 0x33E7 DUP2 PUSH2 0x3B71 JUMP JUMPDEST DUP3 MSTORE POP POP JUMP JUMPDEST PUSH2 0x33FE PUSH2 0x33F9 DUP3 PUSH2 0x3B71 JUMP JUMPDEST PUSH2 0x3C8D JUMP JUMPDEST DUP3 MSTORE POP POP JUMP JUMPDEST PUSH1 0x0 PUSH2 0x3410 DUP3 DUP8 PUSH2 0x2F20 JUMP JUMPDEST PUSH1 0x14 DUP3 ADD SWAP2 POP PUSH2 0x3420 DUP3 DUP7 PUSH2 0x2F20 JUMP JUMPDEST PUSH1 0x14 DUP3 ADD SWAP2 POP PUSH2 0x3430 DUP3 DUP6 PUSH2 0x33ED JUMP JUMPDEST PUSH1 0x20 DUP3 ADD SWAP2 POP PUSH2 0x3440 DUP3 DUP5 PUSH2 0x30B8 JUMP JUMPDEST SWAP2 POP DUP2 SWAP1 POP SWAP6 SWAP5 POP POP POP POP POP JUMP JUMPDEST PUSH1 0x0 PUSH2 0x345A DUP3 DUP5 PUSH2 0x30B8 JUMP JUMPDEST SWAP2 POP DUP2 SWAP1 POP SWAP3 SWAP2 POP POP JUMP JUMPDEST PUSH1 0x0 PUSH1 0x20 DUP3 ADD SWAP1 POP PUSH2 0x347A PUSH1 0x0 DUP4 ADD DUP5 PUSH2 0x2F11 JUMP JUMPDEST SWAP3 SWAP2 POP POP JUMP JUMPDEST PUSH1 0x0 PUSH1 0x60 DUP3 ADD SWAP1 POP PUSH2 0x3495 PUSH1 0x0 DUP4 ADD DUP7 PUSH2 0x2F11 JUMP JUMPDEST PUSH2 0x34A2 PUSH1 0x20 DUP4 ADD DUP6 PUSH2 0x2F11 JUMP JUMPDEST PUSH2 0x34AF PUSH1 0x40 DUP4 ADD DUP5 PUSH2 0x33DE JUMP JUMPDEST SWAP5 SWAP4 POP POP POP POP JUMP JUMPDEST PUSH1 0x0 PUSH1 0x40 DUP3 ADD SWAP1 POP PUSH2 0x34CC PUSH1 0x0 DUP4 ADD DUP6 PUSH2 0x2F11 JUMP JUMPDEST PUSH2 0x34D9 PUSH1 0x20 DUP4 ADD DUP5 PUSH2 0x33DE JUMP JUMPDEST SWAP4 SWAP3 POP POP POP JUMP JUMPDEST PUSH1 0x0 PUSH1 0x20 DUP3 ADD SWAP1 POP DUP2 DUP2 SUB PUSH1 0x0 DUP4 ADD MSTORE PUSH2 0x34FA DUP2 DUP5 PUSH2 0x2F37 JUMP JUMPDEST SWAP1 POP SWAP3 SWAP2 POP POP JUMP JUMPDEST PUSH1 0x0 PUSH1 0x20 DUP3 ADD SWAP1 POP DUP2 DUP2 SUB PUSH1 0x0 DUP4 ADD MSTORE PUSH2 0x351C DUP2 DUP5 PUSH2 0x2F95 JUMP JUMPDEST SWAP1 POP SWAP3 SWAP2 POP POP JUMP JUMPDEST PUSH1 0x0 PUSH1 0x20 DUP3 ADD SWAP1 POP PUSH2 0x3539 PUSH1 0x0 DUP4 ADD DUP5 PUSH2 0x300A JUMP JUMPDEST SWAP3 SWAP2 POP POP JUMP JUMPDEST PUSH1 0x0 PUSH1 0x40 DUP3 ADD SWAP1 POP PUSH2 0x3554 PUSH1 0x0 DUP4 ADD DUP6 PUSH2 0x3028 JUMP JUMPDEST DUP2 DUP2 SUB PUSH1 0x20 DUP4 ADD MSTORE PUSH2 0x3566 DUP2 DUP5 PUSH2 0x307F JUMP JUMPDEST SWAP1 POP SWAP4 SWAP3 POP POP POP JUMP JUMPDEST PUSH1 0x0 PUSH1 0x20 DUP3 ADD SWAP1 POP PUSH2 0x3584 PUSH1 0x0 DUP4 ADD DUP5 PUSH2 0x3037 JUMP JUMPDEST SWAP3 SWAP2 POP POP JUMP JUMPDEST PUSH1 0x0 PUSH1 0x20 DUP3 ADD SWAP1 POP DUP2 DUP2 SUB PUSH1 0x0 DUP4 ADD MSTORE PUSH2 0x35A4 DUP2 DUP5 PUSH2 0x307F JUMP JUMPDEST SWAP1 POP SWAP3 SWAP2 POP POP JUMP JUMPDEST PUSH1 0x0 PUSH1 0x20 DUP3 ADD SWAP1 POP DUP2 DUP2 SUB PUSH1 0x0 DUP4 ADD MSTORE PUSH2 0x35C6 DUP2 DUP5 PUSH2 0x30E9 JUMP JUMPDEST SWAP1 POP SWAP3 SWAP2 POP POP JUMP JUMPDEST PUSH1 0x0 PUSH1 0x20 DUP3 ADD SWAP1 POP DUP2 DUP2 SUB PUSH1 0x0 DUP4 ADD MSTORE PUSH2 0x35E7 DUP2 PUSH2 0x3122 JUMP JUMPDEST SWAP1 POP SWAP2 SWAP1 POP JUMP JUMPDEST PUSH1 0x0 PUSH1 0x20 DUP3 ADD SWAP1 POP DUP2 DUP2 SUB PUSH1 0x0 DUP4 ADD MSTORE PUSH2 0x3607 DUP2 PUSH2 0x3145 JUMP JUMPDEST SWAP1 POP SWAP2 SWAP1 POP JUMP JUMPDEST PUSH1 0x0 PUSH1 0x20 DUP3 ADD SWAP1 POP DUP2 DUP2 SUB PUSH1 0x0 DUP4 ADD MSTORE PUSH2 0x3627 DUP2 PUSH2 0x3168 JUMP JUMPDEST SWAP1 POP SWAP2 SWAP1 POP JUMP JUMPDEST PUSH1 0x0 PUSH1 0x20 DUP3 ADD SWAP1 POP DUP2 DUP2 SUB PUSH1 0x0 DUP4 ADD MSTORE PUSH2 0x3647 DUP2 PUSH2 0x318B JUMP JUMPDEST SWAP1 POP SWAP2 SWAP1 POP JUMP JUMPDEST PUSH1 0x0 PUSH1 0x20 DUP3 ADD SWAP1 POP DUP2 DUP2 SUB PUSH1 0x0 DUP4 ADD MSTORE PUSH2 0x3667 DUP2 PUSH2 0x31AE JUMP JUMPDEST SWAP1 POP SWAP2 SWAP1 POP JUMP JUMPDEST PUSH1 0x0 PUSH1 0x20 DUP3 ADD SWAP1 POP DUP2 DUP2 SUB PUSH1 0x0 DUP4 ADD MSTORE PUSH2 0x3687 DUP2 PUSH2 0x31D1 JUMP JUMPDEST SWAP1 POP SWAP2 SWAP1 POP JUMP JUMPDEST PUSH1 0x0 PUSH1 0x20 DUP3 ADD SWAP1 POP DUP2 DUP2 SUB PUSH1 0x0 DUP4 ADD MSTORE PUSH2 0x36A7 DUP2 PUSH2 0x31F4 JUMP JUMPDEST SWAP1 POP SWAP2 SWAP1 POP JUMP JUMPDEST PUSH1 0x0 PUSH1 0x20 DUP3 ADD SWAP1 POP DUP2 DUP2 SUB PUSH1 0x0 DUP4 ADD MSTORE PUSH2 0x36C7 DUP2 PUSH2 0x3217 JUMP JUMPDEST SWAP1 POP SWAP2 SWAP1 POP JUMP JUMPDEST PUSH1 0x0 PUSH1 0x20 DUP3 ADD SWAP1 POP DUP2 DUP2 SUB PUSH1 0x0 DUP4 ADD MSTORE PUSH2 0x36E7 DUP2 PUSH2 0x323A JUMP JUMPDEST SWAP1 POP SWAP2 SWAP1 POP JUMP JUMPDEST PUSH1 0x0 PUSH1 0x20 DUP3 ADD SWAP1 POP DUP2 DUP2 SUB PUSH1 0x0 DUP4 ADD MSTORE PUSH2 0x3707 DUP2 PUSH2 0x325D JUMP JUMPDEST SWAP1 POP SWAP2 SWAP1 POP JUMP JUMPDEST PUSH1 0x0 PUSH1 0x20 DUP3 ADD SWAP1 POP DUP2 DUP2 SUB PUSH1 0x0 DUP4 ADD MSTORE PUSH2 0x3727 DUP2 PUSH2 0x3280 JUMP JUMPDEST SWAP1 POP SWAP2 SWAP1 POP JUMP JUMPDEST PUSH1 0x0 PUSH1 0x20 DUP3 ADD SWAP1 POP DUP2 DUP2 SUB PUSH1 0x0 DUP4 ADD MSTORE PUSH2 0x3747 DUP2 PUSH2 0x32A3 JUMP JUMPDEST SWAP1 POP SWAP2 SWAP1 POP JUMP JUMPDEST PUSH1 0x0 PUSH1 0x20 DUP3 ADD SWAP1 POP DUP2 DUP2 SUB PUSH1 0x0 DUP4 ADD MSTORE PUSH2 0x3767 DUP2 PUSH2 0x32C6 JUMP JUMPDEST SWAP1 POP SWAP2 SWAP1 POP JUMP JUMPDEST PUSH1 0x0 PUSH1 0x20 DUP3 ADD SWAP1 POP DUP2 DUP2 SUB PUSH1 0x0 DUP4 ADD MSTORE PUSH2 0x3787 DUP2 PUSH2 0x32E9 JUMP JUMPDEST SWAP1 POP SWAP2 SWAP1 POP JUMP JUMPDEST PUSH1 0x0 PUSH1 0x20 DUP3 ADD SWAP1 POP DUP2 DUP2 SUB PUSH1 0x0 DUP4 ADD MSTORE PUSH2 0x37A7 DUP2 PUSH2 0x330C JUMP JUMPDEST SWAP1 POP SWAP2 SWAP1 POP JUMP JUMPDEST PUSH1 0x0 PUSH1 0x20 DUP3 ADD SWAP1 POP DUP2 DUP2 SUB PUSH1 0x0 DUP4 ADD MSTORE PUSH2 0x37C7 DUP2 PUSH2 0x332F JUMP JUMPDEST SWAP1 POP SWAP2 SWAP1 POP JUMP JUMPDEST PUSH1 0x0 PUSH1 0x20 DUP3 ADD SWAP1 POP DUP2 DUP2 SUB PUSH1 0x0 DUP4 ADD MSTORE PUSH2 0x37E7 DUP2 PUSH2 0x3352 JUMP JUMPDEST SWAP1 POP SWAP2 SWAP1 POP JUMP JUMPDEST PUSH1 0x0 PUSH1 0x20 DUP3 ADD SWAP1 POP DUP2 DUP2 SUB PUSH1 0x0 DUP4 ADD MSTORE PUSH2 0x3807 DUP2 PUSH2 0x3375 JUMP JUMPDEST SWAP1 POP SWAP2 SWAP1 POP JUMP JUMPDEST PUSH1 0x0 PUSH1 0x20 DUP3 ADD SWAP1 POP DUP2 DUP2 SUB PUSH1 0x0 DUP4 ADD MSTORE PUSH2 0x3827 DUP2 PUSH2 0x3398 JUMP JUMPDEST SWAP1 POP SWAP2 SWAP1 POP JUMP JUMPDEST PUSH1 0x0 PUSH1 0x20 DUP3 ADD SWAP1 POP DUP2 DUP2 SUB PUSH1 0x0 DUP4 ADD MSTORE PUSH2 0x3847 DUP2 PUSH2 0x33BB JUMP JUMPDEST SWAP1 POP SWAP2 SWAP1 POP JUMP JUMPDEST PUSH1 0x0 PUSH1 0x20 DUP3 ADD SWAP1 POP PUSH2 0x3863 PUSH1 0x0 DUP4 ADD DUP5 PUSH2 0x33DE JUMP JUMPDEST SWAP3 SWAP2 POP POP JUMP JUMPDEST PUSH1 0x0 PUSH1 0x60 DUP3 ADD SWAP1 POP PUSH2 0x387E PUSH1 0x0 DUP4 ADD DUP7 PUSH2 0x33DE JUMP JUMPDEST PUSH2 0x388B PUSH1 0x20 DUP4 ADD DUP6 PUSH2 0x300A JUMP JUMPDEST DUP2 DUP2 SUB PUSH1 0x40 DUP4 ADD MSTORE PUSH2 0x389D DUP2 DUP5 PUSH2 0x307F JUMP JUMPDEST SWAP1 POP SWAP5 SWAP4 POP POP POP POP JUMP JUMPDEST PUSH1 0x0 PUSH2 0x38B1 PUSH2 0x38C2 JUMP JUMPDEST SWAP1 POP PUSH2 0x38BD DUP3 DUP3 PUSH2 0x3BEF JUMP JUMPDEST SWAP2 SWAP1 POP JUMP JUMPDEST PUSH1 0x0 PUSH1 0x40 MLOAD SWAP1 POP SWAP1 JUMP JUMPDEST PUSH1 0x0 PUSH8 0xFFFFFFFFFFFFFFFF DUP3 GT ISZERO PUSH2 0x38E7 JUMPI PUSH2 0x38E6 PUSH2 0x3D24 JUMP JUMPDEST JUMPDEST PUSH1 0x20 DUP3 MUL SWAP1 POP PUSH1 0x20 DUP2 ADD SWAP1 POP SWAP2 SWAP1 POP JUMP JUMPDEST PUSH1 0x0 PUSH8 0xFFFFFFFFFFFFFFFF DUP3 GT ISZERO PUSH2 0x3913 JUMPI PUSH2 0x3912 PUSH2 0x3D24 JUMP JUMPDEST JUMPDEST PUSH1 0x20 DUP3 MUL SWAP1 POP PUSH1 0x20 DUP2 ADD SWAP1 POP SWAP2 SWAP1 POP JUMP JUMPDEST PUSH1 0x0 PUSH8 0xFFFFFFFFFFFFFFFF DUP3 GT ISZERO PUSH2 0x393F JUMPI PUSH2 0x393E PUSH2 0x3D24 JUMP JUMPDEST JUMPDEST PUSH1 0x20 DUP3 MUL SWAP1 POP PUSH1 0x20 DUP2 ADD SWAP1 POP SWAP2 SWAP1 POP JUMP JUMPDEST PUSH1 0x0 PUSH8 0xFFFFFFFFFFFFFFFF DUP3 GT ISZERO PUSH2 0x396B JUMPI PUSH2 0x396A PUSH2 0x3D24 JUMP JUMPDEST JUMPDEST PUSH1 0x20 DUP3 MUL SWAP1 POP PUSH1 0x20 DUP2 ADD SWAP1 POP SWAP2 SWAP1 POP JUMP JUMPDEST PUSH1 0x0 PUSH8 0xFFFFFFFFFFFFFFFF DUP3 GT ISZERO PUSH2 0x3997 JUMPI PUSH2 0x3996 PUSH2 0x3D24 JUMP JUMPDEST JUMPDEST PUSH2 0x39A0 DUP3 PUSH2 0x3D6C JUMP JUMPDEST SWAP1 POP PUSH1 0x20 DUP2 ADD SWAP1 POP SWAP2 SWAP1 POP JUMP JUMPDEST PUSH1 0x0 DUP2 SWAP1 POP PUSH1 0x20 DUP3 ADD SWAP1 POP SWAP2 SWAP1 POP JUMP JUMPDEST PUSH1 0x0 DUP2 SWAP1 POP PUSH1 0x20 DUP3 ADD SWAP1 POP SWAP2 SWAP1 POP JUMP JUMPDEST PUSH1 0x0 DUP2 MLOAD SWAP1 POP SWAP2 SWAP1 POP JUMP JUMPDEST PUSH1 0x0 DUP2 MLOAD SWAP1 POP SWAP2 SWAP1 POP JUMP JUMPDEST PUSH1 0x0 DUP2 MLOAD SWAP1 POP SWAP2 SWAP1 POP JUMP JUMPDEST PUSH1 0x0 DUP2 MLOAD SWAP1 POP SWAP2 SWAP1 POP JUMP JUMPDEST PUSH1 0x0 PUSH1 0x20 DUP3 ADD SWAP1 POP SWAP2 SWAP1 POP JUMP JUMPDEST PUSH1 0x0 PUSH1 0x20 DUP3 ADD SWAP1 POP SWAP2 SWAP1 POP JUMP JUMPDEST PUSH1 0x0 DUP3 DUP3 MSTORE PUSH1 0x20 DUP3 ADD SWAP1 POP SWAP3 SWAP2 POP POP JUMP JUMPDEST PUSH1 0x0 DUP3 DUP3 MSTORE PUSH1 0x20 DUP3 ADD SWAP1 POP SWAP3 SWAP2 POP POP JUMP JUMPDEST PUSH1 0x0 DUP3 DUP3 MSTORE PUSH1 0x20 DUP3 ADD SWAP1 POP SWAP3 SWAP2 POP POP JUMP JUMPDEST PUSH1 0x0 DUP3 DUP3 MSTORE PUSH1 0x20 DUP3 ADD SWAP1 POP SWAP3 SWAP2 POP POP JUMP JUMPDEST PUSH1 0x0 DUP2 SWAP1 POP SWAP3 SWAP2 POP POP JUMP JUMPDEST PUSH1 0x0 DUP3 DUP3 MSTORE PUSH1 0x20 DUP3 ADD SWAP1 POP SWAP3 SWAP2 POP POP JUMP JUMPDEST PUSH1 0x0 PUSH2 0x3A7E DUP3 PUSH2 0x3B71 JUMP JUMPDEST SWAP2 POP PUSH2 0x3A89 DUP4 PUSH2 0x3B71 JUMP JUMPDEST SWAP3 POP DUP3 PUSH32 0xFFFFFFFFFFFFFFFFFFFFFFFFFFFFFFFFFFFFFFFFFFFFFFFFFFFFFFFFFFFFFFFF SUB DUP3 GT ISZERO PUSH2 0x3ABE JUMPI PUSH2 0x3ABD PUSH2 0x3C97 JUMP JUMPDEST JUMPDEST DUP3 DUP3 ADD SWAP1 POP SWAP3 SWAP2 POP POP JUMP JUMPDEST PUSH1 0x0 PUSH2 0x3AD4 DUP3 PUSH2 0x3B71 JUMP JUMPDEST SWAP2 POP PUSH2 0x3ADF DUP4 PUSH2 0x3B71 JUMP JUMPDEST SWAP3 POP DUP3 DUP3 LT ISZERO PUSH2 0x3AF2 JUMPI PUSH2 0x3AF1 PUSH2 0x3C97 JUMP JUMPDEST JUMPDEST DUP3 DUP3 SUB SWAP1 POP SWAP3 SWAP2 POP POP JUMP JUMPDEST PUSH1 0x0 PUSH2 0x3B08 DUP3 PUSH2 0x3B51 JUMP JUMPDEST SWAP1 POP SWAP2 SWAP1 POP JUMP JUMPDEST PUSH1 0x0 DUP2 ISZERO ISZERO SWAP1 POP SWAP2 SWAP1 POP JUMP JUMPDEST PUSH1 0x0 DUP2 SWAP1 POP SWAP2 SWAP1 POP JUMP JUMPDEST PUSH1 0x0 PUSH32 0xFFFFFFFF00000000000000000000000000000000000000000000000000000000 DUP3 AND SWAP1 POP SWAP2 SWAP1 POP JUMP JUMPDEST PUSH1 0x0 PUSH20 0xFFFFFFFFFFFFFFFFFFFFFFFFFFFFFFFFFFFFFFFF DUP3 AND SWAP1 POP SWAP2 SWAP1 POP JUMP JUMPDEST PUSH1 0x0 DUP2 SWAP1 POP SWAP2 SWAP1 POP JUMP JUMPDEST DUP3 DUP2 DUP4 CALLDATACOPY PUSH1 0x0 DUP4 DUP4 ADD MSTORE POP POP POP JUMP JUMPDEST PUSH1 0x0 JUMPDEST DUP4 DUP2 LT ISZERO PUSH2 0x3BA8 JUMPI DUP1 DUP3 ADD MLOAD DUP2 DUP5 ADD MSTORE PUSH1 0x20 DUP2 ADD SWAP1 POP PUSH2 0x3B8D JUMP JUMPDEST DUP4 DUP2 GT ISZERO PUSH2 0x3BB7 JUMPI PUSH1 0x0 DUP5 DUP5 ADD MSTORE JUMPDEST POP POP POP POP JUMP JUMPDEST PUSH1 0x0 PUSH1 0x2 DUP3 DIV SWAP1 POP PUSH1 0x1 DUP3 AND DUP1 PUSH2 0x3BD5 JUMPI PUSH1 0x7F DUP3 AND SWAP2 POP JUMPDEST PUSH1 0x20 DUP3 LT DUP2 EQ ISZERO PUSH2 0x3BE9 JUMPI PUSH2 0x3BE8 PUSH2 0x3CC6 JUMP JUMPDEST JUMPDEST POP SWAP2 SWAP1 POP JUMP JUMPDEST PUSH2 0x3BF8 DUP3 PUSH2 0x3D6C JUMP JUMPDEST DUP2 ADD DUP2 DUP2 LT PUSH8 0xFFFFFFFFFFFFFFFF DUP3 GT OR ISZERO PUSH2 0x3C17 JUMPI PUSH2 0x3C16 PUSH2 0x3D24 JUMP JUMPDEST JUMPDEST DUP1 PUSH1 0x40 MSTORE POP POP POP JUMP JUMPDEST PUSH1 0x0 PUSH2 0x3C2B DUP3 PUSH2 0x3B71 JUMP JUMPDEST SWAP2 POP PUSH32 0xFFFFFFFFFFFFFFFFFFFFFFFFFFFFFFFFFFFFFFFFFFFFFFFFFFFFFFFFFFFFFFFF DUP3 EQ ISZERO PUSH2 0x3C5E JUMPI PUSH2 0x3C5D PUSH2 0x3C97 JUMP JUMPDEST JUMPDEST PUSH1 0x1 DUP3 ADD SWAP1 POP SWAP2 SWAP1 POP JUMP JUMPDEST PUSH1 0x0 PUSH2 0x3C74 DUP3 PUSH2 0x3C7B JUMP JUMPDEST SWAP1 POP SWAP2 SWAP1 POP JUMP JUMPDEST PUSH1 0x0 PUSH2 0x3C86 DUP3 PUSH2 0x3D7D JUMP JUMPDEST SWAP1 POP SWAP2 SWAP1 POP JUMP JUMPDEST PUSH1 0x0 DUP2 SWAP1 POP SWAP2 SWAP1 POP JUMP JUMPDEST PUSH32 0x4E487B7100000000000000000000000000000000000000000000000000000000 PUSH1 0x0 MSTORE PUSH1 0x11 PUSH1 0x4 MSTORE PUSH1 0x24 PUSH1 0x0 REVERT JUMPDEST PUSH32 0x4E487B7100000000000000000000000000000000000000000000000000000000 PUSH1 0x0 MSTORE PUSH1 0x22 PUSH1 0x4 MSTORE PUSH1 0x24 PUSH1 0x0 REVERT JUMPDEST PUSH32 0x4E487B7100000000000000000000000000000000000000000000000000000000 PUSH1 0x0 MSTORE PUSH1 0x32 PUSH1 0x4 MSTORE PUSH1 0x24 PUSH1 0x0 REVERT JUMPDEST PUSH32 0x4E487B7100000000000000000000000000000000000000000000000000000000 PUSH1 0x0 MSTORE PUSH1 0x41 PUSH1 0x4 MSTORE PUSH1 0x24 PUSH1 0x0 REVERT JUMPDEST PUSH1 0x0 DUP1 REVERT JUMPDEST PUSH1 0x0 DUP1 REVERT JUMPDEST PUSH1 0x0 DUP1 REVERT JUMPDEST PUSH1 0x0 DUP1 REVERT JUMPDEST PUSH1 0x0 DUP1 REVERT JUMPDEST PUSH1 0x0 PUSH1 0x1F NOT PUSH1 0x1F DUP4 ADD AND SWAP1 POP SWAP2 SWAP1 POP JUMP JUMPDEST PUSH1 0x0 DUP2 PUSH1 0x60 SHL SWAP1 POP SWAP2 SWAP1 POP JUMP JUMPDEST PUSH32 0x4C5350373A20746F6B656E20726563656976657220697320454F410000000000 PUSH1 0x0 DUP3 ADD MSTORE POP JUMP JUMPDEST PUSH32 0x4C5350373A206275726E20616D6F756E742065786365656473206F7065726174 PUSH1 0x0 DUP3 ADD MSTORE PUSH32 0x6F7220617574686F72697A656420616D6F756E74000000000000000000000000 PUSH1 0x20 DUP3 ADD MSTORE POP JUMP JUMPDEST PUSH32 0x4C5350373A207472616E7366657220616D6F756E742065786365656473206F70 PUSH1 0x0 DUP3 ADD MSTORE PUSH32 0x657261746F7220617574686F72697A656420616D6F756E740000000000000000 PUSH1 0x20 DUP3 ADD MSTORE POP JUMP JUMPDEST PUSH32 0x4C5350373A207472616E736665724261746368206C697374206C656E67746820 PUSH1 0x0 DUP3 ADD MSTORE PUSH32 0x6D69736D61746368000000000000000000000000000000000000000000000000 PUSH1 0x20 DUP3 ADD MSTORE POP JUMP JUMPDEST PUSH32 0x4F776E61626C653A206F776E65722063616E206F6E6C7920626520696E697469 PUSH1 0x0 DUP3 ADD MSTORE PUSH32 0x61746564206F6E63650000000000000000000000000000000000000000000000 PUSH1 0x20 DUP3 ADD MSTORE POP JUMP JUMPDEST PUSH32 0x4F776E61626C653A206E6577206F776E657220697320746865207A65726F2061 PUSH1 0x0 DUP3 ADD MSTORE PUSH32 0x6464726573730000000000000000000000000000000000000000000000000000 PUSH1 0x20 DUP3 ADD MSTORE POP JUMP JUMPDEST PUSH32 0x4C5350373A206D696E7420746F20746865207A65726F2061646472657373206E PUSH1 0x0 DUP3 ADD MSTORE PUSH32 0x6F7420616C6C6F77656400000000000000000000000000000000000000000000 PUSH1 0x20 DUP3 ADD MSTORE POP JUMP JUMPDEST PUSH32 0x4C5350373A207570646174696E67206F70657261746F72206661696C65642C20 PUSH1 0x0 DUP3 ADD MSTORE PUSH32 0x63616E206E6F742075736520746F6B656E206F776E6572206173206F70657261 PUSH1 0x20 DUP3 ADD MSTORE PUSH32 0x746F720000000000000000000000000000000000000000000000000000000000 PUSH1 0x40 DUP3 ADD MSTORE POP JUMP JUMPDEST PUSH32 0x4C5350373A207570646174696E67206F70657261746F72206661696C65642C20 PUSH1 0x0 DUP3 ADD MSTORE PUSH32 0x63616E206E6F7420736574206F70657261746F7220666F72207A65726F206164 PUSH1 0x20 DUP3 ADD MSTORE PUSH32 0x6472657373000000000000000000000000000000000000000000000000000000 PUSH1 0x40 DUP3 ADD MSTORE POP JUMP JUMPDEST PUSH32 0x4C5350373A207472616E7366657220616D6F756E74206578636565647320746F PUSH1 0x0 DUP3 ADD MSTORE PUSH32 0x6B656E4F776E65722062616C616E636500000000000000000000000000000000 PUSH1 0x20 DUP3 ADD MSTORE POP JUMP JUMPDEST PUSH32 0x4C5350373A20746F6B656E20726563656976657220636F6E7472616374206D69 PUSH1 0x0 DUP3 ADD MSTORE PUSH32 0x7373696E67204C53503120696E74657266616365000000000000000000000000 PUSH1 0x20 DUP3 ADD MSTORE POP JUMP JUMPDEST PUSH32 0x756E617574686F72697A65640000000000000000000000000000000000000000 PUSH1 0x0 DUP3 ADD MSTORE POP JUMP JUMPDEST PUSH32 0x4C5350373A207472616E736665722066726F6D20746865207A65726F20616464 PUSH1 0x0 DUP3 ADD MSTORE PUSH32 0x7265737300000000000000000000000000000000000000000000000000000000 PUSH1 0x20 DUP3 ADD MSTORE POP JUMP JUMPDEST PUSH32 0x4F776E61626C653A2063616C6C6572206973206E6F7420746865206F776E6572 PUSH1 0x0 DUP3 ADD MSTORE POP JUMP JUMPDEST PUSH32 0x4C535037436170706564537570706C793A20746F6B656E537570706C79436170 PUSH1 0x0 DUP3 ADD MSTORE PUSH32 0x2072656163686564000000000000000000000000000000000000000000000000 PUSH1 0x20 DUP3 ADD MSTORE POP JUMP JUMPDEST PUSH32 0x4C5350373A207472616E7366657220746F20746865207A65726F206164647265 PUSH1 0x0 DUP3 ADD MSTORE PUSH32 0x7373000000000000000000000000000000000000000000000000000000000000 PUSH1 0x20 DUP3 ADD MSTORE POP JUMP JUMPDEST PUSH32 0x4C5350373A207570646174696E67206F70657261746F72206661696C65642C20 PUSH1 0x0 DUP3 ADD MSTORE PUSH32 0x6F70657261746F722063616E206E6F74206265207A65726F2061646472657373 PUSH1 0x20 DUP3 ADD MSTORE POP JUMP JUMPDEST PUSH32 0x4C5350373A206275726E2066726F6D20746865207A65726F2061646472657373 PUSH1 0x0 DUP3 ADD MSTORE POP JUMP JUMPDEST PUSH32 0x4B657973206C656E677468206E6F7420657175616C20746F2076616C75657320 PUSH1 0x0 DUP3 ADD MSTORE PUSH32 0x6C656E6774680000000000000000000000000000000000000000000000000000 PUSH1 0x20 DUP3 ADD MSTORE POP JUMP JUMPDEST PUSH32 0x4C5350373A206275726E20616D6F756E74206578636565647320746F6B656E4F PUSH1 0x0 DUP3 ADD MSTORE PUSH32 0x776E65722062616C616E63650000000000000000000000000000000000000000 PUSH1 0x20 DUP3 ADD MSTORE POP JUMP JUMPDEST PUSH2 0x4373 DUP2 PUSH2 0x3AFD JUMP JUMPDEST DUP2 EQ PUSH2 0x437E JUMPI PUSH1 0x0 DUP1 REVERT JUMPDEST POP JUMP JUMPDEST PUSH2 0x438A DUP2 PUSH2 0x3B0F JUMP JUMPDEST DUP2 EQ PUSH2 0x4395 JUMPI PUSH1 0x0 DUP1 REVERT JUMPDEST POP JUMP JUMPDEST PUSH2 0x43A1 DUP2 PUSH2 0x3B1B JUMP JUMPDEST DUP2 EQ PUSH2 0x43AC JUMPI PUSH1 0x0 DUP1 REVERT JUMPDEST POP JUMP JUMPDEST PUSH2 0x43B8 DUP2 PUSH2 0x3B25 JUMP JUMPDEST DUP2 EQ PUSH2 0x43C3 JUMPI PUSH1 0x0 DUP1 REVERT JUMPDEST POP JUMP JUMPDEST PUSH2 0x43CF DUP2 PUSH2 0x3B71 JUMP JUMPDEST DUP2 EQ PUSH2 0x43DA JUMPI PUSH1 0x0 DUP1 REVERT JUMPDEST POP JUMP INVALID LOG2 PUSH5 0x6970667358 0x22 SLT KECCAK256 0xDC CALLDATALOAD PUSH26 0xD8ABB25F5D17546A44B78E0422858B4BDE8B6EBB8DB379AFABF6 AND 0xD 0xD2 PUSH5 0x736F6C6343 STOP ADDMOD SMOD STOP CALLER "
		},
		"gasEstimates": {
			"creation": {
				"codeDepositCost": "3485400",
				"executionCost": "infinite",
				"totalCost": "infinite"
			},
			"external": {
				"admin()": "2602",
				"authorizeOperator(address,uint256)": "25092",
				"award(address)": "infinite",
				"awardAmount()": "2473",
				"balanceOf(address)": "2930",
				"contributor()": "2603",
				"decimals()": "2641",
				"getData(bytes32[])": "infinite",
				"isOperatorFor(address,address)": "infinite",
				"name()": "infinite",
				"owner()": "2545",
				"redeem(address,uint256)": "infinite",
				"redeemAll(address)": "infinite",
				"renounceOwnership()": "30485",
				"revokeOperator(address)": "7518",
				"setAwardAmount(uint256)": "24823",
				"setData(bytes32[],bytes[])": "infinite",
				"supportsInterface(bytes4)": "2959",
				"symbol()": "infinite",
				"tokenSupplyCap()": "2504",
				"totalSupply()": "2527",
				"transfer(address,address,uint256,bool,bytes)": "infinite",
				"transferBatch(address[],address[],uint256[],bool,bytes[])": "infinite",
				"transferOwnership(address)": "30789"
			}
		},
		"methodIdentifiers": {
			"admin()": "f851a440",
			"authorizeOperator(address,uint256)": "47980aa3",
			"award(address)": "fbdd25e4",
			"awardAmount()": "e9893c67",
			"balanceOf(address)": "70a08231",
			"contributor()": "ba80d787",
			"decimals()": "313ce567",
			"getData(bytes32[])": "4e3e6e9c",
			"isOperatorFor(address,address)": "d95b6371",
			"name()": "06fdde03",
			"owner()": "8da5cb5b",
			"redeem(address,uint256)": "1e9a6950",
			"redeemAll(address)": "be399be5",
			"renounceOwnership()": "715018a6",
			"revokeOperator(address)": "fad8b32a",
			"setAwardAmount(uint256)": "d2706c19",
			"setData(bytes32[],bytes[])": "14a6e293",
			"supportsInterface(bytes4)": "01ffc9a7",
			"symbol()": "95d89b41",
			"tokenSupplyCap()": "52058d8a",
			"totalSupply()": "18160ddd",
			"transfer(address,address,uint256,bool,bytes)": "760d9bba",
			"transferBatch(address[],address[],uint256[],bool,bytes[])": "a8a34e0a",
			"transferOwnership(address)": "f2fde38b"
		}
	},
	"abi": [
		{
			"inputs": [
				{
					"internalType": "address",
					"name": "admin_",
					"type": "address"
				},
				{
					"internalType": "string",
					"name": "name",
					"type": "string"
				},
				{
					"internalType": "string",
					"name": "symbol",
					"type": "string"
				},
				{
					"internalType": "address",
					"name": "contributor_",
					"type": "address"
				}
			],
			"stateMutability": "nonpayable",
			"type": "constructor"
		},
		{
			"anonymous": false,
			"inputs": [
				{
					"indexed": true,
					"internalType": "address",
					"name": "operator",
					"type": "address"
				},
				{
					"indexed": true,
					"internalType": "address",
					"name": "tokenOwner",
					"type": "address"
				},
				{
					"indexed": true,
					"internalType": "uint256",
					"name": "amount",
					"type": "uint256"
				}
			],
			"name": "AuthorizedOperator",
			"type": "event"
		},
		{
			"anonymous": false,
			"inputs": [
				{
					"indexed": false,
					"internalType": "address",
					"name": "contributor",
					"type": "address"
				},
				{
					"indexed": false,
					"internalType": "address",
					"name": "student",
					"type": "address"
				},
				{
					"indexed": false,
					"internalType": "uint256",
					"name": "amount",
					"type": "uint256"
				}
			],
			"name": "Awarded",
			"type": "event"
		},
		{
			"anonymous": false,
			"inputs": [
				{
					"indexed": true,
					"internalType": "bytes32",
					"name": "key",
					"type": "bytes32"
				},
				{
					"indexed": false,
					"internalType": "bytes",
					"name": "value",
					"type": "bytes"
				}
			],
			"name": "DataChanged",
			"type": "event"
		},
		{
			"anonymous": false,
			"inputs": [
				{
					"indexed": true,
					"internalType": "address",
					"name": "previousOwner",
					"type": "address"
				},
				{
					"indexed": true,
					"internalType": "address",
					"name": "newOwner",
					"type": "address"
				}
			],
			"name": "OwnershipTransferred",
			"type": "event"
		},
		{
			"anonymous": false,
			"inputs": [
				{
					"indexed": false,
					"internalType": "address",
					"name": "awardee",
					"type": "address"
				},
				{
					"indexed": false,
					"internalType": "uint256",
					"name": "amount",
					"type": "uint256"
				}
			],
			"name": "Redeemed",
			"type": "event"
		},
		{
			"anonymous": false,
			"inputs": [
				{
					"indexed": true,
					"internalType": "address",
					"name": "operator",
					"type": "address"
				},
				{
					"indexed": true,
					"internalType": "address",
					"name": "tokenOwner",
					"type": "address"
				}
			],
			"name": "RevokedOperator",
			"type": "event"
		},
		{
			"anonymous": false,
			"inputs": [
				{
					"indexed": true,
					"internalType": "address",
					"name": "operator",
					"type": "address"
				},
				{
					"indexed": true,
					"internalType": "address",
					"name": "from",
					"type": "address"
				},
				{
					"indexed": true,
					"internalType": "address",
					"name": "to",
					"type": "address"
				},
				{
					"indexed": false,
					"internalType": "uint256",
					"name": "amount",
					"type": "uint256"
				},
				{
					"indexed": false,
					"internalType": "bool",
					"name": "force",
					"type": "bool"
				},
				{
					"indexed": false,
					"internalType": "bytes",
					"name": "data",
					"type": "bytes"
				}
			],
			"name": "Transfer",
			"type": "event"
		},
		{
			"inputs": [],
			"name": "admin",
			"outputs": [
				{
					"internalType": "address",
					"name": "",
					"type": "address"
				}
			],
			"stateMutability": "view",
			"type": "function"
		},
		{
			"inputs": [
				{
					"internalType": "address",
					"name": "operator",
					"type": "address"
				},
				{
					"internalType": "uint256",
					"name": "amount",
					"type": "uint256"
				}
			],
			"name": "authorizeOperator",
			"outputs": [],
			"stateMutability": "nonpayable",
			"type": "function"
		},
		{
			"inputs": [
				{
					"internalType": "address",
					"name": "student",
					"type": "address"
				}
			],
			"name": "award",
			"outputs": [],
			"stateMutability": "nonpayable",
			"type": "function"
		},
		{
			"inputs": [],
			"name": "awardAmount",
			"outputs": [
				{
					"internalType": "uint256",
					"name": "",
					"type": "uint256"
				}
			],
			"stateMutability": "view",
			"type": "function"
		},
		{
			"inputs": [
				{
					"internalType": "address",
					"name": "tokenOwner",
					"type": "address"
				}
			],
			"name": "balanceOf",
			"outputs": [
				{
					"internalType": "uint256",
					"name": "",
					"type": "uint256"
				}
			],
			"stateMutability": "view",
			"type": "function"
		},
		{
			"inputs": [],
			"name": "contributor",
			"outputs": [
				{
					"internalType": "address",
					"name": "",
					"type": "address"
				}
			],
			"stateMutability": "view",
			"type": "function"
		},
		{
			"inputs": [],
			"name": "decimals",
			"outputs": [
				{
					"internalType": "uint256",
					"name": "",
					"type": "uint256"
				}
			],
			"stateMutability": "view",
			"type": "function"
		},
		{
			"inputs": [
				{
					"internalType": "bytes32[]",
					"name": "_keys",
					"type": "bytes32[]"
				}
			],
			"name": "getData",
			"outputs": [
				{
					"internalType": "bytes[]",
					"name": "values",
					"type": "bytes[]"
				}
			],
			"stateMutability": "view",
			"type": "function"
		},
		{
			"inputs": [
				{
					"internalType": "address",
					"name": "operator",
					"type": "address"
				},
				{
					"internalType": "address",
					"name": "tokenOwner",
					"type": "address"
				}
			],
			"name": "isOperatorFor",
			"outputs": [
				{
					"internalType": "uint256",
					"name": "",
					"type": "uint256"
				}
			],
			"stateMutability": "view",
			"type": "function"
		},
		{
			"inputs": [],
			"name": "name",
			"outputs": [
				{
					"internalType": "string",
					"name": "",
					"type": "string"
				}
			],
			"stateMutability": "view",
			"type": "function"
		},
		{
			"inputs": [],
			"name": "owner",
			"outputs": [
				{
					"internalType": "address",
					"name": "",
					"type": "address"
				}
			],
			"stateMutability": "view",
			"type": "function"
		},
		{
			"inputs": [
				{
					"internalType": "address",
					"name": "awardee",
					"type": "address"
				},
				{
					"internalType": "uint256",
					"name": "amount",
					"type": "uint256"
				}
			],
			"name": "redeem",
			"outputs": [],
			"stateMutability": "nonpayable",
			"type": "function"
		},
		{
			"inputs": [
				{
					"internalType": "address",
					"name": "from",
					"type": "address"
				}
			],
			"name": "redeemAll",
			"outputs": [],
			"stateMutability": "nonpayable",
			"type": "function"
		},
		{
			"inputs": [],
			"name": "renounceOwnership",
			"outputs": [],
			"stateMutability": "nonpayable",
			"type": "function"
		},
		{
			"inputs": [
				{
					"internalType": "address",
					"name": "operator",
					"type": "address"
				}
			],
			"name": "revokeOperator",
			"outputs": [],
			"stateMutability": "nonpayable",
			"type": "function"
		},
		{
			"inputs": [
				{
					"internalType": "uint256",
					"name": "amount",
					"type": "uint256"
				}
			],
			"name": "setAwardAmount",
			"outputs": [],
			"stateMutability": "nonpayable",
			"type": "function"
		},
		{
			"inputs": [
				{
					"internalType": "bytes32[]",
					"name": "_keys",
					"type": "bytes32[]"
				},
				{
					"internalType": "bytes[]",
					"name": "_values",
					"type": "bytes[]"
				}
			],
			"name": "setData",
			"outputs": [],
			"stateMutability": "nonpayable",
			"type": "function"
		},
		{
			"inputs": [
				{
					"internalType": "bytes4",
					"name": "interfaceId",
					"type": "bytes4"
				}
			],
			"name": "supportsInterface",
			"outputs": [
				{
					"internalType": "bool",
					"name": "",
					"type": "bool"
				}
			],
			"stateMutability": "view",
			"type": "function"
		},
		{
			"inputs": [],
			"name": "symbol",
			"outputs": [
				{
					"internalType": "string",
					"name": "",
					"type": "string"
				}
			],
			"stateMutability": "view",
			"type": "function"
		},
		{
			"inputs": [],
			"name": "tokenSupplyCap",
			"outputs": [
				{
					"internalType": "uint256",
					"name": "",
					"type": "uint256"
				}
			],
			"stateMutability": "view",
			"type": "function"
		},
		{
			"inputs": [],
			"name": "totalSupply",
			"outputs": [
				{
					"internalType": "uint256",
					"name": "",
					"type": "uint256"
				}
			],
			"stateMutability": "view",
			"type": "function"
		},
		{
			"inputs": [
				{
					"internalType": "address",
					"name": "from",
					"type": "address"
				},
				{
					"internalType": "address",
					"name": "to",
					"type": "address"
				},
				{
					"internalType": "uint256",
					"name": "amount",
					"type": "uint256"
				},
				{
					"internalType": "bool",
					"name": "force",
					"type": "bool"
				},
				{
					"internalType": "bytes",
					"name": "data",
					"type": "bytes"
				}
			],
			"name": "transfer",
			"outputs": [],
			"stateMutability": "nonpayable",
			"type": "function"
		},
		{
			"inputs": [
				{
					"internalType": "address[]",
					"name": "from",
					"type": "address[]"
				},
				{
					"internalType": "address[]",
					"name": "to",
					"type": "address[]"
				},
				{
					"internalType": "uint256[]",
					"name": "amount",
					"type": "uint256[]"
				},
				{
					"internalType": "bool",
					"name": "force",
					"type": "bool"
				},
				{
					"internalType": "bytes[]",
					"name": "data",
					"type": "bytes[]"
				}
			],
			"name": "transferBatch",
			"outputs": [],
			"stateMutability": "nonpayable",
			"type": "function"
		},
		{
			"inputs": [
				{
					"internalType": "address",
					"name": "newOwner",
					"type": "address"
				}
			],
			"name": "transferOwnership",
			"outputs": [],
			"stateMutability": "nonpayable",
			"type": "function"
		}
	]
}