{
	"data": {
		"bytecode": {
			"linkReferences": {},
			"object": "6080604052662386f26fc100006008553480156200001c57600080fd5b506040516200486538038062004865833981810160405281019062000042919062000622565b6a52b7d2dcc80cd2e4000000838383600083838380620000676200023a60201b60201c565b73ffffffffffffffffffffffffffffffffffffffff168173ffffffffffffffffffffffffffffffffffffffff1614620000b157620000b0816200026360201b6200106f1760201c565b5b620000e27f5a988c0f00000000000000000000000000000000000000000000000000000000620002e560201b60201c565b50620001187fdeba1e292f8ba88238e10ab3c7f88bd4be4fac56cad5194b6ecceaf653468af160001b84620003bd60201b60201c565b6200014d7f2f0a68ab07768e01943a599e73362a0e17a63a72e94dd2e384d2c1d4db93275660001b83620003bd60201b60201c565b50505080600360006101000a81548160ff0219169083151502179055506200018263e33f65c360e01b620002e560201b60201c565b620001df7feafec4d89fa9619884b6b8913562645500000000000000000000000074ac49b060001b6374ac49b060e01b604051602001620001c4919062000818565b604051602081830303815290604052620003bd60201b60201c565b505050506000811162000229576040517f08c379a000000000000000000000000000000000000000000000000000000000815260040162000220906200089d565b60405180910390fd5b806007819055505050505062000ab2565b60008060009054906101000a900473ffffffffffffffffffffffffffffffffffffffff16905090565b600060149054906101000a900460ff1615620002b6576040517f08c379a0000000000000000000000000000000000000000000000000000000008152600401620002ad9062000859565b60405180910390fd5b6001600060146101000a81548160ff021916908315150217905550620002e2816200042560201b60201c565b50565b63ffffffff60e01b817bffffffffffffffffffffffffffffffffffffffffffffffffffffffff1916141562000351576040517f08c379a000000000000000000000000000000000000000000000000000000000815260040162000348906200087b565b60405180910390fd5b6001806000837bffffffffffffffffffffffffffffffffffffffffffffffffffffffff19167bffffffffffffffffffffffffffffffffffffffffffffffffffffffff1916815260200190815260200160002060006101000a81548160ff02191690831515021790555050565b80600260008481526020019081526020016000209080519060200190620003e6929190620004e9565b50817fece574603820d07bc9b91f2a932baadf4628aabcb8afba49776529c14a6104b28260405162000419919062000835565b60405180910390a25050565b60008060009054906101000a900473ffffffffffffffffffffffffffffffffffffffff169050816000806101000a81548173ffffffffffffffffffffffffffffffffffffffff021916908373ffffffffffffffffffffffffffffffffffffffff1602179055508173ffffffffffffffffffffffffffffffffffffffff168173ffffffffffffffffffffffffffffffffffffffff167f8be0079c531659141344cd1fd0a4f28419497f9722a3daafe3b4186f6b6457e060405160405180910390a35050565b828054620004f790620009e9565b90600052602060002090601f0160209004810192826200051b576000855562000567565b82601f106200053657805160ff191683800117855562000567565b8280016001018555821562000567579182015b828111156200056657825182559160200191906001019062000549565b5b5090506200057691906200057a565b5090565b5b80821115620005955760008160009055506001016200057b565b5090565b6000620005b0620005aa84620008f3565b620008bf565b905082815260208101848484011115620005c957600080fd5b620005d6848285620009b3565b509392505050565b600081519050620005ef8162000a98565b92915050565b600082601f8301126200060757600080fd5b81516200061984826020860162000599565b91505092915050565b6000806000606084860312156200063857600080fd5b600084015167ffffffffffffffff8111156200065357600080fd5b6200066186828701620005f5565b935050602084015167ffffffffffffffff8111156200067f57600080fd5b6200068d86828701620005f5565b9250506040620006a086828701620005de565b9150509250925092565b620006bf620006b98262000967565b62000a1f565b82525050565b6000620006d28262000926565b620006de818562000931565b9350620006f0818560208601620009b3565b620006fb8162000a87565b840191505092915050565b60006200071560298362000942565b91507f4f776e61626c653a206f776e65722063616e206f6e6c7920626520696e69746960008301527f61746564206f6e636500000000000000000000000000000000000000000000006020830152604082019050919050565b60006200077d601c8362000942565b91507f4552433136353a20696e76616c696420696e74657266616365206964000000006000830152602082019050919050565b6000620007bf60288362000942565b91507f4c535037436170706564537570706c793a20746f6b656e537570706c7943617060008301527f206973207a65726f0000000000000000000000000000000000000000000000006020830152604082019050919050565b6000620008268284620006aa565b60048201915081905092915050565b60006020820190508181036000830152620008518184620006c5565b905092915050565b60006020820190508181036000830152620008748162000706565b9050919050565b6000602082019050818103600083015262000896816200076e565b9050919050565b60006020820190508181036000830152620008b881620007b0565b9050919050565b6000604051905081810181811067ffffffffffffffff82111715620008e957620008e862000a58565b5b8060405250919050565b600067ffffffffffffffff82111562000911576200091062000a58565b5b601f19601f8301169050602081019050919050565b600081519050919050565b600082825260208201905092915050565b600082825260208201905092915050565b6000620009608262000993565b9050919050565b60007fffffffff0000000000000000000000000000000000000000000000000000000082169050919050565b600073ffffffffffffffffffffffffffffffffffffffff82169050919050565b60005b83811015620009d3578082015181840152602081019050620009b6565b83811115620009e3576000848401525b50505050565b6000600282049050600182168062000a0257607f821691505b6020821081141562000a195762000a1862000a29565b5b50919050565b6000819050919050565b7f4e487b7100000000000000000000000000000000000000000000000000000000600052602260045260246000fd5b7f4e487b7100000000000000000000000000000000000000000000000000000000600052604160045260246000fd5b6000601f19601f8301169050919050565b62000aa38162000953565b811462000aaf57600080fd5b50565b613da38062000ac26000396000f3fe608060405234801561001057600080fd5b50600436106101425760003560e01c8063760d9bba116100b8578063d2706c191161007c578063d2706c191461033d578063d95b637114610359578063e9893c6714610389578063f2fde38b146103a7578063fad8b32a146103c3578063fbdd25e4146103df57610142565b8063760d9bba146102ad5780638da5cb5b146102c957806395d89b41146102e7578063a8a34e0a14610305578063be399be51461032157610142565b8063313ce5671161010a578063313ce567146101eb57806347980aa3146102095780634e3e6e9c1461022557806352058d8a1461025557806370a0823114610273578063715018a6146102a357610142565b806301ffc9a71461014757806306fdde031461017757806314a6e2931461019557806318160ddd146101b15780631e9a6950146101cf575b600080fd5b610161600480360381019061015c9190612a20565b6103fb565b60405161016e919061353b565b60405180910390f35b61017f610473565b60405161018c91906135c3565b60405180910390f35b6101af60048036038101906101aa919061298b565b6104a6565b005b6101b9610614565b6040516101c69190613865565b60405180910390f35b6101e960048036038101906101e49190612837565b61061e565b005b6101f361069b565b6040516102009190613865565b60405180910390f35b610223600480360381019061021e9190612837565b6106c3565b005b61023f600480360381019061023a919061294a565b6106d9565b60405161024c9190613519565b60405180910390f35b61025d610804565b60405161026a9190613865565b60405180910390f35b61028d60048036038101906102889190612743565b61080e565b60405161029a9190613865565b60405180910390f35b6102ab610857565b005b6102c760048036038101906102c291906127a8565b6108df565b005b6102d1610a8b565b6040516102de919061349e565b60405180910390f35b6102ef610ab4565b6040516102fc91906135c3565b60405180910390f35b61031f600480360381019061031a9190612873565b610ae7565b005b61033b60048036038101906103369190612743565b610c79565b005b61035760048036038101906103529190612a8a565b610c8e565b005b610373600480360381019061036e919061276c565b610d0d565b6040516103809190613865565b60405180910390f35b610391610e10565b60405161039e9190613865565b60405180910390f35b6103c160048036038101906103bc9190612743565b610e16565b005b6103dd60048036038101906103d89190612743565b610f0e565b005b6103f960048036038101906103f49190612743565b610f24565b005b6000610406826110e6565b8061046c575060016000837bffffffffffffffffffffffffffffffffffffffffffffffffffffffff19167bffffffffffffffffffffffffffffffffffffffffffffffffffffffff1916815260200190815260200160002060009054906101000a900460ff165b9050919050565b60606104a17fdeba1e292f8ba88238e10ab3c7f88bd4be4fac56cad5194b6ecceaf653468af160001b611150565b905090565b6104ae6111f5565b73ffffffffffffffffffffffffffffffffffffffff166104cc610a8b565b73ffffffffffffffffffffffffffffffffffffffff1614610522576040517f08c379a000000000000000000000000000000000000000000000000000000000815260040161051990613785565b60405180910390fd5b8051825114610566576040517f08c379a000000000000000000000000000000000000000000000000000000000815260040161055d90613825565b60405180910390fd5b60005b825181101561060f576105fc8382815181106105ae577f4e487b7100000000000000000000000000000000000000000000000000000000600052603260045260246000fd5b60200260200101518383815181106105ef577f4e487b7100000000000000000000000000000000000000000000000000000000600052603260045260246000fd5b60200260200101516111fd565b808061060790613bd8565b915050610569565b505050565b6000600454905090565b61065e82826040518060400160405280600681526020017f72656465656d0000000000000000000000000000000000000000000000000000815250611261565b7f4896181ff8f4543cc00db9fe9b6fb7e6f032b7eb772c72ab1ec1b4d2e03b9369828260405161068f9291906134f0565b60405180910390a15050565b6000600360009054906101000a900460ff166106b85760126106bb565b60005b60ff16905090565b6106d56106ce6111f5565b83836115dc565b5050565b6060815167ffffffffffffffff81111561071c577f4e487b7100000000000000000000000000000000000000000000000000000000600052604160045260246000fd5b60405190808252806020026020018201604052801561074f57816020015b606081526020019060019003908161073a5790505b50905060005b82518110156107fe576107a783828151811061079a577f4e487b7100000000000000000000000000000000000000000000000000000000600052603260045260246000fd5b6020026020010151611150565b8282815181106107e0577f4e487b7100000000000000000000000000000000000000000000000000000000600052603260045260246000fd5b602002602001018190525080806107f690613bd8565b915050610755565b50919050565b6000600754905090565b6000600560008373ffffffffffffffffffffffffffffffffffffffff1673ffffffffffffffffffffffffffffffffffffffff168152602001908152602001600020549050919050565b61085f6111f5565b73ffffffffffffffffffffffffffffffffffffffff1661087d610a8b565b73ffffffffffffffffffffffffffffffffffffffff16146108d3576040517f08c379a00000000000000000000000000000000000000000000000000000000081526004016108ca90613785565b60405180910390fd5b6108dd6000611875565b565b60006108e96111f5565b90508573ffffffffffffffffffffffffffffffffffffffff168173ffffffffffffffffffffffffffffffffffffffff1614610a76576000600660008873ffffffffffffffffffffffffffffffffffffffff1673ffffffffffffffffffffffffffffffffffffffff16815260200190815260200160002060008373ffffffffffffffffffffffffffffffffffffffff1673ffffffffffffffffffffffffffffffffffffffff168152602001908152602001600020549050848110156109e2576040517f08c379a00000000000000000000000000000000000000000000000000000000081526004016109d990613625565b60405180910390fd5b610a74878387600660008c73ffffffffffffffffffffffffffffffffffffffff1673ffffffffffffffffffffffffffffffffffffffff16815260200190815260200160002060008773ffffffffffffffffffffffffffffffffffffffff1673ffffffffffffffffffffffffffffffffffffffff16815260200190815260200160002054610a6f9190613ab2565b6115dc565b505b610a838686868686611939565b505050505050565b60008060009054906101000a900473ffffffffffffffffffffffffffffffffffffffff16905090565b6060610ae27f2f0a68ab07768e01943a599e73362a0e17a63a72e94dd2e384d2c1d4db93275660001b611150565b905090565b83518551148015610af9575082518551145b8015610b06575080518551145b610b45576040517f08c379a0000000000000000000000000000000000000000000000000000000008152600401610b3c90613645565b60405180910390fd5b60005b8551811015610c7157610c5e868281518110610b8d577f4e487b7100000000000000000000000000000000000000000000000000000000600052603260045260246000fd5b6020026020010151868381518110610bce577f4e487b7100000000000000000000000000000000000000000000000000000000600052603260045260246000fd5b6020026020010151868481518110610c0f577f4e487b7100000000000000000000000000000000000000000000000000000000600052603260045260246000fd5b602002602001015186868681518110610c51577f4e487b7100000000000000000000000000000000000000000000000000000000600052603260045260246000fd5b60200260200101516108df565b8080610c6990613bd8565b915050610b48565b505050505050565b610c8b81610c868361080e565b61061e565b50565b3373ffffffffffffffffffffffffffffffffffffffff16610cad610a8b565b73ffffffffffffffffffffffffffffffffffffffff1614610d03576040517f08c379a0000000000000000000000000000000000000000000000000000000008152600401610cfa90613745565b60405180910390fd5b8060088190555050565b60008273ffffffffffffffffffffffffffffffffffffffff168273ffffffffffffffffffffffffffffffffffffffff161415610d8a57600560008373ffffffffffffffffffffffffffffffffffffffff1673ffffffffffffffffffffffffffffffffffffffff168152602001908152602001600020549050610e0a565b600660008373ffffffffffffffffffffffffffffffffffffffff1673ffffffffffffffffffffffffffffffffffffffff16815260200190815260200160002060008473ffffffffffffffffffffffffffffffffffffffff1673ffffffffffffffffffffffffffffffffffffffff1681526020019081526020016000205490505b92915050565b60085481565b610e1e6111f5565b73ffffffffffffffffffffffffffffffffffffffff16610e3c610a8b565b73ffffffffffffffffffffffffffffffffffffffff1614610e92576040517f08c379a0000000000000000000000000000000000000000000000000000000008152600401610e8990613785565b60405180910390fd5b600073ffffffffffffffffffffffffffffffffffffffff168173ffffffffffffffffffffffffffffffffffffffff161415610f02576040517f08c379a0000000000000000000000000000000000000000000000000000000008152600401610ef990613685565b60405180910390fd5b610f0b81611875565b50565b610f21610f196111f5565b8260006115dc565b50565b3373ffffffffffffffffffffffffffffffffffffffff16610f43610a8b565b73ffffffffffffffffffffffffffffffffffffffff1614610f99576040517f08c379a0000000000000000000000000000000000000000000000000000000008152600401610f9090613745565b60405180910390fd5b610fe4610fa4610a8b565b60085460016040518060400160405280600581526020017f6177617264000000000000000000000000000000000000000000000000000000815250611bff565b6110288160085460016040518060400160405280600581526020017f6177617264000000000000000000000000000000000000000000000000000000815250611bff565b7fe2554529d99ab7a67db6b4cea2b32c7d55ae325f958861e05f304fdded867e31611051610a8b565b82600854604051611064939291906134b9565b60405180910390a150565b600060149054906101000a900460ff16156110bf576040517f08c379a00000000000000000000000000000000000000000000000000000000081526004016110b690613665565b60405180910390fd5b6001600060146101000a81548160ff0219169083151502179055506110e381611875565b50565b60007f01ffc9a7000000000000000000000000000000000000000000000000000000007bffffffffffffffffffffffffffffffffffffffffffffffffffffffff1916827bffffffffffffffffffffffffffffffffffffffffffffffffffffffff1916149050919050565b606060026000838152602001908152602001600020805461117090613ba6565b80601f016020809104026020016040519081016040528092919081815260200182805461119c90613ba6565b80156111e95780601f106111be576101008083540402835291602001916111e9565b820191906000526020600020905b8154815290600101906020018083116111cc57829003601f168201915b50505050509050919050565b600033905090565b80600260008481526020019081526020016000209080519060200190611224929190612309565b50817fece574603820d07bc9b91f2a932baadf4628aabcb8afba49776529c14a6104b28260405161125591906135a1565b60405180910390a25050565b600073ffffffffffffffffffffffffffffffffffffffff168373ffffffffffffffffffffffffffffffffffffffff1614156112d1576040517f08c379a00000000000000000000000000000000000000000000000000000000081526004016112c890613805565b60405180910390fd5b81600560008573ffffffffffffffffffffffffffffffffffffffff1673ffffffffffffffffffffffffffffffffffffffff168152602001908152602001600020541015611353576040517f08c379a000000000000000000000000000000000000000000000000000000000815260040161134a90613845565b60405180910390fd5b600061135d6111f5565b90508373ffffffffffffffffffffffffffffffffffffffff168173ffffffffffffffffffffffffffffffffffffffff16146114e55782600660008673ffffffffffffffffffffffffffffffffffffffff1673ffffffffffffffffffffffffffffffffffffffff16815260200190815260200160002060008373ffffffffffffffffffffffffffffffffffffffff1673ffffffffffffffffffffffffffffffffffffffff168152602001908152602001600020541015611451576040517f08c379a000000000000000000000000000000000000000000000000000000000815260040161144890613605565b60405180910390fd5b82600660008673ffffffffffffffffffffffffffffffffffffffff1673ffffffffffffffffffffffffffffffffffffffff16815260200190815260200160002060008373ffffffffffffffffffffffffffffffffffffffff1673ffffffffffffffffffffffffffffffffffffffff16815260200190815260200160002060008282546114dd9190613ab2565b925050819055505b6114f28460008585611c11565b6114fe84600085611d20565b82600560008673ffffffffffffffffffffffffffffffffffffffff1673ffffffffffffffffffffffffffffffffffffffff168152602001908152602001600020600082825461154d9190613ab2565b92505081905550600073ffffffffffffffffffffffffffffffffffffffff168473ffffffffffffffffffffffffffffffffffffffff168273ffffffffffffffffffffffffffffffffffffffff167f3997e418d2cef0b3b0e907b1e39605c3f7d32dbd061e82ea5b4a770d46a160a6866000876040516115ce93929190613880565b60405180910390a450505050565b8273ffffffffffffffffffffffffffffffffffffffff168273ffffffffffffffffffffffffffffffffffffffff16141561164b576040517f08c379a0000000000000000000000000000000000000000000000000000000008152600401611642906136c5565b60405180910390fd5b600073ffffffffffffffffffffffffffffffffffffffff168273ffffffffffffffffffffffffffffffffffffffff1614156116bb576040517f08c379a00000000000000000000000000000000000000000000000000000000081526004016116b2906137e5565b60405180910390fd5b600073ffffffffffffffffffffffffffffffffffffffff168373ffffffffffffffffffffffffffffffffffffffff16141561172b576040517f08c379a0000000000000000000000000000000000000000000000000000000008152600401611722906136e5565b60405180910390fd5b80600660008573ffffffffffffffffffffffffffffffffffffffff1673ffffffffffffffffffffffffffffffffffffffff16815260200190815260200160002060008473ffffffffffffffffffffffffffffffffffffffff1673ffffffffffffffffffffffffffffffffffffffff16815260200190815260200160002081905550600081111561181557808373ffffffffffffffffffffffffffffffffffffffff168373ffffffffffffffffffffffffffffffffffffffff167fd66aff874162a96578e919097b6f6d153dfd89a5cec41bb331fdb0c4aec16e2c60405160405180910390a4611870565b8273ffffffffffffffffffffffffffffffffffffffff168273ffffffffffffffffffffffffffffffffffffffff167f50546e66e5f44d728365dc3908c63bc5cfeeab470722c1677e3073a6ac294aa160405160405180910390a35b505050565b60008060009054906101000a900473ffffffffffffffffffffffffffffffffffffffff169050816000806101000a81548173ffffffffffffffffffffffffffffffffffffffff021916908373ffffffffffffffffffffffffffffffffffffffff1602179055508173ffffffffffffffffffffffffffffffffffffffff168173ffffffffffffffffffffffffffffffffffffffff167f8be0079c531659141344cd1fd0a4f28419497f9722a3daafe3b4186f6b6457e060405160405180910390a35050565b600073ffffffffffffffffffffffffffffffffffffffff168573ffffffffffffffffffffffffffffffffffffffff1614156119a9576040517f08c379a00000000000000000000000000000000000000000000000000000000081526004016119a090613765565b60405180910390fd5b600073ffffffffffffffffffffffffffffffffffffffff168473ffffffffffffffffffffffffffffffffffffffff161415611a19576040517f08c379a0000000000000000000000000000000000000000000000000000000008152600401611a10906137c5565b60405180910390fd5b82600560008773ffffffffffffffffffffffffffffffffffffffff1673ffffffffffffffffffffffffffffffffffffffff168152602001908152602001600020541015611a9b576040517f08c379a0000000000000000000000000000000000000000000000000000000008152600401611a9290613705565b60405180910390fd5b6000611aa56111f5565b9050611ab386868685611c11565b611abe868686611d20565b83600560008873ffffffffffffffffffffffffffffffffffffffff1673ffffffffffffffffffffffffffffffffffffffff1681526020019081526020016000206000828254611b0d9190613ab2565b9250508190555083600560008773ffffffffffffffffffffffffffffffffffffffff1673ffffffffffffffffffffffffffffffffffffffff1681526020019081526020016000206000828254611b639190613a5c565b925050819055508473ffffffffffffffffffffffffffffffffffffffff168673ffffffffffffffffffffffffffffffffffffffff168273ffffffffffffffffffffffffffffffffffffffff167f3997e418d2cef0b3b0e907b1e39605c3f7d32dbd061e82ea5b4a770d46a160a6878787604051611be293929190613880565b60405180910390a4611bf78686868686611dc3565b505050505050565b611c0b84848484611f77565b50505050565b611c1a84611fe5565b8015611c335750611c3284636bb56a1460e01b612032565b5b15611d1a57600084848484604051602001611c51949392919061343d565b60405160208183030381529060405290508473ffffffffffffffffffffffffffffffffffffffff16636bb56a147f40b8bec57d7b5ff0dbd9e9acd0a47dfeb0101e1a203766f5ccab00445fbf39e960001b836040518363ffffffff1660e01b8152600401611cc0929190613556565b600060405180830381600087803b158015611cda57600080fd5b505af1158015611cee573d6000803e3d6000fd5b505050506040513d6000823e3d601f19601f82011682018060405250810190611d179190612a49565b50505b50505050565b600073ffffffffffffffffffffffffffffffffffffffff168373ffffffffffffffffffffffffffffffffffffffff161415611d6f578060046000828254611d679190613a5c565b925050819055505b600073ffffffffffffffffffffffffffffffffffffffff168273ffffffffffffffffffffffffffffffffffffffff161415611dbe578060046000828254611db69190613ab2565b925050819055505b505050565b611dcc84611fe5565b8015611de55750611de484636bb56a1460e01b612032565b5b15611ed057600085858584604051602001611e03949392919061343d565b60405160208183030381529060405290508473ffffffffffffffffffffffffffffffffffffffff16636bb56a147fdbe2c314e1aee2970c72666f2ebe8933a8575263ea71e5ff6a9178e95d47a26f60001b836040518363ffffffff1660e01b8152600401611e72929190613556565b600060405180830381600087803b158015611e8c57600080fd5b505af1158015611ea0573d6000803e3d6000fd5b505050506040513d6000823e3d601f19601f82011682018060405250810190611ec99190612a49565b5050611f70565b81611f6f57611ef48473ffffffffffffffffffffffffffffffffffffffff16612057565b15611f34576040517f08c379a0000000000000000000000000000000000000000000000000000000008152600401611f2b90613725565b60405180910390fd5b6040517f08c379a0000000000000000000000000000000000000000000000000000000008152600401611f66906135e5565b60405180910390fd5b5b5050505050565b611f7f610804565b83611f88610614565b611f929190613a5c565b1115611fd3576040517f08c379a0000000000000000000000000000000000000000000000000000000008152600401611fca906137a5565b60405180910390fd5b611fdf8484848461206a565b50505050565b6000612011827f01ffc9a7000000000000000000000000000000000000000000000000000000006121de565b801561202b57506120298263ffffffff60e01b6121de565b155b9050919050565b600061203d83611fe5565b801561204f575061204e83836121de565b5b905092915050565b600080823b905060008111915050919050565b600073ffffffffffffffffffffffffffffffffffffffff168473ffffffffffffffffffffffffffffffffffffffff1614156120da576040517f08c379a00000000000000000000000000000000000000000000000000000000081526004016120d1906136a5565b60405180910390fd5b60006120e46111f5565b90506120f260008686611d20565b83600560008773ffffffffffffffffffffffffffffffffffffffff1673ffffffffffffffffffffffffffffffffffffffff16815260200190815260200160002060008282546121419190613a5c565b925050819055508473ffffffffffffffffffffffffffffffffffffffff16600073ffffffffffffffffffffffffffffffffffffffff168273ffffffffffffffffffffffffffffffffffffffff167f3997e418d2cef0b3b0e907b1e39605c3f7d32dbd061e82ea5b4a770d46a160a68787876040516121c193929190613880565b60405180910390a46121d7600086868686611dc3565b5050505050565b6000806301ffc9a760e01b836040516024016121fa9190613586565b604051602081830303815290604052907bffffffffffffffffffffffffffffffffffffffffffffffffffffffff19166020820180517bffffffffffffffffffffffffffffffffffffffffffffffffffffffff838183161783525050505090506000808573ffffffffffffffffffffffffffffffffffffffff16617530846040516122849190613487565b6000604051808303818686fa925050503d80600081146122c0576040519150601f19603f3d011682016040523d82523d6000602084013e6122c5565b606091505b50915091506020815110156122e05760009350505050612303565b8180156122fd5750808060200190518101906122fc91906129f7565b5b93505050505b92915050565b82805461231590613ba6565b90600052602060002090601f016020900481019282612337576000855561237e565b82601f1061235057805160ff191683800117855561237e565b8280016001018555821561237e579182015b8281111561237d578251825591602001919060010190612362565b5b50905061238b919061238f565b5090565b5b808211156123a8576000816000905550600101612390565b5090565b60006123bf6123ba846138ef565b6138be565b905080838252602082019050828560208602820111156123de57600080fd5b60005b8581101561240e57816123f488826125c9565b8452602084019350602083019250506001810190506123e1565b5050509392505050565b600061242b6124268461391b565b6138be565b9050808382526020820190508285602086028201111561244a57600080fd5b60005b8581101561247a578161246088826126b0565b84526020840193506020830192505060018101905061244d565b5050509392505050565b600061249761249284613947565b6138be565b9050808382526020820190508260005b858110156124d757813585016124bd88826126da565b8452602084019350602083019250506001810190506124a7565b5050509392505050565b60006124f46124ef84613973565b6138be565b9050808382526020820190508285602086028201111561251357600080fd5b60005b858110156125435781612529888261272e565b845260208401935060208301925050600181019050612516565b5050509392505050565b600061256061255b8461399f565b6138be565b90508281526020810184848401111561257857600080fd5b612583848285613b64565b509392505050565b600061259e6125998461399f565b6138be565b9050828152602081018484840111156125b657600080fd5b6125c1848285613b73565b509392505050565b6000813590506125d881613cfa565b92915050565b600082601f8301126125ef57600080fd5b81356125ff8482602086016123ac565b91505092915050565b600082601f83011261261957600080fd5b8135612629848260208601612418565b91505092915050565b600082601f83011261264357600080fd5b8135612653848260208601612484565b91505092915050565b600082601f83011261266d57600080fd5b813561267d8482602086016124e1565b91505092915050565b60008135905061269581613d11565b92915050565b6000815190506126aa81613d11565b92915050565b6000813590506126bf81613d28565b92915050565b6000813590506126d481613d3f565b92915050565b600082601f8301126126eb57600080fd5b81356126fb84826020860161254d565b91505092915050565b600082601f83011261271557600080fd5b815161272584826020860161258b565b91505092915050565b60008135905061273d81613d56565b92915050565b60006020828403121561275557600080fd5b6000612763848285016125c9565b91505092915050565b6000806040838503121561277f57600080fd5b600061278d858286016125c9565b925050602061279e858286016125c9565b9150509250929050565b600080600080600060a086880312156127c057600080fd5b60006127ce888289016125c9565b95505060206127df888289016125c9565b94505060406127f08882890161272e565b935050606061280188828901612686565b925050608086013567ffffffffffffffff81111561281e57600080fd5b61282a888289016126da565b9150509295509295909350565b6000806040838503121561284a57600080fd5b6000612858858286016125c9565b92505060206128698582860161272e565b9150509250929050565b600080600080600060a0868803121561288b57600080fd5b600086013567ffffffffffffffff8111156128a557600080fd5b6128b1888289016125de565b955050602086013567ffffffffffffffff8111156128ce57600080fd5b6128da888289016125de565b945050604086013567ffffffffffffffff8111156128f757600080fd5b6129038882890161265c565b935050606061291488828901612686565b925050608086013567ffffffffffffffff81111561293157600080fd5b61293d88828901612632565b9150509295509295909350565b60006020828403121561295c57600080fd5b600082013567ffffffffffffffff81111561297657600080fd5b61298284828501612608565b91505092915050565b6000806040838503121561299e57600080fd5b600083013567ffffffffffffffff8111156129b857600080fd5b6129c485828601612608565b925050602083013567ffffffffffffffff8111156129e157600080fd5b6129ed85828601612632565b9150509250929050565b600060208284031215612a0957600080fd5b6000612a178482850161269b565b91505092915050565b600060208284031215612a3257600080fd5b6000612a40848285016126c5565b91505092915050565b600060208284031215612a5b57600080fd5b600082015167ffffffffffffffff811115612a7557600080fd5b612a8184828501612704565b91505092915050565b600060208284031215612a9c57600080fd5b6000612aaa8482850161272e565b91505092915050565b6000612abf8383612b8f565b905092915050565b612ad081613ae6565b82525050565b612ae7612ae282613ae6565b613c21565b82525050565b6000612af8826139df565b612b028185613a0d565b935083602082028501612b14856139cf565b8060005b85811015612b505784840389528151612b318582612ab3565b9450612b3c83613a00565b925060208a01995050600181019050612b18565b50829750879550505050505092915050565b612b6b81613af8565b82525050565b612b7a81613b04565b82525050565b612b8981613b0e565b82525050565b6000612b9a826139ea565b612ba48185613a1e565b9350612bb4818560208601613b73565b612bbd81613cdc565b840191505092915050565b6000612bd3826139ea565b612bdd8185613a2f565b9350612bed818560208601613b73565b612bf681613cdc565b840191505092915050565b6000612c0c826139ea565b612c168185613a40565b9350612c26818560208601613b73565b80840191505092915050565b6000612c3d826139f5565b612c478185613a4b565b9350612c57818560208601613b73565b612c6081613cdc565b840191505092915050565b6000612c78601b83613a4b565b91507f4c5350373a20746f6b656e20726563656976657220697320454f4100000000006000830152602082019050919050565b6000612cb8603483613a4b565b91507f4c5350373a206275726e20616d6f756e742065786365656473206f706572617460008301527f6f7220617574686f72697a656420616d6f756e740000000000000000000000006020830152604082019050919050565b6000612d1e603883613a4b565b91507f4c5350373a207472616e7366657220616d6f756e742065786365656473206f7060008301527f657261746f7220617574686f72697a656420616d6f756e7400000000000000006020830152604082019050919050565b6000612d84602883613a4b565b91507f4c5350373a207472616e736665724261746368206c697374206c656e6774682060008301527f6d69736d617463680000000000000000000000000000000000000000000000006020830152604082019050919050565b6000612dea602983613a4b565b91507f4f776e61626c653a206f776e65722063616e206f6e6c7920626520696e69746960008301527f61746564206f6e636500000000000000000000000000000000000000000000006020830152604082019050919050565b6000612e50602683613a4b565b91507f4f776e61626c653a206e6577206f776e657220697320746865207a65726f206160008301527f64647265737300000000000000000000000000000000000000000000000000006020830152604082019050919050565b6000612eb6602a83613a4b565b91507f4c5350373a206d696e7420746f20746865207a65726f2061646472657373206e60008301527f6f7420616c6c6f776564000000000000000000000000000000000000000000006020830152604082019050919050565b6000612f1c604383613a4b565b91507f4c5350373a207570646174696e67206f70657261746f72206661696c65642c2060008301527f63616e206e6f742075736520746f6b656e206f776e6572206173206f7065726160208301527f746f7200000000000000000000000000000000000000000000000000000000006040830152606082019050919050565b6000612fa8604583613a4b565b91507f4c5350373a207570646174696e67206f70657261746f72206661696c65642c2060008301527f63616e206e6f7420736574206f70657261746f7220666f72207a65726f20616460208301527f64726573730000000000000000000000000000000000000000000000000000006040830152606082019050919050565b6000613034603083613a4b565b91507f4c5350373a207472616e7366657220616d6f756e74206578636565647320746f60008301527f6b656e4f776e65722062616c616e6365000000000000000000000000000000006020830152604082019050919050565b600061309a603483613a4b565b91507f4c5350373a20746f6b656e20726563656976657220636f6e7472616374206d6960008301527f7373696e67204c53503120696e746572666163650000000000000000000000006020830152604082019050919050565b6000613100600c83613a4b565b91507f756e617574686f72697a656400000000000000000000000000000000000000006000830152602082019050919050565b6000613140602483613a4b565b91507f4c5350373a207472616e736665722066726f6d20746865207a65726f2061646460008301527f72657373000000000000000000000000000000000000000000000000000000006020830152604082019050919050565b60006131a6602083613a4b565b91507f4f776e61626c653a2063616c6c6572206973206e6f7420746865206f776e65726000830152602082019050919050565b60006131e6602883613a4b565b91507f4c535037436170706564537570706c793a20746f6b656e537570706c7943617060008301527f20726561636865640000000000000000000000000000000000000000000000006020830152604082019050919050565b600061324c602283613a4b565b91507f4c5350373a207472616e7366657220746f20746865207a65726f20616464726560008301527f73730000000000000000000000000000000000000000000000000000000000006020830152604082019050919050565b60006132b2604083613a4b565b91507f4c5350373a207570646174696e67206f70657261746f72206661696c65642c2060008301527f6f70657261746f722063616e206e6f74206265207a65726f20616464726573736020830152604082019050919050565b6000613318602083613a4b565b91507f4c5350373a206275726e2066726f6d20746865207a65726f20616464726573736000830152602082019050919050565b6000613358602683613a4b565b91507f4b657973206c656e677468206e6f7420657175616c20746f2076616c7565732060008301527f6c656e67746800000000000000000000000000000000000000000000000000006020830152604082019050919050565b60006133be602c83613a4b565b91507f4c5350373a206275726e20616d6f756e74206578636565647320746f6b656e4f60008301527f776e65722062616c616e636500000000000000000000000000000000000000006020830152604082019050919050565b61342081613b5a565b82525050565b61343761343282613b5a565b613c45565b82525050565b60006134498287612ad6565b6014820191506134598286612ad6565b6014820191506134698285613426565b6020820191506134798284612c01565b915081905095945050505050565b60006134938284612c01565b915081905092915050565b60006020820190506134b36000830184612ac7565b92915050565b60006060820190506134ce6000830186612ac7565b6134db6020830185612ac7565b6134e86040830184613417565b949350505050565b60006040820190506135056000830185612ac7565b6135126020830184613417565b9392505050565b600060208201905081810360008301526135338184612aed565b905092915050565b60006020820190506135506000830184612b62565b92915050565b600060408201905061356b6000830185612b71565b818103602083015261357d8184612bc8565b90509392505050565b600060208201905061359b6000830184612b80565b92915050565b600060208201905081810360008301526135bb8184612bc8565b905092915050565b600060208201905081810360008301526135dd8184612c32565b905092915050565b600060208201905081810360008301526135fe81612c6b565b9050919050565b6000602082019050818103600083015261361e81612cab565b9050919050565b6000602082019050818103600083015261363e81612d11565b9050919050565b6000602082019050818103600083015261365e81612d77565b9050919050565b6000602082019050818103600083015261367e81612ddd565b9050919050565b6000602082019050818103600083015261369e81612e43565b9050919050565b600060208201905081810360008301526136be81612ea9565b9050919050565b600060208201905081810360008301526136de81612f0f565b9050919050565b600060208201905081810360008301526136fe81612f9b565b9050919050565b6000602082019050818103600083015261371e81613027565b9050919050565b6000602082019050818103600083015261373e8161308d565b9050919050565b6000602082019050818103600083015261375e816130f3565b9050919050565b6000602082019050818103600083015261377e81613133565b9050919050565b6000602082019050818103600083015261379e81613199565b9050919050565b600060208201905081810360008301526137be816131d9565b9050919050565b600060208201905081810360008301526137de8161323f565b9050919050565b600060208201905081810360008301526137fe816132a5565b9050919050565b6000602082019050818103600083015261381e8161330b565b9050919050565b6000602082019050818103600083015261383e8161334b565b9050919050565b6000602082019050818103600083015261385e816133b1565b9050919050565b600060208201905061387a6000830184613417565b92915050565b60006060820190506138956000830186613417565b6138a26020830185612b62565b81810360408301526138b48184612bc8565b9050949350505050565b6000604051905081810181811067ffffffffffffffff821117156138e5576138e4613cad565b5b8060405250919050565b600067ffffffffffffffff82111561390a57613909613cad565b5b602082029050602081019050919050565b600067ffffffffffffffff82111561393657613935613cad565b5b602082029050602081019050919050565b600067ffffffffffffffff82111561396257613961613cad565b5b602082029050602081019050919050565b600067ffffffffffffffff82111561398e5761398d613cad565b5b602082029050602081019050919050565b600067ffffffffffffffff8211156139ba576139b9613cad565b5b601f19601f8301169050602081019050919050565b6000819050602082019050919050565b600081519050919050565b600081519050919050565b600081519050919050565b6000602082019050919050565b600082825260208201905092915050565b600082825260208201905092915050565b600082825260208201905092915050565b600081905092915050565b600082825260208201905092915050565b6000613a6782613b5a565b9150613a7283613b5a565b9250827fffffffffffffffffffffffffffffffffffffffffffffffffffffffffffffffff03821115613aa757613aa6613c4f565b5b828201905092915050565b6000613abd82613b5a565b9150613ac883613b5a565b925082821015613adb57613ada613c4f565b5b828203905092915050565b6000613af182613b3a565b9050919050565b60008115159050919050565b6000819050919050565b60007fffffffff0000000000000000000000000000000000000000000000000000000082169050919050565b600073ffffffffffffffffffffffffffffffffffffffff82169050919050565b6000819050919050565b82818337600083830152505050565b60005b83811015613b91578082015181840152602081019050613b76565b83811115613ba0576000848401525b50505050565b60006002820490506001821680613bbe57607f821691505b60208210811415613bd257613bd1613c7e565b5b50919050565b6000613be382613b5a565b91507fffffffffffffffffffffffffffffffffffffffffffffffffffffffffffffffff821415613c1657613c15613c4f565b5b600182019050919050565b6000613c2c82613c33565b9050919050565b6000613c3e82613ced565b9050919050565b6000819050919050565b7f4e487b7100000000000000000000000000000000000000000000000000000000600052601160045260246000fd5b7f4e487b7100000000000000000000000000000000000000000000000000000000600052602260045260246000fd5b7f4e487b7100000000000000000000000000000000000000000000000000000000600052604160045260246000fd5b6000601f19601f8301169050919050565b60008160601b9050919050565b613d0381613ae6565b8114613d0e57600080fd5b50565b613d1a81613af8565b8114613d2557600080fd5b50565b613d3181613b04565b8114613d3c57600080fd5b50565b613d4881613b0e565b8114613d5357600080fd5b50565b613d5f81613b5a565b8114613d6a57600080fd5b5056fea2646970667358221220fad628b9f8ad345b66f4f13a03c351729d9147b52fc318913da60ff78d8bc96064736f6c63430008000033",
			"opcodes": "PUSH1 0x80 PUSH1 0x40 MSTORE PUSH7 0x2386F26FC10000 PUSH1 0x8 SSTORE CALLVALUE DUP1 ISZERO PUSH3 0x1C JUMPI PUSH1 0x0 DUP1 REVERT JUMPDEST POP PUSH1 0x40 MLOAD PUSH3 0x4865 CODESIZE SUB DUP1 PUSH3 0x4865 DUP4 CODECOPY DUP2 DUP2 ADD PUSH1 0x40 MSTORE DUP2 ADD SWAP1 PUSH3 0x42 SWAP2 SWAP1 PUSH3 0x622 JUMP JUMPDEST PUSH11 0x52B7D2DCC80CD2E4000000 DUP4 DUP4 DUP4 PUSH1 0x0 DUP4 DUP4 DUP4 DUP1 PUSH3 0x67 PUSH3 0x23A PUSH1 0x20 SHL PUSH1 0x20 SHR JUMP JUMPDEST PUSH20 0xFFFFFFFFFFFFFFFFFFFFFFFFFFFFFFFFFFFFFFFF AND DUP2 PUSH20 0xFFFFFFFFFFFFFFFFFFFFFFFFFFFFFFFFFFFFFFFF AND EQ PUSH3 0xB1 JUMPI PUSH3 0xB0 DUP2 PUSH3 0x263 PUSH1 0x20 SHL PUSH3 0x106F OR PUSH1 0x20 SHR JUMP JUMPDEST JUMPDEST PUSH3 0xE2 PUSH32 0x5A988C0F00000000000000000000000000000000000000000000000000000000 PUSH3 0x2E5 PUSH1 0x20 SHL PUSH1 0x20 SHR JUMP JUMPDEST POP PUSH3 0x118 PUSH32 0xDEBA1E292F8BA88238E10AB3C7F88BD4BE4FAC56CAD5194B6ECCEAF653468AF1 PUSH1 0x0 SHL DUP5 PUSH3 0x3BD PUSH1 0x20 SHL PUSH1 0x20 SHR JUMP JUMPDEST PUSH3 0x14D PUSH32 0x2F0A68AB07768E01943A599E73362A0E17A63A72E94DD2E384D2C1D4DB932756 PUSH1 0x0 SHL DUP4 PUSH3 0x3BD PUSH1 0x20 SHL PUSH1 0x20 SHR JUMP JUMPDEST POP POP POP DUP1 PUSH1 0x3 PUSH1 0x0 PUSH2 0x100 EXP DUP2 SLOAD DUP2 PUSH1 0xFF MUL NOT AND SWAP1 DUP4 ISZERO ISZERO MUL OR SWAP1 SSTORE POP PUSH3 0x182 PUSH4 0xE33F65C3 PUSH1 0xE0 SHL PUSH3 0x2E5 PUSH1 0x20 SHL PUSH1 0x20 SHR JUMP JUMPDEST PUSH3 0x1DF PUSH32 0xEAFEC4D89FA9619884B6B8913562645500000000000000000000000074AC49B0 PUSH1 0x0 SHL PUSH4 0x74AC49B0 PUSH1 0xE0 SHL PUSH1 0x40 MLOAD PUSH1 0x20 ADD PUSH3 0x1C4 SWAP2 SWAP1 PUSH3 0x818 JUMP JUMPDEST PUSH1 0x40 MLOAD PUSH1 0x20 DUP2 DUP4 SUB SUB DUP2 MSTORE SWAP1 PUSH1 0x40 MSTORE PUSH3 0x3BD PUSH1 0x20 SHL PUSH1 0x20 SHR JUMP JUMPDEST POP POP POP POP PUSH1 0x0 DUP2 GT PUSH3 0x229 JUMPI PUSH1 0x40 MLOAD PUSH32 0x8C379A000000000000000000000000000000000000000000000000000000000 DUP2 MSTORE PUSH1 0x4 ADD PUSH3 0x220 SWAP1 PUSH3 0x89D JUMP JUMPDEST PUSH1 0x40 MLOAD DUP1 SWAP2 SUB SWAP1 REVERT JUMPDEST DUP1 PUSH1 0x7 DUP2 SWAP1 SSTORE POP POP POP POP POP PUSH3 0xAB2 JUMP JUMPDEST PUSH1 0x0 DUP1 PUSH1 0x0 SWAP1 SLOAD SWAP1 PUSH2 0x100 EXP SWAP1 DIV PUSH20 0xFFFFFFFFFFFFFFFFFFFFFFFFFFFFFFFFFFFFFFFF AND SWAP1 POP SWAP1 JUMP JUMPDEST PUSH1 0x0 PUSH1 0x14 SWAP1 SLOAD SWAP1 PUSH2 0x100 EXP SWAP1 DIV PUSH1 0xFF AND ISZERO PUSH3 0x2B6 JUMPI PUSH1 0x40 MLOAD PUSH32 0x8C379A000000000000000000000000000000000000000000000000000000000 DUP2 MSTORE PUSH1 0x4 ADD PUSH3 0x2AD SWAP1 PUSH3 0x859 JUMP JUMPDEST PUSH1 0x40 MLOAD DUP1 SWAP2 SUB SWAP1 REVERT JUMPDEST PUSH1 0x1 PUSH1 0x0 PUSH1 0x14 PUSH2 0x100 EXP DUP2 SLOAD DUP2 PUSH1 0xFF MUL NOT AND SWAP1 DUP4 ISZERO ISZERO MUL OR SWAP1 SSTORE POP PUSH3 0x2E2 DUP2 PUSH3 0x425 PUSH1 0x20 SHL PUSH1 0x20 SHR JUMP JUMPDEST POP JUMP JUMPDEST PUSH4 0xFFFFFFFF PUSH1 0xE0 SHL DUP2 PUSH28 0xFFFFFFFFFFFFFFFFFFFFFFFFFFFFFFFFFFFFFFFFFFFFFFFFFFFFFFFF NOT AND EQ ISZERO PUSH3 0x351 JUMPI PUSH1 0x40 MLOAD PUSH32 0x8C379A000000000000000000000000000000000000000000000000000000000 DUP2 MSTORE PUSH1 0x4 ADD PUSH3 0x348 SWAP1 PUSH3 0x87B JUMP JUMPDEST PUSH1 0x40 MLOAD DUP1 SWAP2 SUB SWAP1 REVERT JUMPDEST PUSH1 0x1 DUP1 PUSH1 0x0 DUP4 PUSH28 0xFFFFFFFFFFFFFFFFFFFFFFFFFFFFFFFFFFFFFFFFFFFFFFFFFFFFFFFF NOT AND PUSH28 0xFFFFFFFFFFFFFFFFFFFFFFFFFFFFFFFFFFFFFFFFFFFFFFFFFFFFFFFF NOT AND DUP2 MSTORE PUSH1 0x20 ADD SWAP1 DUP2 MSTORE PUSH1 0x20 ADD PUSH1 0x0 KECCAK256 PUSH1 0x0 PUSH2 0x100 EXP DUP2 SLOAD DUP2 PUSH1 0xFF MUL NOT AND SWAP1 DUP4 ISZERO ISZERO MUL OR SWAP1 SSTORE POP POP JUMP JUMPDEST DUP1 PUSH1 0x2 PUSH1 0x0 DUP5 DUP2 MSTORE PUSH1 0x20 ADD SWAP1 DUP2 MSTORE PUSH1 0x20 ADD PUSH1 0x0 KECCAK256 SWAP1 DUP1 MLOAD SWAP1 PUSH1 0x20 ADD SWAP1 PUSH3 0x3E6 SWAP3 SWAP2 SWAP1 PUSH3 0x4E9 JUMP JUMPDEST POP DUP2 PUSH32 0xECE574603820D07BC9B91F2A932BAADF4628AABCB8AFBA49776529C14A6104B2 DUP3 PUSH1 0x40 MLOAD PUSH3 0x419 SWAP2 SWAP1 PUSH3 0x835 JUMP JUMPDEST PUSH1 0x40 MLOAD DUP1 SWAP2 SUB SWAP1 LOG2 POP POP JUMP JUMPDEST PUSH1 0x0 DUP1 PUSH1 0x0 SWAP1 SLOAD SWAP1 PUSH2 0x100 EXP SWAP1 DIV PUSH20 0xFFFFFFFFFFFFFFFFFFFFFFFFFFFFFFFFFFFFFFFF AND SWAP1 POP DUP2 PUSH1 0x0 DUP1 PUSH2 0x100 EXP DUP2 SLOAD DUP2 PUSH20 0xFFFFFFFFFFFFFFFFFFFFFFFFFFFFFFFFFFFFFFFF MUL NOT AND SWAP1 DUP4 PUSH20 0xFFFFFFFFFFFFFFFFFFFFFFFFFFFFFFFFFFFFFFFF AND MUL OR SWAP1 SSTORE POP DUP2 PUSH20 0xFFFFFFFFFFFFFFFFFFFFFFFFFFFFFFFFFFFFFFFF AND DUP2 PUSH20 0xFFFFFFFFFFFFFFFFFFFFFFFFFFFFFFFFFFFFFFFF AND PUSH32 0x8BE0079C531659141344CD1FD0A4F28419497F9722A3DAAFE3B4186F6B6457E0 PUSH1 0x40 MLOAD PUSH1 0x40 MLOAD DUP1 SWAP2 SUB SWAP1 LOG3 POP POP JUMP JUMPDEST DUP3 DUP1 SLOAD PUSH3 0x4F7 SWAP1 PUSH3 0x9E9 JUMP JUMPDEST SWAP1 PUSH1 0x0 MSTORE PUSH1 0x20 PUSH1 0x0 KECCAK256 SWAP1 PUSH1 0x1F ADD PUSH1 0x20 SWAP1 DIV DUP2 ADD SWAP3 DUP3 PUSH3 0x51B JUMPI PUSH1 0x0 DUP6 SSTORE PUSH3 0x567 JUMP JUMPDEST DUP3 PUSH1 0x1F LT PUSH3 0x536 JUMPI DUP1 MLOAD PUSH1 0xFF NOT AND DUP4 DUP1 ADD OR DUP6 SSTORE PUSH3 0x567 JUMP JUMPDEST DUP3 DUP1 ADD PUSH1 0x1 ADD DUP6 SSTORE DUP3 ISZERO PUSH3 0x567 JUMPI SWAP2 DUP3 ADD JUMPDEST DUP3 DUP2 GT ISZERO PUSH3 0x566 JUMPI DUP3 MLOAD DUP3 SSTORE SWAP2 PUSH1 0x20 ADD SWAP2 SWAP1 PUSH1 0x1 ADD SWAP1 PUSH3 0x549 JUMP JUMPDEST JUMPDEST POP SWAP1 POP PUSH3 0x576 SWAP2 SWAP1 PUSH3 0x57A JUMP JUMPDEST POP SWAP1 JUMP JUMPDEST JUMPDEST DUP1 DUP3 GT ISZERO PUSH3 0x595 JUMPI PUSH1 0x0 DUP2 PUSH1 0x0 SWAP1 SSTORE POP PUSH1 0x1 ADD PUSH3 0x57B JUMP JUMPDEST POP SWAP1 JUMP JUMPDEST PUSH1 0x0 PUSH3 0x5B0 PUSH3 0x5AA DUP5 PUSH3 0x8F3 JUMP JUMPDEST PUSH3 0x8BF JUMP JUMPDEST SWAP1 POP DUP3 DUP2 MSTORE PUSH1 0x20 DUP2 ADD DUP5 DUP5 DUP5 ADD GT ISZERO PUSH3 0x5C9 JUMPI PUSH1 0x0 DUP1 REVERT JUMPDEST PUSH3 0x5D6 DUP5 DUP3 DUP6 PUSH3 0x9B3 JUMP JUMPDEST POP SWAP4 SWAP3 POP POP POP JUMP JUMPDEST PUSH1 0x0 DUP2 MLOAD SWAP1 POP PUSH3 0x5EF DUP2 PUSH3 0xA98 JUMP JUMPDEST SWAP3 SWAP2 POP POP JUMP JUMPDEST PUSH1 0x0 DUP3 PUSH1 0x1F DUP4 ADD SLT PUSH3 0x607 JUMPI PUSH1 0x0 DUP1 REVERT JUMPDEST DUP2 MLOAD PUSH3 0x619 DUP5 DUP3 PUSH1 0x20 DUP7 ADD PUSH3 0x599 JUMP JUMPDEST SWAP2 POP POP SWAP3 SWAP2 POP POP JUMP JUMPDEST PUSH1 0x0 DUP1 PUSH1 0x0 PUSH1 0x60 DUP5 DUP7 SUB SLT ISZERO PUSH3 0x638 JUMPI PUSH1 0x0 DUP1 REVERT JUMPDEST PUSH1 0x0 DUP5 ADD MLOAD PUSH8 0xFFFFFFFFFFFFFFFF DUP2 GT ISZERO PUSH3 0x653 JUMPI PUSH1 0x0 DUP1 REVERT JUMPDEST PUSH3 0x661 DUP7 DUP3 DUP8 ADD PUSH3 0x5F5 JUMP JUMPDEST SWAP4 POP POP PUSH1 0x20 DUP5 ADD MLOAD PUSH8 0xFFFFFFFFFFFFFFFF DUP2 GT ISZERO PUSH3 0x67F JUMPI PUSH1 0x0 DUP1 REVERT JUMPDEST PUSH3 0x68D DUP7 DUP3 DUP8 ADD PUSH3 0x5F5 JUMP JUMPDEST SWAP3 POP POP PUSH1 0x40 PUSH3 0x6A0 DUP7 DUP3 DUP8 ADD PUSH3 0x5DE JUMP JUMPDEST SWAP2 POP POP SWAP3 POP SWAP3 POP SWAP3 JUMP JUMPDEST PUSH3 0x6BF PUSH3 0x6B9 DUP3 PUSH3 0x967 JUMP JUMPDEST PUSH3 0xA1F JUMP JUMPDEST DUP3 MSTORE POP POP JUMP JUMPDEST PUSH1 0x0 PUSH3 0x6D2 DUP3 PUSH3 0x926 JUMP JUMPDEST PUSH3 0x6DE DUP2 DUP6 PUSH3 0x931 JUMP JUMPDEST SWAP4 POP PUSH3 0x6F0 DUP2 DUP6 PUSH1 0x20 DUP7 ADD PUSH3 0x9B3 JUMP JUMPDEST PUSH3 0x6FB DUP2 PUSH3 0xA87 JUMP JUMPDEST DUP5 ADD SWAP2 POP POP SWAP3 SWAP2 POP POP JUMP JUMPDEST PUSH1 0x0 PUSH3 0x715 PUSH1 0x29 DUP4 PUSH3 0x942 JUMP JUMPDEST SWAP2 POP PUSH32 0x4F776E61626C653A206F776E65722063616E206F6E6C7920626520696E697469 PUSH1 0x0 DUP4 ADD MSTORE PUSH32 0x61746564206F6E63650000000000000000000000000000000000000000000000 PUSH1 0x20 DUP4 ADD MSTORE PUSH1 0x40 DUP3 ADD SWAP1 POP SWAP2 SWAP1 POP JUMP JUMPDEST PUSH1 0x0 PUSH3 0x77D PUSH1 0x1C DUP4 PUSH3 0x942 JUMP JUMPDEST SWAP2 POP PUSH32 0x4552433136353A20696E76616C696420696E7465726661636520696400000000 PUSH1 0x0 DUP4 ADD MSTORE PUSH1 0x20 DUP3 ADD SWAP1 POP SWAP2 SWAP1 POP JUMP JUMPDEST PUSH1 0x0 PUSH3 0x7BF PUSH1 0x28 DUP4 PUSH3 0x942 JUMP JUMPDEST SWAP2 POP PUSH32 0x4C535037436170706564537570706C793A20746F6B656E537570706C79436170 PUSH1 0x0 DUP4 ADD MSTORE PUSH32 0x206973207A65726F000000000000000000000000000000000000000000000000 PUSH1 0x20 DUP4 ADD MSTORE PUSH1 0x40 DUP3 ADD SWAP1 POP SWAP2 SWAP1 POP JUMP JUMPDEST PUSH1 0x0 PUSH3 0x826 DUP3 DUP5 PUSH3 0x6AA JUMP JUMPDEST PUSH1 0x4 DUP3 ADD SWAP2 POP DUP2 SWAP1 POP SWAP3 SWAP2 POP POP JUMP JUMPDEST PUSH1 0x0 PUSH1 0x20 DUP3 ADD SWAP1 POP DUP2 DUP2 SUB PUSH1 0x0 DUP4 ADD MSTORE PUSH3 0x851 DUP2 DUP5 PUSH3 0x6C5 JUMP JUMPDEST SWAP1 POP SWAP3 SWAP2 POP POP JUMP JUMPDEST PUSH1 0x0 PUSH1 0x20 DUP3 ADD SWAP1 POP DUP2 DUP2 SUB PUSH1 0x0 DUP4 ADD MSTORE PUSH3 0x874 DUP2 PUSH3 0x706 JUMP JUMPDEST SWAP1 POP SWAP2 SWAP1 POP JUMP JUMPDEST PUSH1 0x0 PUSH1 0x20 DUP3 ADD SWAP1 POP DUP2 DUP2 SUB PUSH1 0x0 DUP4 ADD MSTORE PUSH3 0x896 DUP2 PUSH3 0x76E JUMP JUMPDEST SWAP1 POP SWAP2 SWAP1 POP JUMP JUMPDEST PUSH1 0x0 PUSH1 0x20 DUP3 ADD SWAP1 POP DUP2 DUP2 SUB PUSH1 0x0 DUP4 ADD MSTORE PUSH3 0x8B8 DUP2 PUSH3 0x7B0 JUMP JUMPDEST SWAP1 POP SWAP2 SWAP1 POP JUMP JUMPDEST PUSH1 0x0 PUSH1 0x40 MLOAD SWAP1 POP DUP2 DUP2 ADD DUP2 DUP2 LT PUSH8 0xFFFFFFFFFFFFFFFF DUP3 GT OR ISZERO PUSH3 0x8E9 JUMPI PUSH3 0x8E8 PUSH3 0xA58 JUMP JUMPDEST JUMPDEST DUP1 PUSH1 0x40 MSTORE POP SWAP2 SWAP1 POP JUMP JUMPDEST PUSH1 0x0 PUSH8 0xFFFFFFFFFFFFFFFF DUP3 GT ISZERO PUSH3 0x911 JUMPI PUSH3 0x910 PUSH3 0xA58 JUMP JUMPDEST JUMPDEST PUSH1 0x1F NOT PUSH1 0x1F DUP4 ADD AND SWAP1 POP PUSH1 0x20 DUP2 ADD SWAP1 POP SWAP2 SWAP1 POP JUMP JUMPDEST PUSH1 0x0 DUP2 MLOAD SWAP1 POP SWAP2 SWAP1 POP JUMP JUMPDEST PUSH1 0x0 DUP3 DUP3 MSTORE PUSH1 0x20 DUP3 ADD SWAP1 POP SWAP3 SWAP2 POP POP JUMP JUMPDEST PUSH1 0x0 DUP3 DUP3 MSTORE PUSH1 0x20 DUP3 ADD SWAP1 POP SWAP3 SWAP2 POP POP JUMP JUMPDEST PUSH1 0x0 PUSH3 0x960 DUP3 PUSH3 0x993 JUMP JUMPDEST SWAP1 POP SWAP2 SWAP1 POP JUMP JUMPDEST PUSH1 0x0 PUSH32 0xFFFFFFFF00000000000000000000000000000000000000000000000000000000 DUP3 AND SWAP1 POP SWAP2 SWAP1 POP JUMP JUMPDEST PUSH1 0x0 PUSH20 0xFFFFFFFFFFFFFFFFFFFFFFFFFFFFFFFFFFFFFFFF DUP3 AND SWAP1 POP SWAP2 SWAP1 POP JUMP JUMPDEST PUSH1 0x0 JUMPDEST DUP4 DUP2 LT ISZERO PUSH3 0x9D3 JUMPI DUP1 DUP3 ADD MLOAD DUP2 DUP5 ADD MSTORE PUSH1 0x20 DUP2 ADD SWAP1 POP PUSH3 0x9B6 JUMP JUMPDEST DUP4 DUP2 GT ISZERO PUSH3 0x9E3 JUMPI PUSH1 0x0 DUP5 DUP5 ADD MSTORE JUMPDEST POP POP POP POP JUMP JUMPDEST PUSH1 0x0 PUSH1 0x2 DUP3 DIV SWAP1 POP PUSH1 0x1 DUP3 AND DUP1 PUSH3 0xA02 JUMPI PUSH1 0x7F DUP3 AND SWAP2 POP JUMPDEST PUSH1 0x20 DUP3 LT DUP2 EQ ISZERO PUSH3 0xA19 JUMPI PUSH3 0xA18 PUSH3 0xA29 JUMP JUMPDEST JUMPDEST POP SWAP2 SWAP1 POP JUMP JUMPDEST PUSH1 0x0 DUP2 SWAP1 POP SWAP2 SWAP1 POP JUMP JUMPDEST PUSH32 0x4E487B7100000000000000000000000000000000000000000000000000000000 PUSH1 0x0 MSTORE PUSH1 0x22 PUSH1 0x4 MSTORE PUSH1 0x24 PUSH1 0x0 REVERT JUMPDEST PUSH32 0x4E487B7100000000000000000000000000000000000000000000000000000000 PUSH1 0x0 MSTORE PUSH1 0x41 PUSH1 0x4 MSTORE PUSH1 0x24 PUSH1 0x0 REVERT JUMPDEST PUSH1 0x0 PUSH1 0x1F NOT PUSH1 0x1F DUP4 ADD AND SWAP1 POP SWAP2 SWAP1 POP JUMP JUMPDEST PUSH3 0xAA3 DUP2 PUSH3 0x953 JUMP JUMPDEST DUP2 EQ PUSH3 0xAAF JUMPI PUSH1 0x0 DUP1 REVERT JUMPDEST POP JUMP JUMPDEST PUSH2 0x3DA3 DUP1 PUSH3 0xAC2 PUSH1 0x0 CODECOPY PUSH1 0x0 RETURN INVALID PUSH1 0x80 PUSH1 0x40 MSTORE CALLVALUE DUP1 ISZERO PUSH2 0x10 JUMPI PUSH1 0x0 DUP1 REVERT JUMPDEST POP PUSH1 0x4 CALLDATASIZE LT PUSH2 0x142 JUMPI PUSH1 0x0 CALLDATALOAD PUSH1 0xE0 SHR DUP1 PUSH4 0x760D9BBA GT PUSH2 0xB8 JUMPI DUP1 PUSH4 0xD2706C19 GT PUSH2 0x7C JUMPI DUP1 PUSH4 0xD2706C19 EQ PUSH2 0x33D JUMPI DUP1 PUSH4 0xD95B6371 EQ PUSH2 0x359 JUMPI DUP1 PUSH4 0xE9893C67 EQ PUSH2 0x389 JUMPI DUP1 PUSH4 0xF2FDE38B EQ PUSH2 0x3A7 JUMPI DUP1 PUSH4 0xFAD8B32A EQ PUSH2 0x3C3 JUMPI DUP1 PUSH4 0xFBDD25E4 EQ PUSH2 0x3DF JUMPI PUSH2 0x142 JUMP JUMPDEST DUP1 PUSH4 0x760D9BBA EQ PUSH2 0x2AD JUMPI DUP1 PUSH4 0x8DA5CB5B EQ PUSH2 0x2C9 JUMPI DUP1 PUSH4 0x95D89B41 EQ PUSH2 0x2E7 JUMPI DUP1 PUSH4 0xA8A34E0A EQ PUSH2 0x305 JUMPI DUP1 PUSH4 0xBE399BE5 EQ PUSH2 0x321 JUMPI PUSH2 0x142 JUMP JUMPDEST DUP1 PUSH4 0x313CE567 GT PUSH2 0x10A JUMPI DUP1 PUSH4 0x313CE567 EQ PUSH2 0x1EB JUMPI DUP1 PUSH4 0x47980AA3 EQ PUSH2 0x209 JUMPI DUP1 PUSH4 0x4E3E6E9C EQ PUSH2 0x225 JUMPI DUP1 PUSH4 0x52058D8A EQ PUSH2 0x255 JUMPI DUP1 PUSH4 0x70A08231 EQ PUSH2 0x273 JUMPI DUP1 PUSH4 0x715018A6 EQ PUSH2 0x2A3 JUMPI PUSH2 0x142 JUMP JUMPDEST DUP1 PUSH4 0x1FFC9A7 EQ PUSH2 0x147 JUMPI DUP1 PUSH4 0x6FDDE03 EQ PUSH2 0x177 JUMPI DUP1 PUSH4 0x14A6E293 EQ PUSH2 0x195 JUMPI DUP1 PUSH4 0x18160DDD EQ PUSH2 0x1B1 JUMPI DUP1 PUSH4 0x1E9A6950 EQ PUSH2 0x1CF JUMPI JUMPDEST PUSH1 0x0 DUP1 REVERT JUMPDEST PUSH2 0x161 PUSH1 0x4 DUP1 CALLDATASIZE SUB DUP2 ADD SWAP1 PUSH2 0x15C SWAP2 SWAP1 PUSH2 0x2A20 JUMP JUMPDEST PUSH2 0x3FB JUMP JUMPDEST PUSH1 0x40 MLOAD PUSH2 0x16E SWAP2 SWAP1 PUSH2 0x353B JUMP JUMPDEST PUSH1 0x40 MLOAD DUP1 SWAP2 SUB SWAP1 RETURN JUMPDEST PUSH2 0x17F PUSH2 0x473 JUMP JUMPDEST PUSH1 0x40 MLOAD PUSH2 0x18C SWAP2 SWAP1 PUSH2 0x35C3 JUMP JUMPDEST PUSH1 0x40 MLOAD DUP1 SWAP2 SUB SWAP1 RETURN JUMPDEST PUSH2 0x1AF PUSH1 0x4 DUP1 CALLDATASIZE SUB DUP2 ADD SWAP1 PUSH2 0x1AA SWAP2 SWAP1 PUSH2 0x298B JUMP JUMPDEST PUSH2 0x4A6 JUMP JUMPDEST STOP JUMPDEST PUSH2 0x1B9 PUSH2 0x614 JUMP JUMPDEST PUSH1 0x40 MLOAD PUSH2 0x1C6 SWAP2 SWAP1 PUSH2 0x3865 JUMP JUMPDEST PUSH1 0x40 MLOAD DUP1 SWAP2 SUB SWAP1 RETURN JUMPDEST PUSH2 0x1E9 PUSH1 0x4 DUP1 CALLDATASIZE SUB DUP2 ADD SWAP1 PUSH2 0x1E4 SWAP2 SWAP1 PUSH2 0x2837 JUMP JUMPDEST PUSH2 0x61E JUMP JUMPDEST STOP JUMPDEST PUSH2 0x1F3 PUSH2 0x69B JUMP JUMPDEST PUSH1 0x40 MLOAD PUSH2 0x200 SWAP2 SWAP1 PUSH2 0x3865 JUMP JUMPDEST PUSH1 0x40 MLOAD DUP1 SWAP2 SUB SWAP1 RETURN JUMPDEST PUSH2 0x223 PUSH1 0x4 DUP1 CALLDATASIZE SUB DUP2 ADD SWAP1 PUSH2 0x21E SWAP2 SWAP1 PUSH2 0x2837 JUMP JUMPDEST PUSH2 0x6C3 JUMP JUMPDEST STOP JUMPDEST PUSH2 0x23F PUSH1 0x4 DUP1 CALLDATASIZE SUB DUP2 ADD SWAP1 PUSH2 0x23A SWAP2 SWAP1 PUSH2 0x294A JUMP JUMPDEST PUSH2 0x6D9 JUMP JUMPDEST PUSH1 0x40 MLOAD PUSH2 0x24C SWAP2 SWAP1 PUSH2 0x3519 JUMP JUMPDEST PUSH1 0x40 MLOAD DUP1 SWAP2 SUB SWAP1 RETURN JUMPDEST PUSH2 0x25D PUSH2 0x804 JUMP JUMPDEST PUSH1 0x40 MLOAD PUSH2 0x26A SWAP2 SWAP1 PUSH2 0x3865 JUMP JUMPDEST PUSH1 0x40 MLOAD DUP1 SWAP2 SUB SWAP1 RETURN JUMPDEST PUSH2 0x28D PUSH1 0x4 DUP1 CALLDATASIZE SUB DUP2 ADD SWAP1 PUSH2 0x288 SWAP2 SWAP1 PUSH2 0x2743 JUMP JUMPDEST PUSH2 0x80E JUMP JUMPDEST PUSH1 0x40 MLOAD PUSH2 0x29A SWAP2 SWAP1 PUSH2 0x3865 JUMP JUMPDEST PUSH1 0x40 MLOAD DUP1 SWAP2 SUB SWAP1 RETURN JUMPDEST PUSH2 0x2AB PUSH2 0x857 JUMP JUMPDEST STOP JUMPDEST PUSH2 0x2C7 PUSH1 0x4 DUP1 CALLDATASIZE SUB DUP2 ADD SWAP1 PUSH2 0x2C2 SWAP2 SWAP1 PUSH2 0x27A8 JUMP JUMPDEST PUSH2 0x8DF JUMP JUMPDEST STOP JUMPDEST PUSH2 0x2D1 PUSH2 0xA8B JUMP JUMPDEST PUSH1 0x40 MLOAD PUSH2 0x2DE SWAP2 SWAP1 PUSH2 0x349E JUMP JUMPDEST PUSH1 0x40 MLOAD DUP1 SWAP2 SUB SWAP1 RETURN JUMPDEST PUSH2 0x2EF PUSH2 0xAB4 JUMP JUMPDEST PUSH1 0x40 MLOAD PUSH2 0x2FC SWAP2 SWAP1 PUSH2 0x35C3 JUMP JUMPDEST PUSH1 0x40 MLOAD DUP1 SWAP2 SUB SWAP1 RETURN JUMPDEST PUSH2 0x31F PUSH1 0x4 DUP1 CALLDATASIZE SUB DUP2 ADD SWAP1 PUSH2 0x31A SWAP2 SWAP1 PUSH2 0x2873 JUMP JUMPDEST PUSH2 0xAE7 JUMP JUMPDEST STOP JUMPDEST PUSH2 0x33B PUSH1 0x4 DUP1 CALLDATASIZE SUB DUP2 ADD SWAP1 PUSH2 0x336 SWAP2 SWAP1 PUSH2 0x2743 JUMP JUMPDEST PUSH2 0xC79 JUMP JUMPDEST STOP JUMPDEST PUSH2 0x357 PUSH1 0x4 DUP1 CALLDATASIZE SUB DUP2 ADD SWAP1 PUSH2 0x352 SWAP2 SWAP1 PUSH2 0x2A8A JUMP JUMPDEST PUSH2 0xC8E JUMP JUMPDEST STOP JUMPDEST PUSH2 0x373 PUSH1 0x4 DUP1 CALLDATASIZE SUB DUP2 ADD SWAP1 PUSH2 0x36E SWAP2 SWAP1 PUSH2 0x276C JUMP JUMPDEST PUSH2 0xD0D JUMP JUMPDEST PUSH1 0x40 MLOAD PUSH2 0x380 SWAP2 SWAP1 PUSH2 0x3865 JUMP JUMPDEST PUSH1 0x40 MLOAD DUP1 SWAP2 SUB SWAP1 RETURN JUMPDEST PUSH2 0x391 PUSH2 0xE10 JUMP JUMPDEST PUSH1 0x40 MLOAD PUSH2 0x39E SWAP2 SWAP1 PUSH2 0x3865 JUMP JUMPDEST PUSH1 0x40 MLOAD DUP1 SWAP2 SUB SWAP1 RETURN JUMPDEST PUSH2 0x3C1 PUSH1 0x4 DUP1 CALLDATASIZE SUB DUP2 ADD SWAP1 PUSH2 0x3BC SWAP2 SWAP1 PUSH2 0x2743 JUMP JUMPDEST PUSH2 0xE16 JUMP JUMPDEST STOP JUMPDEST PUSH2 0x3DD PUSH1 0x4 DUP1 CALLDATASIZE SUB DUP2 ADD SWAP1 PUSH2 0x3D8 SWAP2 SWAP1 PUSH2 0x2743 JUMP JUMPDEST PUSH2 0xF0E JUMP JUMPDEST STOP JUMPDEST PUSH2 0x3F9 PUSH1 0x4 DUP1 CALLDATASIZE SUB DUP2 ADD SWAP1 PUSH2 0x3F4 SWAP2 SWAP1 PUSH2 0x2743 JUMP JUMPDEST PUSH2 0xF24 JUMP JUMPDEST STOP JUMPDEST PUSH1 0x0 PUSH2 0x406 DUP3 PUSH2 0x10E6 JUMP JUMPDEST DUP1 PUSH2 0x46C JUMPI POP PUSH1 0x1 PUSH1 0x0 DUP4 PUSH28 0xFFFFFFFFFFFFFFFFFFFFFFFFFFFFFFFFFFFFFFFFFFFFFFFFFFFFFFFF NOT AND PUSH28 0xFFFFFFFFFFFFFFFFFFFFFFFFFFFFFFFFFFFFFFFFFFFFFFFFFFFFFFFF NOT AND DUP2 MSTORE PUSH1 0x20 ADD SWAP1 DUP2 MSTORE PUSH1 0x20 ADD PUSH1 0x0 KECCAK256 PUSH1 0x0 SWAP1 SLOAD SWAP1 PUSH2 0x100 EXP SWAP1 DIV PUSH1 0xFF AND JUMPDEST SWAP1 POP SWAP2 SWAP1 POP JUMP JUMPDEST PUSH1 0x60 PUSH2 0x4A1 PUSH32 0xDEBA1E292F8BA88238E10AB3C7F88BD4BE4FAC56CAD5194B6ECCEAF653468AF1 PUSH1 0x0 SHL PUSH2 0x1150 JUMP JUMPDEST SWAP1 POP SWAP1 JUMP JUMPDEST PUSH2 0x4AE PUSH2 0x11F5 JUMP JUMPDEST PUSH20 0xFFFFFFFFFFFFFFFFFFFFFFFFFFFFFFFFFFFFFFFF AND PUSH2 0x4CC PUSH2 0xA8B JUMP JUMPDEST PUSH20 0xFFFFFFFFFFFFFFFFFFFFFFFFFFFFFFFFFFFFFFFF AND EQ PUSH2 0x522 JUMPI PUSH1 0x40 MLOAD PUSH32 0x8C379A000000000000000000000000000000000000000000000000000000000 DUP2 MSTORE PUSH1 0x4 ADD PUSH2 0x519 SWAP1 PUSH2 0x3785 JUMP JUMPDEST PUSH1 0x40 MLOAD DUP1 SWAP2 SUB SWAP1 REVERT JUMPDEST DUP1 MLOAD DUP3 MLOAD EQ PUSH2 0x566 JUMPI PUSH1 0x40 MLOAD PUSH32 0x8C379A000000000000000000000000000000000000000000000000000000000 DUP2 MSTORE PUSH1 0x4 ADD PUSH2 0x55D SWAP1 PUSH2 0x3825 JUMP JUMPDEST PUSH1 0x40 MLOAD DUP1 SWAP2 SUB SWAP1 REVERT JUMPDEST PUSH1 0x0 JUMPDEST DUP3 MLOAD DUP2 LT ISZERO PUSH2 0x60F JUMPI PUSH2 0x5FC DUP4 DUP3 DUP2 MLOAD DUP2 LT PUSH2 0x5AE JUMPI PUSH32 0x4E487B7100000000000000000000000000000000000000000000000000000000 PUSH1 0x0 MSTORE PUSH1 0x32 PUSH1 0x4 MSTORE PUSH1 0x24 PUSH1 0x0 REVERT JUMPDEST PUSH1 0x20 MUL PUSH1 0x20 ADD ADD MLOAD DUP4 DUP4 DUP2 MLOAD DUP2 LT PUSH2 0x5EF JUMPI PUSH32 0x4E487B7100000000000000000000000000000000000000000000000000000000 PUSH1 0x0 MSTORE PUSH1 0x32 PUSH1 0x4 MSTORE PUSH1 0x24 PUSH1 0x0 REVERT JUMPDEST PUSH1 0x20 MUL PUSH1 0x20 ADD ADD MLOAD PUSH2 0x11FD JUMP JUMPDEST DUP1 DUP1 PUSH2 0x607 SWAP1 PUSH2 0x3BD8 JUMP JUMPDEST SWAP2 POP POP PUSH2 0x569 JUMP JUMPDEST POP POP POP JUMP JUMPDEST PUSH1 0x0 PUSH1 0x4 SLOAD SWAP1 POP SWAP1 JUMP JUMPDEST PUSH2 0x65E DUP3 DUP3 PUSH1 0x40 MLOAD DUP1 PUSH1 0x40 ADD PUSH1 0x40 MSTORE DUP1 PUSH1 0x6 DUP2 MSTORE PUSH1 0x20 ADD PUSH32 0x72656465656D0000000000000000000000000000000000000000000000000000 DUP2 MSTORE POP PUSH2 0x1261 JUMP JUMPDEST PUSH32 0x4896181FF8F4543CC00DB9FE9B6FB7E6F032B7EB772C72AB1EC1B4D2E03B9369 DUP3 DUP3 PUSH1 0x40 MLOAD PUSH2 0x68F SWAP3 SWAP2 SWAP1 PUSH2 0x34F0 JUMP JUMPDEST PUSH1 0x40 MLOAD DUP1 SWAP2 SUB SWAP1 LOG1 POP POP JUMP JUMPDEST PUSH1 0x0 PUSH1 0x3 PUSH1 0x0 SWAP1 SLOAD SWAP1 PUSH2 0x100 EXP SWAP1 DIV PUSH1 0xFF AND PUSH2 0x6B8 JUMPI PUSH1 0x12 PUSH2 0x6BB JUMP JUMPDEST PUSH1 0x0 JUMPDEST PUSH1 0xFF AND SWAP1 POP SWAP1 JUMP JUMPDEST PUSH2 0x6D5 PUSH2 0x6CE PUSH2 0x11F5 JUMP JUMPDEST DUP4 DUP4 PUSH2 0x15DC JUMP JUMPDEST POP POP JUMP JUMPDEST PUSH1 0x60 DUP2 MLOAD PUSH8 0xFFFFFFFFFFFFFFFF DUP2 GT ISZERO PUSH2 0x71C JUMPI PUSH32 0x4E487B7100000000000000000000000000000000000000000000000000000000 PUSH1 0x0 MSTORE PUSH1 0x41 PUSH1 0x4 MSTORE PUSH1 0x24 PUSH1 0x0 REVERT JUMPDEST PUSH1 0x40 MLOAD SWAP1 DUP1 DUP3 MSTORE DUP1 PUSH1 0x20 MUL PUSH1 0x20 ADD DUP3 ADD PUSH1 0x40 MSTORE DUP1 ISZERO PUSH2 0x74F JUMPI DUP2 PUSH1 0x20 ADD JUMPDEST PUSH1 0x60 DUP2 MSTORE PUSH1 0x20 ADD SWAP1 PUSH1 0x1 SWAP1 SUB SWAP1 DUP2 PUSH2 0x73A JUMPI SWAP1 POP JUMPDEST POP SWAP1 POP PUSH1 0x0 JUMPDEST DUP3 MLOAD DUP2 LT ISZERO PUSH2 0x7FE JUMPI PUSH2 0x7A7 DUP4 DUP3 DUP2 MLOAD DUP2 LT PUSH2 0x79A JUMPI PUSH32 0x4E487B7100000000000000000000000000000000000000000000000000000000 PUSH1 0x0 MSTORE PUSH1 0x32 PUSH1 0x4 MSTORE PUSH1 0x24 PUSH1 0x0 REVERT JUMPDEST PUSH1 0x20 MUL PUSH1 0x20 ADD ADD MLOAD PUSH2 0x1150 JUMP JUMPDEST DUP3 DUP3 DUP2 MLOAD DUP2 LT PUSH2 0x7E0 JUMPI PUSH32 0x4E487B7100000000000000000000000000000000000000000000000000000000 PUSH1 0x0 MSTORE PUSH1 0x32 PUSH1 0x4 MSTORE PUSH1 0x24 PUSH1 0x0 REVERT JUMPDEST PUSH1 0x20 MUL PUSH1 0x20 ADD ADD DUP2 SWAP1 MSTORE POP DUP1 DUP1 PUSH2 0x7F6 SWAP1 PUSH2 0x3BD8 JUMP JUMPDEST SWAP2 POP POP PUSH2 0x755 JUMP JUMPDEST POP SWAP2 SWAP1 POP JUMP JUMPDEST PUSH1 0x0 PUSH1 0x7 SLOAD SWAP1 POP SWAP1 JUMP JUMPDEST PUSH1 0x0 PUSH1 0x5 PUSH1 0x0 DUP4 PUSH20 0xFFFFFFFFFFFFFFFFFFFFFFFFFFFFFFFFFFFFFFFF AND PUSH20 0xFFFFFFFFFFFFFFFFFFFFFFFFFFFFFFFFFFFFFFFF AND DUP2 MSTORE PUSH1 0x20 ADD SWAP1 DUP2 MSTORE PUSH1 0x20 ADD PUSH1 0x0 KECCAK256 SLOAD SWAP1 POP SWAP2 SWAP1 POP JUMP JUMPDEST PUSH2 0x85F PUSH2 0x11F5 JUMP JUMPDEST PUSH20 0xFFFFFFFFFFFFFFFFFFFFFFFFFFFFFFFFFFFFFFFF AND PUSH2 0x87D PUSH2 0xA8B JUMP JUMPDEST PUSH20 0xFFFFFFFFFFFFFFFFFFFFFFFFFFFFFFFFFFFFFFFF AND EQ PUSH2 0x8D3 JUMPI PUSH1 0x40 MLOAD PUSH32 0x8C379A000000000000000000000000000000000000000000000000000000000 DUP2 MSTORE PUSH1 0x4 ADD PUSH2 0x8CA SWAP1 PUSH2 0x3785 JUMP JUMPDEST PUSH1 0x40 MLOAD DUP1 SWAP2 SUB SWAP1 REVERT JUMPDEST PUSH2 0x8DD PUSH1 0x0 PUSH2 0x1875 JUMP JUMPDEST JUMP JUMPDEST PUSH1 0x0 PUSH2 0x8E9 PUSH2 0x11F5 JUMP JUMPDEST SWAP1 POP DUP6 PUSH20 0xFFFFFFFFFFFFFFFFFFFFFFFFFFFFFFFFFFFFFFFF AND DUP2 PUSH20 0xFFFFFFFFFFFFFFFFFFFFFFFFFFFFFFFFFFFFFFFF AND EQ PUSH2 0xA76 JUMPI PUSH1 0x0 PUSH1 0x6 PUSH1 0x0 DUP9 PUSH20 0xFFFFFFFFFFFFFFFFFFFFFFFFFFFFFFFFFFFFFFFF AND PUSH20 0xFFFFFFFFFFFFFFFFFFFFFFFFFFFFFFFFFFFFFFFF AND DUP2 MSTORE PUSH1 0x20 ADD SWAP1 DUP2 MSTORE PUSH1 0x20 ADD PUSH1 0x0 KECCAK256 PUSH1 0x0 DUP4 PUSH20 0xFFFFFFFFFFFFFFFFFFFFFFFFFFFFFFFFFFFFFFFF AND PUSH20 0xFFFFFFFFFFFFFFFFFFFFFFFFFFFFFFFFFFFFFFFF AND DUP2 MSTORE PUSH1 0x20 ADD SWAP1 DUP2 MSTORE PUSH1 0x20 ADD PUSH1 0x0 KECCAK256 SLOAD SWAP1 POP DUP5 DUP2 LT ISZERO PUSH2 0x9E2 JUMPI PUSH1 0x40 MLOAD PUSH32 0x8C379A000000000000000000000000000000000000000000000000000000000 DUP2 MSTORE PUSH1 0x4 ADD PUSH2 0x9D9 SWAP1 PUSH2 0x3625 JUMP JUMPDEST PUSH1 0x40 MLOAD DUP1 SWAP2 SUB SWAP1 REVERT JUMPDEST PUSH2 0xA74 DUP8 DUP4 DUP8 PUSH1 0x6 PUSH1 0x0 DUP13 PUSH20 0xFFFFFFFFFFFFFFFFFFFFFFFFFFFFFFFFFFFFFFFF AND PUSH20 0xFFFFFFFFFFFFFFFFFFFFFFFFFFFFFFFFFFFFFFFF AND DUP2 MSTORE PUSH1 0x20 ADD SWAP1 DUP2 MSTORE PUSH1 0x20 ADD PUSH1 0x0 KECCAK256 PUSH1 0x0 DUP8 PUSH20 0xFFFFFFFFFFFFFFFFFFFFFFFFFFFFFFFFFFFFFFFF AND PUSH20 0xFFFFFFFFFFFFFFFFFFFFFFFFFFFFFFFFFFFFFFFF AND DUP2 MSTORE PUSH1 0x20 ADD SWAP1 DUP2 MSTORE PUSH1 0x20 ADD PUSH1 0x0 KECCAK256 SLOAD PUSH2 0xA6F SWAP2 SWAP1 PUSH2 0x3AB2 JUMP JUMPDEST PUSH2 0x15DC JUMP JUMPDEST POP JUMPDEST PUSH2 0xA83 DUP7 DUP7 DUP7 DUP7 DUP7 PUSH2 0x1939 JUMP JUMPDEST POP POP POP POP POP POP JUMP JUMPDEST PUSH1 0x0 DUP1 PUSH1 0x0 SWAP1 SLOAD SWAP1 PUSH2 0x100 EXP SWAP1 DIV PUSH20 0xFFFFFFFFFFFFFFFFFFFFFFFFFFFFFFFFFFFFFFFF AND SWAP1 POP SWAP1 JUMP JUMPDEST PUSH1 0x60 PUSH2 0xAE2 PUSH32 0x2F0A68AB07768E01943A599E73362A0E17A63A72E94DD2E384D2C1D4DB932756 PUSH1 0x0 SHL PUSH2 0x1150 JUMP JUMPDEST SWAP1 POP SWAP1 JUMP JUMPDEST DUP4 MLOAD DUP6 MLOAD EQ DUP1 ISZERO PUSH2 0xAF9 JUMPI POP DUP3 MLOAD DUP6 MLOAD EQ JUMPDEST DUP1 ISZERO PUSH2 0xB06 JUMPI POP DUP1 MLOAD DUP6 MLOAD EQ JUMPDEST PUSH2 0xB45 JUMPI PUSH1 0x40 MLOAD PUSH32 0x8C379A000000000000000000000000000000000000000000000000000000000 DUP2 MSTORE PUSH1 0x4 ADD PUSH2 0xB3C SWAP1 PUSH2 0x3645 JUMP JUMPDEST PUSH1 0x40 MLOAD DUP1 SWAP2 SUB SWAP1 REVERT JUMPDEST PUSH1 0x0 JUMPDEST DUP6 MLOAD DUP2 LT ISZERO PUSH2 0xC71 JUMPI PUSH2 0xC5E DUP7 DUP3 DUP2 MLOAD DUP2 LT PUSH2 0xB8D JUMPI PUSH32 0x4E487B7100000000000000000000000000000000000000000000000000000000 PUSH1 0x0 MSTORE PUSH1 0x32 PUSH1 0x4 MSTORE PUSH1 0x24 PUSH1 0x0 REVERT JUMPDEST PUSH1 0x20 MUL PUSH1 0x20 ADD ADD MLOAD DUP7 DUP4 DUP2 MLOAD DUP2 LT PUSH2 0xBCE JUMPI PUSH32 0x4E487B7100000000000000000000000000000000000000000000000000000000 PUSH1 0x0 MSTORE PUSH1 0x32 PUSH1 0x4 MSTORE PUSH1 0x24 PUSH1 0x0 REVERT JUMPDEST PUSH1 0x20 MUL PUSH1 0x20 ADD ADD MLOAD DUP7 DUP5 DUP2 MLOAD DUP2 LT PUSH2 0xC0F JUMPI PUSH32 0x4E487B7100000000000000000000000000000000000000000000000000000000 PUSH1 0x0 MSTORE PUSH1 0x32 PUSH1 0x4 MSTORE PUSH1 0x24 PUSH1 0x0 REVERT JUMPDEST PUSH1 0x20 MUL PUSH1 0x20 ADD ADD MLOAD DUP7 DUP7 DUP7 DUP2 MLOAD DUP2 LT PUSH2 0xC51 JUMPI PUSH32 0x4E487B7100000000000000000000000000000000000000000000000000000000 PUSH1 0x0 MSTORE PUSH1 0x32 PUSH1 0x4 MSTORE PUSH1 0x24 PUSH1 0x0 REVERT JUMPDEST PUSH1 0x20 MUL PUSH1 0x20 ADD ADD MLOAD PUSH2 0x8DF JUMP JUMPDEST DUP1 DUP1 PUSH2 0xC69 SWAP1 PUSH2 0x3BD8 JUMP JUMPDEST SWAP2 POP POP PUSH2 0xB48 JUMP JUMPDEST POP POP POP POP POP POP JUMP JUMPDEST PUSH2 0xC8B DUP2 PUSH2 0xC86 DUP4 PUSH2 0x80E JUMP JUMPDEST PUSH2 0x61E JUMP JUMPDEST POP JUMP JUMPDEST CALLER PUSH20 0xFFFFFFFFFFFFFFFFFFFFFFFFFFFFFFFFFFFFFFFF AND PUSH2 0xCAD PUSH2 0xA8B JUMP JUMPDEST PUSH20 0xFFFFFFFFFFFFFFFFFFFFFFFFFFFFFFFFFFFFFFFF AND EQ PUSH2 0xD03 JUMPI PUSH1 0x40 MLOAD PUSH32 0x8C379A000000000000000000000000000000000000000000000000000000000 DUP2 MSTORE PUSH1 0x4 ADD PUSH2 0xCFA SWAP1 PUSH2 0x3745 JUMP JUMPDEST PUSH1 0x40 MLOAD DUP1 SWAP2 SUB SWAP1 REVERT JUMPDEST DUP1 PUSH1 0x8 DUP2 SWAP1 SSTORE POP POP JUMP JUMPDEST PUSH1 0x0 DUP3 PUSH20 0xFFFFFFFFFFFFFFFFFFFFFFFFFFFFFFFFFFFFFFFF AND DUP3 PUSH20 0xFFFFFFFFFFFFFFFFFFFFFFFFFFFFFFFFFFFFFFFF AND EQ ISZERO PUSH2 0xD8A JUMPI PUSH1 0x5 PUSH1 0x0 DUP4 PUSH20 0xFFFFFFFFFFFFFFFFFFFFFFFFFFFFFFFFFFFFFFFF AND PUSH20 0xFFFFFFFFFFFFFFFFFFFFFFFFFFFFFFFFFFFFFFFF AND DUP2 MSTORE PUSH1 0x20 ADD SWAP1 DUP2 MSTORE PUSH1 0x20 ADD PUSH1 0x0 KECCAK256 SLOAD SWAP1 POP PUSH2 0xE0A JUMP JUMPDEST PUSH1 0x6 PUSH1 0x0 DUP4 PUSH20 0xFFFFFFFFFFFFFFFFFFFFFFFFFFFFFFFFFFFFFFFF AND PUSH20 0xFFFFFFFFFFFFFFFFFFFFFFFFFFFFFFFFFFFFFFFF AND DUP2 MSTORE PUSH1 0x20 ADD SWAP1 DUP2 MSTORE PUSH1 0x20 ADD PUSH1 0x0 KECCAK256 PUSH1 0x0 DUP5 PUSH20 0xFFFFFFFFFFFFFFFFFFFFFFFFFFFFFFFFFFFFFFFF AND PUSH20 0xFFFFFFFFFFFFFFFFFFFFFFFFFFFFFFFFFFFFFFFF AND DUP2 MSTORE PUSH1 0x20 ADD SWAP1 DUP2 MSTORE PUSH1 0x20 ADD PUSH1 0x0 KECCAK256 SLOAD SWAP1 POP JUMPDEST SWAP3 SWAP2 POP POP JUMP JUMPDEST PUSH1 0x8 SLOAD DUP2 JUMP JUMPDEST PUSH2 0xE1E PUSH2 0x11F5 JUMP JUMPDEST PUSH20 0xFFFFFFFFFFFFFFFFFFFFFFFFFFFFFFFFFFFFFFFF AND PUSH2 0xE3C PUSH2 0xA8B JUMP JUMPDEST PUSH20 0xFFFFFFFFFFFFFFFFFFFFFFFFFFFFFFFFFFFFFFFF AND EQ PUSH2 0xE92 JUMPI PUSH1 0x40 MLOAD PUSH32 0x8C379A000000000000000000000000000000000000000000000000000000000 DUP2 MSTORE PUSH1 0x4 ADD PUSH2 0xE89 SWAP1 PUSH2 0x3785 JUMP JUMPDEST PUSH1 0x40 MLOAD DUP1 SWAP2 SUB SWAP1 REVERT JUMPDEST PUSH1 0x0 PUSH20 0xFFFFFFFFFFFFFFFFFFFFFFFFFFFFFFFFFFFFFFFF AND DUP2 PUSH20 0xFFFFFFFFFFFFFFFFFFFFFFFFFFFFFFFFFFFFFFFF AND EQ ISZERO PUSH2 0xF02 JUMPI PUSH1 0x40 MLOAD PUSH32 0x8C379A000000000000000000000000000000000000000000000000000000000 DUP2 MSTORE PUSH1 0x4 ADD PUSH2 0xEF9 SWAP1 PUSH2 0x3685 JUMP JUMPDEST PUSH1 0x40 MLOAD DUP1 SWAP2 SUB SWAP1 REVERT JUMPDEST PUSH2 0xF0B DUP2 PUSH2 0x1875 JUMP JUMPDEST POP JUMP JUMPDEST PUSH2 0xF21 PUSH2 0xF19 PUSH2 0x11F5 JUMP JUMPDEST DUP3 PUSH1 0x0 PUSH2 0x15DC JUMP JUMPDEST POP JUMP JUMPDEST CALLER PUSH20 0xFFFFFFFFFFFFFFFFFFFFFFFFFFFFFFFFFFFFFFFF AND PUSH2 0xF43 PUSH2 0xA8B JUMP JUMPDEST PUSH20 0xFFFFFFFFFFFFFFFFFFFFFFFFFFFFFFFFFFFFFFFF AND EQ PUSH2 0xF99 JUMPI PUSH1 0x40 MLOAD PUSH32 0x8C379A000000000000000000000000000000000000000000000000000000000 DUP2 MSTORE PUSH1 0x4 ADD PUSH2 0xF90 SWAP1 PUSH2 0x3745 JUMP JUMPDEST PUSH1 0x40 MLOAD DUP1 SWAP2 SUB SWAP1 REVERT JUMPDEST PUSH2 0xFE4 PUSH2 0xFA4 PUSH2 0xA8B JUMP JUMPDEST PUSH1 0x8 SLOAD PUSH1 0x1 PUSH1 0x40 MLOAD DUP1 PUSH1 0x40 ADD PUSH1 0x40 MSTORE DUP1 PUSH1 0x5 DUP2 MSTORE PUSH1 0x20 ADD PUSH32 0x6177617264000000000000000000000000000000000000000000000000000000 DUP2 MSTORE POP PUSH2 0x1BFF JUMP JUMPDEST PUSH2 0x1028 DUP2 PUSH1 0x8 SLOAD PUSH1 0x1 PUSH1 0x40 MLOAD DUP1 PUSH1 0x40 ADD PUSH1 0x40 MSTORE DUP1 PUSH1 0x5 DUP2 MSTORE PUSH1 0x20 ADD PUSH32 0x6177617264000000000000000000000000000000000000000000000000000000 DUP2 MSTORE POP PUSH2 0x1BFF JUMP JUMPDEST PUSH32 0xE2554529D99AB7A67DB6B4CEA2B32C7D55AE325F958861E05F304FDDED867E31 PUSH2 0x1051 PUSH2 0xA8B JUMP JUMPDEST DUP3 PUSH1 0x8 SLOAD PUSH1 0x40 MLOAD PUSH2 0x1064 SWAP4 SWAP3 SWAP2 SWAP1 PUSH2 0x34B9 JUMP JUMPDEST PUSH1 0x40 MLOAD DUP1 SWAP2 SUB SWAP1 LOG1 POP JUMP JUMPDEST PUSH1 0x0 PUSH1 0x14 SWAP1 SLOAD SWAP1 PUSH2 0x100 EXP SWAP1 DIV PUSH1 0xFF AND ISZERO PUSH2 0x10BF JUMPI PUSH1 0x40 MLOAD PUSH32 0x8C379A000000000000000000000000000000000000000000000000000000000 DUP2 MSTORE PUSH1 0x4 ADD PUSH2 0x10B6 SWAP1 PUSH2 0x3665 JUMP JUMPDEST PUSH1 0x40 MLOAD DUP1 SWAP2 SUB SWAP1 REVERT JUMPDEST PUSH1 0x1 PUSH1 0x0 PUSH1 0x14 PUSH2 0x100 EXP DUP2 SLOAD DUP2 PUSH1 0xFF MUL NOT AND SWAP1 DUP4 ISZERO ISZERO MUL OR SWAP1 SSTORE POP PUSH2 0x10E3 DUP2 PUSH2 0x1875 JUMP JUMPDEST POP JUMP JUMPDEST PUSH1 0x0 PUSH32 0x1FFC9A700000000000000000000000000000000000000000000000000000000 PUSH28 0xFFFFFFFFFFFFFFFFFFFFFFFFFFFFFFFFFFFFFFFFFFFFFFFFFFFFFFFF NOT AND DUP3 PUSH28 0xFFFFFFFFFFFFFFFFFFFFFFFFFFFFFFFFFFFFFFFFFFFFFFFFFFFFFFFF NOT AND EQ SWAP1 POP SWAP2 SWAP1 POP JUMP JUMPDEST PUSH1 0x60 PUSH1 0x2 PUSH1 0x0 DUP4 DUP2 MSTORE PUSH1 0x20 ADD SWAP1 DUP2 MSTORE PUSH1 0x20 ADD PUSH1 0x0 KECCAK256 DUP1 SLOAD PUSH2 0x1170 SWAP1 PUSH2 0x3BA6 JUMP JUMPDEST DUP1 PUSH1 0x1F ADD PUSH1 0x20 DUP1 SWAP2 DIV MUL PUSH1 0x20 ADD PUSH1 0x40 MLOAD SWAP1 DUP2 ADD PUSH1 0x40 MSTORE DUP1 SWAP3 SWAP2 SWAP1 DUP2 DUP2 MSTORE PUSH1 0x20 ADD DUP3 DUP1 SLOAD PUSH2 0x119C SWAP1 PUSH2 0x3BA6 JUMP JUMPDEST DUP1 ISZERO PUSH2 0x11E9 JUMPI DUP1 PUSH1 0x1F LT PUSH2 0x11BE JUMPI PUSH2 0x100 DUP1 DUP4 SLOAD DIV MUL DUP4 MSTORE SWAP2 PUSH1 0x20 ADD SWAP2 PUSH2 0x11E9 JUMP JUMPDEST DUP3 ADD SWAP2 SWAP1 PUSH1 0x0 MSTORE PUSH1 0x20 PUSH1 0x0 KECCAK256 SWAP1 JUMPDEST DUP2 SLOAD DUP2 MSTORE SWAP1 PUSH1 0x1 ADD SWAP1 PUSH1 0x20 ADD DUP1 DUP4 GT PUSH2 0x11CC JUMPI DUP3 SWAP1 SUB PUSH1 0x1F AND DUP3 ADD SWAP2 JUMPDEST POP POP POP POP POP SWAP1 POP SWAP2 SWAP1 POP JUMP JUMPDEST PUSH1 0x0 CALLER SWAP1 POP SWAP1 JUMP JUMPDEST DUP1 PUSH1 0x2 PUSH1 0x0 DUP5 DUP2 MSTORE PUSH1 0x20 ADD SWAP1 DUP2 MSTORE PUSH1 0x20 ADD PUSH1 0x0 KECCAK256 SWAP1 DUP1 MLOAD SWAP1 PUSH1 0x20 ADD SWAP1 PUSH2 0x1224 SWAP3 SWAP2 SWAP1 PUSH2 0x2309 JUMP JUMPDEST POP DUP2 PUSH32 0xECE574603820D07BC9B91F2A932BAADF4628AABCB8AFBA49776529C14A6104B2 DUP3 PUSH1 0x40 MLOAD PUSH2 0x1255 SWAP2 SWAP1 PUSH2 0x35A1 JUMP JUMPDEST PUSH1 0x40 MLOAD DUP1 SWAP2 SUB SWAP1 LOG2 POP POP JUMP JUMPDEST PUSH1 0x0 PUSH20 0xFFFFFFFFFFFFFFFFFFFFFFFFFFFFFFFFFFFFFFFF AND DUP4 PUSH20 0xFFFFFFFFFFFFFFFFFFFFFFFFFFFFFFFFFFFFFFFF AND EQ ISZERO PUSH2 0x12D1 JUMPI PUSH1 0x40 MLOAD PUSH32 0x8C379A000000000000000000000000000000000000000000000000000000000 DUP2 MSTORE PUSH1 0x4 ADD PUSH2 0x12C8 SWAP1 PUSH2 0x3805 JUMP JUMPDEST PUSH1 0x40 MLOAD DUP1 SWAP2 SUB SWAP1 REVERT JUMPDEST DUP2 PUSH1 0x5 PUSH1 0x0 DUP6 PUSH20 0xFFFFFFFFFFFFFFFFFFFFFFFFFFFFFFFFFFFFFFFF AND PUSH20 0xFFFFFFFFFFFFFFFFFFFFFFFFFFFFFFFFFFFFFFFF AND DUP2 MSTORE PUSH1 0x20 ADD SWAP1 DUP2 MSTORE PUSH1 0x20 ADD PUSH1 0x0 KECCAK256 SLOAD LT ISZERO PUSH2 0x1353 JUMPI PUSH1 0x40 MLOAD PUSH32 0x8C379A000000000000000000000000000000000000000000000000000000000 DUP2 MSTORE PUSH1 0x4 ADD PUSH2 0x134A SWAP1 PUSH2 0x3845 JUMP JUMPDEST PUSH1 0x40 MLOAD DUP1 SWAP2 SUB SWAP1 REVERT JUMPDEST PUSH1 0x0 PUSH2 0x135D PUSH2 0x11F5 JUMP JUMPDEST SWAP1 POP DUP4 PUSH20 0xFFFFFFFFFFFFFFFFFFFFFFFFFFFFFFFFFFFFFFFF AND DUP2 PUSH20 0xFFFFFFFFFFFFFFFFFFFFFFFFFFFFFFFFFFFFFFFF AND EQ PUSH2 0x14E5 JUMPI DUP3 PUSH1 0x6 PUSH1 0x0 DUP7 PUSH20 0xFFFFFFFFFFFFFFFFFFFFFFFFFFFFFFFFFFFFFFFF AND PUSH20 0xFFFFFFFFFFFFFFFFFFFFFFFFFFFFFFFFFFFFFFFF AND DUP2 MSTORE PUSH1 0x20 ADD SWAP1 DUP2 MSTORE PUSH1 0x20 ADD PUSH1 0x0 KECCAK256 PUSH1 0x0 DUP4 PUSH20 0xFFFFFFFFFFFFFFFFFFFFFFFFFFFFFFFFFFFFFFFF AND PUSH20 0xFFFFFFFFFFFFFFFFFFFFFFFFFFFFFFFFFFFFFFFF AND DUP2 MSTORE PUSH1 0x20 ADD SWAP1 DUP2 MSTORE PUSH1 0x20 ADD PUSH1 0x0 KECCAK256 SLOAD LT ISZERO PUSH2 0x1451 JUMPI PUSH1 0x40 MLOAD PUSH32 0x8C379A000000000000000000000000000000000000000000000000000000000 DUP2 MSTORE PUSH1 0x4 ADD PUSH2 0x1448 SWAP1 PUSH2 0x3605 JUMP JUMPDEST PUSH1 0x40 MLOAD DUP1 SWAP2 SUB SWAP1 REVERT JUMPDEST DUP3 PUSH1 0x6 PUSH1 0x0 DUP7 PUSH20 0xFFFFFFFFFFFFFFFFFFFFFFFFFFFFFFFFFFFFFFFF AND PUSH20 0xFFFFFFFFFFFFFFFFFFFFFFFFFFFFFFFFFFFFFFFF AND DUP2 MSTORE PUSH1 0x20 ADD SWAP1 DUP2 MSTORE PUSH1 0x20 ADD PUSH1 0x0 KECCAK256 PUSH1 0x0 DUP4 PUSH20 0xFFFFFFFFFFFFFFFFFFFFFFFFFFFFFFFFFFFFFFFF AND PUSH20 0xFFFFFFFFFFFFFFFFFFFFFFFFFFFFFFFFFFFFFFFF AND DUP2 MSTORE PUSH1 0x20 ADD SWAP1 DUP2 MSTORE PUSH1 0x20 ADD PUSH1 0x0 KECCAK256 PUSH1 0x0 DUP3 DUP3 SLOAD PUSH2 0x14DD SWAP2 SWAP1 PUSH2 0x3AB2 JUMP JUMPDEST SWAP3 POP POP DUP2 SWAP1 SSTORE POP JUMPDEST PUSH2 0x14F2 DUP5 PUSH1 0x0 DUP6 DUP6 PUSH2 0x1C11 JUMP JUMPDEST PUSH2 0x14FE DUP5 PUSH1 0x0 DUP6 PUSH2 0x1D20 JUMP JUMPDEST DUP3 PUSH1 0x5 PUSH1 0x0 DUP7 PUSH20 0xFFFFFFFFFFFFFFFFFFFFFFFFFFFFFFFFFFFFFFFF AND PUSH20 0xFFFFFFFFFFFFFFFFFFFFFFFFFFFFFFFFFFFFFFFF AND DUP2 MSTORE PUSH1 0x20 ADD SWAP1 DUP2 MSTORE PUSH1 0x20 ADD PUSH1 0x0 KECCAK256 PUSH1 0x0 DUP3 DUP3 SLOAD PUSH2 0x154D SWAP2 SWAP1 PUSH2 0x3AB2 JUMP JUMPDEST SWAP3 POP POP DUP2 SWAP1 SSTORE POP PUSH1 0x0 PUSH20 0xFFFFFFFFFFFFFFFFFFFFFFFFFFFFFFFFFFFFFFFF AND DUP5 PUSH20 0xFFFFFFFFFFFFFFFFFFFFFFFFFFFFFFFFFFFFFFFF AND DUP3 PUSH20 0xFFFFFFFFFFFFFFFFFFFFFFFFFFFFFFFFFFFFFFFF AND PUSH32 0x3997E418D2CEF0B3B0E907B1E39605C3F7D32DBD061E82EA5B4A770D46A160A6 DUP7 PUSH1 0x0 DUP8 PUSH1 0x40 MLOAD PUSH2 0x15CE SWAP4 SWAP3 SWAP2 SWAP1 PUSH2 0x3880 JUMP JUMPDEST PUSH1 0x40 MLOAD DUP1 SWAP2 SUB SWAP1 LOG4 POP POP POP POP JUMP JUMPDEST DUP3 PUSH20 0xFFFFFFFFFFFFFFFFFFFFFFFFFFFFFFFFFFFFFFFF AND DUP3 PUSH20 0xFFFFFFFFFFFFFFFFFFFFFFFFFFFFFFFFFFFFFFFF AND EQ ISZERO PUSH2 0x164B JUMPI PUSH1 0x40 MLOAD PUSH32 0x8C379A000000000000000000000000000000000000000000000000000000000 DUP2 MSTORE PUSH1 0x4 ADD PUSH2 0x1642 SWAP1 PUSH2 0x36C5 JUMP JUMPDEST PUSH1 0x40 MLOAD DUP1 SWAP2 SUB SWAP1 REVERT JUMPDEST PUSH1 0x0 PUSH20 0xFFFFFFFFFFFFFFFFFFFFFFFFFFFFFFFFFFFFFFFF AND DUP3 PUSH20 0xFFFFFFFFFFFFFFFFFFFFFFFFFFFFFFFFFFFFFFFF AND EQ ISZERO PUSH2 0x16BB JUMPI PUSH1 0x40 MLOAD PUSH32 0x8C379A000000000000000000000000000000000000000000000000000000000 DUP2 MSTORE PUSH1 0x4 ADD PUSH2 0x16B2 SWAP1 PUSH2 0x37E5 JUMP JUMPDEST PUSH1 0x40 MLOAD DUP1 SWAP2 SUB SWAP1 REVERT JUMPDEST PUSH1 0x0 PUSH20 0xFFFFFFFFFFFFFFFFFFFFFFFFFFFFFFFFFFFFFFFF AND DUP4 PUSH20 0xFFFFFFFFFFFFFFFFFFFFFFFFFFFFFFFFFFFFFFFF AND EQ ISZERO PUSH2 0x172B JUMPI PUSH1 0x40 MLOAD PUSH32 0x8C379A000000000000000000000000000000000000000000000000000000000 DUP2 MSTORE PUSH1 0x4 ADD PUSH2 0x1722 SWAP1 PUSH2 0x36E5 JUMP JUMPDEST PUSH1 0x40 MLOAD DUP1 SWAP2 SUB SWAP1 REVERT JUMPDEST DUP1 PUSH1 0x6 PUSH1 0x0 DUP6 PUSH20 0xFFFFFFFFFFFFFFFFFFFFFFFFFFFFFFFFFFFFFFFF AND PUSH20 0xFFFFFFFFFFFFFFFFFFFFFFFFFFFFFFFFFFFFFFFF AND DUP2 MSTORE PUSH1 0x20 ADD SWAP1 DUP2 MSTORE PUSH1 0x20 ADD PUSH1 0x0 KECCAK256 PUSH1 0x0 DUP5 PUSH20 0xFFFFFFFFFFFFFFFFFFFFFFFFFFFFFFFFFFFFFFFF AND PUSH20 0xFFFFFFFFFFFFFFFFFFFFFFFFFFFFFFFFFFFFFFFF AND DUP2 MSTORE PUSH1 0x20 ADD SWAP1 DUP2 MSTORE PUSH1 0x20 ADD PUSH1 0x0 KECCAK256 DUP2 SWAP1 SSTORE POP PUSH1 0x0 DUP2 GT ISZERO PUSH2 0x1815 JUMPI DUP1 DUP4 PUSH20 0xFFFFFFFFFFFFFFFFFFFFFFFFFFFFFFFFFFFFFFFF AND DUP4 PUSH20 0xFFFFFFFFFFFFFFFFFFFFFFFFFFFFFFFFFFFFFFFF AND PUSH32 0xD66AFF874162A96578E919097B6F6D153DFD89A5CEC41BB331FDB0C4AEC16E2C PUSH1 0x40 MLOAD PUSH1 0x40 MLOAD DUP1 SWAP2 SUB SWAP1 LOG4 PUSH2 0x1870 JUMP JUMPDEST DUP3 PUSH20 0xFFFFFFFFFFFFFFFFFFFFFFFFFFFFFFFFFFFFFFFF AND DUP3 PUSH20 0xFFFFFFFFFFFFFFFFFFFFFFFFFFFFFFFFFFFFFFFF AND PUSH32 0x50546E66E5F44D728365DC3908C63BC5CFEEAB470722C1677E3073A6AC294AA1 PUSH1 0x40 MLOAD PUSH1 0x40 MLOAD DUP1 SWAP2 SUB SWAP1 LOG3 JUMPDEST POP POP POP JUMP JUMPDEST PUSH1 0x0 DUP1 PUSH1 0x0 SWAP1 SLOAD SWAP1 PUSH2 0x100 EXP SWAP1 DIV PUSH20 0xFFFFFFFFFFFFFFFFFFFFFFFFFFFFFFFFFFFFFFFF AND SWAP1 POP DUP2 PUSH1 0x0 DUP1 PUSH2 0x100 EXP DUP2 SLOAD DUP2 PUSH20 0xFFFFFFFFFFFFFFFFFFFFFFFFFFFFFFFFFFFFFFFF MUL NOT AND SWAP1 DUP4 PUSH20 0xFFFFFFFFFFFFFFFFFFFFFFFFFFFFFFFFFFFFFFFF AND MUL OR SWAP1 SSTORE POP DUP2 PUSH20 0xFFFFFFFFFFFFFFFFFFFFFFFFFFFFFFFFFFFFFFFF AND DUP2 PUSH20 0xFFFFFFFFFFFFFFFFFFFFFFFFFFFFFFFFFFFFFFFF AND PUSH32 0x8BE0079C531659141344CD1FD0A4F28419497F9722A3DAAFE3B4186F6B6457E0 PUSH1 0x40 MLOAD PUSH1 0x40 MLOAD DUP1 SWAP2 SUB SWAP1 LOG3 POP POP JUMP JUMPDEST PUSH1 0x0 PUSH20 0xFFFFFFFFFFFFFFFFFFFFFFFFFFFFFFFFFFFFFFFF AND DUP6 PUSH20 0xFFFFFFFFFFFFFFFFFFFFFFFFFFFFFFFFFFFFFFFF AND EQ ISZERO PUSH2 0x19A9 JUMPI PUSH1 0x40 MLOAD PUSH32 0x8C379A000000000000000000000000000000000000000000000000000000000 DUP2 MSTORE PUSH1 0x4 ADD PUSH2 0x19A0 SWAP1 PUSH2 0x3765 JUMP JUMPDEST PUSH1 0x40 MLOAD DUP1 SWAP2 SUB SWAP1 REVERT JUMPDEST PUSH1 0x0 PUSH20 0xFFFFFFFFFFFFFFFFFFFFFFFFFFFFFFFFFFFFFFFF AND DUP5 PUSH20 0xFFFFFFFFFFFFFFFFFFFFFFFFFFFFFFFFFFFFFFFF AND EQ ISZERO PUSH2 0x1A19 JUMPI PUSH1 0x40 MLOAD PUSH32 0x8C379A000000000000000000000000000000000000000000000000000000000 DUP2 MSTORE PUSH1 0x4 ADD PUSH2 0x1A10 SWAP1 PUSH2 0x37C5 JUMP JUMPDEST PUSH1 0x40 MLOAD DUP1 SWAP2 SUB SWAP1 REVERT JUMPDEST DUP3 PUSH1 0x5 PUSH1 0x0 DUP8 PUSH20 0xFFFFFFFFFFFFFFFFFFFFFFFFFFFFFFFFFFFFFFFF AND PUSH20 0xFFFFFFFFFFFFFFFFFFFFFFFFFFFFFFFFFFFFFFFF AND DUP2 MSTORE PUSH1 0x20 ADD SWAP1 DUP2 MSTORE PUSH1 0x20 ADD PUSH1 0x0 KECCAK256 SLOAD LT ISZERO PUSH2 0x1A9B JUMPI PUSH1 0x40 MLOAD PUSH32 0x8C379A000000000000000000000000000000000000000000000000000000000 DUP2 MSTORE PUSH1 0x4 ADD PUSH2 0x1A92 SWAP1 PUSH2 0x3705 JUMP JUMPDEST PUSH1 0x40 MLOAD DUP1 SWAP2 SUB SWAP1 REVERT JUMPDEST PUSH1 0x0 PUSH2 0x1AA5 PUSH2 0x11F5 JUMP JUMPDEST SWAP1 POP PUSH2 0x1AB3 DUP7 DUP7 DUP7 DUP6 PUSH2 0x1C11 JUMP JUMPDEST PUSH2 0x1ABE DUP7 DUP7 DUP7 PUSH2 0x1D20 JUMP JUMPDEST DUP4 PUSH1 0x5 PUSH1 0x0 DUP9 PUSH20 0xFFFFFFFFFFFFFFFFFFFFFFFFFFFFFFFFFFFFFFFF AND PUSH20 0xFFFFFFFFFFFFFFFFFFFFFFFFFFFFFFFFFFFFFFFF AND DUP2 MSTORE PUSH1 0x20 ADD SWAP1 DUP2 MSTORE PUSH1 0x20 ADD PUSH1 0x0 KECCAK256 PUSH1 0x0 DUP3 DUP3 SLOAD PUSH2 0x1B0D SWAP2 SWAP1 PUSH2 0x3AB2 JUMP JUMPDEST SWAP3 POP POP DUP2 SWAP1 SSTORE POP DUP4 PUSH1 0x5 PUSH1 0x0 DUP8 PUSH20 0xFFFFFFFFFFFFFFFFFFFFFFFFFFFFFFFFFFFFFFFF AND PUSH20 0xFFFFFFFFFFFFFFFFFFFFFFFFFFFFFFFFFFFFFFFF AND DUP2 MSTORE PUSH1 0x20 ADD SWAP1 DUP2 MSTORE PUSH1 0x20 ADD PUSH1 0x0 KECCAK256 PUSH1 0x0 DUP3 DUP3 SLOAD PUSH2 0x1B63 SWAP2 SWAP1 PUSH2 0x3A5C JUMP JUMPDEST SWAP3 POP POP DUP2 SWAP1 SSTORE POP DUP5 PUSH20 0xFFFFFFFFFFFFFFFFFFFFFFFFFFFFFFFFFFFFFFFF AND DUP7 PUSH20 0xFFFFFFFFFFFFFFFFFFFFFFFFFFFFFFFFFFFFFFFF AND DUP3 PUSH20 0xFFFFFFFFFFFFFFFFFFFFFFFFFFFFFFFFFFFFFFFF AND PUSH32 0x3997E418D2CEF0B3B0E907B1E39605C3F7D32DBD061E82EA5B4A770D46A160A6 DUP8 DUP8 DUP8 PUSH1 0x40 MLOAD PUSH2 0x1BE2 SWAP4 SWAP3 SWAP2 SWAP1 PUSH2 0x3880 JUMP JUMPDEST PUSH1 0x40 MLOAD DUP1 SWAP2 SUB SWAP1 LOG4 PUSH2 0x1BF7 DUP7 DUP7 DUP7 DUP7 DUP7 PUSH2 0x1DC3 JUMP JUMPDEST POP POP POP POP POP POP JUMP JUMPDEST PUSH2 0x1C0B DUP5 DUP5 DUP5 DUP5 PUSH2 0x1F77 JUMP JUMPDEST POP POP POP POP JUMP JUMPDEST PUSH2 0x1C1A DUP5 PUSH2 0x1FE5 JUMP JUMPDEST DUP1 ISZERO PUSH2 0x1C33 JUMPI POP PUSH2 0x1C32 DUP5 PUSH4 0x6BB56A14 PUSH1 0xE0 SHL PUSH2 0x2032 JUMP JUMPDEST JUMPDEST ISZERO PUSH2 0x1D1A JUMPI PUSH1 0x0 DUP5 DUP5 DUP5 DUP5 PUSH1 0x40 MLOAD PUSH1 0x20 ADD PUSH2 0x1C51 SWAP5 SWAP4 SWAP3 SWAP2 SWAP1 PUSH2 0x343D JUMP JUMPDEST PUSH1 0x40 MLOAD PUSH1 0x20 DUP2 DUP4 SUB SUB DUP2 MSTORE SWAP1 PUSH1 0x40 MSTORE SWAP1 POP DUP5 PUSH20 0xFFFFFFFFFFFFFFFFFFFFFFFFFFFFFFFFFFFFFFFF AND PUSH4 0x6BB56A14 PUSH32 0x40B8BEC57D7B5FF0DBD9E9ACD0A47DFEB0101E1A203766F5CCAB00445FBF39E9 PUSH1 0x0 SHL DUP4 PUSH1 0x40 MLOAD DUP4 PUSH4 0xFFFFFFFF AND PUSH1 0xE0 SHL DUP2 MSTORE PUSH1 0x4 ADD PUSH2 0x1CC0 SWAP3 SWAP2 SWAP1 PUSH2 0x3556 JUMP JUMPDEST PUSH1 0x0 PUSH1 0x40 MLOAD DUP1 DUP4 SUB DUP2 PUSH1 0x0 DUP8 DUP1 EXTCODESIZE ISZERO DUP1 ISZERO PUSH2 0x1CDA JUMPI PUSH1 0x0 DUP1 REVERT JUMPDEST POP GAS CALL ISZERO DUP1 ISZERO PUSH2 0x1CEE JUMPI RETURNDATASIZE PUSH1 0x0 DUP1 RETURNDATACOPY RETURNDATASIZE PUSH1 0x0 REVERT JUMPDEST POP POP POP POP PUSH1 0x40 MLOAD RETURNDATASIZE PUSH1 0x0 DUP3 RETURNDATACOPY RETURNDATASIZE PUSH1 0x1F NOT PUSH1 0x1F DUP3 ADD AND DUP3 ADD DUP1 PUSH1 0x40 MSTORE POP DUP2 ADD SWAP1 PUSH2 0x1D17 SWAP2 SWAP1 PUSH2 0x2A49 JUMP JUMPDEST POP POP JUMPDEST POP POP POP POP JUMP JUMPDEST PUSH1 0x0 PUSH20 0xFFFFFFFFFFFFFFFFFFFFFFFFFFFFFFFFFFFFFFFF AND DUP4 PUSH20 0xFFFFFFFFFFFFFFFFFFFFFFFFFFFFFFFFFFFFFFFF AND EQ ISZERO PUSH2 0x1D6F JUMPI DUP1 PUSH1 0x4 PUSH1 0x0 DUP3 DUP3 SLOAD PUSH2 0x1D67 SWAP2 SWAP1 PUSH2 0x3A5C JUMP JUMPDEST SWAP3 POP POP DUP2 SWAP1 SSTORE POP JUMPDEST PUSH1 0x0 PUSH20 0xFFFFFFFFFFFFFFFFFFFFFFFFFFFFFFFFFFFFFFFF AND DUP3 PUSH20 0xFFFFFFFFFFFFFFFFFFFFFFFFFFFFFFFFFFFFFFFF AND EQ ISZERO PUSH2 0x1DBE JUMPI DUP1 PUSH1 0x4 PUSH1 0x0 DUP3 DUP3 SLOAD PUSH2 0x1DB6 SWAP2 SWAP1 PUSH2 0x3AB2 JUMP JUMPDEST SWAP3 POP POP DUP2 SWAP1 SSTORE POP JUMPDEST POP POP POP JUMP JUMPDEST PUSH2 0x1DCC DUP5 PUSH2 0x1FE5 JUMP JUMPDEST DUP1 ISZERO PUSH2 0x1DE5 JUMPI POP PUSH2 0x1DE4 DUP5 PUSH4 0x6BB56A14 PUSH1 0xE0 SHL PUSH2 0x2032 JUMP JUMPDEST JUMPDEST ISZERO PUSH2 0x1ED0 JUMPI PUSH1 0x0 DUP6 DUP6 DUP6 DUP5 PUSH1 0x40 MLOAD PUSH1 0x20 ADD PUSH2 0x1E03 SWAP5 SWAP4 SWAP3 SWAP2 SWAP1 PUSH2 0x343D JUMP JUMPDEST PUSH1 0x40 MLOAD PUSH1 0x20 DUP2 DUP4 SUB SUB DUP2 MSTORE SWAP1 PUSH1 0x40 MSTORE SWAP1 POP DUP5 PUSH20 0xFFFFFFFFFFFFFFFFFFFFFFFFFFFFFFFFFFFFFFFF AND PUSH4 0x6BB56A14 PUSH32 0xDBE2C314E1AEE2970C72666F2EBE8933A8575263EA71E5FF6A9178E95D47A26F PUSH1 0x0 SHL DUP4 PUSH1 0x40 MLOAD DUP4 PUSH4 0xFFFFFFFF AND PUSH1 0xE0 SHL DUP2 MSTORE PUSH1 0x4 ADD PUSH2 0x1E72 SWAP3 SWAP2 SWAP1 PUSH2 0x3556 JUMP JUMPDEST PUSH1 0x0 PUSH1 0x40 MLOAD DUP1 DUP4 SUB DUP2 PUSH1 0x0 DUP8 DUP1 EXTCODESIZE ISZERO DUP1 ISZERO PUSH2 0x1E8C JUMPI PUSH1 0x0 DUP1 REVERT JUMPDEST POP GAS CALL ISZERO DUP1 ISZERO PUSH2 0x1EA0 JUMPI RETURNDATASIZE PUSH1 0x0 DUP1 RETURNDATACOPY RETURNDATASIZE PUSH1 0x0 REVERT JUMPDEST POP POP POP POP PUSH1 0x40 MLOAD RETURNDATASIZE PUSH1 0x0 DUP3 RETURNDATACOPY RETURNDATASIZE PUSH1 0x1F NOT PUSH1 0x1F DUP3 ADD AND DUP3 ADD DUP1 PUSH1 0x40 MSTORE POP DUP2 ADD SWAP1 PUSH2 0x1EC9 SWAP2 SWAP1 PUSH2 0x2A49 JUMP JUMPDEST POP POP PUSH2 0x1F70 JUMP JUMPDEST DUP2 PUSH2 0x1F6F JUMPI PUSH2 0x1EF4 DUP5 PUSH20 0xFFFFFFFFFFFFFFFFFFFFFFFFFFFFFFFFFFFFFFFF AND PUSH2 0x2057 JUMP JUMPDEST ISZERO PUSH2 0x1F34 JUMPI PUSH1 0x40 MLOAD PUSH32 0x8C379A000000000000000000000000000000000000000000000000000000000 DUP2 MSTORE PUSH1 0x4 ADD PUSH2 0x1F2B SWAP1 PUSH2 0x3725 JUMP JUMPDEST PUSH1 0x40 MLOAD DUP1 SWAP2 SUB SWAP1 REVERT JUMPDEST PUSH1 0x40 MLOAD PUSH32 0x8C379A000000000000000000000000000000000000000000000000000000000 DUP2 MSTORE PUSH1 0x4 ADD PUSH2 0x1F66 SWAP1 PUSH2 0x35E5 JUMP JUMPDEST PUSH1 0x40 MLOAD DUP1 SWAP2 SUB SWAP1 REVERT JUMPDEST JUMPDEST POP POP POP POP POP JUMP JUMPDEST PUSH2 0x1F7F PUSH2 0x804 JUMP JUMPDEST DUP4 PUSH2 0x1F88 PUSH2 0x614 JUMP JUMPDEST PUSH2 0x1F92 SWAP2 SWAP1 PUSH2 0x3A5C JUMP JUMPDEST GT ISZERO PUSH2 0x1FD3 JUMPI PUSH1 0x40 MLOAD PUSH32 0x8C379A000000000000000000000000000000000000000000000000000000000 DUP2 MSTORE PUSH1 0x4 ADD PUSH2 0x1FCA SWAP1 PUSH2 0x37A5 JUMP JUMPDEST PUSH1 0x40 MLOAD DUP1 SWAP2 SUB SWAP1 REVERT JUMPDEST PUSH2 0x1FDF DUP5 DUP5 DUP5 DUP5 PUSH2 0x206A JUMP JUMPDEST POP POP POP POP JUMP JUMPDEST PUSH1 0x0 PUSH2 0x2011 DUP3 PUSH32 0x1FFC9A700000000000000000000000000000000000000000000000000000000 PUSH2 0x21DE JUMP JUMPDEST DUP1 ISZERO PUSH2 0x202B JUMPI POP PUSH2 0x2029 DUP3 PUSH4 0xFFFFFFFF PUSH1 0xE0 SHL PUSH2 0x21DE JUMP JUMPDEST ISZERO JUMPDEST SWAP1 POP SWAP2 SWAP1 POP JUMP JUMPDEST PUSH1 0x0 PUSH2 0x203D DUP4 PUSH2 0x1FE5 JUMP JUMPDEST DUP1 ISZERO PUSH2 0x204F JUMPI POP PUSH2 0x204E DUP4 DUP4 PUSH2 0x21DE JUMP JUMPDEST JUMPDEST SWAP1 POP SWAP3 SWAP2 POP POP JUMP JUMPDEST PUSH1 0x0 DUP1 DUP3 EXTCODESIZE SWAP1 POP PUSH1 0x0 DUP2 GT SWAP2 POP POP SWAP2 SWAP1 POP JUMP JUMPDEST PUSH1 0x0 PUSH20 0xFFFFFFFFFFFFFFFFFFFFFFFFFFFFFFFFFFFFFFFF AND DUP5 PUSH20 0xFFFFFFFFFFFFFFFFFFFFFFFFFFFFFFFFFFFFFFFF AND EQ ISZERO PUSH2 0x20DA JUMPI PUSH1 0x40 MLOAD PUSH32 0x8C379A000000000000000000000000000000000000000000000000000000000 DUP2 MSTORE PUSH1 0x4 ADD PUSH2 0x20D1 SWAP1 PUSH2 0x36A5 JUMP JUMPDEST PUSH1 0x40 MLOAD DUP1 SWAP2 SUB SWAP1 REVERT JUMPDEST PUSH1 0x0 PUSH2 0x20E4 PUSH2 0x11F5 JUMP JUMPDEST SWAP1 POP PUSH2 0x20F2 PUSH1 0x0 DUP7 DUP7 PUSH2 0x1D20 JUMP JUMPDEST DUP4 PUSH1 0x5 PUSH1 0x0 DUP8 PUSH20 0xFFFFFFFFFFFFFFFFFFFFFFFFFFFFFFFFFFFFFFFF AND PUSH20 0xFFFFFFFFFFFFFFFFFFFFFFFFFFFFFFFFFFFFFFFF AND DUP2 MSTORE PUSH1 0x20 ADD SWAP1 DUP2 MSTORE PUSH1 0x20 ADD PUSH1 0x0 KECCAK256 PUSH1 0x0 DUP3 DUP3 SLOAD PUSH2 0x2141 SWAP2 SWAP1 PUSH2 0x3A5C JUMP JUMPDEST SWAP3 POP POP DUP2 SWAP1 SSTORE POP DUP5 PUSH20 0xFFFFFFFFFFFFFFFFFFFFFFFFFFFFFFFFFFFFFFFF AND PUSH1 0x0 PUSH20 0xFFFFFFFFFFFFFFFFFFFFFFFFFFFFFFFFFFFFFFFF AND DUP3 PUSH20 0xFFFFFFFFFFFFFFFFFFFFFFFFFFFFFFFFFFFFFFFF AND PUSH32 0x3997E418D2CEF0B3B0E907B1E39605C3F7D32DBD061E82EA5B4A770D46A160A6 DUP8 DUP8 DUP8 PUSH1 0x40 MLOAD PUSH2 0x21C1 SWAP4 SWAP3 SWAP2 SWAP1 PUSH2 0x3880 JUMP JUMPDEST PUSH1 0x40 MLOAD DUP1 SWAP2 SUB SWAP1 LOG4 PUSH2 0x21D7 PUSH1 0x0 DUP7 DUP7 DUP7 DUP7 PUSH2 0x1DC3 JUMP JUMPDEST POP POP POP POP POP JUMP JUMPDEST PUSH1 0x0 DUP1 PUSH4 0x1FFC9A7 PUSH1 0xE0 SHL DUP4 PUSH1 0x40 MLOAD PUSH1 0x24 ADD PUSH2 0x21FA SWAP2 SWAP1 PUSH2 0x3586 JUMP JUMPDEST PUSH1 0x40 MLOAD PUSH1 0x20 DUP2 DUP4 SUB SUB DUP2 MSTORE SWAP1 PUSH1 0x40 MSTORE SWAP1 PUSH28 0xFFFFFFFFFFFFFFFFFFFFFFFFFFFFFFFFFFFFFFFFFFFFFFFFFFFFFFFF NOT AND PUSH1 0x20 DUP3 ADD DUP1 MLOAD PUSH28 0xFFFFFFFFFFFFFFFFFFFFFFFFFFFFFFFFFFFFFFFFFFFFFFFFFFFFFFFF DUP4 DUP2 DUP4 AND OR DUP4 MSTORE POP POP POP POP SWAP1 POP PUSH1 0x0 DUP1 DUP6 PUSH20 0xFFFFFFFFFFFFFFFFFFFFFFFFFFFFFFFFFFFFFFFF AND PUSH2 0x7530 DUP5 PUSH1 0x40 MLOAD PUSH2 0x2284 SWAP2 SWAP1 PUSH2 0x3487 JUMP JUMPDEST PUSH1 0x0 PUSH1 0x40 MLOAD DUP1 DUP4 SUB DUP2 DUP7 DUP7 STATICCALL SWAP3 POP POP POP RETURNDATASIZE DUP1 PUSH1 0x0 DUP2 EQ PUSH2 0x22C0 JUMPI PUSH1 0x40 MLOAD SWAP2 POP PUSH1 0x1F NOT PUSH1 0x3F RETURNDATASIZE ADD AND DUP3 ADD PUSH1 0x40 MSTORE RETURNDATASIZE DUP3 MSTORE RETURNDATASIZE PUSH1 0x0 PUSH1 0x20 DUP5 ADD RETURNDATACOPY PUSH2 0x22C5 JUMP JUMPDEST PUSH1 0x60 SWAP2 POP JUMPDEST POP SWAP2 POP SWAP2 POP PUSH1 0x20 DUP2 MLOAD LT ISZERO PUSH2 0x22E0 JUMPI PUSH1 0x0 SWAP4 POP POP POP POP PUSH2 0x2303 JUMP JUMPDEST DUP2 DUP1 ISZERO PUSH2 0x22FD JUMPI POP DUP1 DUP1 PUSH1 0x20 ADD SWAP1 MLOAD DUP2 ADD SWAP1 PUSH2 0x22FC SWAP2 SWAP1 PUSH2 0x29F7 JUMP JUMPDEST JUMPDEST SWAP4 POP POP POP POP JUMPDEST SWAP3 SWAP2 POP POP JUMP JUMPDEST DUP3 DUP1 SLOAD PUSH2 0x2315 SWAP1 PUSH2 0x3BA6 JUMP JUMPDEST SWAP1 PUSH1 0x0 MSTORE PUSH1 0x20 PUSH1 0x0 KECCAK256 SWAP1 PUSH1 0x1F ADD PUSH1 0x20 SWAP1 DIV DUP2 ADD SWAP3 DUP3 PUSH2 0x2337 JUMPI PUSH1 0x0 DUP6 SSTORE PUSH2 0x237E JUMP JUMPDEST DUP3 PUSH1 0x1F LT PUSH2 0x2350 JUMPI DUP1 MLOAD PUSH1 0xFF NOT AND DUP4 DUP1 ADD OR DUP6 SSTORE PUSH2 0x237E JUMP JUMPDEST DUP3 DUP1 ADD PUSH1 0x1 ADD DUP6 SSTORE DUP3 ISZERO PUSH2 0x237E JUMPI SWAP2 DUP3 ADD JUMPDEST DUP3 DUP2 GT ISZERO PUSH2 0x237D JUMPI DUP3 MLOAD DUP3 SSTORE SWAP2 PUSH1 0x20 ADD SWAP2 SWAP1 PUSH1 0x1 ADD SWAP1 PUSH2 0x2362 JUMP JUMPDEST JUMPDEST POP SWAP1 POP PUSH2 0x238B SWAP2 SWAP1 PUSH2 0x238F JUMP JUMPDEST POP SWAP1 JUMP JUMPDEST JUMPDEST DUP1 DUP3 GT ISZERO PUSH2 0x23A8 JUMPI PUSH1 0x0 DUP2 PUSH1 0x0 SWAP1 SSTORE POP PUSH1 0x1 ADD PUSH2 0x2390 JUMP JUMPDEST POP SWAP1 JUMP JUMPDEST PUSH1 0x0 PUSH2 0x23BF PUSH2 0x23BA DUP5 PUSH2 0x38EF JUMP JUMPDEST PUSH2 0x38BE JUMP JUMPDEST SWAP1 POP DUP1 DUP4 DUP3 MSTORE PUSH1 0x20 DUP3 ADD SWAP1 POP DUP3 DUP6 PUSH1 0x20 DUP7 MUL DUP3 ADD GT ISZERO PUSH2 0x23DE JUMPI PUSH1 0x0 DUP1 REVERT JUMPDEST PUSH1 0x0 JUMPDEST DUP6 DUP2 LT ISZERO PUSH2 0x240E JUMPI DUP2 PUSH2 0x23F4 DUP9 DUP3 PUSH2 0x25C9 JUMP JUMPDEST DUP5 MSTORE PUSH1 0x20 DUP5 ADD SWAP4 POP PUSH1 0x20 DUP4 ADD SWAP3 POP POP PUSH1 0x1 DUP2 ADD SWAP1 POP PUSH2 0x23E1 JUMP JUMPDEST POP POP POP SWAP4 SWAP3 POP POP POP JUMP JUMPDEST PUSH1 0x0 PUSH2 0x242B PUSH2 0x2426 DUP5 PUSH2 0x391B JUMP JUMPDEST PUSH2 0x38BE JUMP JUMPDEST SWAP1 POP DUP1 DUP4 DUP3 MSTORE PUSH1 0x20 DUP3 ADD SWAP1 POP DUP3 DUP6 PUSH1 0x20 DUP7 MUL DUP3 ADD GT ISZERO PUSH2 0x244A JUMPI PUSH1 0x0 DUP1 REVERT JUMPDEST PUSH1 0x0 JUMPDEST DUP6 DUP2 LT ISZERO PUSH2 0x247A JUMPI DUP2 PUSH2 0x2460 DUP9 DUP3 PUSH2 0x26B0 JUMP JUMPDEST DUP5 MSTORE PUSH1 0x20 DUP5 ADD SWAP4 POP PUSH1 0x20 DUP4 ADD SWAP3 POP POP PUSH1 0x1 DUP2 ADD SWAP1 POP PUSH2 0x244D JUMP JUMPDEST POP POP POP SWAP4 SWAP3 POP POP POP JUMP JUMPDEST PUSH1 0x0 PUSH2 0x2497 PUSH2 0x2492 DUP5 PUSH2 0x3947 JUMP JUMPDEST PUSH2 0x38BE JUMP JUMPDEST SWAP1 POP DUP1 DUP4 DUP3 MSTORE PUSH1 0x20 DUP3 ADD SWAP1 POP DUP3 PUSH1 0x0 JUMPDEST DUP6 DUP2 LT ISZERO PUSH2 0x24D7 JUMPI DUP2 CALLDATALOAD DUP6 ADD PUSH2 0x24BD DUP9 DUP3 PUSH2 0x26DA JUMP JUMPDEST DUP5 MSTORE PUSH1 0x20 DUP5 ADD SWAP4 POP PUSH1 0x20 DUP4 ADD SWAP3 POP POP PUSH1 0x1 DUP2 ADD SWAP1 POP PUSH2 0x24A7 JUMP JUMPDEST POP POP POP SWAP4 SWAP3 POP POP POP JUMP JUMPDEST PUSH1 0x0 PUSH2 0x24F4 PUSH2 0x24EF DUP5 PUSH2 0x3973 JUMP JUMPDEST PUSH2 0x38BE JUMP JUMPDEST SWAP1 POP DUP1 DUP4 DUP3 MSTORE PUSH1 0x20 DUP3 ADD SWAP1 POP DUP3 DUP6 PUSH1 0x20 DUP7 MUL DUP3 ADD GT ISZERO PUSH2 0x2513 JUMPI PUSH1 0x0 DUP1 REVERT JUMPDEST PUSH1 0x0 JUMPDEST DUP6 DUP2 LT ISZERO PUSH2 0x2543 JUMPI DUP2 PUSH2 0x2529 DUP9 DUP3 PUSH2 0x272E JUMP JUMPDEST DUP5 MSTORE PUSH1 0x20 DUP5 ADD SWAP4 POP PUSH1 0x20 DUP4 ADD SWAP3 POP POP PUSH1 0x1 DUP2 ADD SWAP1 POP PUSH2 0x2516 JUMP JUMPDEST POP POP POP SWAP4 SWAP3 POP POP POP JUMP JUMPDEST PUSH1 0x0 PUSH2 0x2560 PUSH2 0x255B DUP5 PUSH2 0x399F JUMP JUMPDEST PUSH2 0x38BE JUMP JUMPDEST SWAP1 POP DUP3 DUP2 MSTORE PUSH1 0x20 DUP2 ADD DUP5 DUP5 DUP5 ADD GT ISZERO PUSH2 0x2578 JUMPI PUSH1 0x0 DUP1 REVERT JUMPDEST PUSH2 0x2583 DUP5 DUP3 DUP6 PUSH2 0x3B64 JUMP JUMPDEST POP SWAP4 SWAP3 POP POP POP JUMP JUMPDEST PUSH1 0x0 PUSH2 0x259E PUSH2 0x2599 DUP5 PUSH2 0x399F JUMP JUMPDEST PUSH2 0x38BE JUMP JUMPDEST SWAP1 POP DUP3 DUP2 MSTORE PUSH1 0x20 DUP2 ADD DUP5 DUP5 DUP5 ADD GT ISZERO PUSH2 0x25B6 JUMPI PUSH1 0x0 DUP1 REVERT JUMPDEST PUSH2 0x25C1 DUP5 DUP3 DUP6 PUSH2 0x3B73 JUMP JUMPDEST POP SWAP4 SWAP3 POP POP POP JUMP JUMPDEST PUSH1 0x0 DUP2 CALLDATALOAD SWAP1 POP PUSH2 0x25D8 DUP2 PUSH2 0x3CFA JUMP JUMPDEST SWAP3 SWAP2 POP POP JUMP JUMPDEST PUSH1 0x0 DUP3 PUSH1 0x1F DUP4 ADD SLT PUSH2 0x25EF JUMPI PUSH1 0x0 DUP1 REVERT JUMPDEST DUP2 CALLDATALOAD PUSH2 0x25FF DUP5 DUP3 PUSH1 0x20 DUP7 ADD PUSH2 0x23AC JUMP JUMPDEST SWAP2 POP POP SWAP3 SWAP2 POP POP JUMP JUMPDEST PUSH1 0x0 DUP3 PUSH1 0x1F DUP4 ADD SLT PUSH2 0x2619 JUMPI PUSH1 0x0 DUP1 REVERT JUMPDEST DUP2 CALLDATALOAD PUSH2 0x2629 DUP5 DUP3 PUSH1 0x20 DUP7 ADD PUSH2 0x2418 JUMP JUMPDEST SWAP2 POP POP SWAP3 SWAP2 POP POP JUMP JUMPDEST PUSH1 0x0 DUP3 PUSH1 0x1F DUP4 ADD SLT PUSH2 0x2643 JUMPI PUSH1 0x0 DUP1 REVERT JUMPDEST DUP2 CALLDATALOAD PUSH2 0x2653 DUP5 DUP3 PUSH1 0x20 DUP7 ADD PUSH2 0x2484 JUMP JUMPDEST SWAP2 POP POP SWAP3 SWAP2 POP POP JUMP JUMPDEST PUSH1 0x0 DUP3 PUSH1 0x1F DUP4 ADD SLT PUSH2 0x266D JUMPI PUSH1 0x0 DUP1 REVERT JUMPDEST DUP2 CALLDATALOAD PUSH2 0x267D DUP5 DUP3 PUSH1 0x20 DUP7 ADD PUSH2 0x24E1 JUMP JUMPDEST SWAP2 POP POP SWAP3 SWAP2 POP POP JUMP JUMPDEST PUSH1 0x0 DUP2 CALLDATALOAD SWAP1 POP PUSH2 0x2695 DUP2 PUSH2 0x3D11 JUMP JUMPDEST SWAP3 SWAP2 POP POP JUMP JUMPDEST PUSH1 0x0 DUP2 MLOAD SWAP1 POP PUSH2 0x26AA DUP2 PUSH2 0x3D11 JUMP JUMPDEST SWAP3 SWAP2 POP POP JUMP JUMPDEST PUSH1 0x0 DUP2 CALLDATALOAD SWAP1 POP PUSH2 0x26BF DUP2 PUSH2 0x3D28 JUMP JUMPDEST SWAP3 SWAP2 POP POP JUMP JUMPDEST PUSH1 0x0 DUP2 CALLDATALOAD SWAP1 POP PUSH2 0x26D4 DUP2 PUSH2 0x3D3F JUMP JUMPDEST SWAP3 SWAP2 POP POP JUMP JUMPDEST PUSH1 0x0 DUP3 PUSH1 0x1F DUP4 ADD SLT PUSH2 0x26EB JUMPI PUSH1 0x0 DUP1 REVERT JUMPDEST DUP2 CALLDATALOAD PUSH2 0x26FB DUP5 DUP3 PUSH1 0x20 DUP7 ADD PUSH2 0x254D JUMP JUMPDEST SWAP2 POP POP SWAP3 SWAP2 POP POP JUMP JUMPDEST PUSH1 0x0 DUP3 PUSH1 0x1F DUP4 ADD SLT PUSH2 0x2715 JUMPI PUSH1 0x0 DUP1 REVERT JUMPDEST DUP2 MLOAD PUSH2 0x2725 DUP5 DUP3 PUSH1 0x20 DUP7 ADD PUSH2 0x258B JUMP JUMPDEST SWAP2 POP POP SWAP3 SWAP2 POP POP JUMP JUMPDEST PUSH1 0x0 DUP2 CALLDATALOAD SWAP1 POP PUSH2 0x273D DUP2 PUSH2 0x3D56 JUMP JUMPDEST SWAP3 SWAP2 POP POP JUMP JUMPDEST PUSH1 0x0 PUSH1 0x20 DUP3 DUP5 SUB SLT ISZERO PUSH2 0x2755 JUMPI PUSH1 0x0 DUP1 REVERT JUMPDEST PUSH1 0x0 PUSH2 0x2763 DUP5 DUP3 DUP6 ADD PUSH2 0x25C9 JUMP JUMPDEST SWAP2 POP POP SWAP3 SWAP2 POP POP JUMP JUMPDEST PUSH1 0x0 DUP1 PUSH1 0x40 DUP4 DUP6 SUB SLT ISZERO PUSH2 0x277F JUMPI PUSH1 0x0 DUP1 REVERT JUMPDEST PUSH1 0x0 PUSH2 0x278D DUP6 DUP3 DUP7 ADD PUSH2 0x25C9 JUMP JUMPDEST SWAP3 POP POP PUSH1 0x20 PUSH2 0x279E DUP6 DUP3 DUP7 ADD PUSH2 0x25C9 JUMP JUMPDEST SWAP2 POP POP SWAP3 POP SWAP3 SWAP1 POP JUMP JUMPDEST PUSH1 0x0 DUP1 PUSH1 0x0 DUP1 PUSH1 0x0 PUSH1 0xA0 DUP7 DUP9 SUB SLT ISZERO PUSH2 0x27C0 JUMPI PUSH1 0x0 DUP1 REVERT JUMPDEST PUSH1 0x0 PUSH2 0x27CE DUP9 DUP3 DUP10 ADD PUSH2 0x25C9 JUMP JUMPDEST SWAP6 POP POP PUSH1 0x20 PUSH2 0x27DF DUP9 DUP3 DUP10 ADD PUSH2 0x25C9 JUMP JUMPDEST SWAP5 POP POP PUSH1 0x40 PUSH2 0x27F0 DUP9 DUP3 DUP10 ADD PUSH2 0x272E JUMP JUMPDEST SWAP4 POP POP PUSH1 0x60 PUSH2 0x2801 DUP9 DUP3 DUP10 ADD PUSH2 0x2686 JUMP JUMPDEST SWAP3 POP POP PUSH1 0x80 DUP7 ADD CALLDATALOAD PUSH8 0xFFFFFFFFFFFFFFFF DUP2 GT ISZERO PUSH2 0x281E JUMPI PUSH1 0x0 DUP1 REVERT JUMPDEST PUSH2 0x282A DUP9 DUP3 DUP10 ADD PUSH2 0x26DA JUMP JUMPDEST SWAP2 POP POP SWAP3 SWAP6 POP SWAP3 SWAP6 SWAP1 SWAP4 POP JUMP JUMPDEST PUSH1 0x0 DUP1 PUSH1 0x40 DUP4 DUP6 SUB SLT ISZERO PUSH2 0x284A JUMPI PUSH1 0x0 DUP1 REVERT JUMPDEST PUSH1 0x0 PUSH2 0x2858 DUP6 DUP3 DUP7 ADD PUSH2 0x25C9 JUMP JUMPDEST SWAP3 POP POP PUSH1 0x20 PUSH2 0x2869 DUP6 DUP3 DUP7 ADD PUSH2 0x272E JUMP JUMPDEST SWAP2 POP POP SWAP3 POP SWAP3 SWAP1 POP JUMP JUMPDEST PUSH1 0x0 DUP1 PUSH1 0x0 DUP1 PUSH1 0x0 PUSH1 0xA0 DUP7 DUP9 SUB SLT ISZERO PUSH2 0x288B JUMPI PUSH1 0x0 DUP1 REVERT JUMPDEST PUSH1 0x0 DUP7 ADD CALLDATALOAD PUSH8 0xFFFFFFFFFFFFFFFF DUP2 GT ISZERO PUSH2 0x28A5 JUMPI PUSH1 0x0 DUP1 REVERT JUMPDEST PUSH2 0x28B1 DUP9 DUP3 DUP10 ADD PUSH2 0x25DE JUMP JUMPDEST SWAP6 POP POP PUSH1 0x20 DUP7 ADD CALLDATALOAD PUSH8 0xFFFFFFFFFFFFFFFF DUP2 GT ISZERO PUSH2 0x28CE JUMPI PUSH1 0x0 DUP1 REVERT JUMPDEST PUSH2 0x28DA DUP9 DUP3 DUP10 ADD PUSH2 0x25DE JUMP JUMPDEST SWAP5 POP POP PUSH1 0x40 DUP7 ADD CALLDATALOAD PUSH8 0xFFFFFFFFFFFFFFFF DUP2 GT ISZERO PUSH2 0x28F7 JUMPI PUSH1 0x0 DUP1 REVERT JUMPDEST PUSH2 0x2903 DUP9 DUP3 DUP10 ADD PUSH2 0x265C JUMP JUMPDEST SWAP4 POP POP PUSH1 0x60 PUSH2 0x2914 DUP9 DUP3 DUP10 ADD PUSH2 0x2686 JUMP JUMPDEST SWAP3 POP POP PUSH1 0x80 DUP7 ADD CALLDATALOAD PUSH8 0xFFFFFFFFFFFFFFFF DUP2 GT ISZERO PUSH2 0x2931 JUMPI PUSH1 0x0 DUP1 REVERT JUMPDEST PUSH2 0x293D DUP9 DUP3 DUP10 ADD PUSH2 0x2632 JUMP JUMPDEST SWAP2 POP POP SWAP3 SWAP6 POP SWAP3 SWAP6 SWAP1 SWAP4 POP JUMP JUMPDEST PUSH1 0x0 PUSH1 0x20 DUP3 DUP5 SUB SLT ISZERO PUSH2 0x295C JUMPI PUSH1 0x0 DUP1 REVERT JUMPDEST PUSH1 0x0 DUP3 ADD CALLDATALOAD PUSH8 0xFFFFFFFFFFFFFFFF DUP2 GT ISZERO PUSH2 0x2976 JUMPI PUSH1 0x0 DUP1 REVERT JUMPDEST PUSH2 0x2982 DUP5 DUP3 DUP6 ADD PUSH2 0x2608 JUMP JUMPDEST SWAP2 POP POP SWAP3 SWAP2 POP POP JUMP JUMPDEST PUSH1 0x0 DUP1 PUSH1 0x40 DUP4 DUP6 SUB SLT ISZERO PUSH2 0x299E JUMPI PUSH1 0x0 DUP1 REVERT JUMPDEST PUSH1 0x0 DUP4 ADD CALLDATALOAD PUSH8 0xFFFFFFFFFFFFFFFF DUP2 GT ISZERO PUSH2 0x29B8 JUMPI PUSH1 0x0 DUP1 REVERT JUMPDEST PUSH2 0x29C4 DUP6 DUP3 DUP7 ADD PUSH2 0x2608 JUMP JUMPDEST SWAP3 POP POP PUSH1 0x20 DUP4 ADD CALLDATALOAD PUSH8 0xFFFFFFFFFFFFFFFF DUP2 GT ISZERO PUSH2 0x29E1 JUMPI PUSH1 0x0 DUP1 REVERT JUMPDEST PUSH2 0x29ED DUP6 DUP3 DUP7 ADD PUSH2 0x2632 JUMP JUMPDEST SWAP2 POP POP SWAP3 POP SWAP3 SWAP1 POP JUMP JUMPDEST PUSH1 0x0 PUSH1 0x20 DUP3 DUP5 SUB SLT ISZERO PUSH2 0x2A09 JUMPI PUSH1 0x0 DUP1 REVERT JUMPDEST PUSH1 0x0 PUSH2 0x2A17 DUP5 DUP3 DUP6 ADD PUSH2 0x269B JUMP JUMPDEST SWAP2 POP POP SWAP3 SWAP2 POP POP JUMP JUMPDEST PUSH1 0x0 PUSH1 0x20 DUP3 DUP5 SUB SLT ISZERO PUSH2 0x2A32 JUMPI PUSH1 0x0 DUP1 REVERT JUMPDEST PUSH1 0x0 PUSH2 0x2A40 DUP5 DUP3 DUP6 ADD PUSH2 0x26C5 JUMP JUMPDEST SWAP2 POP POP SWAP3 SWAP2 POP POP JUMP JUMPDEST PUSH1 0x0 PUSH1 0x20 DUP3 DUP5 SUB SLT ISZERO PUSH2 0x2A5B JUMPI PUSH1 0x0 DUP1 REVERT JUMPDEST PUSH1 0x0 DUP3 ADD MLOAD PUSH8 0xFFFFFFFFFFFFFFFF DUP2 GT ISZERO PUSH2 0x2A75 JUMPI PUSH1 0x0 DUP1 REVERT JUMPDEST PUSH2 0x2A81 DUP5 DUP3 DUP6 ADD PUSH2 0x2704 JUMP JUMPDEST SWAP2 POP POP SWAP3 SWAP2 POP POP JUMP JUMPDEST PUSH1 0x0 PUSH1 0x20 DUP3 DUP5 SUB SLT ISZERO PUSH2 0x2A9C JUMPI PUSH1 0x0 DUP1 REVERT JUMPDEST PUSH1 0x0 PUSH2 0x2AAA DUP5 DUP3 DUP6 ADD PUSH2 0x272E JUMP JUMPDEST SWAP2 POP POP SWAP3 SWAP2 POP POP JUMP JUMPDEST PUSH1 0x0 PUSH2 0x2ABF DUP4 DUP4 PUSH2 0x2B8F JUMP JUMPDEST SWAP1 POP SWAP3 SWAP2 POP POP JUMP JUMPDEST PUSH2 0x2AD0 DUP2 PUSH2 0x3AE6 JUMP JUMPDEST DUP3 MSTORE POP POP JUMP JUMPDEST PUSH2 0x2AE7 PUSH2 0x2AE2 DUP3 PUSH2 0x3AE6 JUMP JUMPDEST PUSH2 0x3C21 JUMP JUMPDEST DUP3 MSTORE POP POP JUMP JUMPDEST PUSH1 0x0 PUSH2 0x2AF8 DUP3 PUSH2 0x39DF JUMP JUMPDEST PUSH2 0x2B02 DUP2 DUP6 PUSH2 0x3A0D JUMP JUMPDEST SWAP4 POP DUP4 PUSH1 0x20 DUP3 MUL DUP6 ADD PUSH2 0x2B14 DUP6 PUSH2 0x39CF JUMP JUMPDEST DUP1 PUSH1 0x0 JUMPDEST DUP6 DUP2 LT ISZERO PUSH2 0x2B50 JUMPI DUP5 DUP5 SUB DUP10 MSTORE DUP2 MLOAD PUSH2 0x2B31 DUP6 DUP3 PUSH2 0x2AB3 JUMP JUMPDEST SWAP5 POP PUSH2 0x2B3C DUP4 PUSH2 0x3A00 JUMP JUMPDEST SWAP3 POP PUSH1 0x20 DUP11 ADD SWAP10 POP POP PUSH1 0x1 DUP2 ADD SWAP1 POP PUSH2 0x2B18 JUMP JUMPDEST POP DUP3 SWAP8 POP DUP8 SWAP6 POP POP POP POP POP POP SWAP3 SWAP2 POP POP JUMP JUMPDEST PUSH2 0x2B6B DUP2 PUSH2 0x3AF8 JUMP JUMPDEST DUP3 MSTORE POP POP JUMP JUMPDEST PUSH2 0x2B7A DUP2 PUSH2 0x3B04 JUMP JUMPDEST DUP3 MSTORE POP POP JUMP JUMPDEST PUSH2 0x2B89 DUP2 PUSH2 0x3B0E JUMP JUMPDEST DUP3 MSTORE POP POP JUMP JUMPDEST PUSH1 0x0 PUSH2 0x2B9A DUP3 PUSH2 0x39EA JUMP JUMPDEST PUSH2 0x2BA4 DUP2 DUP6 PUSH2 0x3A1E JUMP JUMPDEST SWAP4 POP PUSH2 0x2BB4 DUP2 DUP6 PUSH1 0x20 DUP7 ADD PUSH2 0x3B73 JUMP JUMPDEST PUSH2 0x2BBD DUP2 PUSH2 0x3CDC JUMP JUMPDEST DUP5 ADD SWAP2 POP POP SWAP3 SWAP2 POP POP JUMP JUMPDEST PUSH1 0x0 PUSH2 0x2BD3 DUP3 PUSH2 0x39EA JUMP JUMPDEST PUSH2 0x2BDD DUP2 DUP6 PUSH2 0x3A2F JUMP JUMPDEST SWAP4 POP PUSH2 0x2BED DUP2 DUP6 PUSH1 0x20 DUP7 ADD PUSH2 0x3B73 JUMP JUMPDEST PUSH2 0x2BF6 DUP2 PUSH2 0x3CDC JUMP JUMPDEST DUP5 ADD SWAP2 POP POP SWAP3 SWAP2 POP POP JUMP JUMPDEST PUSH1 0x0 PUSH2 0x2C0C DUP3 PUSH2 0x39EA JUMP JUMPDEST PUSH2 0x2C16 DUP2 DUP6 PUSH2 0x3A40 JUMP JUMPDEST SWAP4 POP PUSH2 0x2C26 DUP2 DUP6 PUSH1 0x20 DUP7 ADD PUSH2 0x3B73 JUMP JUMPDEST DUP1 DUP5 ADD SWAP2 POP POP SWAP3 SWAP2 POP POP JUMP JUMPDEST PUSH1 0x0 PUSH2 0x2C3D DUP3 PUSH2 0x39F5 JUMP JUMPDEST PUSH2 0x2C47 DUP2 DUP6 PUSH2 0x3A4B JUMP JUMPDEST SWAP4 POP PUSH2 0x2C57 DUP2 DUP6 PUSH1 0x20 DUP7 ADD PUSH2 0x3B73 JUMP JUMPDEST PUSH2 0x2C60 DUP2 PUSH2 0x3CDC JUMP JUMPDEST DUP5 ADD SWAP2 POP POP SWAP3 SWAP2 POP POP JUMP JUMPDEST PUSH1 0x0 PUSH2 0x2C78 PUSH1 0x1B DUP4 PUSH2 0x3A4B JUMP JUMPDEST SWAP2 POP PUSH32 0x4C5350373A20746F6B656E20726563656976657220697320454F410000000000 PUSH1 0x0 DUP4 ADD MSTORE PUSH1 0x20 DUP3 ADD SWAP1 POP SWAP2 SWAP1 POP JUMP JUMPDEST PUSH1 0x0 PUSH2 0x2CB8 PUSH1 0x34 DUP4 PUSH2 0x3A4B JUMP JUMPDEST SWAP2 POP PUSH32 0x4C5350373A206275726E20616D6F756E742065786365656473206F7065726174 PUSH1 0x0 DUP4 ADD MSTORE PUSH32 0x6F7220617574686F72697A656420616D6F756E74000000000000000000000000 PUSH1 0x20 DUP4 ADD MSTORE PUSH1 0x40 DUP3 ADD SWAP1 POP SWAP2 SWAP1 POP JUMP JUMPDEST PUSH1 0x0 PUSH2 0x2D1E PUSH1 0x38 DUP4 PUSH2 0x3A4B JUMP JUMPDEST SWAP2 POP PUSH32 0x4C5350373A207472616E7366657220616D6F756E742065786365656473206F70 PUSH1 0x0 DUP4 ADD MSTORE PUSH32 0x657261746F7220617574686F72697A656420616D6F756E740000000000000000 PUSH1 0x20 DUP4 ADD MSTORE PUSH1 0x40 DUP3 ADD SWAP1 POP SWAP2 SWAP1 POP JUMP JUMPDEST PUSH1 0x0 PUSH2 0x2D84 PUSH1 0x28 DUP4 PUSH2 0x3A4B JUMP JUMPDEST SWAP2 POP PUSH32 0x4C5350373A207472616E736665724261746368206C697374206C656E67746820 PUSH1 0x0 DUP4 ADD MSTORE PUSH32 0x6D69736D61746368000000000000000000000000000000000000000000000000 PUSH1 0x20 DUP4 ADD MSTORE PUSH1 0x40 DUP3 ADD SWAP1 POP SWAP2 SWAP1 POP JUMP JUMPDEST PUSH1 0x0 PUSH2 0x2DEA PUSH1 0x29 DUP4 PUSH2 0x3A4B JUMP JUMPDEST SWAP2 POP PUSH32 0x4F776E61626C653A206F776E65722063616E206F6E6C7920626520696E697469 PUSH1 0x0 DUP4 ADD MSTORE PUSH32 0x61746564206F6E63650000000000000000000000000000000000000000000000 PUSH1 0x20 DUP4 ADD MSTORE PUSH1 0x40 DUP3 ADD SWAP1 POP SWAP2 SWAP1 POP JUMP JUMPDEST PUSH1 0x0 PUSH2 0x2E50 PUSH1 0x26 DUP4 PUSH2 0x3A4B JUMP JUMPDEST SWAP2 POP PUSH32 0x4F776E61626C653A206E6577206F776E657220697320746865207A65726F2061 PUSH1 0x0 DUP4 ADD MSTORE PUSH32 0x6464726573730000000000000000000000000000000000000000000000000000 PUSH1 0x20 DUP4 ADD MSTORE PUSH1 0x40 DUP3 ADD SWAP1 POP SWAP2 SWAP1 POP JUMP JUMPDEST PUSH1 0x0 PUSH2 0x2EB6 PUSH1 0x2A DUP4 PUSH2 0x3A4B JUMP JUMPDEST SWAP2 POP PUSH32 0x4C5350373A206D696E7420746F20746865207A65726F2061646472657373206E PUSH1 0x0 DUP4 ADD MSTORE PUSH32 0x6F7420616C6C6F77656400000000000000000000000000000000000000000000 PUSH1 0x20 DUP4 ADD MSTORE PUSH1 0x40 DUP3 ADD SWAP1 POP SWAP2 SWAP1 POP JUMP JUMPDEST PUSH1 0x0 PUSH2 0x2F1C PUSH1 0x43 DUP4 PUSH2 0x3A4B JUMP JUMPDEST SWAP2 POP PUSH32 0x4C5350373A207570646174696E67206F70657261746F72206661696C65642C20 PUSH1 0x0 DUP4 ADD MSTORE PUSH32 0x63616E206E6F742075736520746F6B656E206F776E6572206173206F70657261 PUSH1 0x20 DUP4 ADD MSTORE PUSH32 0x746F720000000000000000000000000000000000000000000000000000000000 PUSH1 0x40 DUP4 ADD MSTORE PUSH1 0x60 DUP3 ADD SWAP1 POP SWAP2 SWAP1 POP JUMP JUMPDEST PUSH1 0x0 PUSH2 0x2FA8 PUSH1 0x45 DUP4 PUSH2 0x3A4B JUMP JUMPDEST SWAP2 POP PUSH32 0x4C5350373A207570646174696E67206F70657261746F72206661696C65642C20 PUSH1 0x0 DUP4 ADD MSTORE PUSH32 0x63616E206E6F7420736574206F70657261746F7220666F72207A65726F206164 PUSH1 0x20 DUP4 ADD MSTORE PUSH32 0x6472657373000000000000000000000000000000000000000000000000000000 PUSH1 0x40 DUP4 ADD MSTORE PUSH1 0x60 DUP3 ADD SWAP1 POP SWAP2 SWAP1 POP JUMP JUMPDEST PUSH1 0x0 PUSH2 0x3034 PUSH1 0x30 DUP4 PUSH2 0x3A4B JUMP JUMPDEST SWAP2 POP PUSH32 0x4C5350373A207472616E7366657220616D6F756E74206578636565647320746F PUSH1 0x0 DUP4 ADD MSTORE PUSH32 0x6B656E4F776E65722062616C616E636500000000000000000000000000000000 PUSH1 0x20 DUP4 ADD MSTORE PUSH1 0x40 DUP3 ADD SWAP1 POP SWAP2 SWAP1 POP JUMP JUMPDEST PUSH1 0x0 PUSH2 0x309A PUSH1 0x34 DUP4 PUSH2 0x3A4B JUMP JUMPDEST SWAP2 POP PUSH32 0x4C5350373A20746F6B656E20726563656976657220636F6E7472616374206D69 PUSH1 0x0 DUP4 ADD MSTORE PUSH32 0x7373696E67204C53503120696E74657266616365000000000000000000000000 PUSH1 0x20 DUP4 ADD MSTORE PUSH1 0x40 DUP3 ADD SWAP1 POP SWAP2 SWAP1 POP JUMP JUMPDEST PUSH1 0x0 PUSH2 0x3100 PUSH1 0xC DUP4 PUSH2 0x3A4B JUMP JUMPDEST SWAP2 POP PUSH32 0x756E617574686F72697A65640000000000000000000000000000000000000000 PUSH1 0x0 DUP4 ADD MSTORE PUSH1 0x20 DUP3 ADD SWAP1 POP SWAP2 SWAP1 POP JUMP JUMPDEST PUSH1 0x0 PUSH2 0x3140 PUSH1 0x24 DUP4 PUSH2 0x3A4B JUMP JUMPDEST SWAP2 POP PUSH32 0x4C5350373A207472616E736665722066726F6D20746865207A65726F20616464 PUSH1 0x0 DUP4 ADD MSTORE PUSH32 0x7265737300000000000000000000000000000000000000000000000000000000 PUSH1 0x20 DUP4 ADD MSTORE PUSH1 0x40 DUP3 ADD SWAP1 POP SWAP2 SWAP1 POP JUMP JUMPDEST PUSH1 0x0 PUSH2 0x31A6 PUSH1 0x20 DUP4 PUSH2 0x3A4B JUMP JUMPDEST SWAP2 POP PUSH32 0x4F776E61626C653A2063616C6C6572206973206E6F7420746865206F776E6572 PUSH1 0x0 DUP4 ADD MSTORE PUSH1 0x20 DUP3 ADD SWAP1 POP SWAP2 SWAP1 POP JUMP JUMPDEST PUSH1 0x0 PUSH2 0x31E6 PUSH1 0x28 DUP4 PUSH2 0x3A4B JUMP JUMPDEST SWAP2 POP PUSH32 0x4C535037436170706564537570706C793A20746F6B656E537570706C79436170 PUSH1 0x0 DUP4 ADD MSTORE PUSH32 0x2072656163686564000000000000000000000000000000000000000000000000 PUSH1 0x20 DUP4 ADD MSTORE PUSH1 0x40 DUP3 ADD SWAP1 POP SWAP2 SWAP1 POP JUMP JUMPDEST PUSH1 0x0 PUSH2 0x324C PUSH1 0x22 DUP4 PUSH2 0x3A4B JUMP JUMPDEST SWAP2 POP PUSH32 0x4C5350373A207472616E7366657220746F20746865207A65726F206164647265 PUSH1 0x0 DUP4 ADD MSTORE PUSH32 0x7373000000000000000000000000000000000000000000000000000000000000 PUSH1 0x20 DUP4 ADD MSTORE PUSH1 0x40 DUP3 ADD SWAP1 POP SWAP2 SWAP1 POP JUMP JUMPDEST PUSH1 0x0 PUSH2 0x32B2 PUSH1 0x40 DUP4 PUSH2 0x3A4B JUMP JUMPDEST SWAP2 POP PUSH32 0x4C5350373A207570646174696E67206F70657261746F72206661696C65642C20 PUSH1 0x0 DUP4 ADD MSTORE PUSH32 0x6F70657261746F722063616E206E6F74206265207A65726F2061646472657373 PUSH1 0x20 DUP4 ADD MSTORE PUSH1 0x40 DUP3 ADD SWAP1 POP SWAP2 SWAP1 POP JUMP JUMPDEST PUSH1 0x0 PUSH2 0x3318 PUSH1 0x20 DUP4 PUSH2 0x3A4B JUMP JUMPDEST SWAP2 POP PUSH32 0x4C5350373A206275726E2066726F6D20746865207A65726F2061646472657373 PUSH1 0x0 DUP4 ADD MSTORE PUSH1 0x20 DUP3 ADD SWAP1 POP SWAP2 SWAP1 POP JUMP JUMPDEST PUSH1 0x0 PUSH2 0x3358 PUSH1 0x26 DUP4 PUSH2 0x3A4B JUMP JUMPDEST SWAP2 POP PUSH32 0x4B657973206C656E677468206E6F7420657175616C20746F2076616C75657320 PUSH1 0x0 DUP4 ADD MSTORE PUSH32 0x6C656E6774680000000000000000000000000000000000000000000000000000 PUSH1 0x20 DUP4 ADD MSTORE PUSH1 0x40 DUP3 ADD SWAP1 POP SWAP2 SWAP1 POP JUMP JUMPDEST PUSH1 0x0 PUSH2 0x33BE PUSH1 0x2C DUP4 PUSH2 0x3A4B JUMP JUMPDEST SWAP2 POP PUSH32 0x4C5350373A206275726E20616D6F756E74206578636565647320746F6B656E4F PUSH1 0x0 DUP4 ADD MSTORE PUSH32 0x776E65722062616C616E63650000000000000000000000000000000000000000 PUSH1 0x20 DUP4 ADD MSTORE PUSH1 0x40 DUP3 ADD SWAP1 POP SWAP2 SWAP1 POP JUMP JUMPDEST PUSH2 0x3420 DUP2 PUSH2 0x3B5A JUMP JUMPDEST DUP3 MSTORE POP POP JUMP JUMPDEST PUSH2 0x3437 PUSH2 0x3432 DUP3 PUSH2 0x3B5A JUMP JUMPDEST PUSH2 0x3C45 JUMP JUMPDEST DUP3 MSTORE POP POP JUMP JUMPDEST PUSH1 0x0 PUSH2 0x3449 DUP3 DUP8 PUSH2 0x2AD6 JUMP JUMPDEST PUSH1 0x14 DUP3 ADD SWAP2 POP PUSH2 0x3459 DUP3 DUP7 PUSH2 0x2AD6 JUMP JUMPDEST PUSH1 0x14 DUP3 ADD SWAP2 POP PUSH2 0x3469 DUP3 DUP6 PUSH2 0x3426 JUMP JUMPDEST PUSH1 0x20 DUP3 ADD SWAP2 POP PUSH2 0x3479 DUP3 DUP5 PUSH2 0x2C01 JUMP JUMPDEST SWAP2 POP DUP2 SWAP1 POP SWAP6 SWAP5 POP POP POP POP POP JUMP JUMPDEST PUSH1 0x0 PUSH2 0x3493 DUP3 DUP5 PUSH2 0x2C01 JUMP JUMPDEST SWAP2 POP DUP2 SWAP1 POP SWAP3 SWAP2 POP POP JUMP JUMPDEST PUSH1 0x0 PUSH1 0x20 DUP3 ADD SWAP1 POP PUSH2 0x34B3 PUSH1 0x0 DUP4 ADD DUP5 PUSH2 0x2AC7 JUMP JUMPDEST SWAP3 SWAP2 POP POP JUMP JUMPDEST PUSH1 0x0 PUSH1 0x60 DUP3 ADD SWAP1 POP PUSH2 0x34CE PUSH1 0x0 DUP4 ADD DUP7 PUSH2 0x2AC7 JUMP JUMPDEST PUSH2 0x34DB PUSH1 0x20 DUP4 ADD DUP6 PUSH2 0x2AC7 JUMP JUMPDEST PUSH2 0x34E8 PUSH1 0x40 DUP4 ADD DUP5 PUSH2 0x3417 JUMP JUMPDEST SWAP5 SWAP4 POP POP POP POP JUMP JUMPDEST PUSH1 0x0 PUSH1 0x40 DUP3 ADD SWAP1 POP PUSH2 0x3505 PUSH1 0x0 DUP4 ADD DUP6 PUSH2 0x2AC7 JUMP JUMPDEST PUSH2 0x3512 PUSH1 0x20 DUP4 ADD DUP5 PUSH2 0x3417 JUMP JUMPDEST SWAP4 SWAP3 POP POP POP JUMP JUMPDEST PUSH1 0x0 PUSH1 0x20 DUP3 ADD SWAP1 POP DUP2 DUP2 SUB PUSH1 0x0 DUP4 ADD MSTORE PUSH2 0x3533 DUP2 DUP5 PUSH2 0x2AED JUMP JUMPDEST SWAP1 POP SWAP3 SWAP2 POP POP JUMP JUMPDEST PUSH1 0x0 PUSH1 0x20 DUP3 ADD SWAP1 POP PUSH2 0x3550 PUSH1 0x0 DUP4 ADD DUP5 PUSH2 0x2B62 JUMP JUMPDEST SWAP3 SWAP2 POP POP JUMP JUMPDEST PUSH1 0x0 PUSH1 0x40 DUP3 ADD SWAP1 POP PUSH2 0x356B PUSH1 0x0 DUP4 ADD DUP6 PUSH2 0x2B71 JUMP JUMPDEST DUP2 DUP2 SUB PUSH1 0x20 DUP4 ADD MSTORE PUSH2 0x357D DUP2 DUP5 PUSH2 0x2BC8 JUMP JUMPDEST SWAP1 POP SWAP4 SWAP3 POP POP POP JUMP JUMPDEST PUSH1 0x0 PUSH1 0x20 DUP3 ADD SWAP1 POP PUSH2 0x359B PUSH1 0x0 DUP4 ADD DUP5 PUSH2 0x2B80 JUMP JUMPDEST SWAP3 SWAP2 POP POP JUMP JUMPDEST PUSH1 0x0 PUSH1 0x20 DUP3 ADD SWAP1 POP DUP2 DUP2 SUB PUSH1 0x0 DUP4 ADD MSTORE PUSH2 0x35BB DUP2 DUP5 PUSH2 0x2BC8 JUMP JUMPDEST SWAP1 POP SWAP3 SWAP2 POP POP JUMP JUMPDEST PUSH1 0x0 PUSH1 0x20 DUP3 ADD SWAP1 POP DUP2 DUP2 SUB PUSH1 0x0 DUP4 ADD MSTORE PUSH2 0x35DD DUP2 DUP5 PUSH2 0x2C32 JUMP JUMPDEST SWAP1 POP SWAP3 SWAP2 POP POP JUMP JUMPDEST PUSH1 0x0 PUSH1 0x20 DUP3 ADD SWAP1 POP DUP2 DUP2 SUB PUSH1 0x0 DUP4 ADD MSTORE PUSH2 0x35FE DUP2 PUSH2 0x2C6B JUMP JUMPDEST SWAP1 POP SWAP2 SWAP1 POP JUMP JUMPDEST PUSH1 0x0 PUSH1 0x20 DUP3 ADD SWAP1 POP DUP2 DUP2 SUB PUSH1 0x0 DUP4 ADD MSTORE PUSH2 0x361E DUP2 PUSH2 0x2CAB JUMP JUMPDEST SWAP1 POP SWAP2 SWAP1 POP JUMP JUMPDEST PUSH1 0x0 PUSH1 0x20 DUP3 ADD SWAP1 POP DUP2 DUP2 SUB PUSH1 0x0 DUP4 ADD MSTORE PUSH2 0x363E DUP2 PUSH2 0x2D11 JUMP JUMPDEST SWAP1 POP SWAP2 SWAP1 POP JUMP JUMPDEST PUSH1 0x0 PUSH1 0x20 DUP3 ADD SWAP1 POP DUP2 DUP2 SUB PUSH1 0x0 DUP4 ADD MSTORE PUSH2 0x365E DUP2 PUSH2 0x2D77 JUMP JUMPDEST SWAP1 POP SWAP2 SWAP1 POP JUMP JUMPDEST PUSH1 0x0 PUSH1 0x20 DUP3 ADD SWAP1 POP DUP2 DUP2 SUB PUSH1 0x0 DUP4 ADD MSTORE PUSH2 0x367E DUP2 PUSH2 0x2DDD JUMP JUMPDEST SWAP1 POP SWAP2 SWAP1 POP JUMP JUMPDEST PUSH1 0x0 PUSH1 0x20 DUP3 ADD SWAP1 POP DUP2 DUP2 SUB PUSH1 0x0 DUP4 ADD MSTORE PUSH2 0x369E DUP2 PUSH2 0x2E43 JUMP JUMPDEST SWAP1 POP SWAP2 SWAP1 POP JUMP JUMPDEST PUSH1 0x0 PUSH1 0x20 DUP3 ADD SWAP1 POP DUP2 DUP2 SUB PUSH1 0x0 DUP4 ADD MSTORE PUSH2 0x36BE DUP2 PUSH2 0x2EA9 JUMP JUMPDEST SWAP1 POP SWAP2 SWAP1 POP JUMP JUMPDEST PUSH1 0x0 PUSH1 0x20 DUP3 ADD SWAP1 POP DUP2 DUP2 SUB PUSH1 0x0 DUP4 ADD MSTORE PUSH2 0x36DE DUP2 PUSH2 0x2F0F JUMP JUMPDEST SWAP1 POP SWAP2 SWAP1 POP JUMP JUMPDEST PUSH1 0x0 PUSH1 0x20 DUP3 ADD SWAP1 POP DUP2 DUP2 SUB PUSH1 0x0 DUP4 ADD MSTORE PUSH2 0x36FE DUP2 PUSH2 0x2F9B JUMP JUMPDEST SWAP1 POP SWAP2 SWAP1 POP JUMP JUMPDEST PUSH1 0x0 PUSH1 0x20 DUP3 ADD SWAP1 POP DUP2 DUP2 SUB PUSH1 0x0 DUP4 ADD MSTORE PUSH2 0x371E DUP2 PUSH2 0x3027 JUMP JUMPDEST SWAP1 POP SWAP2 SWAP1 POP JUMP JUMPDEST PUSH1 0x0 PUSH1 0x20 DUP3 ADD SWAP1 POP DUP2 DUP2 SUB PUSH1 0x0 DUP4 ADD MSTORE PUSH2 0x373E DUP2 PUSH2 0x308D JUMP JUMPDEST SWAP1 POP SWAP2 SWAP1 POP JUMP JUMPDEST PUSH1 0x0 PUSH1 0x20 DUP3 ADD SWAP1 POP DUP2 DUP2 SUB PUSH1 0x0 DUP4 ADD MSTORE PUSH2 0x375E DUP2 PUSH2 0x30F3 JUMP JUMPDEST SWAP1 POP SWAP2 SWAP1 POP JUMP JUMPDEST PUSH1 0x0 PUSH1 0x20 DUP3 ADD SWAP1 POP DUP2 DUP2 SUB PUSH1 0x0 DUP4 ADD MSTORE PUSH2 0x377E DUP2 PUSH2 0x3133 JUMP JUMPDEST SWAP1 POP SWAP2 SWAP1 POP JUMP JUMPDEST PUSH1 0x0 PUSH1 0x20 DUP3 ADD SWAP1 POP DUP2 DUP2 SUB PUSH1 0x0 DUP4 ADD MSTORE PUSH2 0x379E DUP2 PUSH2 0x3199 JUMP JUMPDEST SWAP1 POP SWAP2 SWAP1 POP JUMP JUMPDEST PUSH1 0x0 PUSH1 0x20 DUP3 ADD SWAP1 POP DUP2 DUP2 SUB PUSH1 0x0 DUP4 ADD MSTORE PUSH2 0x37BE DUP2 PUSH2 0x31D9 JUMP JUMPDEST SWAP1 POP SWAP2 SWAP1 POP JUMP JUMPDEST PUSH1 0x0 PUSH1 0x20 DUP3 ADD SWAP1 POP DUP2 DUP2 SUB PUSH1 0x0 DUP4 ADD MSTORE PUSH2 0x37DE DUP2 PUSH2 0x323F JUMP JUMPDEST SWAP1 POP SWAP2 SWAP1 POP JUMP JUMPDEST PUSH1 0x0 PUSH1 0x20 DUP3 ADD SWAP1 POP DUP2 DUP2 SUB PUSH1 0x0 DUP4 ADD MSTORE PUSH2 0x37FE DUP2 PUSH2 0x32A5 JUMP JUMPDEST SWAP1 POP SWAP2 SWAP1 POP JUMP JUMPDEST PUSH1 0x0 PUSH1 0x20 DUP3 ADD SWAP1 POP DUP2 DUP2 SUB PUSH1 0x0 DUP4 ADD MSTORE PUSH2 0x381E DUP2 PUSH2 0x330B JUMP JUMPDEST SWAP1 POP SWAP2 SWAP1 POP JUMP JUMPDEST PUSH1 0x0 PUSH1 0x20 DUP3 ADD SWAP1 POP DUP2 DUP2 SUB PUSH1 0x0 DUP4 ADD MSTORE PUSH2 0x383E DUP2 PUSH2 0x334B JUMP JUMPDEST SWAP1 POP SWAP2 SWAP1 POP JUMP JUMPDEST PUSH1 0x0 PUSH1 0x20 DUP3 ADD SWAP1 POP DUP2 DUP2 SUB PUSH1 0x0 DUP4 ADD MSTORE PUSH2 0x385E DUP2 PUSH2 0x33B1 JUMP JUMPDEST SWAP1 POP SWAP2 SWAP1 POP JUMP JUMPDEST PUSH1 0x0 PUSH1 0x20 DUP3 ADD SWAP1 POP PUSH2 0x387A PUSH1 0x0 DUP4 ADD DUP5 PUSH2 0x3417 JUMP JUMPDEST SWAP3 SWAP2 POP POP JUMP JUMPDEST PUSH1 0x0 PUSH1 0x60 DUP3 ADD SWAP1 POP PUSH2 0x3895 PUSH1 0x0 DUP4 ADD DUP7 PUSH2 0x3417 JUMP JUMPDEST PUSH2 0x38A2 PUSH1 0x20 DUP4 ADD DUP6 PUSH2 0x2B62 JUMP JUMPDEST DUP2 DUP2 SUB PUSH1 0x40 DUP4 ADD MSTORE PUSH2 0x38B4 DUP2 DUP5 PUSH2 0x2BC8 JUMP JUMPDEST SWAP1 POP SWAP5 SWAP4 POP POP POP POP JUMP JUMPDEST PUSH1 0x0 PUSH1 0x40 MLOAD SWAP1 POP DUP2 DUP2 ADD DUP2 DUP2 LT PUSH8 0xFFFFFFFFFFFFFFFF DUP3 GT OR ISZERO PUSH2 0x38E5 JUMPI PUSH2 0x38E4 PUSH2 0x3CAD JUMP JUMPDEST JUMPDEST DUP1 PUSH1 0x40 MSTORE POP SWAP2 SWAP1 POP JUMP JUMPDEST PUSH1 0x0 PUSH8 0xFFFFFFFFFFFFFFFF DUP3 GT ISZERO PUSH2 0x390A JUMPI PUSH2 0x3909 PUSH2 0x3CAD JUMP JUMPDEST JUMPDEST PUSH1 0x20 DUP3 MUL SWAP1 POP PUSH1 0x20 DUP2 ADD SWAP1 POP SWAP2 SWAP1 POP JUMP JUMPDEST PUSH1 0x0 PUSH8 0xFFFFFFFFFFFFFFFF DUP3 GT ISZERO PUSH2 0x3936 JUMPI PUSH2 0x3935 PUSH2 0x3CAD JUMP JUMPDEST JUMPDEST PUSH1 0x20 DUP3 MUL SWAP1 POP PUSH1 0x20 DUP2 ADD SWAP1 POP SWAP2 SWAP1 POP JUMP JUMPDEST PUSH1 0x0 PUSH8 0xFFFFFFFFFFFFFFFF DUP3 GT ISZERO PUSH2 0x3962 JUMPI PUSH2 0x3961 PUSH2 0x3CAD JUMP JUMPDEST JUMPDEST PUSH1 0x20 DUP3 MUL SWAP1 POP PUSH1 0x20 DUP2 ADD SWAP1 POP SWAP2 SWAP1 POP JUMP JUMPDEST PUSH1 0x0 PUSH8 0xFFFFFFFFFFFFFFFF DUP3 GT ISZERO PUSH2 0x398E JUMPI PUSH2 0x398D PUSH2 0x3CAD JUMP JUMPDEST JUMPDEST PUSH1 0x20 DUP3 MUL SWAP1 POP PUSH1 0x20 DUP2 ADD SWAP1 POP SWAP2 SWAP1 POP JUMP JUMPDEST PUSH1 0x0 PUSH8 0xFFFFFFFFFFFFFFFF DUP3 GT ISZERO PUSH2 0x39BA JUMPI PUSH2 0x39B9 PUSH2 0x3CAD JUMP JUMPDEST JUMPDEST PUSH1 0x1F NOT PUSH1 0x1F DUP4 ADD AND SWAP1 POP PUSH1 0x20 DUP2 ADD SWAP1 POP SWAP2 SWAP1 POP JUMP JUMPDEST PUSH1 0x0 DUP2 SWAP1 POP PUSH1 0x20 DUP3 ADD SWAP1 POP SWAP2 SWAP1 POP JUMP JUMPDEST PUSH1 0x0 DUP2 MLOAD SWAP1 POP SWAP2 SWAP1 POP JUMP JUMPDEST PUSH1 0x0 DUP2 MLOAD SWAP1 POP SWAP2 SWAP1 POP JUMP JUMPDEST PUSH1 0x0 DUP2 MLOAD SWAP1 POP SWAP2 SWAP1 POP JUMP JUMPDEST PUSH1 0x0 PUSH1 0x20 DUP3 ADD SWAP1 POP SWAP2 SWAP1 POP JUMP JUMPDEST PUSH1 0x0 DUP3 DUP3 MSTORE PUSH1 0x20 DUP3 ADD SWAP1 POP SWAP3 SWAP2 POP POP JUMP JUMPDEST PUSH1 0x0 DUP3 DUP3 MSTORE PUSH1 0x20 DUP3 ADD SWAP1 POP SWAP3 SWAP2 POP POP JUMP JUMPDEST PUSH1 0x0 DUP3 DUP3 MSTORE PUSH1 0x20 DUP3 ADD SWAP1 POP SWAP3 SWAP2 POP POP JUMP JUMPDEST PUSH1 0x0 DUP2 SWAP1 POP SWAP3 SWAP2 POP POP JUMP JUMPDEST PUSH1 0x0 DUP3 DUP3 MSTORE PUSH1 0x20 DUP3 ADD SWAP1 POP SWAP3 SWAP2 POP POP JUMP JUMPDEST PUSH1 0x0 PUSH2 0x3A67 DUP3 PUSH2 0x3B5A JUMP JUMPDEST SWAP2 POP PUSH2 0x3A72 DUP4 PUSH2 0x3B5A JUMP JUMPDEST SWAP3 POP DUP3 PUSH32 0xFFFFFFFFFFFFFFFFFFFFFFFFFFFFFFFFFFFFFFFFFFFFFFFFFFFFFFFFFFFFFFFF SUB DUP3 GT ISZERO PUSH2 0x3AA7 JUMPI PUSH2 0x3AA6 PUSH2 0x3C4F JUMP JUMPDEST JUMPDEST DUP3 DUP3 ADD SWAP1 POP SWAP3 SWAP2 POP POP JUMP JUMPDEST PUSH1 0x0 PUSH2 0x3ABD DUP3 PUSH2 0x3B5A JUMP JUMPDEST SWAP2 POP PUSH2 0x3AC8 DUP4 PUSH2 0x3B5A JUMP JUMPDEST SWAP3 POP DUP3 DUP3 LT ISZERO PUSH2 0x3ADB JUMPI PUSH2 0x3ADA PUSH2 0x3C4F JUMP JUMPDEST JUMPDEST DUP3 DUP3 SUB SWAP1 POP SWAP3 SWAP2 POP POP JUMP JUMPDEST PUSH1 0x0 PUSH2 0x3AF1 DUP3 PUSH2 0x3B3A JUMP JUMPDEST SWAP1 POP SWAP2 SWAP1 POP JUMP JUMPDEST PUSH1 0x0 DUP2 ISZERO ISZERO SWAP1 POP SWAP2 SWAP1 POP JUMP JUMPDEST PUSH1 0x0 DUP2 SWAP1 POP SWAP2 SWAP1 POP JUMP JUMPDEST PUSH1 0x0 PUSH32 0xFFFFFFFF00000000000000000000000000000000000000000000000000000000 DUP3 AND SWAP1 POP SWAP2 SWAP1 POP JUMP JUMPDEST PUSH1 0x0 PUSH20 0xFFFFFFFFFFFFFFFFFFFFFFFFFFFFFFFFFFFFFFFF DUP3 AND SWAP1 POP SWAP2 SWAP1 POP JUMP JUMPDEST PUSH1 0x0 DUP2 SWAP1 POP SWAP2 SWAP1 POP JUMP JUMPDEST DUP3 DUP2 DUP4 CALLDATACOPY PUSH1 0x0 DUP4 DUP4 ADD MSTORE POP POP POP JUMP JUMPDEST PUSH1 0x0 JUMPDEST DUP4 DUP2 LT ISZERO PUSH2 0x3B91 JUMPI DUP1 DUP3 ADD MLOAD DUP2 DUP5 ADD MSTORE PUSH1 0x20 DUP2 ADD SWAP1 POP PUSH2 0x3B76 JUMP JUMPDEST DUP4 DUP2 GT ISZERO PUSH2 0x3BA0 JUMPI PUSH1 0x0 DUP5 DUP5 ADD MSTORE JUMPDEST POP POP POP POP JUMP JUMPDEST PUSH1 0x0 PUSH1 0x2 DUP3 DIV SWAP1 POP PUSH1 0x1 DUP3 AND DUP1 PUSH2 0x3BBE JUMPI PUSH1 0x7F DUP3 AND SWAP2 POP JUMPDEST PUSH1 0x20 DUP3 LT DUP2 EQ ISZERO PUSH2 0x3BD2 JUMPI PUSH2 0x3BD1 PUSH2 0x3C7E JUMP JUMPDEST JUMPDEST POP SWAP2 SWAP1 POP JUMP JUMPDEST PUSH1 0x0 PUSH2 0x3BE3 DUP3 PUSH2 0x3B5A JUMP JUMPDEST SWAP2 POP PUSH32 0xFFFFFFFFFFFFFFFFFFFFFFFFFFFFFFFFFFFFFFFFFFFFFFFFFFFFFFFFFFFFFFFF DUP3 EQ ISZERO PUSH2 0x3C16 JUMPI PUSH2 0x3C15 PUSH2 0x3C4F JUMP JUMPDEST JUMPDEST PUSH1 0x1 DUP3 ADD SWAP1 POP SWAP2 SWAP1 POP JUMP JUMPDEST PUSH1 0x0 PUSH2 0x3C2C DUP3 PUSH2 0x3C33 JUMP JUMPDEST SWAP1 POP SWAP2 SWAP1 POP JUMP JUMPDEST PUSH1 0x0 PUSH2 0x3C3E DUP3 PUSH2 0x3CED JUMP JUMPDEST SWAP1 POP SWAP2 SWAP1 POP JUMP JUMPDEST PUSH1 0x0 DUP2 SWAP1 POP SWAP2 SWAP1 POP JUMP JUMPDEST PUSH32 0x4E487B7100000000000000000000000000000000000000000000000000000000 PUSH1 0x0 MSTORE PUSH1 0x11 PUSH1 0x4 MSTORE PUSH1 0x24 PUSH1 0x0 REVERT JUMPDEST PUSH32 0x4E487B7100000000000000000000000000000000000000000000000000000000 PUSH1 0x0 MSTORE PUSH1 0x22 PUSH1 0x4 MSTORE PUSH1 0x24 PUSH1 0x0 REVERT JUMPDEST PUSH32 0x4E487B7100000000000000000000000000000000000000000000000000000000 PUSH1 0x0 MSTORE PUSH1 0x41 PUSH1 0x4 MSTORE PUSH1 0x24 PUSH1 0x0 REVERT JUMPDEST PUSH1 0x0 PUSH1 0x1F NOT PUSH1 0x1F DUP4 ADD AND SWAP1 POP SWAP2 SWAP1 POP JUMP JUMPDEST PUSH1 0x0 DUP2 PUSH1 0x60 SHL SWAP1 POP SWAP2 SWAP1 POP JUMP JUMPDEST PUSH2 0x3D03 DUP2 PUSH2 0x3AE6 JUMP JUMPDEST DUP2 EQ PUSH2 0x3D0E JUMPI PUSH1 0x0 DUP1 REVERT JUMPDEST POP JUMP JUMPDEST PUSH2 0x3D1A DUP2 PUSH2 0x3AF8 JUMP JUMPDEST DUP2 EQ PUSH2 0x3D25 JUMPI PUSH1 0x0 DUP1 REVERT JUMPDEST POP JUMP JUMPDEST PUSH2 0x3D31 DUP2 PUSH2 0x3B04 JUMP JUMPDEST DUP2 EQ PUSH2 0x3D3C JUMPI PUSH1 0x0 DUP1 REVERT JUMPDEST POP JUMP JUMPDEST PUSH2 0x3D48 DUP2 PUSH2 0x3B0E JUMP JUMPDEST DUP2 EQ PUSH2 0x3D53 JUMPI PUSH1 0x0 DUP1 REVERT JUMPDEST POP JUMP JUMPDEST PUSH2 0x3D5F DUP2 PUSH2 0x3B5A JUMP JUMPDEST DUP2 EQ PUSH2 0x3D6A JUMPI PUSH1 0x0 DUP1 REVERT JUMPDEST POP JUMP INVALID LOG2 PUSH5 0x6970667358 0x22 SLT KECCAK256 STATICCALL 0xD6 0x28 0xB9 0xF8 0xAD CALLVALUE JUMPDEST PUSH7 0xF4F13A03C35172 SWAP14 SWAP2 SELFBALANCE 0xB5 0x2F 0xC3 XOR SWAP2 RETURNDATASIZE 0xA6 0xF 0xF7 DUP14 DUP12 0xC9 PUSH1 0x64 PUSH20 0x6F6C634300080000330000000000000000000000 "
		},
		"gasEstimates": {
			"creation": {
				"codeDepositCost": "3155800",
				"executionCost": "infinite",
				"totalCost": "infinite"
			},
			"external": {
				"authorizeOperator(address,uint256)": "23014",
				"award(address)": "infinite",
				"awardAmount()": "1195",
				"balanceOf(address)": "1652",
				"decimals()": "1230",
				"getData(bytes32[])": "infinite",
				"isOperatorFor(address,address)": "infinite",
				"name()": "infinite",
				"owner()": "1267",
				"redeem(address,uint256)": "infinite",
				"redeemAll(address)": "infinite",
				"renounceOwnership()": "24507",
				"revokeOperator(address)": "7518",
				"setAwardAmount(uint256)": "21347",
				"setData(bytes32[],bytes[])": "infinite",
				"supportsInterface(bytes4)": "1659",
				"symbol()": "infinite",
				"tokenSupplyCap()": "1226",
				"totalSupply()": "1227",
				"transfer(address,address,uint256,bool,bytes)": "infinite",
				"transferBatch(address[],address[],uint256[],bool,bytes[])": "infinite",
				"transferOwnership(address)": "24811"
			}
		},
		"methodIdentifiers": {
			"authorizeOperator(address,uint256)": "47980aa3",
			"award(address)": "fbdd25e4",
			"awardAmount()": "e9893c67",
			"balanceOf(address)": "70a08231",
			"decimals()": "313ce567",
			"getData(bytes32[])": "4e3e6e9c",
			"isOperatorFor(address,address)": "d95b6371",
			"name()": "06fdde03",
			"owner()": "8da5cb5b",
			"redeem(address,uint256)": "1e9a6950",
			"redeemAll(address)": "be399be5",
			"renounceOwnership()": "715018a6",
			"revokeOperator(address)": "fad8b32a",
			"setAwardAmount(uint256)": "d2706c19",
			"setData(bytes32[],bytes[])": "14a6e293",
			"supportsInterface(bytes4)": "01ffc9a7",
			"symbol()": "95d89b41",
			"tokenSupplyCap()": "52058d8a",
			"totalSupply()": "18160ddd",
			"transfer(address,address,uint256,bool,bytes)": "760d9bba",
			"transferBatch(address[],address[],uint256[],bool,bytes[])": "a8a34e0a",
			"transferOwnership(address)": "f2fde38b"
		}
	},
	"abi": [
		{
			"inputs": [
				{
					"internalType": "string",
					"name": "name",
					"type": "string"
				},
				{
					"internalType": "string",
					"name": "symbol",
					"type": "string"
				},
				{
					"internalType": "address",
					"name": "contributor",
					"type": "address"
				}
			],
			"stateMutability": "nonpayable",
			"type": "constructor"
		},
		{
			"anonymous": false,
			"inputs": [
				{
					"indexed": true,
					"internalType": "address",
					"name": "operator",
					"type": "address"
				},
				{
					"indexed": true,
					"internalType": "address",
					"name": "tokenOwner",
					"type": "address"
				},
				{
					"indexed": true,
					"internalType": "uint256",
					"name": "amount",
					"type": "uint256"
				}
			],
			"name": "AuthorizedOperator",
			"type": "event"
		},
		{
			"anonymous": false,
			"inputs": [
				{
					"indexed": false,
					"internalType": "address",
					"name": "contributor",
					"type": "address"
				},
				{
					"indexed": false,
					"internalType": "address",
					"name": "student",
					"type": "address"
				},
				{
					"indexed": false,
					"internalType": "uint256",
					"name": "amount",
					"type": "uint256"
				}
			],
			"name": "Awarded",
			"type": "event"
		},
		{
			"anonymous": false,
			"inputs": [
				{
					"indexed": true,
					"internalType": "bytes32",
					"name": "key",
					"type": "bytes32"
				},
				{
					"indexed": false,
					"internalType": "bytes",
					"name": "value",
					"type": "bytes"
				}
			],
			"name": "DataChanged",
			"type": "event"
		},
		{
			"anonymous": false,
			"inputs": [
				{
					"indexed": true,
					"internalType": "address",
					"name": "previousOwner",
					"type": "address"
				},
				{
					"indexed": true,
					"internalType": "address",
					"name": "newOwner",
					"type": "address"
				}
			],
			"name": "OwnershipTransferred",
			"type": "event"
		},
		{
			"anonymous": false,
			"inputs": [
				{
					"indexed": false,
					"internalType": "address",
					"name": "awardee",
					"type": "address"
				},
				{
					"indexed": false,
					"internalType": "uint256",
					"name": "amount",
					"type": "uint256"
				}
			],
			"name": "Redeemed",
			"type": "event"
		},
		{
			"anonymous": false,
			"inputs": [
				{
					"indexed": true,
					"internalType": "address",
					"name": "operator",
					"type": "address"
				},
				{
					"indexed": true,
					"internalType": "address",
					"name": "tokenOwner",
					"type": "address"
				}
			],
			"name": "RevokedOperator",
			"type": "event"
		},
		{
			"anonymous": false,
			"inputs": [
				{
					"indexed": true,
					"internalType": "address",
					"name": "operator",
					"type": "address"
				},
				{
					"indexed": true,
					"internalType": "address",
					"name": "from",
					"type": "address"
				},
				{
					"indexed": true,
					"internalType": "address",
					"name": "to",
					"type": "address"
				},
				{
					"indexed": false,
					"internalType": "uint256",
					"name": "amount",
					"type": "uint256"
				},
				{
					"indexed": false,
					"internalType": "bool",
					"name": "force",
					"type": "bool"
				},
				{
					"indexed": false,
					"internalType": "bytes",
					"name": "data",
					"type": "bytes"
				}
			],
			"name": "Transfer",
			"type": "event"
		},
		{
			"inputs": [
				{
					"internalType": "address",
					"name": "operator",
					"type": "address"
				},
				{
					"internalType": "uint256",
					"name": "amount",
					"type": "uint256"
				}
			],
			"name": "authorizeOperator",
			"outputs": [],
			"stateMutability": "nonpayable",
			"type": "function"
		},
		{
			"inputs": [
				{
					"internalType": "address",
					"name": "student",
					"type": "address"
				}
			],
			"name": "award",
			"outputs": [],
			"stateMutability": "nonpayable",
			"type": "function"
		},
		{
			"inputs": [],
			"name": "awardAmount",
			"outputs": [
				{
					"internalType": "uint256",
					"name": "",
					"type": "uint256"
				}
			],
			"stateMutability": "view",
			"type": "function"
		},
		{
			"inputs": [
				{
					"internalType": "address",
					"name": "tokenOwner",
					"type": "address"
				}
			],
			"name": "balanceOf",
			"outputs": [
				{
					"internalType": "uint256",
					"name": "",
					"type": "uint256"
				}
			],
			"stateMutability": "view",
			"type": "function"
		},
		{
			"inputs": [],
			"name": "decimals",
			"outputs": [
				{
					"internalType": "uint256",
					"name": "",
					"type": "uint256"
				}
			],
			"stateMutability": "view",
			"type": "function"
		},
		{
			"inputs": [
				{
					"internalType": "bytes32[]",
					"name": "_keys",
					"type": "bytes32[]"
				}
			],
			"name": "getData",
			"outputs": [
				{
					"internalType": "bytes[]",
					"name": "values",
					"type": "bytes[]"
				}
			],
			"stateMutability": "view",
			"type": "function"
		},
		{
			"inputs": [
				{
					"internalType": "address",
					"name": "operator",
					"type": "address"
				},
				{
					"internalType": "address",
					"name": "tokenOwner",
					"type": "address"
				}
			],
			"name": "isOperatorFor",
			"outputs": [
				{
					"internalType": "uint256",
					"name": "",
					"type": "uint256"
				}
			],
			"stateMutability": "view",
			"type": "function"
		},
		{
			"inputs": [],
			"name": "name",
			"outputs": [
				{
					"internalType": "string",
					"name": "",
					"type": "string"
				}
			],
			"stateMutability": "view",
			"type": "function"
		},
		{
			"inputs": [],
			"name": "owner",
			"outputs": [
				{
					"internalType": "address",
					"name": "",
					"type": "address"
				}
			],
			"stateMutability": "view",
			"type": "function"
		},
		{
			"inputs": [
				{
					"internalType": "address",
					"name": "awardee",
					"type": "address"
				},
				{
					"internalType": "uint256",
					"name": "amount",
					"type": "uint256"
				}
			],
			"name": "redeem",
			"outputs": [],
			"stateMutability": "nonpayable",
			"type": "function"
		},
		{
			"inputs": [
				{
					"internalType": "address",
					"name": "from",
					"type": "address"
				}
			],
			"name": "redeemAll",
			"outputs": [],
			"stateMutability": "nonpayable",
			"type": "function"
		},
		{
			"inputs": [],
			"name": "renounceOwnership",
			"outputs": [],
			"stateMutability": "nonpayable",
			"type": "function"
		},
		{
			"inputs": [
				{
					"internalType": "address",
					"name": "operator",
					"type": "address"
				}
			],
			"name": "revokeOperator",
			"outputs": [],
			"stateMutability": "nonpayable",
			"type": "function"
		},
		{
			"inputs": [
				{
					"internalType": "uint256",
					"name": "amount",
					"type": "uint256"
				}
			],
			"name": "setAwardAmount",
			"outputs": [],
			"stateMutability": "nonpayable",
			"type": "function"
		},
		{
			"inputs": [
				{
					"internalType": "bytes32[]",
					"name": "_keys",
					"type": "bytes32[]"
				},
				{
					"internalType": "bytes[]",
					"name": "_values",
					"type": "bytes[]"
				}
			],
			"name": "setData",
			"outputs": [],
			"stateMutability": "nonpayable",
			"type": "function"
		},
		{
			"inputs": [
				{
					"internalType": "bytes4",
					"name": "interfaceId",
					"type": "bytes4"
				}
			],
			"name": "supportsInterface",
			"outputs": [
				{
					"internalType": "bool",
					"name": "",
					"type": "bool"
				}
			],
			"stateMutability": "view",
			"type": "function"
		},
		{
			"inputs": [],
			"name": "symbol",
			"outputs": [
				{
					"internalType": "string",
					"name": "",
					"type": "string"
				}
			],
			"stateMutability": "view",
			"type": "function"
		},
		{
			"inputs": [],
			"name": "tokenSupplyCap",
			"outputs": [
				{
					"internalType": "uint256",
					"name": "",
					"type": "uint256"
				}
			],
			"stateMutability": "view",
			"type": "function"
		},
		{
			"inputs": [],
			"name": "totalSupply",
			"outputs": [
				{
					"internalType": "uint256",
					"name": "",
					"type": "uint256"
				}
			],
			"stateMutability": "view",
			"type": "function"
		},
		{
			"inputs": [
				{
					"internalType": "address",
					"name": "from",
					"type": "address"
				},
				{
					"internalType": "address",
					"name": "to",
					"type": "address"
				},
				{
					"internalType": "uint256",
					"name": "amount",
					"type": "uint256"
				},
				{
					"internalType": "bool",
					"name": "force",
					"type": "bool"
				},
				{
					"internalType": "bytes",
					"name": "data",
					"type": "bytes"
				}
			],
			"name": "transfer",
			"outputs": [],
			"stateMutability": "nonpayable",
			"type": "function"
		},
		{
			"inputs": [
				{
					"internalType": "address[]",
					"name": "from",
					"type": "address[]"
				},
				{
					"internalType": "address[]",
					"name": "to",
					"type": "address[]"
				},
				{
					"internalType": "uint256[]",
					"name": "amount",
					"type": "uint256[]"
				},
				{
					"internalType": "bool",
					"name": "force",
					"type": "bool"
				},
				{
					"internalType": "bytes[]",
					"name": "data",
					"type": "bytes[]"
				}
			],
			"name": "transferBatch",
			"outputs": [],
			"stateMutability": "nonpayable",
			"type": "function"
		},
		{
			"inputs": [
				{
					"internalType": "address",
					"name": "newOwner",
					"type": "address"
				}
			],
			"name": "transferOwnership",
			"outputs": [],
			"stateMutability": "nonpayable",
			"type": "function"
		}
	]
}