{
	"data": {
		"bytecode": {
			"linkReferences": {},
			"object": "608060405234801561001057600080fd5b5033600160006101000a81548173ffffffffffffffffffffffffffffffffffffffff021916908373ffffffffffffffffffffffffffffffffffffffff1602179055506151a2806100616000396000f3fe60806040523480156200001157600080fd5b5060043610620000465760003560e01c80639d63848a146200004b578063afd8fd5f146200006d578063e5df8b84146200008d575b600080fd5b62000055620000c3565b6040516200006491906200050b565b60405180910390f35b6200008b600480360381019062000085919062000347565b62000153565b005b620000ab6004803603810190620000a59190620003e1565b6200024d565b604051620000ba91906200052f565b60405180910390f35b606060008054806020026020016040519081016040528092919081815260200182805480156200014957602002820191906000526020600020905b8160009054906101000a900473ffffffffffffffffffffffffffffffffffffffff1673ffffffffffffffffffffffffffffffffffffffff1681526020019060010190808311620000fe575b5050505050905090565b600083838360405162000166906200028d565b62000174939291906200054c565b604051809103906000f08015801562000191573d6000803e3d6000fd5b5090506000819080600181540180825580915050600190039060005260206000200160009091909190916101000a81548173ffffffffffffffffffffffffffffffffffffffff021916908373ffffffffffffffffffffffffffffffffffffffff1602179055508173ffffffffffffffffffffffffffffffffffffffff167fe3097fb7ed2dae92ca2f814dd1f8d176ee93fb67413d7134161130b61e21ebb1826040516200023f91906200052f565b60405180910390a250505050565b600081815481106200025e57600080fd5b906000526020600020016000915054906101000a900473ffffffffffffffffffffffffffffffffffffffff1681565b6149a480620007c983390190565b6000620002b2620002ac84620005c0565b62000597565b905082815260208101848484011115620002d157620002d062000774565b5b620002de848285620006c5565b509392505050565b600081359050620002f78162000794565b92915050565b600082601f8301126200031557620003146200076f565b5b8135620003278482602086016200029b565b91505092915050565b6000813590506200034181620007ae565b92915050565b6000806000606084860312156200036357620003626200077e565b5b600084013567ffffffffffffffff81111562000384576200038362000779565b5b6200039286828701620002fd565b935050602084013567ffffffffffffffff811115620003b657620003b562000779565b5b620003c486828701620002fd565b9250506040620003d786828701620002e6565b9150509250925092565b600060208284031215620003fa57620003f96200077e565b5b60006200040a8482850162000330565b91505092915050565b6000620004218383620004a8565b60208301905092915050565b62000438816200064b565b82525050565b60006200044b8262000606565b62000457818562000629565b93506200046483620005f6565b8060005b838110156200049b5781516200047f888262000413565b97506200048c836200061c565b92505060018101905062000468565b5085935050505092915050565b620004b38162000689565b82525050565b620004c48162000689565b82525050565b6000620004d78262000611565b620004e381856200063a565b9350620004f5818560208601620006d4565b620005008162000783565b840191505092915050565b600060208201905081810360008301526200052781846200043e565b905092915050565b6000602082019050620005466000830184620004b9565b92915050565b60006060820190508181036000830152620005688186620004ca565b905081810360208301526200057e8185620004ca565b90506200058f60408301846200042d565b949350505050565b6000620005a3620005b6565b9050620005b182826200070a565b919050565b6000604051905090565b600067ffffffffffffffff821115620005de57620005dd62000740565b5b620005e98262000783565b9050602081019050919050565b6000819050602082019050919050565b600081519050919050565b600081519050919050565b6000602082019050919050565b600082825260208201905092915050565b600082825260208201905092915050565b600062000658826200065f565b9050919050565b600073ffffffffffffffffffffffffffffffffffffffff82169050919050565b6000819050919050565b600062000696826200069d565b9050919050565b6000620006aa82620006b1565b9050919050565b6000620006be826200065f565b9050919050565b82818337600083830152505050565b60005b83811015620006f4578082015181840152602081019050620006d7565b8381111562000704576000848401525b50505050565b620007158262000783565b810181811067ffffffffffffffff8211171562000737576200073662000740565b5b80604052505050565b7f4e487b7100000000000000000000000000000000000000000000000000000000600052604160045260246000fd5b600080fd5b600080fd5b600080fd5b600080fd5b6000601f19601f8301169050919050565b6200079f816200064b565b8114620007ab57600080fd5b50565b620007b9816200067f565b8114620007c557600080fd5b5056fe6080604052662386f26fc100006008553480156200001c57600080fd5b50604051620049a4380380620049a483398181016040528101906200004291906200062e565b6a52b7d2dcc80cd2e4000000838383600083838380620000676200023a60201b60201c565b73ffffffffffffffffffffffffffffffffffffffff168173ffffffffffffffffffffffffffffffffffffffff1614620000b157620000b0816200026360201b62000f191760201c565b5b620000e27f5a988c0f00000000000000000000000000000000000000000000000000000000620002e560201b60201c565b50620001187fdeba1e292f8ba88238e10ab3c7f88bd4be4fac56cad5194b6ecceaf653468af160001b84620003bd60201b60201c565b6200014d7f2f0a68ab07768e01943a599e73362a0e17a63a72e94dd2e384d2c1d4db93275660001b83620003bd60201b60201c565b50505080600360006101000a81548160ff0219169083151502179055506200018263e33f65c360e01b620002e560201b60201c565b620001df7feafec4d89fa9619884b6b8913562645500000000000000000000000074ac49b060001b6374ac49b060e01b604051602001620001c4919062000799565b604051602081830303815290604052620003bd60201b60201c565b505050506000811162000229576040517f08c379a000000000000000000000000000000000000000000000000000000000815260040162000220906200081e565b60405180910390fd5b806007819055505050505062000b3c565b60008060009054906101000a900473ffffffffffffffffffffffffffffffffffffffff16905090565b600060149054906101000a900460ff1615620002b6576040517f08c379a0000000000000000000000000000000000000000000000000000000008152600401620002ad90620007da565b60405180910390fd5b6001600060146101000a81548160ff021916908315150217905550620002e2816200042560201b60201c565b50565b63ffffffff60e01b817bffffffffffffffffffffffffffffffffffffffffffffffffffffffff1916141562000351576040517f08c379a00000000000000000000000000000000000000000000000000000000081526004016200034890620007fc565b60405180910390fd5b6001806000837bffffffffffffffffffffffffffffffffffffffffffffffffffffffff19167bffffffffffffffffffffffffffffffffffffffffffffffffffffffff1916815260200190815260200160002060006101000a81548160ff02191690831515021790555050565b80600260008481526020019081526020016000209080519060200190620003e6929190620004e9565b50817fece574603820d07bc9b91f2a932baadf4628aabcb8afba49776529c14a6104b282604051620004199190620007b6565b60405180910390a25050565b60008060009054906101000a900473ffffffffffffffffffffffffffffffffffffffff169050816000806101000a81548173ffffffffffffffffffffffffffffffffffffffff021916908373ffffffffffffffffffffffffffffffffffffffff1602179055508173ffffffffffffffffffffffffffffffffffffffff168173ffffffffffffffffffffffffffffffffffffffff167f8be0079c531659141344cd1fd0a4f28419497f9722a3daafe3b4186f6b6457e060405160405180910390a35050565b828054620004f79062000962565b90600052602060002090601f0160209004810192826200051b576000855562000567565b82601f106200053657805160ff191683800117855562000567565b8280016001018555821562000567579182015b828111156200056657825182559160200191906001019062000549565b5b5090506200057691906200057a565b5090565b5b80821115620005955760008160009055506001016200057b565b5090565b6000620005b0620005aa8462000869565b62000840565b905082815260208101848484011115620005cf57620005ce62000a3b565b5b620005dc8482856200092c565b509392505050565b600081519050620005f58162000b22565b92915050565b600082601f83011262000613576200061262000a36565b5b81516200062584826020860162000599565b91505092915050565b6000806000606084860312156200064a576200064962000a45565b5b600084015167ffffffffffffffff8111156200066b576200066a62000a40565b5b6200067986828701620005fb565b935050602084015167ffffffffffffffff8111156200069d576200069c62000a40565b5b620006ab86828701620005fb565b9250506040620006be86828701620005e4565b9150509250925092565b620006dd620006d782620008e0565b620009ce565b82525050565b6000620006f0826200089f565b620006fc8185620008aa565b93506200070e8185602086016200092c565b620007198162000a4a565b840191505092915050565b600062000733602983620008bb565b9150620007408262000a5b565b604082019050919050565b60006200075a601c83620008bb565b9150620007678262000aaa565b602082019050919050565b600062000781602883620008bb565b91506200078e8262000ad3565b604082019050919050565b6000620007a78284620006c8565b60048201915081905092915050565b60006020820190508181036000830152620007d28184620006e3565b905092915050565b60006020820190508181036000830152620007f58162000724565b9050919050565b6000602082019050818103600083015262000817816200074b565b9050919050565b60006020820190508181036000830152620008398162000772565b9050919050565b60006200084c6200085f565b90506200085a828262000998565b919050565b6000604051905090565b600067ffffffffffffffff82111562000887576200088662000a07565b5b620008928262000a4a565b9050602081019050919050565b600081519050919050565b600082825260208201905092915050565b600082825260208201905092915050565b6000620008d9826200090c565b9050919050565b60007fffffffff0000000000000000000000000000000000000000000000000000000082169050919050565b600073ffffffffffffffffffffffffffffffffffffffff82169050919050565b60005b838110156200094c5780820151818401526020810190506200092f565b838111156200095c576000848401525b50505050565b600060028204905060018216806200097b57607f821691505b60208210811415620009925762000991620009d8565b5b50919050565b620009a38262000a4a565b810181811067ffffffffffffffff82111715620009c557620009c462000a07565b5b80604052505050565b6000819050919050565b7f4e487b7100000000000000000000000000000000000000000000000000000000600052602260045260246000fd5b7f4e487b7100000000000000000000000000000000000000000000000000000000600052604160045260246000fd5b600080fd5b600080fd5b600080fd5b600080fd5b6000601f19601f8301169050919050565b7f4f776e61626c653a206f776e65722063616e206f6e6c7920626520696e69746960008201527f61746564206f6e63650000000000000000000000000000000000000000000000602082015250565b7f4552433136353a20696e76616c696420696e7465726661636520696400000000600082015250565b7f4c535037436170706564537570706c793a20746f6b656e537570706c7943617060008201527f206973207a65726f000000000000000000000000000000000000000000000000602082015250565b62000b2d81620008cc565b811462000b3957600080fd5b50565b613e588062000b4c6000396000f3fe608060405234801561001057600080fd5b50600436106101425760003560e01c8063760d9bba116100b8578063d2706c191161007c578063d2706c191461033d578063d95b637114610359578063e9893c6714610389578063f2fde38b146103a7578063fad8b32a146103c3578063fbdd25e4146103df57610142565b8063760d9bba146102ad5780638da5cb5b146102c957806395d89b41146102e7578063a8a34e0a14610305578063be399be51461032157610142565b8063313ce5671161010a578063313ce567146101eb57806347980aa3146102095780634e3e6e9c1461022557806352058d8a1461025557806370a0823114610273578063715018a6146102a357610142565b806301ffc9a71461014757806306fdde031461017757806314a6e2931461019557806318160ddd146101b15780631e9a6950146101cf575b600080fd5b610161600480360381019061015c9190612967565b6103fb565b60405161016e9190612fa2565b60405180910390f35b61017f610473565b60405161018c919061302a565b60405180910390f35b6101af60048036038101906101aa91906128c2565b6104a6565b005b6101b96105c8565b6040516101c691906132cc565b60405180910390f35b6101e960048036038101906101e4919061274e565b6105d2565b005b6101f361064f565b60405161020091906132cc565b60405180910390f35b610223600480360381019061021e919061274e565b610677565b005b61023f600480360381019061023a9190612879565b61068d565b60405161024c9190612f80565b60405180910390f35b61025d610746565b60405161026a91906132cc565b60405180910390f35b61028d6004803603810190610288919061264a565b610750565b60405161029a91906132cc565b60405180910390f35b6102ab610799565b005b6102c760048036038101906102c291906126b7565b610821565b005b6102d16109cd565b6040516102de9190612f05565b60405180910390f35b6102ef6109f6565b6040516102fc919061302a565b60405180910390f35b61031f600480360381019061031a919061278e565b610a29565b005b61033b6004803603810190610336919061264a565b610b23565b005b610357600480360381019061035291906129dd565b610b38565b005b610373600480360381019061036e9190612677565b610bb7565b60405161038091906132cc565b60405180910390f35b610391610cba565b60405161039e91906132cc565b60405180910390f35b6103c160048036038101906103bc919061264a565b610cc0565b005b6103dd60048036038101906103d8919061264a565b610db8565b005b6103f960048036038101906103f4919061264a565b610dce565b005b600061040682610f90565b8061046c575060016000837bffffffffffffffffffffffffffffffffffffffffffffffffffffffff19167bffffffffffffffffffffffffffffffffffffffffffffffffffffffff1916815260200190815260200160002060009054906101000a900460ff165b9050919050565b60606104a17fdeba1e292f8ba88238e10ab3c7f88bd4be4fac56cad5194b6ecceaf653468af160001b610ffa565b905090565b6104ae61109f565b73ffffffffffffffffffffffffffffffffffffffff166104cc6109cd565b73ffffffffffffffffffffffffffffffffffffffff1614610522576040517f08c379a0000000000000000000000000000000000000000000000000000000008152600401610519906131ec565b60405180910390fd5b8051825114610566576040517f08c379a000000000000000000000000000000000000000000000000000000000815260040161055d9061328c565b60405180910390fd5b60005b82518110156105c3576105b08382815181106105885761058761373a565b5b60200260200101518383815181106105a3576105a261373a565b5b60200260200101516110a7565b80806105bb90613665565b915050610569565b505050565b6000600454905090565b61061282826040518060400160405280600681526020017f72656465656d000000000000000000000000000000000000000000000000000081525061110b565b7f4896181ff8f4543cc00db9fe9b6fb7e6f032b7eb772c72ab1ec1b4d2e03b93698282604051610643929190612f57565b60405180910390a15050565b6000600360009054906101000a900460ff1661066c57601261066f565b60005b60ff16905090565b61068961068261109f565b8383611486565b5050565b6060815167ffffffffffffffff8111156106aa576106a9613769565b5b6040519080825280602002602001820160405280156106dd57816020015b60608152602001906001900390816106c85790505b50905060005b82518110156107405761070f8382815181106107025761070161373a565b5b6020026020010151610ffa565b8282815181106107225761072161373a565b5b6020026020010181905250808061073890613665565b9150506106e3565b50919050565b6000600754905090565b6000600560008373ffffffffffffffffffffffffffffffffffffffff1673ffffffffffffffffffffffffffffffffffffffff168152602001908152602001600020549050919050565b6107a161109f565b73ffffffffffffffffffffffffffffffffffffffff166107bf6109cd565b73ffffffffffffffffffffffffffffffffffffffff1614610815576040517f08c379a000000000000000000000000000000000000000000000000000000000815260040161080c906131ec565b60405180910390fd5b61081f600061171f565b565b600061082b61109f565b90508573ffffffffffffffffffffffffffffffffffffffff168173ffffffffffffffffffffffffffffffffffffffff16146109b8576000600660008873ffffffffffffffffffffffffffffffffffffffff1673ffffffffffffffffffffffffffffffffffffffff16815260200190815260200160002060008373ffffffffffffffffffffffffffffffffffffffff1673ffffffffffffffffffffffffffffffffffffffff16815260200190815260200160002054905084811015610924576040517f08c379a000000000000000000000000000000000000000000000000000000000815260040161091b9061308c565b60405180910390fd5b6109b6878387600660008c73ffffffffffffffffffffffffffffffffffffffff1673ffffffffffffffffffffffffffffffffffffffff16815260200190815260200160002060008773ffffffffffffffffffffffffffffffffffffffff1673ffffffffffffffffffffffffffffffffffffffff168152602001908152602001600020546109b1919061350e565b611486565b505b6109c586868686866117e3565b505050505050565b60008060009054906101000a900473ffffffffffffffffffffffffffffffffffffffff16905090565b6060610a247f2f0a68ab07768e01943a599e73362a0e17a63a72e94dd2e384d2c1d4db93275660001b610ffa565b905090565b83518551148015610a3b575082518551145b8015610a48575080518551145b610a87576040517f08c379a0000000000000000000000000000000000000000000000000000000008152600401610a7e906130ac565b60405180910390fd5b60005b8551811015610b1b57610b08868281518110610aa957610aa861373a565b5b6020026020010151868381518110610ac457610ac361373a565b5b6020026020010151868481518110610adf57610ade61373a565b5b602002602001015186868681518110610afb57610afa61373a565b5b6020026020010151610821565b8080610b1390613665565b915050610a8a565b505050505050565b610b3581610b3083610750565b6105d2565b50565b3373ffffffffffffffffffffffffffffffffffffffff16610b576109cd565b73ffffffffffffffffffffffffffffffffffffffff1614610bad576040517f08c379a0000000000000000000000000000000000000000000000000000000008152600401610ba4906131ac565b60405180910390fd5b8060088190555050565b60008273ffffffffffffffffffffffffffffffffffffffff168273ffffffffffffffffffffffffffffffffffffffff161415610c3457600560008373ffffffffffffffffffffffffffffffffffffffff1673ffffffffffffffffffffffffffffffffffffffff168152602001908152602001600020549050610cb4565b600660008373ffffffffffffffffffffffffffffffffffffffff1673ffffffffffffffffffffffffffffffffffffffff16815260200190815260200160002060008473ffffffffffffffffffffffffffffffffffffffff1673ffffffffffffffffffffffffffffffffffffffff1681526020019081526020016000205490505b92915050565b60085481565b610cc861109f565b73ffffffffffffffffffffffffffffffffffffffff16610ce66109cd565b73ffffffffffffffffffffffffffffffffffffffff1614610d3c576040517f08c379a0000000000000000000000000000000000000000000000000000000008152600401610d33906131ec565b60405180910390fd5b600073ffffffffffffffffffffffffffffffffffffffff168173ffffffffffffffffffffffffffffffffffffffff161415610dac576040517f08c379a0000000000000000000000000000000000000000000000000000000008152600401610da3906130ec565b60405180910390fd5b610db58161171f565b50565b610dcb610dc361109f565b826000611486565b50565b3373ffffffffffffffffffffffffffffffffffffffff16610ded6109cd565b73ffffffffffffffffffffffffffffffffffffffff1614610e43576040517f08c379a0000000000000000000000000000000000000000000000000000000008152600401610e3a906131ac565b60405180910390fd5b610e8e610e4e6109cd565b60085460016040518060400160405280600581526020017f6177617264000000000000000000000000000000000000000000000000000000815250611aa9565b610ed28160085460016040518060400160405280600581526020017f6177617264000000000000000000000000000000000000000000000000000000815250611aa9565b7fe2554529d99ab7a67db6b4cea2b32c7d55ae325f958861e05f304fdded867e31610efb6109cd565b82600854604051610f0e93929190612f20565b60405180910390a150565b600060149054906101000a900460ff1615610f69576040517f08c379a0000000000000000000000000000000000000000000000000000000008152600401610f60906130cc565b60405180910390fd5b6001600060146101000a81548160ff021916908315150217905550610f8d8161171f565b50565b60007f01ffc9a7000000000000000000000000000000000000000000000000000000007bffffffffffffffffffffffffffffffffffffffffffffffffffffffff1916827bffffffffffffffffffffffffffffffffffffffffffffffffffffffff1916149050919050565b606060026000838152602001908152602001600020805461101a90613602565b80601f016020809104026020016040519081016040528092919081815260200182805461104690613602565b80156110935780601f1061106857610100808354040283529160200191611093565b820191906000526020600020905b81548152906001019060200180831161107657829003601f168201915b50505050509050919050565b600033905090565b806002600084815260200190815260200160002090805190602001906110ce9291906121b3565b50817fece574603820d07bc9b91f2a932baadf4628aabcb8afba49776529c14a6104b2826040516110ff9190613008565b60405180910390a25050565b600073ffffffffffffffffffffffffffffffffffffffff168373ffffffffffffffffffffffffffffffffffffffff16141561117b576040517f08c379a00000000000000000000000000000000000000000000000000000000081526004016111729061326c565b60405180910390fd5b81600560008573ffffffffffffffffffffffffffffffffffffffff1673ffffffffffffffffffffffffffffffffffffffff1681526020019081526020016000205410156111fd576040517f08c379a00000000000000000000000000000000000000000000000000000000081526004016111f4906132ac565b60405180910390fd5b600061120761109f565b90508373ffffffffffffffffffffffffffffffffffffffff168173ffffffffffffffffffffffffffffffffffffffff161461138f5782600660008673ffffffffffffffffffffffffffffffffffffffff1673ffffffffffffffffffffffffffffffffffffffff16815260200190815260200160002060008373ffffffffffffffffffffffffffffffffffffffff1673ffffffffffffffffffffffffffffffffffffffff1681526020019081526020016000205410156112fb576040517f08c379a00000000000000000000000000000000000000000000000000000000081526004016112f29061306c565b60405180910390fd5b82600660008673ffffffffffffffffffffffffffffffffffffffff1673ffffffffffffffffffffffffffffffffffffffff16815260200190815260200160002060008373ffffffffffffffffffffffffffffffffffffffff1673ffffffffffffffffffffffffffffffffffffffff1681526020019081526020016000206000828254611387919061350e565b925050819055505b61139c8460008585611abb565b6113a884600085611bca565b82600560008673ffffffffffffffffffffffffffffffffffffffff1673ffffffffffffffffffffffffffffffffffffffff16815260200190815260200160002060008282546113f7919061350e565b92505081905550600073ffffffffffffffffffffffffffffffffffffffff168473ffffffffffffffffffffffffffffffffffffffff168273ffffffffffffffffffffffffffffffffffffffff167f3997e418d2cef0b3b0e907b1e39605c3f7d32dbd061e82ea5b4a770d46a160a686600087604051611478939291906132e7565b60405180910390a450505050565b8273ffffffffffffffffffffffffffffffffffffffff168273ffffffffffffffffffffffffffffffffffffffff1614156114f5576040517f08c379a00000000000000000000000000000000000000000000000000000000081526004016114ec9061312c565b60405180910390fd5b600073ffffffffffffffffffffffffffffffffffffffff168273ffffffffffffffffffffffffffffffffffffffff161415611565576040517f08c379a000000000000000000000000000000000000000000000000000000000815260040161155c9061324c565b60405180910390fd5b600073ffffffffffffffffffffffffffffffffffffffff168373ffffffffffffffffffffffffffffffffffffffff1614156115d5576040517f08c379a00000000000000000000000000000000000000000000000000000000081526004016115cc9061314c565b60405180910390fd5b80600660008573ffffffffffffffffffffffffffffffffffffffff1673ffffffffffffffffffffffffffffffffffffffff16815260200190815260200160002060008473ffffffffffffffffffffffffffffffffffffffff1673ffffffffffffffffffffffffffffffffffffffff1681526020019081526020016000208190555060008111156116bf57808373ffffffffffffffffffffffffffffffffffffffff168373ffffffffffffffffffffffffffffffffffffffff167fd66aff874162a96578e919097b6f6d153dfd89a5cec41bb331fdb0c4aec16e2c60405160405180910390a461171a565b8273ffffffffffffffffffffffffffffffffffffffff168273ffffffffffffffffffffffffffffffffffffffff167f50546e66e5f44d728365dc3908c63bc5cfeeab470722c1677e3073a6ac294aa160405160405180910390a35b505050565b60008060009054906101000a900473ffffffffffffffffffffffffffffffffffffffff169050816000806101000a81548173ffffffffffffffffffffffffffffffffffffffff021916908373ffffffffffffffffffffffffffffffffffffffff1602179055508173ffffffffffffffffffffffffffffffffffffffff168173ffffffffffffffffffffffffffffffffffffffff167f8be0079c531659141344cd1fd0a4f28419497f9722a3daafe3b4186f6b6457e060405160405180910390a35050565b600073ffffffffffffffffffffffffffffffffffffffff168573ffffffffffffffffffffffffffffffffffffffff161415611853576040517f08c379a000000000000000000000000000000000000000000000000000000000815260040161184a906131cc565b60405180910390fd5b600073ffffffffffffffffffffffffffffffffffffffff168473ffffffffffffffffffffffffffffffffffffffff1614156118c3576040517f08c379a00000000000000000000000000000000000000000000000000000000081526004016118ba9061322c565b60405180910390fd5b82600560008773ffffffffffffffffffffffffffffffffffffffff1673ffffffffffffffffffffffffffffffffffffffff168152602001908152602001600020541015611945576040517f08c379a000000000000000000000000000000000000000000000000000000000815260040161193c9061316c565b60405180910390fd5b600061194f61109f565b905061195d86868685611abb565b611968868686611bca565b83600560008873ffffffffffffffffffffffffffffffffffffffff1673ffffffffffffffffffffffffffffffffffffffff16815260200190815260200160002060008282546119b7919061350e565b9250508190555083600560008773ffffffffffffffffffffffffffffffffffffffff1673ffffffffffffffffffffffffffffffffffffffff1681526020019081526020016000206000828254611a0d91906134b8565b925050819055508473ffffffffffffffffffffffffffffffffffffffff168673ffffffffffffffffffffffffffffffffffffffff168273ffffffffffffffffffffffffffffffffffffffff167f3997e418d2cef0b3b0e907b1e39605c3f7d32dbd061e82ea5b4a770d46a160a6878787604051611a8c939291906132e7565b60405180910390a4611aa18686868686611c6d565b505050505050565b611ab584848484611e21565b50505050565b611ac484611e8f565b8015611add5750611adc84636bb56a1460e01b611edc565b5b15611bc457600084848484604051602001611afb9493929190612ea4565b60405160208183030381529060405290508473ffffffffffffffffffffffffffffffffffffffff16636bb56a147f40b8bec57d7b5ff0dbd9e9acd0a47dfeb0101e1a203766f5ccab00445fbf39e960001b836040518363ffffffff1660e01b8152600401611b6a929190612fbd565b600060405180830381600087803b158015611b8457600080fd5b505af1158015611b98573d6000803e3d6000fd5b505050506040513d6000823e3d601f19601f82011682018060405250810190611bc19190612994565b50505b50505050565b600073ffffffffffffffffffffffffffffffffffffffff168373ffffffffffffffffffffffffffffffffffffffff161415611c19578060046000828254611c1191906134b8565b925050819055505b600073ffffffffffffffffffffffffffffffffffffffff168273ffffffffffffffffffffffffffffffffffffffff161415611c68578060046000828254611c60919061350e565b925050819055505b505050565b611c7684611e8f565b8015611c8f5750611c8e84636bb56a1460e01b611edc565b5b15611d7a57600085858584604051602001611cad9493929190612ea4565b60405160208183030381529060405290508473ffffffffffffffffffffffffffffffffffffffff16636bb56a147fdbe2c314e1aee2970c72666f2ebe8933a8575263ea71e5ff6a9178e95d47a26f60001b836040518363ffffffff1660e01b8152600401611d1c929190612fbd565b600060405180830381600087803b158015611d3657600080fd5b505af1158015611d4a573d6000803e3d6000fd5b505050506040513d6000823e3d601f19601f82011682018060405250810190611d739190612994565b5050611e1a565b81611e1957611d9e8473ffffffffffffffffffffffffffffffffffffffff16611f01565b15611dde576040517f08c379a0000000000000000000000000000000000000000000000000000000008152600401611dd59061318c565b60405180910390fd5b6040517f08c379a0000000000000000000000000000000000000000000000000000000008152600401611e109061304c565b60405180910390fd5b5b5050505050565b611e29610746565b83611e326105c8565b611e3c91906134b8565b1115611e7d576040517f08c379a0000000000000000000000000000000000000000000000000000000008152600401611e749061320c565b60405180910390fd5b611e8984848484611f14565b50505050565b6000611ebb827f01ffc9a700000000000000000000000000000000000000000000000000000000612088565b8015611ed55750611ed38263ffffffff60e01b612088565b155b9050919050565b6000611ee783611e8f565b8015611ef95750611ef88383612088565b5b905092915050565b600080823b905060008111915050919050565b600073ffffffffffffffffffffffffffffffffffffffff168473ffffffffffffffffffffffffffffffffffffffff161415611f84576040517f08c379a0000000000000000000000000000000000000000000000000000000008152600401611f7b9061310c565b60405180910390fd5b6000611f8e61109f565b9050611f9c60008686611bca565b83600560008773ffffffffffffffffffffffffffffffffffffffff1673ffffffffffffffffffffffffffffffffffffffff1681526020019081526020016000206000828254611feb91906134b8565b925050819055508473ffffffffffffffffffffffffffffffffffffffff16600073ffffffffffffffffffffffffffffffffffffffff168273ffffffffffffffffffffffffffffffffffffffff167f3997e418d2cef0b3b0e907b1e39605c3f7d32dbd061e82ea5b4a770d46a160a687878760405161206b939291906132e7565b60405180910390a4612081600086868686611c6d565b5050505050565b6000806301ffc9a760e01b836040516024016120a49190612fed565b604051602081830303815290604052907bffffffffffffffffffffffffffffffffffffffffffffffffffffffff19166020820180517bffffffffffffffffffffffffffffffffffffffffffffffffffffffff838183161783525050505090506000808573ffffffffffffffffffffffffffffffffffffffff166175308460405161212e9190612eee565b6000604051808303818686fa925050503d806000811461216a576040519150601f19603f3d011682016040523d82523d6000602084013e61216f565b606091505b509150915060208151101561218a57600093505050506121ad565b8180156121a75750808060200190518101906121a6919061293a565b5b93505050505b92915050565b8280546121bf90613602565b90600052602060002090601f0160209004810192826121e15760008555612228565b82601f106121fa57805160ff1916838001178555612228565b82800160010185558215612228579182015b8281111561222757825182559160200191906001019061220c565b5b5090506122359190612239565b5090565b5b8082111561225257600081600090555060010161223a565b5090565b60006122696122648461334a565b613325565b9050808382526020820190508285602086028201111561228c5761228b61379d565b5b60005b858110156122bc57816122a288826124b8565b84526020840193506020830192505060018101905061228f565b5050509392505050565b60006122d96122d484613376565b613325565b905080838252602082019050828560208602820111156122fc576122fb61379d565b5b60005b8581101561232c578161231288826125af565b8452602084019350602083019250506001810190506122ff565b5050509392505050565b6000612349612344846133a2565b613325565b9050808382526020820190508285602086028201111561236c5761236b61379d565b5b60005b858110156123ba57813567ffffffffffffffff81111561239257612391613798565b5b80860161239f89826125d9565b8552602085019450602084019350505060018101905061236f565b5050509392505050565b60006123d76123d2846133ce565b613325565b905080838252602082019050828560208602820111156123fa576123f961379d565b5b60005b8581101561242a57816124108882612635565b8452602084019350602083019250506001810190506123fd565b5050509392505050565b6000612447612442846133fa565b613325565b905082815260208101848484011115612463576124626137a2565b5b61246e8482856135c0565b509392505050565b6000612489612484846133fa565b613325565b9050828152602081018484840111156124a5576124a46137a2565b5b6124b08482856135cf565b509392505050565b6000813590506124c781613daf565b92915050565b600082601f8301126124e2576124e1613798565b5b81356124f2848260208601612256565b91505092915050565b600082601f8301126125105761250f613798565b5b81356125208482602086016122c6565b91505092915050565b600082601f83011261253e5761253d613798565b5b813561254e848260208601612336565b91505092915050565b600082601f83011261256c5761256b613798565b5b813561257c8482602086016123c4565b91505092915050565b60008135905061259481613dc6565b92915050565b6000815190506125a981613dc6565b92915050565b6000813590506125be81613ddd565b92915050565b6000813590506125d381613df4565b92915050565b600082601f8301126125ee576125ed613798565b5b81356125fe848260208601612434565b91505092915050565b600082601f83011261261c5761261b613798565b5b815161262c848260208601612476565b91505092915050565b60008135905061264481613e0b565b92915050565b6000602082840312156126605761265f6137ac565b5b600061266e848285016124b8565b91505092915050565b6000806040838503121561268e5761268d6137ac565b5b600061269c858286016124b8565b92505060206126ad858286016124b8565b9150509250929050565b600080600080600060a086880312156126d3576126d26137ac565b5b60006126e1888289016124b8565b95505060206126f2888289016124b8565b945050604061270388828901612635565b935050606061271488828901612585565b925050608086013567ffffffffffffffff811115612735576127346137a7565b5b612741888289016125d9565b9150509295509295909350565b60008060408385031215612765576127646137ac565b5b6000612773858286016124b8565b925050602061278485828601612635565b9150509250929050565b600080600080600060a086880312156127aa576127a96137ac565b5b600086013567ffffffffffffffff8111156127c8576127c76137a7565b5b6127d4888289016124cd565b955050602086013567ffffffffffffffff8111156127f5576127f46137a7565b5b612801888289016124cd565b945050604086013567ffffffffffffffff811115612822576128216137a7565b5b61282e88828901612557565b935050606061283f88828901612585565b925050608086013567ffffffffffffffff8111156128605761285f6137a7565b5b61286c88828901612529565b9150509295509295909350565b60006020828403121561288f5761288e6137ac565b5b600082013567ffffffffffffffff8111156128ad576128ac6137a7565b5b6128b9848285016124fb565b91505092915050565b600080604083850312156128d9576128d86137ac565b5b600083013567ffffffffffffffff8111156128f7576128f66137a7565b5b612903858286016124fb565b925050602083013567ffffffffffffffff811115612924576129236137a7565b5b61293085828601612529565b9150509250929050565b6000602082840312156129505761294f6137ac565b5b600061295e8482850161259a565b91505092915050565b60006020828403121561297d5761297c6137ac565b5b600061298b848285016125c4565b91505092915050565b6000602082840312156129aa576129a96137ac565b5b600082015167ffffffffffffffff8111156129c8576129c76137a7565b5b6129d484828501612607565b91505092915050565b6000602082840312156129f3576129f26137ac565b5b6000612a0184828501612635565b91505092915050565b6000612a168383612ae6565b905092915050565b612a2781613542565b82525050565b612a3e612a3982613542565b6136ae565b82525050565b6000612a4f8261343b565b612a598185613469565b935083602082028501612a6b8561342b565b8060005b85811015612aa75784840389528151612a888582612a0a565b9450612a938361345c565b925060208a01995050600181019050612a6f565b50829750879550505050505092915050565b612ac281613554565b82525050565b612ad181613560565b82525050565b612ae08161356a565b82525050565b6000612af182613446565b612afb818561347a565b9350612b0b8185602086016135cf565b612b14816137b1565b840191505092915050565b6000612b2a82613446565b612b34818561348b565b9350612b448185602086016135cf565b612b4d816137b1565b840191505092915050565b6000612b6382613446565b612b6d818561349c565b9350612b7d8185602086016135cf565b80840191505092915050565b6000612b9482613451565b612b9e81856134a7565b9350612bae8185602086016135cf565b612bb7816137b1565b840191505092915050565b6000612bcf601b836134a7565b9150612bda826137cf565b602082019050919050565b6000612bf26034836134a7565b9150612bfd826137f8565b604082019050919050565b6000612c156038836134a7565b9150612c2082613847565b604082019050919050565b6000612c386028836134a7565b9150612c4382613896565b604082019050919050565b6000612c5b6029836134a7565b9150612c66826138e5565b604082019050919050565b6000612c7e6026836134a7565b9150612c8982613934565b604082019050919050565b6000612ca1602a836134a7565b9150612cac82613983565b604082019050919050565b6000612cc46043836134a7565b9150612ccf826139d2565b606082019050919050565b6000612ce76045836134a7565b9150612cf282613a47565b606082019050919050565b6000612d0a6030836134a7565b9150612d1582613abc565b604082019050919050565b6000612d2d6034836134a7565b9150612d3882613b0b565b604082019050919050565b6000612d50600c836134a7565b9150612d5b82613b5a565b602082019050919050565b6000612d736024836134a7565b9150612d7e82613b83565b604082019050919050565b6000612d966020836134a7565b9150612da182613bd2565b602082019050919050565b6000612db96028836134a7565b9150612dc482613bfb565b604082019050919050565b6000612ddc6022836134a7565b9150612de782613c4a565b604082019050919050565b6000612dff6040836134a7565b9150612e0a82613c99565b604082019050919050565b6000612e226020836134a7565b9150612e2d82613ce8565b602082019050919050565b6000612e456026836134a7565b9150612e5082613d11565b604082019050919050565b6000612e68602c836134a7565b9150612e7382613d60565b604082019050919050565b612e87816135b6565b82525050565b612e9e612e99826135b6565b6136d2565b82525050565b6000612eb08287612a2d565b601482019150612ec08286612a2d565b601482019150612ed08285612e8d565b602082019150612ee08284612b58565b915081905095945050505050565b6000612efa8284612b58565b915081905092915050565b6000602082019050612f1a6000830184612a1e565b92915050565b6000606082019050612f356000830186612a1e565b612f426020830185612a1e565b612f4f6040830184612e7e565b949350505050565b6000604082019050612f6c6000830185612a1e565b612f796020830184612e7e565b9392505050565b60006020820190508181036000830152612f9a8184612a44565b905092915050565b6000602082019050612fb76000830184612ab9565b92915050565b6000604082019050612fd26000830185612ac8565b8181036020830152612fe48184612b1f565b90509392505050565b60006020820190506130026000830184612ad7565b92915050565b600060208201905081810360008301526130228184612b1f565b905092915050565b600060208201905081810360008301526130448184612b89565b905092915050565b6000602082019050818103600083015261306581612bc2565b9050919050565b6000602082019050818103600083015261308581612be5565b9050919050565b600060208201905081810360008301526130a581612c08565b9050919050565b600060208201905081810360008301526130c581612c2b565b9050919050565b600060208201905081810360008301526130e581612c4e565b9050919050565b6000602082019050818103600083015261310581612c71565b9050919050565b6000602082019050818103600083015261312581612c94565b9050919050565b6000602082019050818103600083015261314581612cb7565b9050919050565b6000602082019050818103600083015261316581612cda565b9050919050565b6000602082019050818103600083015261318581612cfd565b9050919050565b600060208201905081810360008301526131a581612d20565b9050919050565b600060208201905081810360008301526131c581612d43565b9050919050565b600060208201905081810360008301526131e581612d66565b9050919050565b6000602082019050818103600083015261320581612d89565b9050919050565b6000602082019050818103600083015261322581612dac565b9050919050565b6000602082019050818103600083015261324581612dcf565b9050919050565b6000602082019050818103600083015261326581612df2565b9050919050565b6000602082019050818103600083015261328581612e15565b9050919050565b600060208201905081810360008301526132a581612e38565b9050919050565b600060208201905081810360008301526132c581612e5b565b9050919050565b60006020820190506132e16000830184612e7e565b92915050565b60006060820190506132fc6000830186612e7e565b6133096020830185612ab9565b818103604083015261331b8184612b1f565b9050949350505050565b600061332f613340565b905061333b8282613634565b919050565b6000604051905090565b600067ffffffffffffffff82111561336557613364613769565b5b602082029050602081019050919050565b600067ffffffffffffffff82111561339157613390613769565b5b602082029050602081019050919050565b600067ffffffffffffffff8211156133bd576133bc613769565b5b602082029050602081019050919050565b600067ffffffffffffffff8211156133e9576133e8613769565b5b602082029050602081019050919050565b600067ffffffffffffffff82111561341557613414613769565b5b61341e826137b1565b9050602081019050919050565b6000819050602082019050919050565b600081519050919050565b600081519050919050565b600081519050919050565b6000602082019050919050565b600082825260208201905092915050565b600082825260208201905092915050565b600082825260208201905092915050565b600081905092915050565b600082825260208201905092915050565b60006134c3826135b6565b91506134ce836135b6565b9250827fffffffffffffffffffffffffffffffffffffffffffffffffffffffffffffffff03821115613503576135026136dc565b5b828201905092915050565b6000613519826135b6565b9150613524836135b6565b925082821015613537576135366136dc565b5b828203905092915050565b600061354d82613596565b9050919050565b60008115159050919050565b6000819050919050565b60007fffffffff0000000000000000000000000000000000000000000000000000000082169050919050565b600073ffffffffffffffffffffffffffffffffffffffff82169050919050565b6000819050919050565b82818337600083830152505050565b60005b838110156135ed5780820151818401526020810190506135d2565b838111156135fc576000848401525b50505050565b6000600282049050600182168061361a57607f821691505b6020821081141561362e5761362d61370b565b5b50919050565b61363d826137b1565b810181811067ffffffffffffffff8211171561365c5761365b613769565b5b80604052505050565b6000613670826135b6565b91507fffffffffffffffffffffffffffffffffffffffffffffffffffffffffffffffff8214156136a3576136a26136dc565b5b600182019050919050565b60006136b9826136c0565b9050919050565b60006136cb826137c2565b9050919050565b6000819050919050565b7f4e487b7100000000000000000000000000000000000000000000000000000000600052601160045260246000fd5b7f4e487b7100000000000000000000000000000000000000000000000000000000600052602260045260246000fd5b7f4e487b7100000000000000000000000000000000000000000000000000000000600052603260045260246000fd5b7f4e487b7100000000000000000000000000000000000000000000000000000000600052604160045260246000fd5b600080fd5b600080fd5b600080fd5b600080fd5b600080fd5b6000601f19601f8301169050919050565b60008160601b9050919050565b7f4c5350373a20746f6b656e20726563656976657220697320454f410000000000600082015250565b7f4c5350373a206275726e20616d6f756e742065786365656473206f706572617460008201527f6f7220617574686f72697a656420616d6f756e74000000000000000000000000602082015250565b7f4c5350373a207472616e7366657220616d6f756e742065786365656473206f7060008201527f657261746f7220617574686f72697a656420616d6f756e740000000000000000602082015250565b7f4c5350373a207472616e736665724261746368206c697374206c656e6774682060008201527f6d69736d61746368000000000000000000000000000000000000000000000000602082015250565b7f4f776e61626c653a206f776e65722063616e206f6e6c7920626520696e69746960008201527f61746564206f6e63650000000000000000000000000000000000000000000000602082015250565b7f4f776e61626c653a206e6577206f776e657220697320746865207a65726f206160008201527f6464726573730000000000000000000000000000000000000000000000000000602082015250565b7f4c5350373a206d696e7420746f20746865207a65726f2061646472657373206e60008201527f6f7420616c6c6f77656400000000000000000000000000000000000000000000602082015250565b7f4c5350373a207570646174696e67206f70657261746f72206661696c65642c2060008201527f63616e206e6f742075736520746f6b656e206f776e6572206173206f7065726160208201527f746f720000000000000000000000000000000000000000000000000000000000604082015250565b7f4c5350373a207570646174696e67206f70657261746f72206661696c65642c2060008201527f63616e206e6f7420736574206f70657261746f7220666f72207a65726f20616460208201527f6472657373000000000000000000000000000000000000000000000000000000604082015250565b7f4c5350373a207472616e7366657220616d6f756e74206578636565647320746f60008201527f6b656e4f776e65722062616c616e636500000000000000000000000000000000602082015250565b7f4c5350373a20746f6b656e20726563656976657220636f6e7472616374206d6960008201527f7373696e67204c53503120696e74657266616365000000000000000000000000602082015250565b7f756e617574686f72697a65640000000000000000000000000000000000000000600082015250565b7f4c5350373a207472616e736665722066726f6d20746865207a65726f2061646460008201527f7265737300000000000000000000000000000000000000000000000000000000602082015250565b7f4f776e61626c653a2063616c6c6572206973206e6f7420746865206f776e6572600082015250565b7f4c535037436170706564537570706c793a20746f6b656e537570706c7943617060008201527f2072656163686564000000000000000000000000000000000000000000000000602082015250565b7f4c5350373a207472616e7366657220746f20746865207a65726f20616464726560008201527f7373000000000000000000000000000000000000000000000000000000000000602082015250565b7f4c5350373a207570646174696e67206f70657261746f72206661696c65642c2060008201527f6f70657261746f722063616e206e6f74206265207a65726f2061646472657373602082015250565b7f4c5350373a206275726e2066726f6d20746865207a65726f2061646472657373600082015250565b7f4b657973206c656e677468206e6f7420657175616c20746f2076616c7565732060008201527f6c656e6774680000000000000000000000000000000000000000000000000000602082015250565b7f4c5350373a206275726e20616d6f756e74206578636565647320746f6b656e4f60008201527f776e65722062616c616e63650000000000000000000000000000000000000000602082015250565b613db881613542565b8114613dc357600080fd5b50565b613dcf81613554565b8114613dda57600080fd5b50565b613de681613560565b8114613df157600080fd5b50565b613dfd8161356a565b8114613e0857600080fd5b50565b613e14816135b6565b8114613e1f57600080fd5b5056fea264697066735822122010e9ea9c85f36c9452435f719177ad621bd8e3be240c9d667884f71bf3a086fe64736f6c63430008070033a2646970667358221220e4c98c15c7ebd6ba2fd193b9a7e7405e6ad71f30349a2047fae63bf5cb231ea064736f6c63430008070033",
			"opcodes": "PUSH1 0x80 PUSH1 0x40 MSTORE CALLVALUE DUP1 ISZERO PUSH2 0x10 JUMPI PUSH1 0x0 DUP1 REVERT JUMPDEST POP CALLER PUSH1 0x1 PUSH1 0x0 PUSH2 0x100 EXP DUP2 SLOAD DUP2 PUSH20 0xFFFFFFFFFFFFFFFFFFFFFFFFFFFFFFFFFFFFFFFF MUL NOT AND SWAP1 DUP4 PUSH20 0xFFFFFFFFFFFFFFFFFFFFFFFFFFFFFFFFFFFFFFFF AND MUL OR SWAP1 SSTORE POP PUSH2 0x51A2 DUP1 PUSH2 0x61 PUSH1 0x0 CODECOPY PUSH1 0x0 RETURN INVALID PUSH1 0x80 PUSH1 0x40 MSTORE CALLVALUE DUP1 ISZERO PUSH3 0x11 JUMPI PUSH1 0x0 DUP1 REVERT JUMPDEST POP PUSH1 0x4 CALLDATASIZE LT PUSH3 0x46 JUMPI PUSH1 0x0 CALLDATALOAD PUSH1 0xE0 SHR DUP1 PUSH4 0x9D63848A EQ PUSH3 0x4B JUMPI DUP1 PUSH4 0xAFD8FD5F EQ PUSH3 0x6D JUMPI DUP1 PUSH4 0xE5DF8B84 EQ PUSH3 0x8D JUMPI JUMPDEST PUSH1 0x0 DUP1 REVERT JUMPDEST PUSH3 0x55 PUSH3 0xC3 JUMP JUMPDEST PUSH1 0x40 MLOAD PUSH3 0x64 SWAP2 SWAP1 PUSH3 0x50B JUMP JUMPDEST PUSH1 0x40 MLOAD DUP1 SWAP2 SUB SWAP1 RETURN JUMPDEST PUSH3 0x8B PUSH1 0x4 DUP1 CALLDATASIZE SUB DUP2 ADD SWAP1 PUSH3 0x85 SWAP2 SWAP1 PUSH3 0x347 JUMP JUMPDEST PUSH3 0x153 JUMP JUMPDEST STOP JUMPDEST PUSH3 0xAB PUSH1 0x4 DUP1 CALLDATASIZE SUB DUP2 ADD SWAP1 PUSH3 0xA5 SWAP2 SWAP1 PUSH3 0x3E1 JUMP JUMPDEST PUSH3 0x24D JUMP JUMPDEST PUSH1 0x40 MLOAD PUSH3 0xBA SWAP2 SWAP1 PUSH3 0x52F JUMP JUMPDEST PUSH1 0x40 MLOAD DUP1 SWAP2 SUB SWAP1 RETURN JUMPDEST PUSH1 0x60 PUSH1 0x0 DUP1 SLOAD DUP1 PUSH1 0x20 MUL PUSH1 0x20 ADD PUSH1 0x40 MLOAD SWAP1 DUP2 ADD PUSH1 0x40 MSTORE DUP1 SWAP3 SWAP2 SWAP1 DUP2 DUP2 MSTORE PUSH1 0x20 ADD DUP3 DUP1 SLOAD DUP1 ISZERO PUSH3 0x149 JUMPI PUSH1 0x20 MUL DUP3 ADD SWAP2 SWAP1 PUSH1 0x0 MSTORE PUSH1 0x20 PUSH1 0x0 KECCAK256 SWAP1 JUMPDEST DUP2 PUSH1 0x0 SWAP1 SLOAD SWAP1 PUSH2 0x100 EXP SWAP1 DIV PUSH20 0xFFFFFFFFFFFFFFFFFFFFFFFFFFFFFFFFFFFFFFFF AND PUSH20 0xFFFFFFFFFFFFFFFFFFFFFFFFFFFFFFFFFFFFFFFF AND DUP2 MSTORE PUSH1 0x20 ADD SWAP1 PUSH1 0x1 ADD SWAP1 DUP1 DUP4 GT PUSH3 0xFE JUMPI JUMPDEST POP POP POP POP POP SWAP1 POP SWAP1 JUMP JUMPDEST PUSH1 0x0 DUP4 DUP4 DUP4 PUSH1 0x40 MLOAD PUSH3 0x166 SWAP1 PUSH3 0x28D JUMP JUMPDEST PUSH3 0x174 SWAP4 SWAP3 SWAP2 SWAP1 PUSH3 0x54C JUMP JUMPDEST PUSH1 0x40 MLOAD DUP1 SWAP2 SUB SWAP1 PUSH1 0x0 CREATE DUP1 ISZERO DUP1 ISZERO PUSH3 0x191 JUMPI RETURNDATASIZE PUSH1 0x0 DUP1 RETURNDATACOPY RETURNDATASIZE PUSH1 0x0 REVERT JUMPDEST POP SWAP1 POP PUSH1 0x0 DUP2 SWAP1 DUP1 PUSH1 0x1 DUP2 SLOAD ADD DUP1 DUP3 SSTORE DUP1 SWAP2 POP POP PUSH1 0x1 SWAP1 SUB SWAP1 PUSH1 0x0 MSTORE PUSH1 0x20 PUSH1 0x0 KECCAK256 ADD PUSH1 0x0 SWAP1 SWAP2 SWAP1 SWAP2 SWAP1 SWAP2 PUSH2 0x100 EXP DUP2 SLOAD DUP2 PUSH20 0xFFFFFFFFFFFFFFFFFFFFFFFFFFFFFFFFFFFFFFFF MUL NOT AND SWAP1 DUP4 PUSH20 0xFFFFFFFFFFFFFFFFFFFFFFFFFFFFFFFFFFFFFFFF AND MUL OR SWAP1 SSTORE POP DUP2 PUSH20 0xFFFFFFFFFFFFFFFFFFFFFFFFFFFFFFFFFFFFFFFF AND PUSH32 0xE3097FB7ED2DAE92CA2F814DD1F8D176EE93FB67413D7134161130B61E21EBB1 DUP3 PUSH1 0x40 MLOAD PUSH3 0x23F SWAP2 SWAP1 PUSH3 0x52F JUMP JUMPDEST PUSH1 0x40 MLOAD DUP1 SWAP2 SUB SWAP1 LOG2 POP POP POP POP JUMP JUMPDEST PUSH1 0x0 DUP2 DUP2 SLOAD DUP2 LT PUSH3 0x25E JUMPI PUSH1 0x0 DUP1 REVERT JUMPDEST SWAP1 PUSH1 0x0 MSTORE PUSH1 0x20 PUSH1 0x0 KECCAK256 ADD PUSH1 0x0 SWAP2 POP SLOAD SWAP1 PUSH2 0x100 EXP SWAP1 DIV PUSH20 0xFFFFFFFFFFFFFFFFFFFFFFFFFFFFFFFFFFFFFFFF AND DUP2 JUMP JUMPDEST PUSH2 0x49A4 DUP1 PUSH3 0x7C9 DUP4 CODECOPY ADD SWAP1 JUMP JUMPDEST PUSH1 0x0 PUSH3 0x2B2 PUSH3 0x2AC DUP5 PUSH3 0x5C0 JUMP JUMPDEST PUSH3 0x597 JUMP JUMPDEST SWAP1 POP DUP3 DUP2 MSTORE PUSH1 0x20 DUP2 ADD DUP5 DUP5 DUP5 ADD GT ISZERO PUSH3 0x2D1 JUMPI PUSH3 0x2D0 PUSH3 0x774 JUMP JUMPDEST JUMPDEST PUSH3 0x2DE DUP5 DUP3 DUP6 PUSH3 0x6C5 JUMP JUMPDEST POP SWAP4 SWAP3 POP POP POP JUMP JUMPDEST PUSH1 0x0 DUP2 CALLDATALOAD SWAP1 POP PUSH3 0x2F7 DUP2 PUSH3 0x794 JUMP JUMPDEST SWAP3 SWAP2 POP POP JUMP JUMPDEST PUSH1 0x0 DUP3 PUSH1 0x1F DUP4 ADD SLT PUSH3 0x315 JUMPI PUSH3 0x314 PUSH3 0x76F JUMP JUMPDEST JUMPDEST DUP2 CALLDATALOAD PUSH3 0x327 DUP5 DUP3 PUSH1 0x20 DUP7 ADD PUSH3 0x29B JUMP JUMPDEST SWAP2 POP POP SWAP3 SWAP2 POP POP JUMP JUMPDEST PUSH1 0x0 DUP2 CALLDATALOAD SWAP1 POP PUSH3 0x341 DUP2 PUSH3 0x7AE JUMP JUMPDEST SWAP3 SWAP2 POP POP JUMP JUMPDEST PUSH1 0x0 DUP1 PUSH1 0x0 PUSH1 0x60 DUP5 DUP7 SUB SLT ISZERO PUSH3 0x363 JUMPI PUSH3 0x362 PUSH3 0x77E JUMP JUMPDEST JUMPDEST PUSH1 0x0 DUP5 ADD CALLDATALOAD PUSH8 0xFFFFFFFFFFFFFFFF DUP2 GT ISZERO PUSH3 0x384 JUMPI PUSH3 0x383 PUSH3 0x779 JUMP JUMPDEST JUMPDEST PUSH3 0x392 DUP7 DUP3 DUP8 ADD PUSH3 0x2FD JUMP JUMPDEST SWAP4 POP POP PUSH1 0x20 DUP5 ADD CALLDATALOAD PUSH8 0xFFFFFFFFFFFFFFFF DUP2 GT ISZERO PUSH3 0x3B6 JUMPI PUSH3 0x3B5 PUSH3 0x779 JUMP JUMPDEST JUMPDEST PUSH3 0x3C4 DUP7 DUP3 DUP8 ADD PUSH3 0x2FD JUMP JUMPDEST SWAP3 POP POP PUSH1 0x40 PUSH3 0x3D7 DUP7 DUP3 DUP8 ADD PUSH3 0x2E6 JUMP JUMPDEST SWAP2 POP POP SWAP3 POP SWAP3 POP SWAP3 JUMP JUMPDEST PUSH1 0x0 PUSH1 0x20 DUP3 DUP5 SUB SLT ISZERO PUSH3 0x3FA JUMPI PUSH3 0x3F9 PUSH3 0x77E JUMP JUMPDEST JUMPDEST PUSH1 0x0 PUSH3 0x40A DUP5 DUP3 DUP6 ADD PUSH3 0x330 JUMP JUMPDEST SWAP2 POP POP SWAP3 SWAP2 POP POP JUMP JUMPDEST PUSH1 0x0 PUSH3 0x421 DUP4 DUP4 PUSH3 0x4A8 JUMP JUMPDEST PUSH1 0x20 DUP4 ADD SWAP1 POP SWAP3 SWAP2 POP POP JUMP JUMPDEST PUSH3 0x438 DUP2 PUSH3 0x64B JUMP JUMPDEST DUP3 MSTORE POP POP JUMP JUMPDEST PUSH1 0x0 PUSH3 0x44B DUP3 PUSH3 0x606 JUMP JUMPDEST PUSH3 0x457 DUP2 DUP6 PUSH3 0x629 JUMP JUMPDEST SWAP4 POP PUSH3 0x464 DUP4 PUSH3 0x5F6 JUMP JUMPDEST DUP1 PUSH1 0x0 JUMPDEST DUP4 DUP2 LT ISZERO PUSH3 0x49B JUMPI DUP2 MLOAD PUSH3 0x47F DUP9 DUP3 PUSH3 0x413 JUMP JUMPDEST SWAP8 POP PUSH3 0x48C DUP4 PUSH3 0x61C JUMP JUMPDEST SWAP3 POP POP PUSH1 0x1 DUP2 ADD SWAP1 POP PUSH3 0x468 JUMP JUMPDEST POP DUP6 SWAP4 POP POP POP POP SWAP3 SWAP2 POP POP JUMP JUMPDEST PUSH3 0x4B3 DUP2 PUSH3 0x689 JUMP JUMPDEST DUP3 MSTORE POP POP JUMP JUMPDEST PUSH3 0x4C4 DUP2 PUSH3 0x689 JUMP JUMPDEST DUP3 MSTORE POP POP JUMP JUMPDEST PUSH1 0x0 PUSH3 0x4D7 DUP3 PUSH3 0x611 JUMP JUMPDEST PUSH3 0x4E3 DUP2 DUP6 PUSH3 0x63A JUMP JUMPDEST SWAP4 POP PUSH3 0x4F5 DUP2 DUP6 PUSH1 0x20 DUP7 ADD PUSH3 0x6D4 JUMP JUMPDEST PUSH3 0x500 DUP2 PUSH3 0x783 JUMP JUMPDEST DUP5 ADD SWAP2 POP POP SWAP3 SWAP2 POP POP JUMP JUMPDEST PUSH1 0x0 PUSH1 0x20 DUP3 ADD SWAP1 POP DUP2 DUP2 SUB PUSH1 0x0 DUP4 ADD MSTORE PUSH3 0x527 DUP2 DUP5 PUSH3 0x43E JUMP JUMPDEST SWAP1 POP SWAP3 SWAP2 POP POP JUMP JUMPDEST PUSH1 0x0 PUSH1 0x20 DUP3 ADD SWAP1 POP PUSH3 0x546 PUSH1 0x0 DUP4 ADD DUP5 PUSH3 0x4B9 JUMP JUMPDEST SWAP3 SWAP2 POP POP JUMP JUMPDEST PUSH1 0x0 PUSH1 0x60 DUP3 ADD SWAP1 POP DUP2 DUP2 SUB PUSH1 0x0 DUP4 ADD MSTORE PUSH3 0x568 DUP2 DUP7 PUSH3 0x4CA JUMP JUMPDEST SWAP1 POP DUP2 DUP2 SUB PUSH1 0x20 DUP4 ADD MSTORE PUSH3 0x57E DUP2 DUP6 PUSH3 0x4CA JUMP JUMPDEST SWAP1 POP PUSH3 0x58F PUSH1 0x40 DUP4 ADD DUP5 PUSH3 0x42D JUMP JUMPDEST SWAP5 SWAP4 POP POP POP POP JUMP JUMPDEST PUSH1 0x0 PUSH3 0x5A3 PUSH3 0x5B6 JUMP JUMPDEST SWAP1 POP PUSH3 0x5B1 DUP3 DUP3 PUSH3 0x70A JUMP JUMPDEST SWAP2 SWAP1 POP JUMP JUMPDEST PUSH1 0x0 PUSH1 0x40 MLOAD SWAP1 POP SWAP1 JUMP JUMPDEST PUSH1 0x0 PUSH8 0xFFFFFFFFFFFFFFFF DUP3 GT ISZERO PUSH3 0x5DE JUMPI PUSH3 0x5DD PUSH3 0x740 JUMP JUMPDEST JUMPDEST PUSH3 0x5E9 DUP3 PUSH3 0x783 JUMP JUMPDEST SWAP1 POP PUSH1 0x20 DUP2 ADD SWAP1 POP SWAP2 SWAP1 POP JUMP JUMPDEST PUSH1 0x0 DUP2 SWAP1 POP PUSH1 0x20 DUP3 ADD SWAP1 POP SWAP2 SWAP1 POP JUMP JUMPDEST PUSH1 0x0 DUP2 MLOAD SWAP1 POP SWAP2 SWAP1 POP JUMP JUMPDEST PUSH1 0x0 DUP2 MLOAD SWAP1 POP SWAP2 SWAP1 POP JUMP JUMPDEST PUSH1 0x0 PUSH1 0x20 DUP3 ADD SWAP1 POP SWAP2 SWAP1 POP JUMP JUMPDEST PUSH1 0x0 DUP3 DUP3 MSTORE PUSH1 0x20 DUP3 ADD SWAP1 POP SWAP3 SWAP2 POP POP JUMP JUMPDEST PUSH1 0x0 DUP3 DUP3 MSTORE PUSH1 0x20 DUP3 ADD SWAP1 POP SWAP3 SWAP2 POP POP JUMP JUMPDEST PUSH1 0x0 PUSH3 0x658 DUP3 PUSH3 0x65F JUMP JUMPDEST SWAP1 POP SWAP2 SWAP1 POP JUMP JUMPDEST PUSH1 0x0 PUSH20 0xFFFFFFFFFFFFFFFFFFFFFFFFFFFFFFFFFFFFFFFF DUP3 AND SWAP1 POP SWAP2 SWAP1 POP JUMP JUMPDEST PUSH1 0x0 DUP2 SWAP1 POP SWAP2 SWAP1 POP JUMP JUMPDEST PUSH1 0x0 PUSH3 0x696 DUP3 PUSH3 0x69D JUMP JUMPDEST SWAP1 POP SWAP2 SWAP1 POP JUMP JUMPDEST PUSH1 0x0 PUSH3 0x6AA DUP3 PUSH3 0x6B1 JUMP JUMPDEST SWAP1 POP SWAP2 SWAP1 POP JUMP JUMPDEST PUSH1 0x0 PUSH3 0x6BE DUP3 PUSH3 0x65F JUMP JUMPDEST SWAP1 POP SWAP2 SWAP1 POP JUMP JUMPDEST DUP3 DUP2 DUP4 CALLDATACOPY PUSH1 0x0 DUP4 DUP4 ADD MSTORE POP POP POP JUMP JUMPDEST PUSH1 0x0 JUMPDEST DUP4 DUP2 LT ISZERO PUSH3 0x6F4 JUMPI DUP1 DUP3 ADD MLOAD DUP2 DUP5 ADD MSTORE PUSH1 0x20 DUP2 ADD SWAP1 POP PUSH3 0x6D7 JUMP JUMPDEST DUP4 DUP2 GT ISZERO PUSH3 0x704 JUMPI PUSH1 0x0 DUP5 DUP5 ADD MSTORE JUMPDEST POP POP POP POP JUMP JUMPDEST PUSH3 0x715 DUP3 PUSH3 0x783 JUMP JUMPDEST DUP2 ADD DUP2 DUP2 LT PUSH8 0xFFFFFFFFFFFFFFFF DUP3 GT OR ISZERO PUSH3 0x737 JUMPI PUSH3 0x736 PUSH3 0x740 JUMP JUMPDEST JUMPDEST DUP1 PUSH1 0x40 MSTORE POP POP POP JUMP JUMPDEST PUSH32 0x4E487B7100000000000000000000000000000000000000000000000000000000 PUSH1 0x0 MSTORE PUSH1 0x41 PUSH1 0x4 MSTORE PUSH1 0x24 PUSH1 0x0 REVERT JUMPDEST PUSH1 0x0 DUP1 REVERT JUMPDEST PUSH1 0x0 DUP1 REVERT JUMPDEST PUSH1 0x0 DUP1 REVERT JUMPDEST PUSH1 0x0 DUP1 REVERT JUMPDEST PUSH1 0x0 PUSH1 0x1F NOT PUSH1 0x1F DUP4 ADD AND SWAP1 POP SWAP2 SWAP1 POP JUMP JUMPDEST PUSH3 0x79F DUP2 PUSH3 0x64B JUMP JUMPDEST DUP2 EQ PUSH3 0x7AB JUMPI PUSH1 0x0 DUP1 REVERT JUMPDEST POP JUMP JUMPDEST PUSH3 0x7B9 DUP2 PUSH3 0x67F JUMP JUMPDEST DUP2 EQ PUSH3 0x7C5 JUMPI PUSH1 0x0 DUP1 REVERT JUMPDEST POP JUMP INVALID PUSH1 0x80 PUSH1 0x40 MSTORE PUSH7 0x2386F26FC10000 PUSH1 0x8 SSTORE CALLVALUE DUP1 ISZERO PUSH3 0x1C JUMPI PUSH1 0x0 DUP1 REVERT JUMPDEST POP PUSH1 0x40 MLOAD PUSH3 0x49A4 CODESIZE SUB DUP1 PUSH3 0x49A4 DUP4 CODECOPY DUP2 DUP2 ADD PUSH1 0x40 MSTORE DUP2 ADD SWAP1 PUSH3 0x42 SWAP2 SWAP1 PUSH3 0x62E JUMP JUMPDEST PUSH11 0x52B7D2DCC80CD2E4000000 DUP4 DUP4 DUP4 PUSH1 0x0 DUP4 DUP4 DUP4 DUP1 PUSH3 0x67 PUSH3 0x23A PUSH1 0x20 SHL PUSH1 0x20 SHR JUMP JUMPDEST PUSH20 0xFFFFFFFFFFFFFFFFFFFFFFFFFFFFFFFFFFFFFFFF AND DUP2 PUSH20 0xFFFFFFFFFFFFFFFFFFFFFFFFFFFFFFFFFFFFFFFF AND EQ PUSH3 0xB1 JUMPI PUSH3 0xB0 DUP2 PUSH3 0x263 PUSH1 0x20 SHL PUSH3 0xF19 OR PUSH1 0x20 SHR JUMP JUMPDEST JUMPDEST PUSH3 0xE2 PUSH32 0x5A988C0F00000000000000000000000000000000000000000000000000000000 PUSH3 0x2E5 PUSH1 0x20 SHL PUSH1 0x20 SHR JUMP JUMPDEST POP PUSH3 0x118 PUSH32 0xDEBA1E292F8BA88238E10AB3C7F88BD4BE4FAC56CAD5194B6ECCEAF653468AF1 PUSH1 0x0 SHL DUP5 PUSH3 0x3BD PUSH1 0x20 SHL PUSH1 0x20 SHR JUMP JUMPDEST PUSH3 0x14D PUSH32 0x2F0A68AB07768E01943A599E73362A0E17A63A72E94DD2E384D2C1D4DB932756 PUSH1 0x0 SHL DUP4 PUSH3 0x3BD PUSH1 0x20 SHL PUSH1 0x20 SHR JUMP JUMPDEST POP POP POP DUP1 PUSH1 0x3 PUSH1 0x0 PUSH2 0x100 EXP DUP2 SLOAD DUP2 PUSH1 0xFF MUL NOT AND SWAP1 DUP4 ISZERO ISZERO MUL OR SWAP1 SSTORE POP PUSH3 0x182 PUSH4 0xE33F65C3 PUSH1 0xE0 SHL PUSH3 0x2E5 PUSH1 0x20 SHL PUSH1 0x20 SHR JUMP JUMPDEST PUSH3 0x1DF PUSH32 0xEAFEC4D89FA9619884B6B8913562645500000000000000000000000074AC49B0 PUSH1 0x0 SHL PUSH4 0x74AC49B0 PUSH1 0xE0 SHL PUSH1 0x40 MLOAD PUSH1 0x20 ADD PUSH3 0x1C4 SWAP2 SWAP1 PUSH3 0x799 JUMP JUMPDEST PUSH1 0x40 MLOAD PUSH1 0x20 DUP2 DUP4 SUB SUB DUP2 MSTORE SWAP1 PUSH1 0x40 MSTORE PUSH3 0x3BD PUSH1 0x20 SHL PUSH1 0x20 SHR JUMP JUMPDEST POP POP POP POP PUSH1 0x0 DUP2 GT PUSH3 0x229 JUMPI PUSH1 0x40 MLOAD PUSH32 0x8C379A000000000000000000000000000000000000000000000000000000000 DUP2 MSTORE PUSH1 0x4 ADD PUSH3 0x220 SWAP1 PUSH3 0x81E JUMP JUMPDEST PUSH1 0x40 MLOAD DUP1 SWAP2 SUB SWAP1 REVERT JUMPDEST DUP1 PUSH1 0x7 DUP2 SWAP1 SSTORE POP POP POP POP POP PUSH3 0xB3C JUMP JUMPDEST PUSH1 0x0 DUP1 PUSH1 0x0 SWAP1 SLOAD SWAP1 PUSH2 0x100 EXP SWAP1 DIV PUSH20 0xFFFFFFFFFFFFFFFFFFFFFFFFFFFFFFFFFFFFFFFF AND SWAP1 POP SWAP1 JUMP JUMPDEST PUSH1 0x0 PUSH1 0x14 SWAP1 SLOAD SWAP1 PUSH2 0x100 EXP SWAP1 DIV PUSH1 0xFF AND ISZERO PUSH3 0x2B6 JUMPI PUSH1 0x40 MLOAD PUSH32 0x8C379A000000000000000000000000000000000000000000000000000000000 DUP2 MSTORE PUSH1 0x4 ADD PUSH3 0x2AD SWAP1 PUSH3 0x7DA JUMP JUMPDEST PUSH1 0x40 MLOAD DUP1 SWAP2 SUB SWAP1 REVERT JUMPDEST PUSH1 0x1 PUSH1 0x0 PUSH1 0x14 PUSH2 0x100 EXP DUP2 SLOAD DUP2 PUSH1 0xFF MUL NOT AND SWAP1 DUP4 ISZERO ISZERO MUL OR SWAP1 SSTORE POP PUSH3 0x2E2 DUP2 PUSH3 0x425 PUSH1 0x20 SHL PUSH1 0x20 SHR JUMP JUMPDEST POP JUMP JUMPDEST PUSH4 0xFFFFFFFF PUSH1 0xE0 SHL DUP2 PUSH28 0xFFFFFFFFFFFFFFFFFFFFFFFFFFFFFFFFFFFFFFFFFFFFFFFFFFFFFFFF NOT AND EQ ISZERO PUSH3 0x351 JUMPI PUSH1 0x40 MLOAD PUSH32 0x8C379A000000000000000000000000000000000000000000000000000000000 DUP2 MSTORE PUSH1 0x4 ADD PUSH3 0x348 SWAP1 PUSH3 0x7FC JUMP JUMPDEST PUSH1 0x40 MLOAD DUP1 SWAP2 SUB SWAP1 REVERT JUMPDEST PUSH1 0x1 DUP1 PUSH1 0x0 DUP4 PUSH28 0xFFFFFFFFFFFFFFFFFFFFFFFFFFFFFFFFFFFFFFFFFFFFFFFFFFFFFFFF NOT AND PUSH28 0xFFFFFFFFFFFFFFFFFFFFFFFFFFFFFFFFFFFFFFFFFFFFFFFFFFFFFFFF NOT AND DUP2 MSTORE PUSH1 0x20 ADD SWAP1 DUP2 MSTORE PUSH1 0x20 ADD PUSH1 0x0 KECCAK256 PUSH1 0x0 PUSH2 0x100 EXP DUP2 SLOAD DUP2 PUSH1 0xFF MUL NOT AND SWAP1 DUP4 ISZERO ISZERO MUL OR SWAP1 SSTORE POP POP JUMP JUMPDEST DUP1 PUSH1 0x2 PUSH1 0x0 DUP5 DUP2 MSTORE PUSH1 0x20 ADD SWAP1 DUP2 MSTORE PUSH1 0x20 ADD PUSH1 0x0 KECCAK256 SWAP1 DUP1 MLOAD SWAP1 PUSH1 0x20 ADD SWAP1 PUSH3 0x3E6 SWAP3 SWAP2 SWAP1 PUSH3 0x4E9 JUMP JUMPDEST POP DUP2 PUSH32 0xECE574603820D07BC9B91F2A932BAADF4628AABCB8AFBA49776529C14A6104B2 DUP3 PUSH1 0x40 MLOAD PUSH3 0x419 SWAP2 SWAP1 PUSH3 0x7B6 JUMP JUMPDEST PUSH1 0x40 MLOAD DUP1 SWAP2 SUB SWAP1 LOG2 POP POP JUMP JUMPDEST PUSH1 0x0 DUP1 PUSH1 0x0 SWAP1 SLOAD SWAP1 PUSH2 0x100 EXP SWAP1 DIV PUSH20 0xFFFFFFFFFFFFFFFFFFFFFFFFFFFFFFFFFFFFFFFF AND SWAP1 POP DUP2 PUSH1 0x0 DUP1 PUSH2 0x100 EXP DUP2 SLOAD DUP2 PUSH20 0xFFFFFFFFFFFFFFFFFFFFFFFFFFFFFFFFFFFFFFFF MUL NOT AND SWAP1 DUP4 PUSH20 0xFFFFFFFFFFFFFFFFFFFFFFFFFFFFFFFFFFFFFFFF AND MUL OR SWAP1 SSTORE POP DUP2 PUSH20 0xFFFFFFFFFFFFFFFFFFFFFFFFFFFFFFFFFFFFFFFF AND DUP2 PUSH20 0xFFFFFFFFFFFFFFFFFFFFFFFFFFFFFFFFFFFFFFFF AND PUSH32 0x8BE0079C531659141344CD1FD0A4F28419497F9722A3DAAFE3B4186F6B6457E0 PUSH1 0x40 MLOAD PUSH1 0x40 MLOAD DUP1 SWAP2 SUB SWAP1 LOG3 POP POP JUMP JUMPDEST DUP3 DUP1 SLOAD PUSH3 0x4F7 SWAP1 PUSH3 0x962 JUMP JUMPDEST SWAP1 PUSH1 0x0 MSTORE PUSH1 0x20 PUSH1 0x0 KECCAK256 SWAP1 PUSH1 0x1F ADD PUSH1 0x20 SWAP1 DIV DUP2 ADD SWAP3 DUP3 PUSH3 0x51B JUMPI PUSH1 0x0 DUP6 SSTORE PUSH3 0x567 JUMP JUMPDEST DUP3 PUSH1 0x1F LT PUSH3 0x536 JUMPI DUP1 MLOAD PUSH1 0xFF NOT AND DUP4 DUP1 ADD OR DUP6 SSTORE PUSH3 0x567 JUMP JUMPDEST DUP3 DUP1 ADD PUSH1 0x1 ADD DUP6 SSTORE DUP3 ISZERO PUSH3 0x567 JUMPI SWAP2 DUP3 ADD JUMPDEST DUP3 DUP2 GT ISZERO PUSH3 0x566 JUMPI DUP3 MLOAD DUP3 SSTORE SWAP2 PUSH1 0x20 ADD SWAP2 SWAP1 PUSH1 0x1 ADD SWAP1 PUSH3 0x549 JUMP JUMPDEST JUMPDEST POP SWAP1 POP PUSH3 0x576 SWAP2 SWAP1 PUSH3 0x57A JUMP JUMPDEST POP SWAP1 JUMP JUMPDEST JUMPDEST DUP1 DUP3 GT ISZERO PUSH3 0x595 JUMPI PUSH1 0x0 DUP2 PUSH1 0x0 SWAP1 SSTORE POP PUSH1 0x1 ADD PUSH3 0x57B JUMP JUMPDEST POP SWAP1 JUMP JUMPDEST PUSH1 0x0 PUSH3 0x5B0 PUSH3 0x5AA DUP5 PUSH3 0x869 JUMP JUMPDEST PUSH3 0x840 JUMP JUMPDEST SWAP1 POP DUP3 DUP2 MSTORE PUSH1 0x20 DUP2 ADD DUP5 DUP5 DUP5 ADD GT ISZERO PUSH3 0x5CF JUMPI PUSH3 0x5CE PUSH3 0xA3B JUMP JUMPDEST JUMPDEST PUSH3 0x5DC DUP5 DUP3 DUP6 PUSH3 0x92C JUMP JUMPDEST POP SWAP4 SWAP3 POP POP POP JUMP JUMPDEST PUSH1 0x0 DUP2 MLOAD SWAP1 POP PUSH3 0x5F5 DUP2 PUSH3 0xB22 JUMP JUMPDEST SWAP3 SWAP2 POP POP JUMP JUMPDEST PUSH1 0x0 DUP3 PUSH1 0x1F DUP4 ADD SLT PUSH3 0x613 JUMPI PUSH3 0x612 PUSH3 0xA36 JUMP JUMPDEST JUMPDEST DUP2 MLOAD PUSH3 0x625 DUP5 DUP3 PUSH1 0x20 DUP7 ADD PUSH3 0x599 JUMP JUMPDEST SWAP2 POP POP SWAP3 SWAP2 POP POP JUMP JUMPDEST PUSH1 0x0 DUP1 PUSH1 0x0 PUSH1 0x60 DUP5 DUP7 SUB SLT ISZERO PUSH3 0x64A JUMPI PUSH3 0x649 PUSH3 0xA45 JUMP JUMPDEST JUMPDEST PUSH1 0x0 DUP5 ADD MLOAD PUSH8 0xFFFFFFFFFFFFFFFF DUP2 GT ISZERO PUSH3 0x66B JUMPI PUSH3 0x66A PUSH3 0xA40 JUMP JUMPDEST JUMPDEST PUSH3 0x679 DUP7 DUP3 DUP8 ADD PUSH3 0x5FB JUMP JUMPDEST SWAP4 POP POP PUSH1 0x20 DUP5 ADD MLOAD PUSH8 0xFFFFFFFFFFFFFFFF DUP2 GT ISZERO PUSH3 0x69D JUMPI PUSH3 0x69C PUSH3 0xA40 JUMP JUMPDEST JUMPDEST PUSH3 0x6AB DUP7 DUP3 DUP8 ADD PUSH3 0x5FB JUMP JUMPDEST SWAP3 POP POP PUSH1 0x40 PUSH3 0x6BE DUP7 DUP3 DUP8 ADD PUSH3 0x5E4 JUMP JUMPDEST SWAP2 POP POP SWAP3 POP SWAP3 POP SWAP3 JUMP JUMPDEST PUSH3 0x6DD PUSH3 0x6D7 DUP3 PUSH3 0x8E0 JUMP JUMPDEST PUSH3 0x9CE JUMP JUMPDEST DUP3 MSTORE POP POP JUMP JUMPDEST PUSH1 0x0 PUSH3 0x6F0 DUP3 PUSH3 0x89F JUMP JUMPDEST PUSH3 0x6FC DUP2 DUP6 PUSH3 0x8AA JUMP JUMPDEST SWAP4 POP PUSH3 0x70E DUP2 DUP6 PUSH1 0x20 DUP7 ADD PUSH3 0x92C JUMP JUMPDEST PUSH3 0x719 DUP2 PUSH3 0xA4A JUMP JUMPDEST DUP5 ADD SWAP2 POP POP SWAP3 SWAP2 POP POP JUMP JUMPDEST PUSH1 0x0 PUSH3 0x733 PUSH1 0x29 DUP4 PUSH3 0x8BB JUMP JUMPDEST SWAP2 POP PUSH3 0x740 DUP3 PUSH3 0xA5B JUMP JUMPDEST PUSH1 0x40 DUP3 ADD SWAP1 POP SWAP2 SWAP1 POP JUMP JUMPDEST PUSH1 0x0 PUSH3 0x75A PUSH1 0x1C DUP4 PUSH3 0x8BB JUMP JUMPDEST SWAP2 POP PUSH3 0x767 DUP3 PUSH3 0xAAA JUMP JUMPDEST PUSH1 0x20 DUP3 ADD SWAP1 POP SWAP2 SWAP1 POP JUMP JUMPDEST PUSH1 0x0 PUSH3 0x781 PUSH1 0x28 DUP4 PUSH3 0x8BB JUMP JUMPDEST SWAP2 POP PUSH3 0x78E DUP3 PUSH3 0xAD3 JUMP JUMPDEST PUSH1 0x40 DUP3 ADD SWAP1 POP SWAP2 SWAP1 POP JUMP JUMPDEST PUSH1 0x0 PUSH3 0x7A7 DUP3 DUP5 PUSH3 0x6C8 JUMP JUMPDEST PUSH1 0x4 DUP3 ADD SWAP2 POP DUP2 SWAP1 POP SWAP3 SWAP2 POP POP JUMP JUMPDEST PUSH1 0x0 PUSH1 0x20 DUP3 ADD SWAP1 POP DUP2 DUP2 SUB PUSH1 0x0 DUP4 ADD MSTORE PUSH3 0x7D2 DUP2 DUP5 PUSH3 0x6E3 JUMP JUMPDEST SWAP1 POP SWAP3 SWAP2 POP POP JUMP JUMPDEST PUSH1 0x0 PUSH1 0x20 DUP3 ADD SWAP1 POP DUP2 DUP2 SUB PUSH1 0x0 DUP4 ADD MSTORE PUSH3 0x7F5 DUP2 PUSH3 0x724 JUMP JUMPDEST SWAP1 POP SWAP2 SWAP1 POP JUMP JUMPDEST PUSH1 0x0 PUSH1 0x20 DUP3 ADD SWAP1 POP DUP2 DUP2 SUB PUSH1 0x0 DUP4 ADD MSTORE PUSH3 0x817 DUP2 PUSH3 0x74B JUMP JUMPDEST SWAP1 POP SWAP2 SWAP1 POP JUMP JUMPDEST PUSH1 0x0 PUSH1 0x20 DUP3 ADD SWAP1 POP DUP2 DUP2 SUB PUSH1 0x0 DUP4 ADD MSTORE PUSH3 0x839 DUP2 PUSH3 0x772 JUMP JUMPDEST SWAP1 POP SWAP2 SWAP1 POP JUMP JUMPDEST PUSH1 0x0 PUSH3 0x84C PUSH3 0x85F JUMP JUMPDEST SWAP1 POP PUSH3 0x85A DUP3 DUP3 PUSH3 0x998 JUMP JUMPDEST SWAP2 SWAP1 POP JUMP JUMPDEST PUSH1 0x0 PUSH1 0x40 MLOAD SWAP1 POP SWAP1 JUMP JUMPDEST PUSH1 0x0 PUSH8 0xFFFFFFFFFFFFFFFF DUP3 GT ISZERO PUSH3 0x887 JUMPI PUSH3 0x886 PUSH3 0xA07 JUMP JUMPDEST JUMPDEST PUSH3 0x892 DUP3 PUSH3 0xA4A JUMP JUMPDEST SWAP1 POP PUSH1 0x20 DUP2 ADD SWAP1 POP SWAP2 SWAP1 POP JUMP JUMPDEST PUSH1 0x0 DUP2 MLOAD SWAP1 POP SWAP2 SWAP1 POP JUMP JUMPDEST PUSH1 0x0 DUP3 DUP3 MSTORE PUSH1 0x20 DUP3 ADD SWAP1 POP SWAP3 SWAP2 POP POP JUMP JUMPDEST PUSH1 0x0 DUP3 DUP3 MSTORE PUSH1 0x20 DUP3 ADD SWAP1 POP SWAP3 SWAP2 POP POP JUMP JUMPDEST PUSH1 0x0 PUSH3 0x8D9 DUP3 PUSH3 0x90C JUMP JUMPDEST SWAP1 POP SWAP2 SWAP1 POP JUMP JUMPDEST PUSH1 0x0 PUSH32 0xFFFFFFFF00000000000000000000000000000000000000000000000000000000 DUP3 AND SWAP1 POP SWAP2 SWAP1 POP JUMP JUMPDEST PUSH1 0x0 PUSH20 0xFFFFFFFFFFFFFFFFFFFFFFFFFFFFFFFFFFFFFFFF DUP3 AND SWAP1 POP SWAP2 SWAP1 POP JUMP JUMPDEST PUSH1 0x0 JUMPDEST DUP4 DUP2 LT ISZERO PUSH3 0x94C JUMPI DUP1 DUP3 ADD MLOAD DUP2 DUP5 ADD MSTORE PUSH1 0x20 DUP2 ADD SWAP1 POP PUSH3 0x92F JUMP JUMPDEST DUP4 DUP2 GT ISZERO PUSH3 0x95C JUMPI PUSH1 0x0 DUP5 DUP5 ADD MSTORE JUMPDEST POP POP POP POP JUMP JUMPDEST PUSH1 0x0 PUSH1 0x2 DUP3 DIV SWAP1 POP PUSH1 0x1 DUP3 AND DUP1 PUSH3 0x97B JUMPI PUSH1 0x7F DUP3 AND SWAP2 POP JUMPDEST PUSH1 0x20 DUP3 LT DUP2 EQ ISZERO PUSH3 0x992 JUMPI PUSH3 0x991 PUSH3 0x9D8 JUMP JUMPDEST JUMPDEST POP SWAP2 SWAP1 POP JUMP JUMPDEST PUSH3 0x9A3 DUP3 PUSH3 0xA4A JUMP JUMPDEST DUP2 ADD DUP2 DUP2 LT PUSH8 0xFFFFFFFFFFFFFFFF DUP3 GT OR ISZERO PUSH3 0x9C5 JUMPI PUSH3 0x9C4 PUSH3 0xA07 JUMP JUMPDEST JUMPDEST DUP1 PUSH1 0x40 MSTORE POP POP POP JUMP JUMPDEST PUSH1 0x0 DUP2 SWAP1 POP SWAP2 SWAP1 POP JUMP JUMPDEST PUSH32 0x4E487B7100000000000000000000000000000000000000000000000000000000 PUSH1 0x0 MSTORE PUSH1 0x22 PUSH1 0x4 MSTORE PUSH1 0x24 PUSH1 0x0 REVERT JUMPDEST PUSH32 0x4E487B7100000000000000000000000000000000000000000000000000000000 PUSH1 0x0 MSTORE PUSH1 0x41 PUSH1 0x4 MSTORE PUSH1 0x24 PUSH1 0x0 REVERT JUMPDEST PUSH1 0x0 DUP1 REVERT JUMPDEST PUSH1 0x0 DUP1 REVERT JUMPDEST PUSH1 0x0 DUP1 REVERT JUMPDEST PUSH1 0x0 DUP1 REVERT JUMPDEST PUSH1 0x0 PUSH1 0x1F NOT PUSH1 0x1F DUP4 ADD AND SWAP1 POP SWAP2 SWAP1 POP JUMP JUMPDEST PUSH32 0x4F776E61626C653A206F776E65722063616E206F6E6C7920626520696E697469 PUSH1 0x0 DUP3 ADD MSTORE PUSH32 0x61746564206F6E63650000000000000000000000000000000000000000000000 PUSH1 0x20 DUP3 ADD MSTORE POP JUMP JUMPDEST PUSH32 0x4552433136353A20696E76616C696420696E7465726661636520696400000000 PUSH1 0x0 DUP3 ADD MSTORE POP JUMP JUMPDEST PUSH32 0x4C535037436170706564537570706C793A20746F6B656E537570706C79436170 PUSH1 0x0 DUP3 ADD MSTORE PUSH32 0x206973207A65726F000000000000000000000000000000000000000000000000 PUSH1 0x20 DUP3 ADD MSTORE POP JUMP JUMPDEST PUSH3 0xB2D DUP2 PUSH3 0x8CC JUMP JUMPDEST DUP2 EQ PUSH3 0xB39 JUMPI PUSH1 0x0 DUP1 REVERT JUMPDEST POP JUMP JUMPDEST PUSH2 0x3E58 DUP1 PUSH3 0xB4C PUSH1 0x0 CODECOPY PUSH1 0x0 RETURN INVALID PUSH1 0x80 PUSH1 0x40 MSTORE CALLVALUE DUP1 ISZERO PUSH2 0x10 JUMPI PUSH1 0x0 DUP1 REVERT JUMPDEST POP PUSH1 0x4 CALLDATASIZE LT PUSH2 0x142 JUMPI PUSH1 0x0 CALLDATALOAD PUSH1 0xE0 SHR DUP1 PUSH4 0x760D9BBA GT PUSH2 0xB8 JUMPI DUP1 PUSH4 0xD2706C19 GT PUSH2 0x7C JUMPI DUP1 PUSH4 0xD2706C19 EQ PUSH2 0x33D JUMPI DUP1 PUSH4 0xD95B6371 EQ PUSH2 0x359 JUMPI DUP1 PUSH4 0xE9893C67 EQ PUSH2 0x389 JUMPI DUP1 PUSH4 0xF2FDE38B EQ PUSH2 0x3A7 JUMPI DUP1 PUSH4 0xFAD8B32A EQ PUSH2 0x3C3 JUMPI DUP1 PUSH4 0xFBDD25E4 EQ PUSH2 0x3DF JUMPI PUSH2 0x142 JUMP JUMPDEST DUP1 PUSH4 0x760D9BBA EQ PUSH2 0x2AD JUMPI DUP1 PUSH4 0x8DA5CB5B EQ PUSH2 0x2C9 JUMPI DUP1 PUSH4 0x95D89B41 EQ PUSH2 0x2E7 JUMPI DUP1 PUSH4 0xA8A34E0A EQ PUSH2 0x305 JUMPI DUP1 PUSH4 0xBE399BE5 EQ PUSH2 0x321 JUMPI PUSH2 0x142 JUMP JUMPDEST DUP1 PUSH4 0x313CE567 GT PUSH2 0x10A JUMPI DUP1 PUSH4 0x313CE567 EQ PUSH2 0x1EB JUMPI DUP1 PUSH4 0x47980AA3 EQ PUSH2 0x209 JUMPI DUP1 PUSH4 0x4E3E6E9C EQ PUSH2 0x225 JUMPI DUP1 PUSH4 0x52058D8A EQ PUSH2 0x255 JUMPI DUP1 PUSH4 0x70A08231 EQ PUSH2 0x273 JUMPI DUP1 PUSH4 0x715018A6 EQ PUSH2 0x2A3 JUMPI PUSH2 0x142 JUMP JUMPDEST DUP1 PUSH4 0x1FFC9A7 EQ PUSH2 0x147 JUMPI DUP1 PUSH4 0x6FDDE03 EQ PUSH2 0x177 JUMPI DUP1 PUSH4 0x14A6E293 EQ PUSH2 0x195 JUMPI DUP1 PUSH4 0x18160DDD EQ PUSH2 0x1B1 JUMPI DUP1 PUSH4 0x1E9A6950 EQ PUSH2 0x1CF JUMPI JUMPDEST PUSH1 0x0 DUP1 REVERT JUMPDEST PUSH2 0x161 PUSH1 0x4 DUP1 CALLDATASIZE SUB DUP2 ADD SWAP1 PUSH2 0x15C SWAP2 SWAP1 PUSH2 0x2967 JUMP JUMPDEST PUSH2 0x3FB JUMP JUMPDEST PUSH1 0x40 MLOAD PUSH2 0x16E SWAP2 SWAP1 PUSH2 0x2FA2 JUMP JUMPDEST PUSH1 0x40 MLOAD DUP1 SWAP2 SUB SWAP1 RETURN JUMPDEST PUSH2 0x17F PUSH2 0x473 JUMP JUMPDEST PUSH1 0x40 MLOAD PUSH2 0x18C SWAP2 SWAP1 PUSH2 0x302A JUMP JUMPDEST PUSH1 0x40 MLOAD DUP1 SWAP2 SUB SWAP1 RETURN JUMPDEST PUSH2 0x1AF PUSH1 0x4 DUP1 CALLDATASIZE SUB DUP2 ADD SWAP1 PUSH2 0x1AA SWAP2 SWAP1 PUSH2 0x28C2 JUMP JUMPDEST PUSH2 0x4A6 JUMP JUMPDEST STOP JUMPDEST PUSH2 0x1B9 PUSH2 0x5C8 JUMP JUMPDEST PUSH1 0x40 MLOAD PUSH2 0x1C6 SWAP2 SWAP1 PUSH2 0x32CC JUMP JUMPDEST PUSH1 0x40 MLOAD DUP1 SWAP2 SUB SWAP1 RETURN JUMPDEST PUSH2 0x1E9 PUSH1 0x4 DUP1 CALLDATASIZE SUB DUP2 ADD SWAP1 PUSH2 0x1E4 SWAP2 SWAP1 PUSH2 0x274E JUMP JUMPDEST PUSH2 0x5D2 JUMP JUMPDEST STOP JUMPDEST PUSH2 0x1F3 PUSH2 0x64F JUMP JUMPDEST PUSH1 0x40 MLOAD PUSH2 0x200 SWAP2 SWAP1 PUSH2 0x32CC JUMP JUMPDEST PUSH1 0x40 MLOAD DUP1 SWAP2 SUB SWAP1 RETURN JUMPDEST PUSH2 0x223 PUSH1 0x4 DUP1 CALLDATASIZE SUB DUP2 ADD SWAP1 PUSH2 0x21E SWAP2 SWAP1 PUSH2 0x274E JUMP JUMPDEST PUSH2 0x677 JUMP JUMPDEST STOP JUMPDEST PUSH2 0x23F PUSH1 0x4 DUP1 CALLDATASIZE SUB DUP2 ADD SWAP1 PUSH2 0x23A SWAP2 SWAP1 PUSH2 0x2879 JUMP JUMPDEST PUSH2 0x68D JUMP JUMPDEST PUSH1 0x40 MLOAD PUSH2 0x24C SWAP2 SWAP1 PUSH2 0x2F80 JUMP JUMPDEST PUSH1 0x40 MLOAD DUP1 SWAP2 SUB SWAP1 RETURN JUMPDEST PUSH2 0x25D PUSH2 0x746 JUMP JUMPDEST PUSH1 0x40 MLOAD PUSH2 0x26A SWAP2 SWAP1 PUSH2 0x32CC JUMP JUMPDEST PUSH1 0x40 MLOAD DUP1 SWAP2 SUB SWAP1 RETURN JUMPDEST PUSH2 0x28D PUSH1 0x4 DUP1 CALLDATASIZE SUB DUP2 ADD SWAP1 PUSH2 0x288 SWAP2 SWAP1 PUSH2 0x264A JUMP JUMPDEST PUSH2 0x750 JUMP JUMPDEST PUSH1 0x40 MLOAD PUSH2 0x29A SWAP2 SWAP1 PUSH2 0x32CC JUMP JUMPDEST PUSH1 0x40 MLOAD DUP1 SWAP2 SUB SWAP1 RETURN JUMPDEST PUSH2 0x2AB PUSH2 0x799 JUMP JUMPDEST STOP JUMPDEST PUSH2 0x2C7 PUSH1 0x4 DUP1 CALLDATASIZE SUB DUP2 ADD SWAP1 PUSH2 0x2C2 SWAP2 SWAP1 PUSH2 0x26B7 JUMP JUMPDEST PUSH2 0x821 JUMP JUMPDEST STOP JUMPDEST PUSH2 0x2D1 PUSH2 0x9CD JUMP JUMPDEST PUSH1 0x40 MLOAD PUSH2 0x2DE SWAP2 SWAP1 PUSH2 0x2F05 JUMP JUMPDEST PUSH1 0x40 MLOAD DUP1 SWAP2 SUB SWAP1 RETURN JUMPDEST PUSH2 0x2EF PUSH2 0x9F6 JUMP JUMPDEST PUSH1 0x40 MLOAD PUSH2 0x2FC SWAP2 SWAP1 PUSH2 0x302A JUMP JUMPDEST PUSH1 0x40 MLOAD DUP1 SWAP2 SUB SWAP1 RETURN JUMPDEST PUSH2 0x31F PUSH1 0x4 DUP1 CALLDATASIZE SUB DUP2 ADD SWAP1 PUSH2 0x31A SWAP2 SWAP1 PUSH2 0x278E JUMP JUMPDEST PUSH2 0xA29 JUMP JUMPDEST STOP JUMPDEST PUSH2 0x33B PUSH1 0x4 DUP1 CALLDATASIZE SUB DUP2 ADD SWAP1 PUSH2 0x336 SWAP2 SWAP1 PUSH2 0x264A JUMP JUMPDEST PUSH2 0xB23 JUMP JUMPDEST STOP JUMPDEST PUSH2 0x357 PUSH1 0x4 DUP1 CALLDATASIZE SUB DUP2 ADD SWAP1 PUSH2 0x352 SWAP2 SWAP1 PUSH2 0x29DD JUMP JUMPDEST PUSH2 0xB38 JUMP JUMPDEST STOP JUMPDEST PUSH2 0x373 PUSH1 0x4 DUP1 CALLDATASIZE SUB DUP2 ADD SWAP1 PUSH2 0x36E SWAP2 SWAP1 PUSH2 0x2677 JUMP JUMPDEST PUSH2 0xBB7 JUMP JUMPDEST PUSH1 0x40 MLOAD PUSH2 0x380 SWAP2 SWAP1 PUSH2 0x32CC JUMP JUMPDEST PUSH1 0x40 MLOAD DUP1 SWAP2 SUB SWAP1 RETURN JUMPDEST PUSH2 0x391 PUSH2 0xCBA JUMP JUMPDEST PUSH1 0x40 MLOAD PUSH2 0x39E SWAP2 SWAP1 PUSH2 0x32CC JUMP JUMPDEST PUSH1 0x40 MLOAD DUP1 SWAP2 SUB SWAP1 RETURN JUMPDEST PUSH2 0x3C1 PUSH1 0x4 DUP1 CALLDATASIZE SUB DUP2 ADD SWAP1 PUSH2 0x3BC SWAP2 SWAP1 PUSH2 0x264A JUMP JUMPDEST PUSH2 0xCC0 JUMP JUMPDEST STOP JUMPDEST PUSH2 0x3DD PUSH1 0x4 DUP1 CALLDATASIZE SUB DUP2 ADD SWAP1 PUSH2 0x3D8 SWAP2 SWAP1 PUSH2 0x264A JUMP JUMPDEST PUSH2 0xDB8 JUMP JUMPDEST STOP JUMPDEST PUSH2 0x3F9 PUSH1 0x4 DUP1 CALLDATASIZE SUB DUP2 ADD SWAP1 PUSH2 0x3F4 SWAP2 SWAP1 PUSH2 0x264A JUMP JUMPDEST PUSH2 0xDCE JUMP JUMPDEST STOP JUMPDEST PUSH1 0x0 PUSH2 0x406 DUP3 PUSH2 0xF90 JUMP JUMPDEST DUP1 PUSH2 0x46C JUMPI POP PUSH1 0x1 PUSH1 0x0 DUP4 PUSH28 0xFFFFFFFFFFFFFFFFFFFFFFFFFFFFFFFFFFFFFFFFFFFFFFFFFFFFFFFF NOT AND PUSH28 0xFFFFFFFFFFFFFFFFFFFFFFFFFFFFFFFFFFFFFFFFFFFFFFFFFFFFFFFF NOT AND DUP2 MSTORE PUSH1 0x20 ADD SWAP1 DUP2 MSTORE PUSH1 0x20 ADD PUSH1 0x0 KECCAK256 PUSH1 0x0 SWAP1 SLOAD SWAP1 PUSH2 0x100 EXP SWAP1 DIV PUSH1 0xFF AND JUMPDEST SWAP1 POP SWAP2 SWAP1 POP JUMP JUMPDEST PUSH1 0x60 PUSH2 0x4A1 PUSH32 0xDEBA1E292F8BA88238E10AB3C7F88BD4BE4FAC56CAD5194B6ECCEAF653468AF1 PUSH1 0x0 SHL PUSH2 0xFFA JUMP JUMPDEST SWAP1 POP SWAP1 JUMP JUMPDEST PUSH2 0x4AE PUSH2 0x109F JUMP JUMPDEST PUSH20 0xFFFFFFFFFFFFFFFFFFFFFFFFFFFFFFFFFFFFFFFF AND PUSH2 0x4CC PUSH2 0x9CD JUMP JUMPDEST PUSH20 0xFFFFFFFFFFFFFFFFFFFFFFFFFFFFFFFFFFFFFFFF AND EQ PUSH2 0x522 JUMPI PUSH1 0x40 MLOAD PUSH32 0x8C379A000000000000000000000000000000000000000000000000000000000 DUP2 MSTORE PUSH1 0x4 ADD PUSH2 0x519 SWAP1 PUSH2 0x31EC JUMP JUMPDEST PUSH1 0x40 MLOAD DUP1 SWAP2 SUB SWAP1 REVERT JUMPDEST DUP1 MLOAD DUP3 MLOAD EQ PUSH2 0x566 JUMPI PUSH1 0x40 MLOAD PUSH32 0x8C379A000000000000000000000000000000000000000000000000000000000 DUP2 MSTORE PUSH1 0x4 ADD PUSH2 0x55D SWAP1 PUSH2 0x328C JUMP JUMPDEST PUSH1 0x40 MLOAD DUP1 SWAP2 SUB SWAP1 REVERT JUMPDEST PUSH1 0x0 JUMPDEST DUP3 MLOAD DUP2 LT ISZERO PUSH2 0x5C3 JUMPI PUSH2 0x5B0 DUP4 DUP3 DUP2 MLOAD DUP2 LT PUSH2 0x588 JUMPI PUSH2 0x587 PUSH2 0x373A JUMP JUMPDEST JUMPDEST PUSH1 0x20 MUL PUSH1 0x20 ADD ADD MLOAD DUP4 DUP4 DUP2 MLOAD DUP2 LT PUSH2 0x5A3 JUMPI PUSH2 0x5A2 PUSH2 0x373A JUMP JUMPDEST JUMPDEST PUSH1 0x20 MUL PUSH1 0x20 ADD ADD MLOAD PUSH2 0x10A7 JUMP JUMPDEST DUP1 DUP1 PUSH2 0x5BB SWAP1 PUSH2 0x3665 JUMP JUMPDEST SWAP2 POP POP PUSH2 0x569 JUMP JUMPDEST POP POP POP JUMP JUMPDEST PUSH1 0x0 PUSH1 0x4 SLOAD SWAP1 POP SWAP1 JUMP JUMPDEST PUSH2 0x612 DUP3 DUP3 PUSH1 0x40 MLOAD DUP1 PUSH1 0x40 ADD PUSH1 0x40 MSTORE DUP1 PUSH1 0x6 DUP2 MSTORE PUSH1 0x20 ADD PUSH32 0x72656465656D0000000000000000000000000000000000000000000000000000 DUP2 MSTORE POP PUSH2 0x110B JUMP JUMPDEST PUSH32 0x4896181FF8F4543CC00DB9FE9B6FB7E6F032B7EB772C72AB1EC1B4D2E03B9369 DUP3 DUP3 PUSH1 0x40 MLOAD PUSH2 0x643 SWAP3 SWAP2 SWAP1 PUSH2 0x2F57 JUMP JUMPDEST PUSH1 0x40 MLOAD DUP1 SWAP2 SUB SWAP1 LOG1 POP POP JUMP JUMPDEST PUSH1 0x0 PUSH1 0x3 PUSH1 0x0 SWAP1 SLOAD SWAP1 PUSH2 0x100 EXP SWAP1 DIV PUSH1 0xFF AND PUSH2 0x66C JUMPI PUSH1 0x12 PUSH2 0x66F JUMP JUMPDEST PUSH1 0x0 JUMPDEST PUSH1 0xFF AND SWAP1 POP SWAP1 JUMP JUMPDEST PUSH2 0x689 PUSH2 0x682 PUSH2 0x109F JUMP JUMPDEST DUP4 DUP4 PUSH2 0x1486 JUMP JUMPDEST POP POP JUMP JUMPDEST PUSH1 0x60 DUP2 MLOAD PUSH8 0xFFFFFFFFFFFFFFFF DUP2 GT ISZERO PUSH2 0x6AA JUMPI PUSH2 0x6A9 PUSH2 0x3769 JUMP JUMPDEST JUMPDEST PUSH1 0x40 MLOAD SWAP1 DUP1 DUP3 MSTORE DUP1 PUSH1 0x20 MUL PUSH1 0x20 ADD DUP3 ADD PUSH1 0x40 MSTORE DUP1 ISZERO PUSH2 0x6DD JUMPI DUP2 PUSH1 0x20 ADD JUMPDEST PUSH1 0x60 DUP2 MSTORE PUSH1 0x20 ADD SWAP1 PUSH1 0x1 SWAP1 SUB SWAP1 DUP2 PUSH2 0x6C8 JUMPI SWAP1 POP JUMPDEST POP SWAP1 POP PUSH1 0x0 JUMPDEST DUP3 MLOAD DUP2 LT ISZERO PUSH2 0x740 JUMPI PUSH2 0x70F DUP4 DUP3 DUP2 MLOAD DUP2 LT PUSH2 0x702 JUMPI PUSH2 0x701 PUSH2 0x373A JUMP JUMPDEST JUMPDEST PUSH1 0x20 MUL PUSH1 0x20 ADD ADD MLOAD PUSH2 0xFFA JUMP JUMPDEST DUP3 DUP3 DUP2 MLOAD DUP2 LT PUSH2 0x722 JUMPI PUSH2 0x721 PUSH2 0x373A JUMP JUMPDEST JUMPDEST PUSH1 0x20 MUL PUSH1 0x20 ADD ADD DUP2 SWAP1 MSTORE POP DUP1 DUP1 PUSH2 0x738 SWAP1 PUSH2 0x3665 JUMP JUMPDEST SWAP2 POP POP PUSH2 0x6E3 JUMP JUMPDEST POP SWAP2 SWAP1 POP JUMP JUMPDEST PUSH1 0x0 PUSH1 0x7 SLOAD SWAP1 POP SWAP1 JUMP JUMPDEST PUSH1 0x0 PUSH1 0x5 PUSH1 0x0 DUP4 PUSH20 0xFFFFFFFFFFFFFFFFFFFFFFFFFFFFFFFFFFFFFFFF AND PUSH20 0xFFFFFFFFFFFFFFFFFFFFFFFFFFFFFFFFFFFFFFFF AND DUP2 MSTORE PUSH1 0x20 ADD SWAP1 DUP2 MSTORE PUSH1 0x20 ADD PUSH1 0x0 KECCAK256 SLOAD SWAP1 POP SWAP2 SWAP1 POP JUMP JUMPDEST PUSH2 0x7A1 PUSH2 0x109F JUMP JUMPDEST PUSH20 0xFFFFFFFFFFFFFFFFFFFFFFFFFFFFFFFFFFFFFFFF AND PUSH2 0x7BF PUSH2 0x9CD JUMP JUMPDEST PUSH20 0xFFFFFFFFFFFFFFFFFFFFFFFFFFFFFFFFFFFFFFFF AND EQ PUSH2 0x815 JUMPI PUSH1 0x40 MLOAD PUSH32 0x8C379A000000000000000000000000000000000000000000000000000000000 DUP2 MSTORE PUSH1 0x4 ADD PUSH2 0x80C SWAP1 PUSH2 0x31EC JUMP JUMPDEST PUSH1 0x40 MLOAD DUP1 SWAP2 SUB SWAP1 REVERT JUMPDEST PUSH2 0x81F PUSH1 0x0 PUSH2 0x171F JUMP JUMPDEST JUMP JUMPDEST PUSH1 0x0 PUSH2 0x82B PUSH2 0x109F JUMP JUMPDEST SWAP1 POP DUP6 PUSH20 0xFFFFFFFFFFFFFFFFFFFFFFFFFFFFFFFFFFFFFFFF AND DUP2 PUSH20 0xFFFFFFFFFFFFFFFFFFFFFFFFFFFFFFFFFFFFFFFF AND EQ PUSH2 0x9B8 JUMPI PUSH1 0x0 PUSH1 0x6 PUSH1 0x0 DUP9 PUSH20 0xFFFFFFFFFFFFFFFFFFFFFFFFFFFFFFFFFFFFFFFF AND PUSH20 0xFFFFFFFFFFFFFFFFFFFFFFFFFFFFFFFFFFFFFFFF AND DUP2 MSTORE PUSH1 0x20 ADD SWAP1 DUP2 MSTORE PUSH1 0x20 ADD PUSH1 0x0 KECCAK256 PUSH1 0x0 DUP4 PUSH20 0xFFFFFFFFFFFFFFFFFFFFFFFFFFFFFFFFFFFFFFFF AND PUSH20 0xFFFFFFFFFFFFFFFFFFFFFFFFFFFFFFFFFFFFFFFF AND DUP2 MSTORE PUSH1 0x20 ADD SWAP1 DUP2 MSTORE PUSH1 0x20 ADD PUSH1 0x0 KECCAK256 SLOAD SWAP1 POP DUP5 DUP2 LT ISZERO PUSH2 0x924 JUMPI PUSH1 0x40 MLOAD PUSH32 0x8C379A000000000000000000000000000000000000000000000000000000000 DUP2 MSTORE PUSH1 0x4 ADD PUSH2 0x91B SWAP1 PUSH2 0x308C JUMP JUMPDEST PUSH1 0x40 MLOAD DUP1 SWAP2 SUB SWAP1 REVERT JUMPDEST PUSH2 0x9B6 DUP8 DUP4 DUP8 PUSH1 0x6 PUSH1 0x0 DUP13 PUSH20 0xFFFFFFFFFFFFFFFFFFFFFFFFFFFFFFFFFFFFFFFF AND PUSH20 0xFFFFFFFFFFFFFFFFFFFFFFFFFFFFFFFFFFFFFFFF AND DUP2 MSTORE PUSH1 0x20 ADD SWAP1 DUP2 MSTORE PUSH1 0x20 ADD PUSH1 0x0 KECCAK256 PUSH1 0x0 DUP8 PUSH20 0xFFFFFFFFFFFFFFFFFFFFFFFFFFFFFFFFFFFFFFFF AND PUSH20 0xFFFFFFFFFFFFFFFFFFFFFFFFFFFFFFFFFFFFFFFF AND DUP2 MSTORE PUSH1 0x20 ADD SWAP1 DUP2 MSTORE PUSH1 0x20 ADD PUSH1 0x0 KECCAK256 SLOAD PUSH2 0x9B1 SWAP2 SWAP1 PUSH2 0x350E JUMP JUMPDEST PUSH2 0x1486 JUMP JUMPDEST POP JUMPDEST PUSH2 0x9C5 DUP7 DUP7 DUP7 DUP7 DUP7 PUSH2 0x17E3 JUMP JUMPDEST POP POP POP POP POP POP JUMP JUMPDEST PUSH1 0x0 DUP1 PUSH1 0x0 SWAP1 SLOAD SWAP1 PUSH2 0x100 EXP SWAP1 DIV PUSH20 0xFFFFFFFFFFFFFFFFFFFFFFFFFFFFFFFFFFFFFFFF AND SWAP1 POP SWAP1 JUMP JUMPDEST PUSH1 0x60 PUSH2 0xA24 PUSH32 0x2F0A68AB07768E01943A599E73362A0E17A63A72E94DD2E384D2C1D4DB932756 PUSH1 0x0 SHL PUSH2 0xFFA JUMP JUMPDEST SWAP1 POP SWAP1 JUMP JUMPDEST DUP4 MLOAD DUP6 MLOAD EQ DUP1 ISZERO PUSH2 0xA3B JUMPI POP DUP3 MLOAD DUP6 MLOAD EQ JUMPDEST DUP1 ISZERO PUSH2 0xA48 JUMPI POP DUP1 MLOAD DUP6 MLOAD EQ JUMPDEST PUSH2 0xA87 JUMPI PUSH1 0x40 MLOAD PUSH32 0x8C379A000000000000000000000000000000000000000000000000000000000 DUP2 MSTORE PUSH1 0x4 ADD PUSH2 0xA7E SWAP1 PUSH2 0x30AC JUMP JUMPDEST PUSH1 0x40 MLOAD DUP1 SWAP2 SUB SWAP1 REVERT JUMPDEST PUSH1 0x0 JUMPDEST DUP6 MLOAD DUP2 LT ISZERO PUSH2 0xB1B JUMPI PUSH2 0xB08 DUP7 DUP3 DUP2 MLOAD DUP2 LT PUSH2 0xAA9 JUMPI PUSH2 0xAA8 PUSH2 0x373A JUMP JUMPDEST JUMPDEST PUSH1 0x20 MUL PUSH1 0x20 ADD ADD MLOAD DUP7 DUP4 DUP2 MLOAD DUP2 LT PUSH2 0xAC4 JUMPI PUSH2 0xAC3 PUSH2 0x373A JUMP JUMPDEST JUMPDEST PUSH1 0x20 MUL PUSH1 0x20 ADD ADD MLOAD DUP7 DUP5 DUP2 MLOAD DUP2 LT PUSH2 0xADF JUMPI PUSH2 0xADE PUSH2 0x373A JUMP JUMPDEST JUMPDEST PUSH1 0x20 MUL PUSH1 0x20 ADD ADD MLOAD DUP7 DUP7 DUP7 DUP2 MLOAD DUP2 LT PUSH2 0xAFB JUMPI PUSH2 0xAFA PUSH2 0x373A JUMP JUMPDEST JUMPDEST PUSH1 0x20 MUL PUSH1 0x20 ADD ADD MLOAD PUSH2 0x821 JUMP JUMPDEST DUP1 DUP1 PUSH2 0xB13 SWAP1 PUSH2 0x3665 JUMP JUMPDEST SWAP2 POP POP PUSH2 0xA8A JUMP JUMPDEST POP POP POP POP POP POP JUMP JUMPDEST PUSH2 0xB35 DUP2 PUSH2 0xB30 DUP4 PUSH2 0x750 JUMP JUMPDEST PUSH2 0x5D2 JUMP JUMPDEST POP JUMP JUMPDEST CALLER PUSH20 0xFFFFFFFFFFFFFFFFFFFFFFFFFFFFFFFFFFFFFFFF AND PUSH2 0xB57 PUSH2 0x9CD JUMP JUMPDEST PUSH20 0xFFFFFFFFFFFFFFFFFFFFFFFFFFFFFFFFFFFFFFFF AND EQ PUSH2 0xBAD JUMPI PUSH1 0x40 MLOAD PUSH32 0x8C379A000000000000000000000000000000000000000000000000000000000 DUP2 MSTORE PUSH1 0x4 ADD PUSH2 0xBA4 SWAP1 PUSH2 0x31AC JUMP JUMPDEST PUSH1 0x40 MLOAD DUP1 SWAP2 SUB SWAP1 REVERT JUMPDEST DUP1 PUSH1 0x8 DUP2 SWAP1 SSTORE POP POP JUMP JUMPDEST PUSH1 0x0 DUP3 PUSH20 0xFFFFFFFFFFFFFFFFFFFFFFFFFFFFFFFFFFFFFFFF AND DUP3 PUSH20 0xFFFFFFFFFFFFFFFFFFFFFFFFFFFFFFFFFFFFFFFF AND EQ ISZERO PUSH2 0xC34 JUMPI PUSH1 0x5 PUSH1 0x0 DUP4 PUSH20 0xFFFFFFFFFFFFFFFFFFFFFFFFFFFFFFFFFFFFFFFF AND PUSH20 0xFFFFFFFFFFFFFFFFFFFFFFFFFFFFFFFFFFFFFFFF AND DUP2 MSTORE PUSH1 0x20 ADD SWAP1 DUP2 MSTORE PUSH1 0x20 ADD PUSH1 0x0 KECCAK256 SLOAD SWAP1 POP PUSH2 0xCB4 JUMP JUMPDEST PUSH1 0x6 PUSH1 0x0 DUP4 PUSH20 0xFFFFFFFFFFFFFFFFFFFFFFFFFFFFFFFFFFFFFFFF AND PUSH20 0xFFFFFFFFFFFFFFFFFFFFFFFFFFFFFFFFFFFFFFFF AND DUP2 MSTORE PUSH1 0x20 ADD SWAP1 DUP2 MSTORE PUSH1 0x20 ADD PUSH1 0x0 KECCAK256 PUSH1 0x0 DUP5 PUSH20 0xFFFFFFFFFFFFFFFFFFFFFFFFFFFFFFFFFFFFFFFF AND PUSH20 0xFFFFFFFFFFFFFFFFFFFFFFFFFFFFFFFFFFFFFFFF AND DUP2 MSTORE PUSH1 0x20 ADD SWAP1 DUP2 MSTORE PUSH1 0x20 ADD PUSH1 0x0 KECCAK256 SLOAD SWAP1 POP JUMPDEST SWAP3 SWAP2 POP POP JUMP JUMPDEST PUSH1 0x8 SLOAD DUP2 JUMP JUMPDEST PUSH2 0xCC8 PUSH2 0x109F JUMP JUMPDEST PUSH20 0xFFFFFFFFFFFFFFFFFFFFFFFFFFFFFFFFFFFFFFFF AND PUSH2 0xCE6 PUSH2 0x9CD JUMP JUMPDEST PUSH20 0xFFFFFFFFFFFFFFFFFFFFFFFFFFFFFFFFFFFFFFFF AND EQ PUSH2 0xD3C JUMPI PUSH1 0x40 MLOAD PUSH32 0x8C379A000000000000000000000000000000000000000000000000000000000 DUP2 MSTORE PUSH1 0x4 ADD PUSH2 0xD33 SWAP1 PUSH2 0x31EC JUMP JUMPDEST PUSH1 0x40 MLOAD DUP1 SWAP2 SUB SWAP1 REVERT JUMPDEST PUSH1 0x0 PUSH20 0xFFFFFFFFFFFFFFFFFFFFFFFFFFFFFFFFFFFFFFFF AND DUP2 PUSH20 0xFFFFFFFFFFFFFFFFFFFFFFFFFFFFFFFFFFFFFFFF AND EQ ISZERO PUSH2 0xDAC JUMPI PUSH1 0x40 MLOAD PUSH32 0x8C379A000000000000000000000000000000000000000000000000000000000 DUP2 MSTORE PUSH1 0x4 ADD PUSH2 0xDA3 SWAP1 PUSH2 0x30EC JUMP JUMPDEST PUSH1 0x40 MLOAD DUP1 SWAP2 SUB SWAP1 REVERT JUMPDEST PUSH2 0xDB5 DUP2 PUSH2 0x171F JUMP JUMPDEST POP JUMP JUMPDEST PUSH2 0xDCB PUSH2 0xDC3 PUSH2 0x109F JUMP JUMPDEST DUP3 PUSH1 0x0 PUSH2 0x1486 JUMP JUMPDEST POP JUMP JUMPDEST CALLER PUSH20 0xFFFFFFFFFFFFFFFFFFFFFFFFFFFFFFFFFFFFFFFF AND PUSH2 0xDED PUSH2 0x9CD JUMP JUMPDEST PUSH20 0xFFFFFFFFFFFFFFFFFFFFFFFFFFFFFFFFFFFFFFFF AND EQ PUSH2 0xE43 JUMPI PUSH1 0x40 MLOAD PUSH32 0x8C379A000000000000000000000000000000000000000000000000000000000 DUP2 MSTORE PUSH1 0x4 ADD PUSH2 0xE3A SWAP1 PUSH2 0x31AC JUMP JUMPDEST PUSH1 0x40 MLOAD DUP1 SWAP2 SUB SWAP1 REVERT JUMPDEST PUSH2 0xE8E PUSH2 0xE4E PUSH2 0x9CD JUMP JUMPDEST PUSH1 0x8 SLOAD PUSH1 0x1 PUSH1 0x40 MLOAD DUP1 PUSH1 0x40 ADD PUSH1 0x40 MSTORE DUP1 PUSH1 0x5 DUP2 MSTORE PUSH1 0x20 ADD PUSH32 0x6177617264000000000000000000000000000000000000000000000000000000 DUP2 MSTORE POP PUSH2 0x1AA9 JUMP JUMPDEST PUSH2 0xED2 DUP2 PUSH1 0x8 SLOAD PUSH1 0x1 PUSH1 0x40 MLOAD DUP1 PUSH1 0x40 ADD PUSH1 0x40 MSTORE DUP1 PUSH1 0x5 DUP2 MSTORE PUSH1 0x20 ADD PUSH32 0x6177617264000000000000000000000000000000000000000000000000000000 DUP2 MSTORE POP PUSH2 0x1AA9 JUMP JUMPDEST PUSH32 0xE2554529D99AB7A67DB6B4CEA2B32C7D55AE325F958861E05F304FDDED867E31 PUSH2 0xEFB PUSH2 0x9CD JUMP JUMPDEST DUP3 PUSH1 0x8 SLOAD PUSH1 0x40 MLOAD PUSH2 0xF0E SWAP4 SWAP3 SWAP2 SWAP1 PUSH2 0x2F20 JUMP JUMPDEST PUSH1 0x40 MLOAD DUP1 SWAP2 SUB SWAP1 LOG1 POP JUMP JUMPDEST PUSH1 0x0 PUSH1 0x14 SWAP1 SLOAD SWAP1 PUSH2 0x100 EXP SWAP1 DIV PUSH1 0xFF AND ISZERO PUSH2 0xF69 JUMPI PUSH1 0x40 MLOAD PUSH32 0x8C379A000000000000000000000000000000000000000000000000000000000 DUP2 MSTORE PUSH1 0x4 ADD PUSH2 0xF60 SWAP1 PUSH2 0x30CC JUMP JUMPDEST PUSH1 0x40 MLOAD DUP1 SWAP2 SUB SWAP1 REVERT JUMPDEST PUSH1 0x1 PUSH1 0x0 PUSH1 0x14 PUSH2 0x100 EXP DUP2 SLOAD DUP2 PUSH1 0xFF MUL NOT AND SWAP1 DUP4 ISZERO ISZERO MUL OR SWAP1 SSTORE POP PUSH2 0xF8D DUP2 PUSH2 0x171F JUMP JUMPDEST POP JUMP JUMPDEST PUSH1 0x0 PUSH32 0x1FFC9A700000000000000000000000000000000000000000000000000000000 PUSH28 0xFFFFFFFFFFFFFFFFFFFFFFFFFFFFFFFFFFFFFFFFFFFFFFFFFFFFFFFF NOT AND DUP3 PUSH28 0xFFFFFFFFFFFFFFFFFFFFFFFFFFFFFFFFFFFFFFFFFFFFFFFFFFFFFFFF NOT AND EQ SWAP1 POP SWAP2 SWAP1 POP JUMP JUMPDEST PUSH1 0x60 PUSH1 0x2 PUSH1 0x0 DUP4 DUP2 MSTORE PUSH1 0x20 ADD SWAP1 DUP2 MSTORE PUSH1 0x20 ADD PUSH1 0x0 KECCAK256 DUP1 SLOAD PUSH2 0x101A SWAP1 PUSH2 0x3602 JUMP JUMPDEST DUP1 PUSH1 0x1F ADD PUSH1 0x20 DUP1 SWAP2 DIV MUL PUSH1 0x20 ADD PUSH1 0x40 MLOAD SWAP1 DUP2 ADD PUSH1 0x40 MSTORE DUP1 SWAP3 SWAP2 SWAP1 DUP2 DUP2 MSTORE PUSH1 0x20 ADD DUP3 DUP1 SLOAD PUSH2 0x1046 SWAP1 PUSH2 0x3602 JUMP JUMPDEST DUP1 ISZERO PUSH2 0x1093 JUMPI DUP1 PUSH1 0x1F LT PUSH2 0x1068 JUMPI PUSH2 0x100 DUP1 DUP4 SLOAD DIV MUL DUP4 MSTORE SWAP2 PUSH1 0x20 ADD SWAP2 PUSH2 0x1093 JUMP JUMPDEST DUP3 ADD SWAP2 SWAP1 PUSH1 0x0 MSTORE PUSH1 0x20 PUSH1 0x0 KECCAK256 SWAP1 JUMPDEST DUP2 SLOAD DUP2 MSTORE SWAP1 PUSH1 0x1 ADD SWAP1 PUSH1 0x20 ADD DUP1 DUP4 GT PUSH2 0x1076 JUMPI DUP3 SWAP1 SUB PUSH1 0x1F AND DUP3 ADD SWAP2 JUMPDEST POP POP POP POP POP SWAP1 POP SWAP2 SWAP1 POP JUMP JUMPDEST PUSH1 0x0 CALLER SWAP1 POP SWAP1 JUMP JUMPDEST DUP1 PUSH1 0x2 PUSH1 0x0 DUP5 DUP2 MSTORE PUSH1 0x20 ADD SWAP1 DUP2 MSTORE PUSH1 0x20 ADD PUSH1 0x0 KECCAK256 SWAP1 DUP1 MLOAD SWAP1 PUSH1 0x20 ADD SWAP1 PUSH2 0x10CE SWAP3 SWAP2 SWAP1 PUSH2 0x21B3 JUMP JUMPDEST POP DUP2 PUSH32 0xECE574603820D07BC9B91F2A932BAADF4628AABCB8AFBA49776529C14A6104B2 DUP3 PUSH1 0x40 MLOAD PUSH2 0x10FF SWAP2 SWAP1 PUSH2 0x3008 JUMP JUMPDEST PUSH1 0x40 MLOAD DUP1 SWAP2 SUB SWAP1 LOG2 POP POP JUMP JUMPDEST PUSH1 0x0 PUSH20 0xFFFFFFFFFFFFFFFFFFFFFFFFFFFFFFFFFFFFFFFF AND DUP4 PUSH20 0xFFFFFFFFFFFFFFFFFFFFFFFFFFFFFFFFFFFFFFFF AND EQ ISZERO PUSH2 0x117B JUMPI PUSH1 0x40 MLOAD PUSH32 0x8C379A000000000000000000000000000000000000000000000000000000000 DUP2 MSTORE PUSH1 0x4 ADD PUSH2 0x1172 SWAP1 PUSH2 0x326C JUMP JUMPDEST PUSH1 0x40 MLOAD DUP1 SWAP2 SUB SWAP1 REVERT JUMPDEST DUP2 PUSH1 0x5 PUSH1 0x0 DUP6 PUSH20 0xFFFFFFFFFFFFFFFFFFFFFFFFFFFFFFFFFFFFFFFF AND PUSH20 0xFFFFFFFFFFFFFFFFFFFFFFFFFFFFFFFFFFFFFFFF AND DUP2 MSTORE PUSH1 0x20 ADD SWAP1 DUP2 MSTORE PUSH1 0x20 ADD PUSH1 0x0 KECCAK256 SLOAD LT ISZERO PUSH2 0x11FD JUMPI PUSH1 0x40 MLOAD PUSH32 0x8C379A000000000000000000000000000000000000000000000000000000000 DUP2 MSTORE PUSH1 0x4 ADD PUSH2 0x11F4 SWAP1 PUSH2 0x32AC JUMP JUMPDEST PUSH1 0x40 MLOAD DUP1 SWAP2 SUB SWAP1 REVERT JUMPDEST PUSH1 0x0 PUSH2 0x1207 PUSH2 0x109F JUMP JUMPDEST SWAP1 POP DUP4 PUSH20 0xFFFFFFFFFFFFFFFFFFFFFFFFFFFFFFFFFFFFFFFF AND DUP2 PUSH20 0xFFFFFFFFFFFFFFFFFFFFFFFFFFFFFFFFFFFFFFFF AND EQ PUSH2 0x138F JUMPI DUP3 PUSH1 0x6 PUSH1 0x0 DUP7 PUSH20 0xFFFFFFFFFFFFFFFFFFFFFFFFFFFFFFFFFFFFFFFF AND PUSH20 0xFFFFFFFFFFFFFFFFFFFFFFFFFFFFFFFFFFFFFFFF AND DUP2 MSTORE PUSH1 0x20 ADD SWAP1 DUP2 MSTORE PUSH1 0x20 ADD PUSH1 0x0 KECCAK256 PUSH1 0x0 DUP4 PUSH20 0xFFFFFFFFFFFFFFFFFFFFFFFFFFFFFFFFFFFFFFFF AND PUSH20 0xFFFFFFFFFFFFFFFFFFFFFFFFFFFFFFFFFFFFFFFF AND DUP2 MSTORE PUSH1 0x20 ADD SWAP1 DUP2 MSTORE PUSH1 0x20 ADD PUSH1 0x0 KECCAK256 SLOAD LT ISZERO PUSH2 0x12FB JUMPI PUSH1 0x40 MLOAD PUSH32 0x8C379A000000000000000000000000000000000000000000000000000000000 DUP2 MSTORE PUSH1 0x4 ADD PUSH2 0x12F2 SWAP1 PUSH2 0x306C JUMP JUMPDEST PUSH1 0x40 MLOAD DUP1 SWAP2 SUB SWAP1 REVERT JUMPDEST DUP3 PUSH1 0x6 PUSH1 0x0 DUP7 PUSH20 0xFFFFFFFFFFFFFFFFFFFFFFFFFFFFFFFFFFFFFFFF AND PUSH20 0xFFFFFFFFFFFFFFFFFFFFFFFFFFFFFFFFFFFFFFFF AND DUP2 MSTORE PUSH1 0x20 ADD SWAP1 DUP2 MSTORE PUSH1 0x20 ADD PUSH1 0x0 KECCAK256 PUSH1 0x0 DUP4 PUSH20 0xFFFFFFFFFFFFFFFFFFFFFFFFFFFFFFFFFFFFFFFF AND PUSH20 0xFFFFFFFFFFFFFFFFFFFFFFFFFFFFFFFFFFFFFFFF AND DUP2 MSTORE PUSH1 0x20 ADD SWAP1 DUP2 MSTORE PUSH1 0x20 ADD PUSH1 0x0 KECCAK256 PUSH1 0x0 DUP3 DUP3 SLOAD PUSH2 0x1387 SWAP2 SWAP1 PUSH2 0x350E JUMP JUMPDEST SWAP3 POP POP DUP2 SWAP1 SSTORE POP JUMPDEST PUSH2 0x139C DUP5 PUSH1 0x0 DUP6 DUP6 PUSH2 0x1ABB JUMP JUMPDEST PUSH2 0x13A8 DUP5 PUSH1 0x0 DUP6 PUSH2 0x1BCA JUMP JUMPDEST DUP3 PUSH1 0x5 PUSH1 0x0 DUP7 PUSH20 0xFFFFFFFFFFFFFFFFFFFFFFFFFFFFFFFFFFFFFFFF AND PUSH20 0xFFFFFFFFFFFFFFFFFFFFFFFFFFFFFFFFFFFFFFFF AND DUP2 MSTORE PUSH1 0x20 ADD SWAP1 DUP2 MSTORE PUSH1 0x20 ADD PUSH1 0x0 KECCAK256 PUSH1 0x0 DUP3 DUP3 SLOAD PUSH2 0x13F7 SWAP2 SWAP1 PUSH2 0x350E JUMP JUMPDEST SWAP3 POP POP DUP2 SWAP1 SSTORE POP PUSH1 0x0 PUSH20 0xFFFFFFFFFFFFFFFFFFFFFFFFFFFFFFFFFFFFFFFF AND DUP5 PUSH20 0xFFFFFFFFFFFFFFFFFFFFFFFFFFFFFFFFFFFFFFFF AND DUP3 PUSH20 0xFFFFFFFFFFFFFFFFFFFFFFFFFFFFFFFFFFFFFFFF AND PUSH32 0x3997E418D2CEF0B3B0E907B1E39605C3F7D32DBD061E82EA5B4A770D46A160A6 DUP7 PUSH1 0x0 DUP8 PUSH1 0x40 MLOAD PUSH2 0x1478 SWAP4 SWAP3 SWAP2 SWAP1 PUSH2 0x32E7 JUMP JUMPDEST PUSH1 0x40 MLOAD DUP1 SWAP2 SUB SWAP1 LOG4 POP POP POP POP JUMP JUMPDEST DUP3 PUSH20 0xFFFFFFFFFFFFFFFFFFFFFFFFFFFFFFFFFFFFFFFF AND DUP3 PUSH20 0xFFFFFFFFFFFFFFFFFFFFFFFFFFFFFFFFFFFFFFFF AND EQ ISZERO PUSH2 0x14F5 JUMPI PUSH1 0x40 MLOAD PUSH32 0x8C379A000000000000000000000000000000000000000000000000000000000 DUP2 MSTORE PUSH1 0x4 ADD PUSH2 0x14EC SWAP1 PUSH2 0x312C JUMP JUMPDEST PUSH1 0x40 MLOAD DUP1 SWAP2 SUB SWAP1 REVERT JUMPDEST PUSH1 0x0 PUSH20 0xFFFFFFFFFFFFFFFFFFFFFFFFFFFFFFFFFFFFFFFF AND DUP3 PUSH20 0xFFFFFFFFFFFFFFFFFFFFFFFFFFFFFFFFFFFFFFFF AND EQ ISZERO PUSH2 0x1565 JUMPI PUSH1 0x40 MLOAD PUSH32 0x8C379A000000000000000000000000000000000000000000000000000000000 DUP2 MSTORE PUSH1 0x4 ADD PUSH2 0x155C SWAP1 PUSH2 0x324C JUMP JUMPDEST PUSH1 0x40 MLOAD DUP1 SWAP2 SUB SWAP1 REVERT JUMPDEST PUSH1 0x0 PUSH20 0xFFFFFFFFFFFFFFFFFFFFFFFFFFFFFFFFFFFFFFFF AND DUP4 PUSH20 0xFFFFFFFFFFFFFFFFFFFFFFFFFFFFFFFFFFFFFFFF AND EQ ISZERO PUSH2 0x15D5 JUMPI PUSH1 0x40 MLOAD PUSH32 0x8C379A000000000000000000000000000000000000000000000000000000000 DUP2 MSTORE PUSH1 0x4 ADD PUSH2 0x15CC SWAP1 PUSH2 0x314C JUMP JUMPDEST PUSH1 0x40 MLOAD DUP1 SWAP2 SUB SWAP1 REVERT JUMPDEST DUP1 PUSH1 0x6 PUSH1 0x0 DUP6 PUSH20 0xFFFFFFFFFFFFFFFFFFFFFFFFFFFFFFFFFFFFFFFF AND PUSH20 0xFFFFFFFFFFFFFFFFFFFFFFFFFFFFFFFFFFFFFFFF AND DUP2 MSTORE PUSH1 0x20 ADD SWAP1 DUP2 MSTORE PUSH1 0x20 ADD PUSH1 0x0 KECCAK256 PUSH1 0x0 DUP5 PUSH20 0xFFFFFFFFFFFFFFFFFFFFFFFFFFFFFFFFFFFFFFFF AND PUSH20 0xFFFFFFFFFFFFFFFFFFFFFFFFFFFFFFFFFFFFFFFF AND DUP2 MSTORE PUSH1 0x20 ADD SWAP1 DUP2 MSTORE PUSH1 0x20 ADD PUSH1 0x0 KECCAK256 DUP2 SWAP1 SSTORE POP PUSH1 0x0 DUP2 GT ISZERO PUSH2 0x16BF JUMPI DUP1 DUP4 PUSH20 0xFFFFFFFFFFFFFFFFFFFFFFFFFFFFFFFFFFFFFFFF AND DUP4 PUSH20 0xFFFFFFFFFFFFFFFFFFFFFFFFFFFFFFFFFFFFFFFF AND PUSH32 0xD66AFF874162A96578E919097B6F6D153DFD89A5CEC41BB331FDB0C4AEC16E2C PUSH1 0x40 MLOAD PUSH1 0x40 MLOAD DUP1 SWAP2 SUB SWAP1 LOG4 PUSH2 0x171A JUMP JUMPDEST DUP3 PUSH20 0xFFFFFFFFFFFFFFFFFFFFFFFFFFFFFFFFFFFFFFFF AND DUP3 PUSH20 0xFFFFFFFFFFFFFFFFFFFFFFFFFFFFFFFFFFFFFFFF AND PUSH32 0x50546E66E5F44D728365DC3908C63BC5CFEEAB470722C1677E3073A6AC294AA1 PUSH1 0x40 MLOAD PUSH1 0x40 MLOAD DUP1 SWAP2 SUB SWAP1 LOG3 JUMPDEST POP POP POP JUMP JUMPDEST PUSH1 0x0 DUP1 PUSH1 0x0 SWAP1 SLOAD SWAP1 PUSH2 0x100 EXP SWAP1 DIV PUSH20 0xFFFFFFFFFFFFFFFFFFFFFFFFFFFFFFFFFFFFFFFF AND SWAP1 POP DUP2 PUSH1 0x0 DUP1 PUSH2 0x100 EXP DUP2 SLOAD DUP2 PUSH20 0xFFFFFFFFFFFFFFFFFFFFFFFFFFFFFFFFFFFFFFFF MUL NOT AND SWAP1 DUP4 PUSH20 0xFFFFFFFFFFFFFFFFFFFFFFFFFFFFFFFFFFFFFFFF AND MUL OR SWAP1 SSTORE POP DUP2 PUSH20 0xFFFFFFFFFFFFFFFFFFFFFFFFFFFFFFFFFFFFFFFF AND DUP2 PUSH20 0xFFFFFFFFFFFFFFFFFFFFFFFFFFFFFFFFFFFFFFFF AND PUSH32 0x8BE0079C531659141344CD1FD0A4F28419497F9722A3DAAFE3B4186F6B6457E0 PUSH1 0x40 MLOAD PUSH1 0x40 MLOAD DUP1 SWAP2 SUB SWAP1 LOG3 POP POP JUMP JUMPDEST PUSH1 0x0 PUSH20 0xFFFFFFFFFFFFFFFFFFFFFFFFFFFFFFFFFFFFFFFF AND DUP6 PUSH20 0xFFFFFFFFFFFFFFFFFFFFFFFFFFFFFFFFFFFFFFFF AND EQ ISZERO PUSH2 0x1853 JUMPI PUSH1 0x40 MLOAD PUSH32 0x8C379A000000000000000000000000000000000000000000000000000000000 DUP2 MSTORE PUSH1 0x4 ADD PUSH2 0x184A SWAP1 PUSH2 0x31CC JUMP JUMPDEST PUSH1 0x40 MLOAD DUP1 SWAP2 SUB SWAP1 REVERT JUMPDEST PUSH1 0x0 PUSH20 0xFFFFFFFFFFFFFFFFFFFFFFFFFFFFFFFFFFFFFFFF AND DUP5 PUSH20 0xFFFFFFFFFFFFFFFFFFFFFFFFFFFFFFFFFFFFFFFF AND EQ ISZERO PUSH2 0x18C3 JUMPI PUSH1 0x40 MLOAD PUSH32 0x8C379A000000000000000000000000000000000000000000000000000000000 DUP2 MSTORE PUSH1 0x4 ADD PUSH2 0x18BA SWAP1 PUSH2 0x322C JUMP JUMPDEST PUSH1 0x40 MLOAD DUP1 SWAP2 SUB SWAP1 REVERT JUMPDEST DUP3 PUSH1 0x5 PUSH1 0x0 DUP8 PUSH20 0xFFFFFFFFFFFFFFFFFFFFFFFFFFFFFFFFFFFFFFFF AND PUSH20 0xFFFFFFFFFFFFFFFFFFFFFFFFFFFFFFFFFFFFFFFF AND DUP2 MSTORE PUSH1 0x20 ADD SWAP1 DUP2 MSTORE PUSH1 0x20 ADD PUSH1 0x0 KECCAK256 SLOAD LT ISZERO PUSH2 0x1945 JUMPI PUSH1 0x40 MLOAD PUSH32 0x8C379A000000000000000000000000000000000000000000000000000000000 DUP2 MSTORE PUSH1 0x4 ADD PUSH2 0x193C SWAP1 PUSH2 0x316C JUMP JUMPDEST PUSH1 0x40 MLOAD DUP1 SWAP2 SUB SWAP1 REVERT JUMPDEST PUSH1 0x0 PUSH2 0x194F PUSH2 0x109F JUMP JUMPDEST SWAP1 POP PUSH2 0x195D DUP7 DUP7 DUP7 DUP6 PUSH2 0x1ABB JUMP JUMPDEST PUSH2 0x1968 DUP7 DUP7 DUP7 PUSH2 0x1BCA JUMP JUMPDEST DUP4 PUSH1 0x5 PUSH1 0x0 DUP9 PUSH20 0xFFFFFFFFFFFFFFFFFFFFFFFFFFFFFFFFFFFFFFFF AND PUSH20 0xFFFFFFFFFFFFFFFFFFFFFFFFFFFFFFFFFFFFFFFF AND DUP2 MSTORE PUSH1 0x20 ADD SWAP1 DUP2 MSTORE PUSH1 0x20 ADD PUSH1 0x0 KECCAK256 PUSH1 0x0 DUP3 DUP3 SLOAD PUSH2 0x19B7 SWAP2 SWAP1 PUSH2 0x350E JUMP JUMPDEST SWAP3 POP POP DUP2 SWAP1 SSTORE POP DUP4 PUSH1 0x5 PUSH1 0x0 DUP8 PUSH20 0xFFFFFFFFFFFFFFFFFFFFFFFFFFFFFFFFFFFFFFFF AND PUSH20 0xFFFFFFFFFFFFFFFFFFFFFFFFFFFFFFFFFFFFFFFF AND DUP2 MSTORE PUSH1 0x20 ADD SWAP1 DUP2 MSTORE PUSH1 0x20 ADD PUSH1 0x0 KECCAK256 PUSH1 0x0 DUP3 DUP3 SLOAD PUSH2 0x1A0D SWAP2 SWAP1 PUSH2 0x34B8 JUMP JUMPDEST SWAP3 POP POP DUP2 SWAP1 SSTORE POP DUP5 PUSH20 0xFFFFFFFFFFFFFFFFFFFFFFFFFFFFFFFFFFFFFFFF AND DUP7 PUSH20 0xFFFFFFFFFFFFFFFFFFFFFFFFFFFFFFFFFFFFFFFF AND DUP3 PUSH20 0xFFFFFFFFFFFFFFFFFFFFFFFFFFFFFFFFFFFFFFFF AND PUSH32 0x3997E418D2CEF0B3B0E907B1E39605C3F7D32DBD061E82EA5B4A770D46A160A6 DUP8 DUP8 DUP8 PUSH1 0x40 MLOAD PUSH2 0x1A8C SWAP4 SWAP3 SWAP2 SWAP1 PUSH2 0x32E7 JUMP JUMPDEST PUSH1 0x40 MLOAD DUP1 SWAP2 SUB SWAP1 LOG4 PUSH2 0x1AA1 DUP7 DUP7 DUP7 DUP7 DUP7 PUSH2 0x1C6D JUMP JUMPDEST POP POP POP POP POP POP JUMP JUMPDEST PUSH2 0x1AB5 DUP5 DUP5 DUP5 DUP5 PUSH2 0x1E21 JUMP JUMPDEST POP POP POP POP JUMP JUMPDEST PUSH2 0x1AC4 DUP5 PUSH2 0x1E8F JUMP JUMPDEST DUP1 ISZERO PUSH2 0x1ADD JUMPI POP PUSH2 0x1ADC DUP5 PUSH4 0x6BB56A14 PUSH1 0xE0 SHL PUSH2 0x1EDC JUMP JUMPDEST JUMPDEST ISZERO PUSH2 0x1BC4 JUMPI PUSH1 0x0 DUP5 DUP5 DUP5 DUP5 PUSH1 0x40 MLOAD PUSH1 0x20 ADD PUSH2 0x1AFB SWAP5 SWAP4 SWAP3 SWAP2 SWAP1 PUSH2 0x2EA4 JUMP JUMPDEST PUSH1 0x40 MLOAD PUSH1 0x20 DUP2 DUP4 SUB SUB DUP2 MSTORE SWAP1 PUSH1 0x40 MSTORE SWAP1 POP DUP5 PUSH20 0xFFFFFFFFFFFFFFFFFFFFFFFFFFFFFFFFFFFFFFFF AND PUSH4 0x6BB56A14 PUSH32 0x40B8BEC57D7B5FF0DBD9E9ACD0A47DFEB0101E1A203766F5CCAB00445FBF39E9 PUSH1 0x0 SHL DUP4 PUSH1 0x40 MLOAD DUP4 PUSH4 0xFFFFFFFF AND PUSH1 0xE0 SHL DUP2 MSTORE PUSH1 0x4 ADD PUSH2 0x1B6A SWAP3 SWAP2 SWAP1 PUSH2 0x2FBD JUMP JUMPDEST PUSH1 0x0 PUSH1 0x40 MLOAD DUP1 DUP4 SUB DUP2 PUSH1 0x0 DUP8 DUP1 EXTCODESIZE ISZERO DUP1 ISZERO PUSH2 0x1B84 JUMPI PUSH1 0x0 DUP1 REVERT JUMPDEST POP GAS CALL ISZERO DUP1 ISZERO PUSH2 0x1B98 JUMPI RETURNDATASIZE PUSH1 0x0 DUP1 RETURNDATACOPY RETURNDATASIZE PUSH1 0x0 REVERT JUMPDEST POP POP POP POP PUSH1 0x40 MLOAD RETURNDATASIZE PUSH1 0x0 DUP3 RETURNDATACOPY RETURNDATASIZE PUSH1 0x1F NOT PUSH1 0x1F DUP3 ADD AND DUP3 ADD DUP1 PUSH1 0x40 MSTORE POP DUP2 ADD SWAP1 PUSH2 0x1BC1 SWAP2 SWAP1 PUSH2 0x2994 JUMP JUMPDEST POP POP JUMPDEST POP POP POP POP JUMP JUMPDEST PUSH1 0x0 PUSH20 0xFFFFFFFFFFFFFFFFFFFFFFFFFFFFFFFFFFFFFFFF AND DUP4 PUSH20 0xFFFFFFFFFFFFFFFFFFFFFFFFFFFFFFFFFFFFFFFF AND EQ ISZERO PUSH2 0x1C19 JUMPI DUP1 PUSH1 0x4 PUSH1 0x0 DUP3 DUP3 SLOAD PUSH2 0x1C11 SWAP2 SWAP1 PUSH2 0x34B8 JUMP JUMPDEST SWAP3 POP POP DUP2 SWAP1 SSTORE POP JUMPDEST PUSH1 0x0 PUSH20 0xFFFFFFFFFFFFFFFFFFFFFFFFFFFFFFFFFFFFFFFF AND DUP3 PUSH20 0xFFFFFFFFFFFFFFFFFFFFFFFFFFFFFFFFFFFFFFFF AND EQ ISZERO PUSH2 0x1C68 JUMPI DUP1 PUSH1 0x4 PUSH1 0x0 DUP3 DUP3 SLOAD PUSH2 0x1C60 SWAP2 SWAP1 PUSH2 0x350E JUMP JUMPDEST SWAP3 POP POP DUP2 SWAP1 SSTORE POP JUMPDEST POP POP POP JUMP JUMPDEST PUSH2 0x1C76 DUP5 PUSH2 0x1E8F JUMP JUMPDEST DUP1 ISZERO PUSH2 0x1C8F JUMPI POP PUSH2 0x1C8E DUP5 PUSH4 0x6BB56A14 PUSH1 0xE0 SHL PUSH2 0x1EDC JUMP JUMPDEST JUMPDEST ISZERO PUSH2 0x1D7A JUMPI PUSH1 0x0 DUP6 DUP6 DUP6 DUP5 PUSH1 0x40 MLOAD PUSH1 0x20 ADD PUSH2 0x1CAD SWAP5 SWAP4 SWAP3 SWAP2 SWAP1 PUSH2 0x2EA4 JUMP JUMPDEST PUSH1 0x40 MLOAD PUSH1 0x20 DUP2 DUP4 SUB SUB DUP2 MSTORE SWAP1 PUSH1 0x40 MSTORE SWAP1 POP DUP5 PUSH20 0xFFFFFFFFFFFFFFFFFFFFFFFFFFFFFFFFFFFFFFFF AND PUSH4 0x6BB56A14 PUSH32 0xDBE2C314E1AEE2970C72666F2EBE8933A8575263EA71E5FF6A9178E95D47A26F PUSH1 0x0 SHL DUP4 PUSH1 0x40 MLOAD DUP4 PUSH4 0xFFFFFFFF AND PUSH1 0xE0 SHL DUP2 MSTORE PUSH1 0x4 ADD PUSH2 0x1D1C SWAP3 SWAP2 SWAP1 PUSH2 0x2FBD JUMP JUMPDEST PUSH1 0x0 PUSH1 0x40 MLOAD DUP1 DUP4 SUB DUP2 PUSH1 0x0 DUP8 DUP1 EXTCODESIZE ISZERO DUP1 ISZERO PUSH2 0x1D36 JUMPI PUSH1 0x0 DUP1 REVERT JUMPDEST POP GAS CALL ISZERO DUP1 ISZERO PUSH2 0x1D4A JUMPI RETURNDATASIZE PUSH1 0x0 DUP1 RETURNDATACOPY RETURNDATASIZE PUSH1 0x0 REVERT JUMPDEST POP POP POP POP PUSH1 0x40 MLOAD RETURNDATASIZE PUSH1 0x0 DUP3 RETURNDATACOPY RETURNDATASIZE PUSH1 0x1F NOT PUSH1 0x1F DUP3 ADD AND DUP3 ADD DUP1 PUSH1 0x40 MSTORE POP DUP2 ADD SWAP1 PUSH2 0x1D73 SWAP2 SWAP1 PUSH2 0x2994 JUMP JUMPDEST POP POP PUSH2 0x1E1A JUMP JUMPDEST DUP2 PUSH2 0x1E19 JUMPI PUSH2 0x1D9E DUP5 PUSH20 0xFFFFFFFFFFFFFFFFFFFFFFFFFFFFFFFFFFFFFFFF AND PUSH2 0x1F01 JUMP JUMPDEST ISZERO PUSH2 0x1DDE JUMPI PUSH1 0x40 MLOAD PUSH32 0x8C379A000000000000000000000000000000000000000000000000000000000 DUP2 MSTORE PUSH1 0x4 ADD PUSH2 0x1DD5 SWAP1 PUSH2 0x318C JUMP JUMPDEST PUSH1 0x40 MLOAD DUP1 SWAP2 SUB SWAP1 REVERT JUMPDEST PUSH1 0x40 MLOAD PUSH32 0x8C379A000000000000000000000000000000000000000000000000000000000 DUP2 MSTORE PUSH1 0x4 ADD PUSH2 0x1E10 SWAP1 PUSH2 0x304C JUMP JUMPDEST PUSH1 0x40 MLOAD DUP1 SWAP2 SUB SWAP1 REVERT JUMPDEST JUMPDEST POP POP POP POP POP JUMP JUMPDEST PUSH2 0x1E29 PUSH2 0x746 JUMP JUMPDEST DUP4 PUSH2 0x1E32 PUSH2 0x5C8 JUMP JUMPDEST PUSH2 0x1E3C SWAP2 SWAP1 PUSH2 0x34B8 JUMP JUMPDEST GT ISZERO PUSH2 0x1E7D JUMPI PUSH1 0x40 MLOAD PUSH32 0x8C379A000000000000000000000000000000000000000000000000000000000 DUP2 MSTORE PUSH1 0x4 ADD PUSH2 0x1E74 SWAP1 PUSH2 0x320C JUMP JUMPDEST PUSH1 0x40 MLOAD DUP1 SWAP2 SUB SWAP1 REVERT JUMPDEST PUSH2 0x1E89 DUP5 DUP5 DUP5 DUP5 PUSH2 0x1F14 JUMP JUMPDEST POP POP POP POP JUMP JUMPDEST PUSH1 0x0 PUSH2 0x1EBB DUP3 PUSH32 0x1FFC9A700000000000000000000000000000000000000000000000000000000 PUSH2 0x2088 JUMP JUMPDEST DUP1 ISZERO PUSH2 0x1ED5 JUMPI POP PUSH2 0x1ED3 DUP3 PUSH4 0xFFFFFFFF PUSH1 0xE0 SHL PUSH2 0x2088 JUMP JUMPDEST ISZERO JUMPDEST SWAP1 POP SWAP2 SWAP1 POP JUMP JUMPDEST PUSH1 0x0 PUSH2 0x1EE7 DUP4 PUSH2 0x1E8F JUMP JUMPDEST DUP1 ISZERO PUSH2 0x1EF9 JUMPI POP PUSH2 0x1EF8 DUP4 DUP4 PUSH2 0x2088 JUMP JUMPDEST JUMPDEST SWAP1 POP SWAP3 SWAP2 POP POP JUMP JUMPDEST PUSH1 0x0 DUP1 DUP3 EXTCODESIZE SWAP1 POP PUSH1 0x0 DUP2 GT SWAP2 POP POP SWAP2 SWAP1 POP JUMP JUMPDEST PUSH1 0x0 PUSH20 0xFFFFFFFFFFFFFFFFFFFFFFFFFFFFFFFFFFFFFFFF AND DUP5 PUSH20 0xFFFFFFFFFFFFFFFFFFFFFFFFFFFFFFFFFFFFFFFF AND EQ ISZERO PUSH2 0x1F84 JUMPI PUSH1 0x40 MLOAD PUSH32 0x8C379A000000000000000000000000000000000000000000000000000000000 DUP2 MSTORE PUSH1 0x4 ADD PUSH2 0x1F7B SWAP1 PUSH2 0x310C JUMP JUMPDEST PUSH1 0x40 MLOAD DUP1 SWAP2 SUB SWAP1 REVERT JUMPDEST PUSH1 0x0 PUSH2 0x1F8E PUSH2 0x109F JUMP JUMPDEST SWAP1 POP PUSH2 0x1F9C PUSH1 0x0 DUP7 DUP7 PUSH2 0x1BCA JUMP JUMPDEST DUP4 PUSH1 0x5 PUSH1 0x0 DUP8 PUSH20 0xFFFFFFFFFFFFFFFFFFFFFFFFFFFFFFFFFFFFFFFF AND PUSH20 0xFFFFFFFFFFFFFFFFFFFFFFFFFFFFFFFFFFFFFFFF AND DUP2 MSTORE PUSH1 0x20 ADD SWAP1 DUP2 MSTORE PUSH1 0x20 ADD PUSH1 0x0 KECCAK256 PUSH1 0x0 DUP3 DUP3 SLOAD PUSH2 0x1FEB SWAP2 SWAP1 PUSH2 0x34B8 JUMP JUMPDEST SWAP3 POP POP DUP2 SWAP1 SSTORE POP DUP5 PUSH20 0xFFFFFFFFFFFFFFFFFFFFFFFFFFFFFFFFFFFFFFFF AND PUSH1 0x0 PUSH20 0xFFFFFFFFFFFFFFFFFFFFFFFFFFFFFFFFFFFFFFFF AND DUP3 PUSH20 0xFFFFFFFFFFFFFFFFFFFFFFFFFFFFFFFFFFFFFFFF AND PUSH32 0x3997E418D2CEF0B3B0E907B1E39605C3F7D32DBD061E82EA5B4A770D46A160A6 DUP8 DUP8 DUP8 PUSH1 0x40 MLOAD PUSH2 0x206B SWAP4 SWAP3 SWAP2 SWAP1 PUSH2 0x32E7 JUMP JUMPDEST PUSH1 0x40 MLOAD DUP1 SWAP2 SUB SWAP1 LOG4 PUSH2 0x2081 PUSH1 0x0 DUP7 DUP7 DUP7 DUP7 PUSH2 0x1C6D JUMP JUMPDEST POP POP POP POP POP JUMP JUMPDEST PUSH1 0x0 DUP1 PUSH4 0x1FFC9A7 PUSH1 0xE0 SHL DUP4 PUSH1 0x40 MLOAD PUSH1 0x24 ADD PUSH2 0x20A4 SWAP2 SWAP1 PUSH2 0x2FED JUMP JUMPDEST PUSH1 0x40 MLOAD PUSH1 0x20 DUP2 DUP4 SUB SUB DUP2 MSTORE SWAP1 PUSH1 0x40 MSTORE SWAP1 PUSH28 0xFFFFFFFFFFFFFFFFFFFFFFFFFFFFFFFFFFFFFFFFFFFFFFFFFFFFFFFF NOT AND PUSH1 0x20 DUP3 ADD DUP1 MLOAD PUSH28 0xFFFFFFFFFFFFFFFFFFFFFFFFFFFFFFFFFFFFFFFFFFFFFFFFFFFFFFFF DUP4 DUP2 DUP4 AND OR DUP4 MSTORE POP POP POP POP SWAP1 POP PUSH1 0x0 DUP1 DUP6 PUSH20 0xFFFFFFFFFFFFFFFFFFFFFFFFFFFFFFFFFFFFFFFF AND PUSH2 0x7530 DUP5 PUSH1 0x40 MLOAD PUSH2 0x212E SWAP2 SWAP1 PUSH2 0x2EEE JUMP JUMPDEST PUSH1 0x0 PUSH1 0x40 MLOAD DUP1 DUP4 SUB DUP2 DUP7 DUP7 STATICCALL SWAP3 POP POP POP RETURNDATASIZE DUP1 PUSH1 0x0 DUP2 EQ PUSH2 0x216A JUMPI PUSH1 0x40 MLOAD SWAP2 POP PUSH1 0x1F NOT PUSH1 0x3F RETURNDATASIZE ADD AND DUP3 ADD PUSH1 0x40 MSTORE RETURNDATASIZE DUP3 MSTORE RETURNDATASIZE PUSH1 0x0 PUSH1 0x20 DUP5 ADD RETURNDATACOPY PUSH2 0x216F JUMP JUMPDEST PUSH1 0x60 SWAP2 POP JUMPDEST POP SWAP2 POP SWAP2 POP PUSH1 0x20 DUP2 MLOAD LT ISZERO PUSH2 0x218A JUMPI PUSH1 0x0 SWAP4 POP POP POP POP PUSH2 0x21AD JUMP JUMPDEST DUP2 DUP1 ISZERO PUSH2 0x21A7 JUMPI POP DUP1 DUP1 PUSH1 0x20 ADD SWAP1 MLOAD DUP2 ADD SWAP1 PUSH2 0x21A6 SWAP2 SWAP1 PUSH2 0x293A JUMP JUMPDEST JUMPDEST SWAP4 POP POP POP POP JUMPDEST SWAP3 SWAP2 POP POP JUMP JUMPDEST DUP3 DUP1 SLOAD PUSH2 0x21BF SWAP1 PUSH2 0x3602 JUMP JUMPDEST SWAP1 PUSH1 0x0 MSTORE PUSH1 0x20 PUSH1 0x0 KECCAK256 SWAP1 PUSH1 0x1F ADD PUSH1 0x20 SWAP1 DIV DUP2 ADD SWAP3 DUP3 PUSH2 0x21E1 JUMPI PUSH1 0x0 DUP6 SSTORE PUSH2 0x2228 JUMP JUMPDEST DUP3 PUSH1 0x1F LT PUSH2 0x21FA JUMPI DUP1 MLOAD PUSH1 0xFF NOT AND DUP4 DUP1 ADD OR DUP6 SSTORE PUSH2 0x2228 JUMP JUMPDEST DUP3 DUP1 ADD PUSH1 0x1 ADD DUP6 SSTORE DUP3 ISZERO PUSH2 0x2228 JUMPI SWAP2 DUP3 ADD JUMPDEST DUP3 DUP2 GT ISZERO PUSH2 0x2227 JUMPI DUP3 MLOAD DUP3 SSTORE SWAP2 PUSH1 0x20 ADD SWAP2 SWAP1 PUSH1 0x1 ADD SWAP1 PUSH2 0x220C JUMP JUMPDEST JUMPDEST POP SWAP1 POP PUSH2 0x2235 SWAP2 SWAP1 PUSH2 0x2239 JUMP JUMPDEST POP SWAP1 JUMP JUMPDEST JUMPDEST DUP1 DUP3 GT ISZERO PUSH2 0x2252 JUMPI PUSH1 0x0 DUP2 PUSH1 0x0 SWAP1 SSTORE POP PUSH1 0x1 ADD PUSH2 0x223A JUMP JUMPDEST POP SWAP1 JUMP JUMPDEST PUSH1 0x0 PUSH2 0x2269 PUSH2 0x2264 DUP5 PUSH2 0x334A JUMP JUMPDEST PUSH2 0x3325 JUMP JUMPDEST SWAP1 POP DUP1 DUP4 DUP3 MSTORE PUSH1 0x20 DUP3 ADD SWAP1 POP DUP3 DUP6 PUSH1 0x20 DUP7 MUL DUP3 ADD GT ISZERO PUSH2 0x228C JUMPI PUSH2 0x228B PUSH2 0x379D JUMP JUMPDEST JUMPDEST PUSH1 0x0 JUMPDEST DUP6 DUP2 LT ISZERO PUSH2 0x22BC JUMPI DUP2 PUSH2 0x22A2 DUP9 DUP3 PUSH2 0x24B8 JUMP JUMPDEST DUP5 MSTORE PUSH1 0x20 DUP5 ADD SWAP4 POP PUSH1 0x20 DUP4 ADD SWAP3 POP POP PUSH1 0x1 DUP2 ADD SWAP1 POP PUSH2 0x228F JUMP JUMPDEST POP POP POP SWAP4 SWAP3 POP POP POP JUMP JUMPDEST PUSH1 0x0 PUSH2 0x22D9 PUSH2 0x22D4 DUP5 PUSH2 0x3376 JUMP JUMPDEST PUSH2 0x3325 JUMP JUMPDEST SWAP1 POP DUP1 DUP4 DUP3 MSTORE PUSH1 0x20 DUP3 ADD SWAP1 POP DUP3 DUP6 PUSH1 0x20 DUP7 MUL DUP3 ADD GT ISZERO PUSH2 0x22FC JUMPI PUSH2 0x22FB PUSH2 0x379D JUMP JUMPDEST JUMPDEST PUSH1 0x0 JUMPDEST DUP6 DUP2 LT ISZERO PUSH2 0x232C JUMPI DUP2 PUSH2 0x2312 DUP9 DUP3 PUSH2 0x25AF JUMP JUMPDEST DUP5 MSTORE PUSH1 0x20 DUP5 ADD SWAP4 POP PUSH1 0x20 DUP4 ADD SWAP3 POP POP PUSH1 0x1 DUP2 ADD SWAP1 POP PUSH2 0x22FF JUMP JUMPDEST POP POP POP SWAP4 SWAP3 POP POP POP JUMP JUMPDEST PUSH1 0x0 PUSH2 0x2349 PUSH2 0x2344 DUP5 PUSH2 0x33A2 JUMP JUMPDEST PUSH2 0x3325 JUMP JUMPDEST SWAP1 POP DUP1 DUP4 DUP3 MSTORE PUSH1 0x20 DUP3 ADD SWAP1 POP DUP3 DUP6 PUSH1 0x20 DUP7 MUL DUP3 ADD GT ISZERO PUSH2 0x236C JUMPI PUSH2 0x236B PUSH2 0x379D JUMP JUMPDEST JUMPDEST PUSH1 0x0 JUMPDEST DUP6 DUP2 LT ISZERO PUSH2 0x23BA JUMPI DUP2 CALLDATALOAD PUSH8 0xFFFFFFFFFFFFFFFF DUP2 GT ISZERO PUSH2 0x2392 JUMPI PUSH2 0x2391 PUSH2 0x3798 JUMP JUMPDEST JUMPDEST DUP1 DUP7 ADD PUSH2 0x239F DUP10 DUP3 PUSH2 0x25D9 JUMP JUMPDEST DUP6 MSTORE PUSH1 0x20 DUP6 ADD SWAP5 POP PUSH1 0x20 DUP5 ADD SWAP4 POP POP POP PUSH1 0x1 DUP2 ADD SWAP1 POP PUSH2 0x236F JUMP JUMPDEST POP POP POP SWAP4 SWAP3 POP POP POP JUMP JUMPDEST PUSH1 0x0 PUSH2 0x23D7 PUSH2 0x23D2 DUP5 PUSH2 0x33CE JUMP JUMPDEST PUSH2 0x3325 JUMP JUMPDEST SWAP1 POP DUP1 DUP4 DUP3 MSTORE PUSH1 0x20 DUP3 ADD SWAP1 POP DUP3 DUP6 PUSH1 0x20 DUP7 MUL DUP3 ADD GT ISZERO PUSH2 0x23FA JUMPI PUSH2 0x23F9 PUSH2 0x379D JUMP JUMPDEST JUMPDEST PUSH1 0x0 JUMPDEST DUP6 DUP2 LT ISZERO PUSH2 0x242A JUMPI DUP2 PUSH2 0x2410 DUP9 DUP3 PUSH2 0x2635 JUMP JUMPDEST DUP5 MSTORE PUSH1 0x20 DUP5 ADD SWAP4 POP PUSH1 0x20 DUP4 ADD SWAP3 POP POP PUSH1 0x1 DUP2 ADD SWAP1 POP PUSH2 0x23FD JUMP JUMPDEST POP POP POP SWAP4 SWAP3 POP POP POP JUMP JUMPDEST PUSH1 0x0 PUSH2 0x2447 PUSH2 0x2442 DUP5 PUSH2 0x33FA JUMP JUMPDEST PUSH2 0x3325 JUMP JUMPDEST SWAP1 POP DUP3 DUP2 MSTORE PUSH1 0x20 DUP2 ADD DUP5 DUP5 DUP5 ADD GT ISZERO PUSH2 0x2463 JUMPI PUSH2 0x2462 PUSH2 0x37A2 JUMP JUMPDEST JUMPDEST PUSH2 0x246E DUP5 DUP3 DUP6 PUSH2 0x35C0 JUMP JUMPDEST POP SWAP4 SWAP3 POP POP POP JUMP JUMPDEST PUSH1 0x0 PUSH2 0x2489 PUSH2 0x2484 DUP5 PUSH2 0x33FA JUMP JUMPDEST PUSH2 0x3325 JUMP JUMPDEST SWAP1 POP DUP3 DUP2 MSTORE PUSH1 0x20 DUP2 ADD DUP5 DUP5 DUP5 ADD GT ISZERO PUSH2 0x24A5 JUMPI PUSH2 0x24A4 PUSH2 0x37A2 JUMP JUMPDEST JUMPDEST PUSH2 0x24B0 DUP5 DUP3 DUP6 PUSH2 0x35CF JUMP JUMPDEST POP SWAP4 SWAP3 POP POP POP JUMP JUMPDEST PUSH1 0x0 DUP2 CALLDATALOAD SWAP1 POP PUSH2 0x24C7 DUP2 PUSH2 0x3DAF JUMP JUMPDEST SWAP3 SWAP2 POP POP JUMP JUMPDEST PUSH1 0x0 DUP3 PUSH1 0x1F DUP4 ADD SLT PUSH2 0x24E2 JUMPI PUSH2 0x24E1 PUSH2 0x3798 JUMP JUMPDEST JUMPDEST DUP2 CALLDATALOAD PUSH2 0x24F2 DUP5 DUP3 PUSH1 0x20 DUP7 ADD PUSH2 0x2256 JUMP JUMPDEST SWAP2 POP POP SWAP3 SWAP2 POP POP JUMP JUMPDEST PUSH1 0x0 DUP3 PUSH1 0x1F DUP4 ADD SLT PUSH2 0x2510 JUMPI PUSH2 0x250F PUSH2 0x3798 JUMP JUMPDEST JUMPDEST DUP2 CALLDATALOAD PUSH2 0x2520 DUP5 DUP3 PUSH1 0x20 DUP7 ADD PUSH2 0x22C6 JUMP JUMPDEST SWAP2 POP POP SWAP3 SWAP2 POP POP JUMP JUMPDEST PUSH1 0x0 DUP3 PUSH1 0x1F DUP4 ADD SLT PUSH2 0x253E JUMPI PUSH2 0x253D PUSH2 0x3798 JUMP JUMPDEST JUMPDEST DUP2 CALLDATALOAD PUSH2 0x254E DUP5 DUP3 PUSH1 0x20 DUP7 ADD PUSH2 0x2336 JUMP JUMPDEST SWAP2 POP POP SWAP3 SWAP2 POP POP JUMP JUMPDEST PUSH1 0x0 DUP3 PUSH1 0x1F DUP4 ADD SLT PUSH2 0x256C JUMPI PUSH2 0x256B PUSH2 0x3798 JUMP JUMPDEST JUMPDEST DUP2 CALLDATALOAD PUSH2 0x257C DUP5 DUP3 PUSH1 0x20 DUP7 ADD PUSH2 0x23C4 JUMP JUMPDEST SWAP2 POP POP SWAP3 SWAP2 POP POP JUMP JUMPDEST PUSH1 0x0 DUP2 CALLDATALOAD SWAP1 POP PUSH2 0x2594 DUP2 PUSH2 0x3DC6 JUMP JUMPDEST SWAP3 SWAP2 POP POP JUMP JUMPDEST PUSH1 0x0 DUP2 MLOAD SWAP1 POP PUSH2 0x25A9 DUP2 PUSH2 0x3DC6 JUMP JUMPDEST SWAP3 SWAP2 POP POP JUMP JUMPDEST PUSH1 0x0 DUP2 CALLDATALOAD SWAP1 POP PUSH2 0x25BE DUP2 PUSH2 0x3DDD JUMP JUMPDEST SWAP3 SWAP2 POP POP JUMP JUMPDEST PUSH1 0x0 DUP2 CALLDATALOAD SWAP1 POP PUSH2 0x25D3 DUP2 PUSH2 0x3DF4 JUMP JUMPDEST SWAP3 SWAP2 POP POP JUMP JUMPDEST PUSH1 0x0 DUP3 PUSH1 0x1F DUP4 ADD SLT PUSH2 0x25EE JUMPI PUSH2 0x25ED PUSH2 0x3798 JUMP JUMPDEST JUMPDEST DUP2 CALLDATALOAD PUSH2 0x25FE DUP5 DUP3 PUSH1 0x20 DUP7 ADD PUSH2 0x2434 JUMP JUMPDEST SWAP2 POP POP SWAP3 SWAP2 POP POP JUMP JUMPDEST PUSH1 0x0 DUP3 PUSH1 0x1F DUP4 ADD SLT PUSH2 0x261C JUMPI PUSH2 0x261B PUSH2 0x3798 JUMP JUMPDEST JUMPDEST DUP2 MLOAD PUSH2 0x262C DUP5 DUP3 PUSH1 0x20 DUP7 ADD PUSH2 0x2476 JUMP JUMPDEST SWAP2 POP POP SWAP3 SWAP2 POP POP JUMP JUMPDEST PUSH1 0x0 DUP2 CALLDATALOAD SWAP1 POP PUSH2 0x2644 DUP2 PUSH2 0x3E0B JUMP JUMPDEST SWAP3 SWAP2 POP POP JUMP JUMPDEST PUSH1 0x0 PUSH1 0x20 DUP3 DUP5 SUB SLT ISZERO PUSH2 0x2660 JUMPI PUSH2 0x265F PUSH2 0x37AC JUMP JUMPDEST JUMPDEST PUSH1 0x0 PUSH2 0x266E DUP5 DUP3 DUP6 ADD PUSH2 0x24B8 JUMP JUMPDEST SWAP2 POP POP SWAP3 SWAP2 POP POP JUMP JUMPDEST PUSH1 0x0 DUP1 PUSH1 0x40 DUP4 DUP6 SUB SLT ISZERO PUSH2 0x268E JUMPI PUSH2 0x268D PUSH2 0x37AC JUMP JUMPDEST JUMPDEST PUSH1 0x0 PUSH2 0x269C DUP6 DUP3 DUP7 ADD PUSH2 0x24B8 JUMP JUMPDEST SWAP3 POP POP PUSH1 0x20 PUSH2 0x26AD DUP6 DUP3 DUP7 ADD PUSH2 0x24B8 JUMP JUMPDEST SWAP2 POP POP SWAP3 POP SWAP3 SWAP1 POP JUMP JUMPDEST PUSH1 0x0 DUP1 PUSH1 0x0 DUP1 PUSH1 0x0 PUSH1 0xA0 DUP7 DUP9 SUB SLT ISZERO PUSH2 0x26D3 JUMPI PUSH2 0x26D2 PUSH2 0x37AC JUMP JUMPDEST JUMPDEST PUSH1 0x0 PUSH2 0x26E1 DUP9 DUP3 DUP10 ADD PUSH2 0x24B8 JUMP JUMPDEST SWAP6 POP POP PUSH1 0x20 PUSH2 0x26F2 DUP9 DUP3 DUP10 ADD PUSH2 0x24B8 JUMP JUMPDEST SWAP5 POP POP PUSH1 0x40 PUSH2 0x2703 DUP9 DUP3 DUP10 ADD PUSH2 0x2635 JUMP JUMPDEST SWAP4 POP POP PUSH1 0x60 PUSH2 0x2714 DUP9 DUP3 DUP10 ADD PUSH2 0x2585 JUMP JUMPDEST SWAP3 POP POP PUSH1 0x80 DUP7 ADD CALLDATALOAD PUSH8 0xFFFFFFFFFFFFFFFF DUP2 GT ISZERO PUSH2 0x2735 JUMPI PUSH2 0x2734 PUSH2 0x37A7 JUMP JUMPDEST JUMPDEST PUSH2 0x2741 DUP9 DUP3 DUP10 ADD PUSH2 0x25D9 JUMP JUMPDEST SWAP2 POP POP SWAP3 SWAP6 POP SWAP3 SWAP6 SWAP1 SWAP4 POP JUMP JUMPDEST PUSH1 0x0 DUP1 PUSH1 0x40 DUP4 DUP6 SUB SLT ISZERO PUSH2 0x2765 JUMPI PUSH2 0x2764 PUSH2 0x37AC JUMP JUMPDEST JUMPDEST PUSH1 0x0 PUSH2 0x2773 DUP6 DUP3 DUP7 ADD PUSH2 0x24B8 JUMP JUMPDEST SWAP3 POP POP PUSH1 0x20 PUSH2 0x2784 DUP6 DUP3 DUP7 ADD PUSH2 0x2635 JUMP JUMPDEST SWAP2 POP POP SWAP3 POP SWAP3 SWAP1 POP JUMP JUMPDEST PUSH1 0x0 DUP1 PUSH1 0x0 DUP1 PUSH1 0x0 PUSH1 0xA0 DUP7 DUP9 SUB SLT ISZERO PUSH2 0x27AA JUMPI PUSH2 0x27A9 PUSH2 0x37AC JUMP JUMPDEST JUMPDEST PUSH1 0x0 DUP7 ADD CALLDATALOAD PUSH8 0xFFFFFFFFFFFFFFFF DUP2 GT ISZERO PUSH2 0x27C8 JUMPI PUSH2 0x27C7 PUSH2 0x37A7 JUMP JUMPDEST JUMPDEST PUSH2 0x27D4 DUP9 DUP3 DUP10 ADD PUSH2 0x24CD JUMP JUMPDEST SWAP6 POP POP PUSH1 0x20 DUP7 ADD CALLDATALOAD PUSH8 0xFFFFFFFFFFFFFFFF DUP2 GT ISZERO PUSH2 0x27F5 JUMPI PUSH2 0x27F4 PUSH2 0x37A7 JUMP JUMPDEST JUMPDEST PUSH2 0x2801 DUP9 DUP3 DUP10 ADD PUSH2 0x24CD JUMP JUMPDEST SWAP5 POP POP PUSH1 0x40 DUP7 ADD CALLDATALOAD PUSH8 0xFFFFFFFFFFFFFFFF DUP2 GT ISZERO PUSH2 0x2822 JUMPI PUSH2 0x2821 PUSH2 0x37A7 JUMP JUMPDEST JUMPDEST PUSH2 0x282E DUP9 DUP3 DUP10 ADD PUSH2 0x2557 JUMP JUMPDEST SWAP4 POP POP PUSH1 0x60 PUSH2 0x283F DUP9 DUP3 DUP10 ADD PUSH2 0x2585 JUMP JUMPDEST SWAP3 POP POP PUSH1 0x80 DUP7 ADD CALLDATALOAD PUSH8 0xFFFFFFFFFFFFFFFF DUP2 GT ISZERO PUSH2 0x2860 JUMPI PUSH2 0x285F PUSH2 0x37A7 JUMP JUMPDEST JUMPDEST PUSH2 0x286C DUP9 DUP3 DUP10 ADD PUSH2 0x2529 JUMP JUMPDEST SWAP2 POP POP SWAP3 SWAP6 POP SWAP3 SWAP6 SWAP1 SWAP4 POP JUMP JUMPDEST PUSH1 0x0 PUSH1 0x20 DUP3 DUP5 SUB SLT ISZERO PUSH2 0x288F JUMPI PUSH2 0x288E PUSH2 0x37AC JUMP JUMPDEST JUMPDEST PUSH1 0x0 DUP3 ADD CALLDATALOAD PUSH8 0xFFFFFFFFFFFFFFFF DUP2 GT ISZERO PUSH2 0x28AD JUMPI PUSH2 0x28AC PUSH2 0x37A7 JUMP JUMPDEST JUMPDEST PUSH2 0x28B9 DUP5 DUP3 DUP6 ADD PUSH2 0x24FB JUMP JUMPDEST SWAP2 POP POP SWAP3 SWAP2 POP POP JUMP JUMPDEST PUSH1 0x0 DUP1 PUSH1 0x40 DUP4 DUP6 SUB SLT ISZERO PUSH2 0x28D9 JUMPI PUSH2 0x28D8 PUSH2 0x37AC JUMP JUMPDEST JUMPDEST PUSH1 0x0 DUP4 ADD CALLDATALOAD PUSH8 0xFFFFFFFFFFFFFFFF DUP2 GT ISZERO PUSH2 0x28F7 JUMPI PUSH2 0x28F6 PUSH2 0x37A7 JUMP JUMPDEST JUMPDEST PUSH2 0x2903 DUP6 DUP3 DUP7 ADD PUSH2 0x24FB JUMP JUMPDEST SWAP3 POP POP PUSH1 0x20 DUP4 ADD CALLDATALOAD PUSH8 0xFFFFFFFFFFFFFFFF DUP2 GT ISZERO PUSH2 0x2924 JUMPI PUSH2 0x2923 PUSH2 0x37A7 JUMP JUMPDEST JUMPDEST PUSH2 0x2930 DUP6 DUP3 DUP7 ADD PUSH2 0x2529 JUMP JUMPDEST SWAP2 POP POP SWAP3 POP SWAP3 SWAP1 POP JUMP JUMPDEST PUSH1 0x0 PUSH1 0x20 DUP3 DUP5 SUB SLT ISZERO PUSH2 0x2950 JUMPI PUSH2 0x294F PUSH2 0x37AC JUMP JUMPDEST JUMPDEST PUSH1 0x0 PUSH2 0x295E DUP5 DUP3 DUP6 ADD PUSH2 0x259A JUMP JUMPDEST SWAP2 POP POP SWAP3 SWAP2 POP POP JUMP JUMPDEST PUSH1 0x0 PUSH1 0x20 DUP3 DUP5 SUB SLT ISZERO PUSH2 0x297D JUMPI PUSH2 0x297C PUSH2 0x37AC JUMP JUMPDEST JUMPDEST PUSH1 0x0 PUSH2 0x298B DUP5 DUP3 DUP6 ADD PUSH2 0x25C4 JUMP JUMPDEST SWAP2 POP POP SWAP3 SWAP2 POP POP JUMP JUMPDEST PUSH1 0x0 PUSH1 0x20 DUP3 DUP5 SUB SLT ISZERO PUSH2 0x29AA JUMPI PUSH2 0x29A9 PUSH2 0x37AC JUMP JUMPDEST JUMPDEST PUSH1 0x0 DUP3 ADD MLOAD PUSH8 0xFFFFFFFFFFFFFFFF DUP2 GT ISZERO PUSH2 0x29C8 JUMPI PUSH2 0x29C7 PUSH2 0x37A7 JUMP JUMPDEST JUMPDEST PUSH2 0x29D4 DUP5 DUP3 DUP6 ADD PUSH2 0x2607 JUMP JUMPDEST SWAP2 POP POP SWAP3 SWAP2 POP POP JUMP JUMPDEST PUSH1 0x0 PUSH1 0x20 DUP3 DUP5 SUB SLT ISZERO PUSH2 0x29F3 JUMPI PUSH2 0x29F2 PUSH2 0x37AC JUMP JUMPDEST JUMPDEST PUSH1 0x0 PUSH2 0x2A01 DUP5 DUP3 DUP6 ADD PUSH2 0x2635 JUMP JUMPDEST SWAP2 POP POP SWAP3 SWAP2 POP POP JUMP JUMPDEST PUSH1 0x0 PUSH2 0x2A16 DUP4 DUP4 PUSH2 0x2AE6 JUMP JUMPDEST SWAP1 POP SWAP3 SWAP2 POP POP JUMP JUMPDEST PUSH2 0x2A27 DUP2 PUSH2 0x3542 JUMP JUMPDEST DUP3 MSTORE POP POP JUMP JUMPDEST PUSH2 0x2A3E PUSH2 0x2A39 DUP3 PUSH2 0x3542 JUMP JUMPDEST PUSH2 0x36AE JUMP JUMPDEST DUP3 MSTORE POP POP JUMP JUMPDEST PUSH1 0x0 PUSH2 0x2A4F DUP3 PUSH2 0x343B JUMP JUMPDEST PUSH2 0x2A59 DUP2 DUP6 PUSH2 0x3469 JUMP JUMPDEST SWAP4 POP DUP4 PUSH1 0x20 DUP3 MUL DUP6 ADD PUSH2 0x2A6B DUP6 PUSH2 0x342B JUMP JUMPDEST DUP1 PUSH1 0x0 JUMPDEST DUP6 DUP2 LT ISZERO PUSH2 0x2AA7 JUMPI DUP5 DUP5 SUB DUP10 MSTORE DUP2 MLOAD PUSH2 0x2A88 DUP6 DUP3 PUSH2 0x2A0A JUMP JUMPDEST SWAP5 POP PUSH2 0x2A93 DUP4 PUSH2 0x345C JUMP JUMPDEST SWAP3 POP PUSH1 0x20 DUP11 ADD SWAP10 POP POP PUSH1 0x1 DUP2 ADD SWAP1 POP PUSH2 0x2A6F JUMP JUMPDEST POP DUP3 SWAP8 POP DUP8 SWAP6 POP POP POP POP POP POP SWAP3 SWAP2 POP POP JUMP JUMPDEST PUSH2 0x2AC2 DUP2 PUSH2 0x3554 JUMP JUMPDEST DUP3 MSTORE POP POP JUMP JUMPDEST PUSH2 0x2AD1 DUP2 PUSH2 0x3560 JUMP JUMPDEST DUP3 MSTORE POP POP JUMP JUMPDEST PUSH2 0x2AE0 DUP2 PUSH2 0x356A JUMP JUMPDEST DUP3 MSTORE POP POP JUMP JUMPDEST PUSH1 0x0 PUSH2 0x2AF1 DUP3 PUSH2 0x3446 JUMP JUMPDEST PUSH2 0x2AFB DUP2 DUP6 PUSH2 0x347A JUMP JUMPDEST SWAP4 POP PUSH2 0x2B0B DUP2 DUP6 PUSH1 0x20 DUP7 ADD PUSH2 0x35CF JUMP JUMPDEST PUSH2 0x2B14 DUP2 PUSH2 0x37B1 JUMP JUMPDEST DUP5 ADD SWAP2 POP POP SWAP3 SWAP2 POP POP JUMP JUMPDEST PUSH1 0x0 PUSH2 0x2B2A DUP3 PUSH2 0x3446 JUMP JUMPDEST PUSH2 0x2B34 DUP2 DUP6 PUSH2 0x348B JUMP JUMPDEST SWAP4 POP PUSH2 0x2B44 DUP2 DUP6 PUSH1 0x20 DUP7 ADD PUSH2 0x35CF JUMP JUMPDEST PUSH2 0x2B4D DUP2 PUSH2 0x37B1 JUMP JUMPDEST DUP5 ADD SWAP2 POP POP SWAP3 SWAP2 POP POP JUMP JUMPDEST PUSH1 0x0 PUSH2 0x2B63 DUP3 PUSH2 0x3446 JUMP JUMPDEST PUSH2 0x2B6D DUP2 DUP6 PUSH2 0x349C JUMP JUMPDEST SWAP4 POP PUSH2 0x2B7D DUP2 DUP6 PUSH1 0x20 DUP7 ADD PUSH2 0x35CF JUMP JUMPDEST DUP1 DUP5 ADD SWAP2 POP POP SWAP3 SWAP2 POP POP JUMP JUMPDEST PUSH1 0x0 PUSH2 0x2B94 DUP3 PUSH2 0x3451 JUMP JUMPDEST PUSH2 0x2B9E DUP2 DUP6 PUSH2 0x34A7 JUMP JUMPDEST SWAP4 POP PUSH2 0x2BAE DUP2 DUP6 PUSH1 0x20 DUP7 ADD PUSH2 0x35CF JUMP JUMPDEST PUSH2 0x2BB7 DUP2 PUSH2 0x37B1 JUMP JUMPDEST DUP5 ADD SWAP2 POP POP SWAP3 SWAP2 POP POP JUMP JUMPDEST PUSH1 0x0 PUSH2 0x2BCF PUSH1 0x1B DUP4 PUSH2 0x34A7 JUMP JUMPDEST SWAP2 POP PUSH2 0x2BDA DUP3 PUSH2 0x37CF JUMP JUMPDEST PUSH1 0x20 DUP3 ADD SWAP1 POP SWAP2 SWAP1 POP JUMP JUMPDEST PUSH1 0x0 PUSH2 0x2BF2 PUSH1 0x34 DUP4 PUSH2 0x34A7 JUMP JUMPDEST SWAP2 POP PUSH2 0x2BFD DUP3 PUSH2 0x37F8 JUMP JUMPDEST PUSH1 0x40 DUP3 ADD SWAP1 POP SWAP2 SWAP1 POP JUMP JUMPDEST PUSH1 0x0 PUSH2 0x2C15 PUSH1 0x38 DUP4 PUSH2 0x34A7 JUMP JUMPDEST SWAP2 POP PUSH2 0x2C20 DUP3 PUSH2 0x3847 JUMP JUMPDEST PUSH1 0x40 DUP3 ADD SWAP1 POP SWAP2 SWAP1 POP JUMP JUMPDEST PUSH1 0x0 PUSH2 0x2C38 PUSH1 0x28 DUP4 PUSH2 0x34A7 JUMP JUMPDEST SWAP2 POP PUSH2 0x2C43 DUP3 PUSH2 0x3896 JUMP JUMPDEST PUSH1 0x40 DUP3 ADD SWAP1 POP SWAP2 SWAP1 POP JUMP JUMPDEST PUSH1 0x0 PUSH2 0x2C5B PUSH1 0x29 DUP4 PUSH2 0x34A7 JUMP JUMPDEST SWAP2 POP PUSH2 0x2C66 DUP3 PUSH2 0x38E5 JUMP JUMPDEST PUSH1 0x40 DUP3 ADD SWAP1 POP SWAP2 SWAP1 POP JUMP JUMPDEST PUSH1 0x0 PUSH2 0x2C7E PUSH1 0x26 DUP4 PUSH2 0x34A7 JUMP JUMPDEST SWAP2 POP PUSH2 0x2C89 DUP3 PUSH2 0x3934 JUMP JUMPDEST PUSH1 0x40 DUP3 ADD SWAP1 POP SWAP2 SWAP1 POP JUMP JUMPDEST PUSH1 0x0 PUSH2 0x2CA1 PUSH1 0x2A DUP4 PUSH2 0x34A7 JUMP JUMPDEST SWAP2 POP PUSH2 0x2CAC DUP3 PUSH2 0x3983 JUMP JUMPDEST PUSH1 0x40 DUP3 ADD SWAP1 POP SWAP2 SWAP1 POP JUMP JUMPDEST PUSH1 0x0 PUSH2 0x2CC4 PUSH1 0x43 DUP4 PUSH2 0x34A7 JUMP JUMPDEST SWAP2 POP PUSH2 0x2CCF DUP3 PUSH2 0x39D2 JUMP JUMPDEST PUSH1 0x60 DUP3 ADD SWAP1 POP SWAP2 SWAP1 POP JUMP JUMPDEST PUSH1 0x0 PUSH2 0x2CE7 PUSH1 0x45 DUP4 PUSH2 0x34A7 JUMP JUMPDEST SWAP2 POP PUSH2 0x2CF2 DUP3 PUSH2 0x3A47 JUMP JUMPDEST PUSH1 0x60 DUP3 ADD SWAP1 POP SWAP2 SWAP1 POP JUMP JUMPDEST PUSH1 0x0 PUSH2 0x2D0A PUSH1 0x30 DUP4 PUSH2 0x34A7 JUMP JUMPDEST SWAP2 POP PUSH2 0x2D15 DUP3 PUSH2 0x3ABC JUMP JUMPDEST PUSH1 0x40 DUP3 ADD SWAP1 POP SWAP2 SWAP1 POP JUMP JUMPDEST PUSH1 0x0 PUSH2 0x2D2D PUSH1 0x34 DUP4 PUSH2 0x34A7 JUMP JUMPDEST SWAP2 POP PUSH2 0x2D38 DUP3 PUSH2 0x3B0B JUMP JUMPDEST PUSH1 0x40 DUP3 ADD SWAP1 POP SWAP2 SWAP1 POP JUMP JUMPDEST PUSH1 0x0 PUSH2 0x2D50 PUSH1 0xC DUP4 PUSH2 0x34A7 JUMP JUMPDEST SWAP2 POP PUSH2 0x2D5B DUP3 PUSH2 0x3B5A JUMP JUMPDEST PUSH1 0x20 DUP3 ADD SWAP1 POP SWAP2 SWAP1 POP JUMP JUMPDEST PUSH1 0x0 PUSH2 0x2D73 PUSH1 0x24 DUP4 PUSH2 0x34A7 JUMP JUMPDEST SWAP2 POP PUSH2 0x2D7E DUP3 PUSH2 0x3B83 JUMP JUMPDEST PUSH1 0x40 DUP3 ADD SWAP1 POP SWAP2 SWAP1 POP JUMP JUMPDEST PUSH1 0x0 PUSH2 0x2D96 PUSH1 0x20 DUP4 PUSH2 0x34A7 JUMP JUMPDEST SWAP2 POP PUSH2 0x2DA1 DUP3 PUSH2 0x3BD2 JUMP JUMPDEST PUSH1 0x20 DUP3 ADD SWAP1 POP SWAP2 SWAP1 POP JUMP JUMPDEST PUSH1 0x0 PUSH2 0x2DB9 PUSH1 0x28 DUP4 PUSH2 0x34A7 JUMP JUMPDEST SWAP2 POP PUSH2 0x2DC4 DUP3 PUSH2 0x3BFB JUMP JUMPDEST PUSH1 0x40 DUP3 ADD SWAP1 POP SWAP2 SWAP1 POP JUMP JUMPDEST PUSH1 0x0 PUSH2 0x2DDC PUSH1 0x22 DUP4 PUSH2 0x34A7 JUMP JUMPDEST SWAP2 POP PUSH2 0x2DE7 DUP3 PUSH2 0x3C4A JUMP JUMPDEST PUSH1 0x40 DUP3 ADD SWAP1 POP SWAP2 SWAP1 POP JUMP JUMPDEST PUSH1 0x0 PUSH2 0x2DFF PUSH1 0x40 DUP4 PUSH2 0x34A7 JUMP JUMPDEST SWAP2 POP PUSH2 0x2E0A DUP3 PUSH2 0x3C99 JUMP JUMPDEST PUSH1 0x40 DUP3 ADD SWAP1 POP SWAP2 SWAP1 POP JUMP JUMPDEST PUSH1 0x0 PUSH2 0x2E22 PUSH1 0x20 DUP4 PUSH2 0x34A7 JUMP JUMPDEST SWAP2 POP PUSH2 0x2E2D DUP3 PUSH2 0x3CE8 JUMP JUMPDEST PUSH1 0x20 DUP3 ADD SWAP1 POP SWAP2 SWAP1 POP JUMP JUMPDEST PUSH1 0x0 PUSH2 0x2E45 PUSH1 0x26 DUP4 PUSH2 0x34A7 JUMP JUMPDEST SWAP2 POP PUSH2 0x2E50 DUP3 PUSH2 0x3D11 JUMP JUMPDEST PUSH1 0x40 DUP3 ADD SWAP1 POP SWAP2 SWAP1 POP JUMP JUMPDEST PUSH1 0x0 PUSH2 0x2E68 PUSH1 0x2C DUP4 PUSH2 0x34A7 JUMP JUMPDEST SWAP2 POP PUSH2 0x2E73 DUP3 PUSH2 0x3D60 JUMP JUMPDEST PUSH1 0x40 DUP3 ADD SWAP1 POP SWAP2 SWAP1 POP JUMP JUMPDEST PUSH2 0x2E87 DUP2 PUSH2 0x35B6 JUMP JUMPDEST DUP3 MSTORE POP POP JUMP JUMPDEST PUSH2 0x2E9E PUSH2 0x2E99 DUP3 PUSH2 0x35B6 JUMP JUMPDEST PUSH2 0x36D2 JUMP JUMPDEST DUP3 MSTORE POP POP JUMP JUMPDEST PUSH1 0x0 PUSH2 0x2EB0 DUP3 DUP8 PUSH2 0x2A2D JUMP JUMPDEST PUSH1 0x14 DUP3 ADD SWAP2 POP PUSH2 0x2EC0 DUP3 DUP7 PUSH2 0x2A2D JUMP JUMPDEST PUSH1 0x14 DUP3 ADD SWAP2 POP PUSH2 0x2ED0 DUP3 DUP6 PUSH2 0x2E8D JUMP JUMPDEST PUSH1 0x20 DUP3 ADD SWAP2 POP PUSH2 0x2EE0 DUP3 DUP5 PUSH2 0x2B58 JUMP JUMPDEST SWAP2 POP DUP2 SWAP1 POP SWAP6 SWAP5 POP POP POP POP POP JUMP JUMPDEST PUSH1 0x0 PUSH2 0x2EFA DUP3 DUP5 PUSH2 0x2B58 JUMP JUMPDEST SWAP2 POP DUP2 SWAP1 POP SWAP3 SWAP2 POP POP JUMP JUMPDEST PUSH1 0x0 PUSH1 0x20 DUP3 ADD SWAP1 POP PUSH2 0x2F1A PUSH1 0x0 DUP4 ADD DUP5 PUSH2 0x2A1E JUMP JUMPDEST SWAP3 SWAP2 POP POP JUMP JUMPDEST PUSH1 0x0 PUSH1 0x60 DUP3 ADD SWAP1 POP PUSH2 0x2F35 PUSH1 0x0 DUP4 ADD DUP7 PUSH2 0x2A1E JUMP JUMPDEST PUSH2 0x2F42 PUSH1 0x20 DUP4 ADD DUP6 PUSH2 0x2A1E JUMP JUMPDEST PUSH2 0x2F4F PUSH1 0x40 DUP4 ADD DUP5 PUSH2 0x2E7E JUMP JUMPDEST SWAP5 SWAP4 POP POP POP POP JUMP JUMPDEST PUSH1 0x0 PUSH1 0x40 DUP3 ADD SWAP1 POP PUSH2 0x2F6C PUSH1 0x0 DUP4 ADD DUP6 PUSH2 0x2A1E JUMP JUMPDEST PUSH2 0x2F79 PUSH1 0x20 DUP4 ADD DUP5 PUSH2 0x2E7E JUMP JUMPDEST SWAP4 SWAP3 POP POP POP JUMP JUMPDEST PUSH1 0x0 PUSH1 0x20 DUP3 ADD SWAP1 POP DUP2 DUP2 SUB PUSH1 0x0 DUP4 ADD MSTORE PUSH2 0x2F9A DUP2 DUP5 PUSH2 0x2A44 JUMP JUMPDEST SWAP1 POP SWAP3 SWAP2 POP POP JUMP JUMPDEST PUSH1 0x0 PUSH1 0x20 DUP3 ADD SWAP1 POP PUSH2 0x2FB7 PUSH1 0x0 DUP4 ADD DUP5 PUSH2 0x2AB9 JUMP JUMPDEST SWAP3 SWAP2 POP POP JUMP JUMPDEST PUSH1 0x0 PUSH1 0x40 DUP3 ADD SWAP1 POP PUSH2 0x2FD2 PUSH1 0x0 DUP4 ADD DUP6 PUSH2 0x2AC8 JUMP JUMPDEST DUP2 DUP2 SUB PUSH1 0x20 DUP4 ADD MSTORE PUSH2 0x2FE4 DUP2 DUP5 PUSH2 0x2B1F JUMP JUMPDEST SWAP1 POP SWAP4 SWAP3 POP POP POP JUMP JUMPDEST PUSH1 0x0 PUSH1 0x20 DUP3 ADD SWAP1 POP PUSH2 0x3002 PUSH1 0x0 DUP4 ADD DUP5 PUSH2 0x2AD7 JUMP JUMPDEST SWAP3 SWAP2 POP POP JUMP JUMPDEST PUSH1 0x0 PUSH1 0x20 DUP3 ADD SWAP1 POP DUP2 DUP2 SUB PUSH1 0x0 DUP4 ADD MSTORE PUSH2 0x3022 DUP2 DUP5 PUSH2 0x2B1F JUMP JUMPDEST SWAP1 POP SWAP3 SWAP2 POP POP JUMP JUMPDEST PUSH1 0x0 PUSH1 0x20 DUP3 ADD SWAP1 POP DUP2 DUP2 SUB PUSH1 0x0 DUP4 ADD MSTORE PUSH2 0x3044 DUP2 DUP5 PUSH2 0x2B89 JUMP JUMPDEST SWAP1 POP SWAP3 SWAP2 POP POP JUMP JUMPDEST PUSH1 0x0 PUSH1 0x20 DUP3 ADD SWAP1 POP DUP2 DUP2 SUB PUSH1 0x0 DUP4 ADD MSTORE PUSH2 0x3065 DUP2 PUSH2 0x2BC2 JUMP JUMPDEST SWAP1 POP SWAP2 SWAP1 POP JUMP JUMPDEST PUSH1 0x0 PUSH1 0x20 DUP3 ADD SWAP1 POP DUP2 DUP2 SUB PUSH1 0x0 DUP4 ADD MSTORE PUSH2 0x3085 DUP2 PUSH2 0x2BE5 JUMP JUMPDEST SWAP1 POP SWAP2 SWAP1 POP JUMP JUMPDEST PUSH1 0x0 PUSH1 0x20 DUP3 ADD SWAP1 POP DUP2 DUP2 SUB PUSH1 0x0 DUP4 ADD MSTORE PUSH2 0x30A5 DUP2 PUSH2 0x2C08 JUMP JUMPDEST SWAP1 POP SWAP2 SWAP1 POP JUMP JUMPDEST PUSH1 0x0 PUSH1 0x20 DUP3 ADD SWAP1 POP DUP2 DUP2 SUB PUSH1 0x0 DUP4 ADD MSTORE PUSH2 0x30C5 DUP2 PUSH2 0x2C2B JUMP JUMPDEST SWAP1 POP SWAP2 SWAP1 POP JUMP JUMPDEST PUSH1 0x0 PUSH1 0x20 DUP3 ADD SWAP1 POP DUP2 DUP2 SUB PUSH1 0x0 DUP4 ADD MSTORE PUSH2 0x30E5 DUP2 PUSH2 0x2C4E JUMP JUMPDEST SWAP1 POP SWAP2 SWAP1 POP JUMP JUMPDEST PUSH1 0x0 PUSH1 0x20 DUP3 ADD SWAP1 POP DUP2 DUP2 SUB PUSH1 0x0 DUP4 ADD MSTORE PUSH2 0x3105 DUP2 PUSH2 0x2C71 JUMP JUMPDEST SWAP1 POP SWAP2 SWAP1 POP JUMP JUMPDEST PUSH1 0x0 PUSH1 0x20 DUP3 ADD SWAP1 POP DUP2 DUP2 SUB PUSH1 0x0 DUP4 ADD MSTORE PUSH2 0x3125 DUP2 PUSH2 0x2C94 JUMP JUMPDEST SWAP1 POP SWAP2 SWAP1 POP JUMP JUMPDEST PUSH1 0x0 PUSH1 0x20 DUP3 ADD SWAP1 POP DUP2 DUP2 SUB PUSH1 0x0 DUP4 ADD MSTORE PUSH2 0x3145 DUP2 PUSH2 0x2CB7 JUMP JUMPDEST SWAP1 POP SWAP2 SWAP1 POP JUMP JUMPDEST PUSH1 0x0 PUSH1 0x20 DUP3 ADD SWAP1 POP DUP2 DUP2 SUB PUSH1 0x0 DUP4 ADD MSTORE PUSH2 0x3165 DUP2 PUSH2 0x2CDA JUMP JUMPDEST SWAP1 POP SWAP2 SWAP1 POP JUMP JUMPDEST PUSH1 0x0 PUSH1 0x20 DUP3 ADD SWAP1 POP DUP2 DUP2 SUB PUSH1 0x0 DUP4 ADD MSTORE PUSH2 0x3185 DUP2 PUSH2 0x2CFD JUMP JUMPDEST SWAP1 POP SWAP2 SWAP1 POP JUMP JUMPDEST PUSH1 0x0 PUSH1 0x20 DUP3 ADD SWAP1 POP DUP2 DUP2 SUB PUSH1 0x0 DUP4 ADD MSTORE PUSH2 0x31A5 DUP2 PUSH2 0x2D20 JUMP JUMPDEST SWAP1 POP SWAP2 SWAP1 POP JUMP JUMPDEST PUSH1 0x0 PUSH1 0x20 DUP3 ADD SWAP1 POP DUP2 DUP2 SUB PUSH1 0x0 DUP4 ADD MSTORE PUSH2 0x31C5 DUP2 PUSH2 0x2D43 JUMP JUMPDEST SWAP1 POP SWAP2 SWAP1 POP JUMP JUMPDEST PUSH1 0x0 PUSH1 0x20 DUP3 ADD SWAP1 POP DUP2 DUP2 SUB PUSH1 0x0 DUP4 ADD MSTORE PUSH2 0x31E5 DUP2 PUSH2 0x2D66 JUMP JUMPDEST SWAP1 POP SWAP2 SWAP1 POP JUMP JUMPDEST PUSH1 0x0 PUSH1 0x20 DUP3 ADD SWAP1 POP DUP2 DUP2 SUB PUSH1 0x0 DUP4 ADD MSTORE PUSH2 0x3205 DUP2 PUSH2 0x2D89 JUMP JUMPDEST SWAP1 POP SWAP2 SWAP1 POP JUMP JUMPDEST PUSH1 0x0 PUSH1 0x20 DUP3 ADD SWAP1 POP DUP2 DUP2 SUB PUSH1 0x0 DUP4 ADD MSTORE PUSH2 0x3225 DUP2 PUSH2 0x2DAC JUMP JUMPDEST SWAP1 POP SWAP2 SWAP1 POP JUMP JUMPDEST PUSH1 0x0 PUSH1 0x20 DUP3 ADD SWAP1 POP DUP2 DUP2 SUB PUSH1 0x0 DUP4 ADD MSTORE PUSH2 0x3245 DUP2 PUSH2 0x2DCF JUMP JUMPDEST SWAP1 POP SWAP2 SWAP1 POP JUMP JUMPDEST PUSH1 0x0 PUSH1 0x20 DUP3 ADD SWAP1 POP DUP2 DUP2 SUB PUSH1 0x0 DUP4 ADD MSTORE PUSH2 0x3265 DUP2 PUSH2 0x2DF2 JUMP JUMPDEST SWAP1 POP SWAP2 SWAP1 POP JUMP JUMPDEST PUSH1 0x0 PUSH1 0x20 DUP3 ADD SWAP1 POP DUP2 DUP2 SUB PUSH1 0x0 DUP4 ADD MSTORE PUSH2 0x3285 DUP2 PUSH2 0x2E15 JUMP JUMPDEST SWAP1 POP SWAP2 SWAP1 POP JUMP JUMPDEST PUSH1 0x0 PUSH1 0x20 DUP3 ADD SWAP1 POP DUP2 DUP2 SUB PUSH1 0x0 DUP4 ADD MSTORE PUSH2 0x32A5 DUP2 PUSH2 0x2E38 JUMP JUMPDEST SWAP1 POP SWAP2 SWAP1 POP JUMP JUMPDEST PUSH1 0x0 PUSH1 0x20 DUP3 ADD SWAP1 POP DUP2 DUP2 SUB PUSH1 0x0 DUP4 ADD MSTORE PUSH2 0x32C5 DUP2 PUSH2 0x2E5B JUMP JUMPDEST SWAP1 POP SWAP2 SWAP1 POP JUMP JUMPDEST PUSH1 0x0 PUSH1 0x20 DUP3 ADD SWAP1 POP PUSH2 0x32E1 PUSH1 0x0 DUP4 ADD DUP5 PUSH2 0x2E7E JUMP JUMPDEST SWAP3 SWAP2 POP POP JUMP JUMPDEST PUSH1 0x0 PUSH1 0x60 DUP3 ADD SWAP1 POP PUSH2 0x32FC PUSH1 0x0 DUP4 ADD DUP7 PUSH2 0x2E7E JUMP JUMPDEST PUSH2 0x3309 PUSH1 0x20 DUP4 ADD DUP6 PUSH2 0x2AB9 JUMP JUMPDEST DUP2 DUP2 SUB PUSH1 0x40 DUP4 ADD MSTORE PUSH2 0x331B DUP2 DUP5 PUSH2 0x2B1F JUMP JUMPDEST SWAP1 POP SWAP5 SWAP4 POP POP POP POP JUMP JUMPDEST PUSH1 0x0 PUSH2 0x332F PUSH2 0x3340 JUMP JUMPDEST SWAP1 POP PUSH2 0x333B DUP3 DUP3 PUSH2 0x3634 JUMP JUMPDEST SWAP2 SWAP1 POP JUMP JUMPDEST PUSH1 0x0 PUSH1 0x40 MLOAD SWAP1 POP SWAP1 JUMP JUMPDEST PUSH1 0x0 PUSH8 0xFFFFFFFFFFFFFFFF DUP3 GT ISZERO PUSH2 0x3365 JUMPI PUSH2 0x3364 PUSH2 0x3769 JUMP JUMPDEST JUMPDEST PUSH1 0x20 DUP3 MUL SWAP1 POP PUSH1 0x20 DUP2 ADD SWAP1 POP SWAP2 SWAP1 POP JUMP JUMPDEST PUSH1 0x0 PUSH8 0xFFFFFFFFFFFFFFFF DUP3 GT ISZERO PUSH2 0x3391 JUMPI PUSH2 0x3390 PUSH2 0x3769 JUMP JUMPDEST JUMPDEST PUSH1 0x20 DUP3 MUL SWAP1 POP PUSH1 0x20 DUP2 ADD SWAP1 POP SWAP2 SWAP1 POP JUMP JUMPDEST PUSH1 0x0 PUSH8 0xFFFFFFFFFFFFFFFF DUP3 GT ISZERO PUSH2 0x33BD JUMPI PUSH2 0x33BC PUSH2 0x3769 JUMP JUMPDEST JUMPDEST PUSH1 0x20 DUP3 MUL SWAP1 POP PUSH1 0x20 DUP2 ADD SWAP1 POP SWAP2 SWAP1 POP JUMP JUMPDEST PUSH1 0x0 PUSH8 0xFFFFFFFFFFFFFFFF DUP3 GT ISZERO PUSH2 0x33E9 JUMPI PUSH2 0x33E8 PUSH2 0x3769 JUMP JUMPDEST JUMPDEST PUSH1 0x20 DUP3 MUL SWAP1 POP PUSH1 0x20 DUP2 ADD SWAP1 POP SWAP2 SWAP1 POP JUMP JUMPDEST PUSH1 0x0 PUSH8 0xFFFFFFFFFFFFFFFF DUP3 GT ISZERO PUSH2 0x3415 JUMPI PUSH2 0x3414 PUSH2 0x3769 JUMP JUMPDEST JUMPDEST PUSH2 0x341E DUP3 PUSH2 0x37B1 JUMP JUMPDEST SWAP1 POP PUSH1 0x20 DUP2 ADD SWAP1 POP SWAP2 SWAP1 POP JUMP JUMPDEST PUSH1 0x0 DUP2 SWAP1 POP PUSH1 0x20 DUP3 ADD SWAP1 POP SWAP2 SWAP1 POP JUMP JUMPDEST PUSH1 0x0 DUP2 MLOAD SWAP1 POP SWAP2 SWAP1 POP JUMP JUMPDEST PUSH1 0x0 DUP2 MLOAD SWAP1 POP SWAP2 SWAP1 POP JUMP JUMPDEST PUSH1 0x0 DUP2 MLOAD SWAP1 POP SWAP2 SWAP1 POP JUMP JUMPDEST PUSH1 0x0 PUSH1 0x20 DUP3 ADD SWAP1 POP SWAP2 SWAP1 POP JUMP JUMPDEST PUSH1 0x0 DUP3 DUP3 MSTORE PUSH1 0x20 DUP3 ADD SWAP1 POP SWAP3 SWAP2 POP POP JUMP JUMPDEST PUSH1 0x0 DUP3 DUP3 MSTORE PUSH1 0x20 DUP3 ADD SWAP1 POP SWAP3 SWAP2 POP POP JUMP JUMPDEST PUSH1 0x0 DUP3 DUP3 MSTORE PUSH1 0x20 DUP3 ADD SWAP1 POP SWAP3 SWAP2 POP POP JUMP JUMPDEST PUSH1 0x0 DUP2 SWAP1 POP SWAP3 SWAP2 POP POP JUMP JUMPDEST PUSH1 0x0 DUP3 DUP3 MSTORE PUSH1 0x20 DUP3 ADD SWAP1 POP SWAP3 SWAP2 POP POP JUMP JUMPDEST PUSH1 0x0 PUSH2 0x34C3 DUP3 PUSH2 0x35B6 JUMP JUMPDEST SWAP2 POP PUSH2 0x34CE DUP4 PUSH2 0x35B6 JUMP JUMPDEST SWAP3 POP DUP3 PUSH32 0xFFFFFFFFFFFFFFFFFFFFFFFFFFFFFFFFFFFFFFFFFFFFFFFFFFFFFFFFFFFFFFFF SUB DUP3 GT ISZERO PUSH2 0x3503 JUMPI PUSH2 0x3502 PUSH2 0x36DC JUMP JUMPDEST JUMPDEST DUP3 DUP3 ADD SWAP1 POP SWAP3 SWAP2 POP POP JUMP JUMPDEST PUSH1 0x0 PUSH2 0x3519 DUP3 PUSH2 0x35B6 JUMP JUMPDEST SWAP2 POP PUSH2 0x3524 DUP4 PUSH2 0x35B6 JUMP JUMPDEST SWAP3 POP DUP3 DUP3 LT ISZERO PUSH2 0x3537 JUMPI PUSH2 0x3536 PUSH2 0x36DC JUMP JUMPDEST JUMPDEST DUP3 DUP3 SUB SWAP1 POP SWAP3 SWAP2 POP POP JUMP JUMPDEST PUSH1 0x0 PUSH2 0x354D DUP3 PUSH2 0x3596 JUMP JUMPDEST SWAP1 POP SWAP2 SWAP1 POP JUMP JUMPDEST PUSH1 0x0 DUP2 ISZERO ISZERO SWAP1 POP SWAP2 SWAP1 POP JUMP JUMPDEST PUSH1 0x0 DUP2 SWAP1 POP SWAP2 SWAP1 POP JUMP JUMPDEST PUSH1 0x0 PUSH32 0xFFFFFFFF00000000000000000000000000000000000000000000000000000000 DUP3 AND SWAP1 POP SWAP2 SWAP1 POP JUMP JUMPDEST PUSH1 0x0 PUSH20 0xFFFFFFFFFFFFFFFFFFFFFFFFFFFFFFFFFFFFFFFF DUP3 AND SWAP1 POP SWAP2 SWAP1 POP JUMP JUMPDEST PUSH1 0x0 DUP2 SWAP1 POP SWAP2 SWAP1 POP JUMP JUMPDEST DUP3 DUP2 DUP4 CALLDATACOPY PUSH1 0x0 DUP4 DUP4 ADD MSTORE POP POP POP JUMP JUMPDEST PUSH1 0x0 JUMPDEST DUP4 DUP2 LT ISZERO PUSH2 0x35ED JUMPI DUP1 DUP3 ADD MLOAD DUP2 DUP5 ADD MSTORE PUSH1 0x20 DUP2 ADD SWAP1 POP PUSH2 0x35D2 JUMP JUMPDEST DUP4 DUP2 GT ISZERO PUSH2 0x35FC JUMPI PUSH1 0x0 DUP5 DUP5 ADD MSTORE JUMPDEST POP POP POP POP JUMP JUMPDEST PUSH1 0x0 PUSH1 0x2 DUP3 DIV SWAP1 POP PUSH1 0x1 DUP3 AND DUP1 PUSH2 0x361A JUMPI PUSH1 0x7F DUP3 AND SWAP2 POP JUMPDEST PUSH1 0x20 DUP3 LT DUP2 EQ ISZERO PUSH2 0x362E JUMPI PUSH2 0x362D PUSH2 0x370B JUMP JUMPDEST JUMPDEST POP SWAP2 SWAP1 POP JUMP JUMPDEST PUSH2 0x363D DUP3 PUSH2 0x37B1 JUMP JUMPDEST DUP2 ADD DUP2 DUP2 LT PUSH8 0xFFFFFFFFFFFFFFFF DUP3 GT OR ISZERO PUSH2 0x365C JUMPI PUSH2 0x365B PUSH2 0x3769 JUMP JUMPDEST JUMPDEST DUP1 PUSH1 0x40 MSTORE POP POP POP JUMP JUMPDEST PUSH1 0x0 PUSH2 0x3670 DUP3 PUSH2 0x35B6 JUMP JUMPDEST SWAP2 POP PUSH32 0xFFFFFFFFFFFFFFFFFFFFFFFFFFFFFFFFFFFFFFFFFFFFFFFFFFFFFFFFFFFFFFFF DUP3 EQ ISZERO PUSH2 0x36A3 JUMPI PUSH2 0x36A2 PUSH2 0x36DC JUMP JUMPDEST JUMPDEST PUSH1 0x1 DUP3 ADD SWAP1 POP SWAP2 SWAP1 POP JUMP JUMPDEST PUSH1 0x0 PUSH2 0x36B9 DUP3 PUSH2 0x36C0 JUMP JUMPDEST SWAP1 POP SWAP2 SWAP1 POP JUMP JUMPDEST PUSH1 0x0 PUSH2 0x36CB DUP3 PUSH2 0x37C2 JUMP JUMPDEST SWAP1 POP SWAP2 SWAP1 POP JUMP JUMPDEST PUSH1 0x0 DUP2 SWAP1 POP SWAP2 SWAP1 POP JUMP JUMPDEST PUSH32 0x4E487B7100000000000000000000000000000000000000000000000000000000 PUSH1 0x0 MSTORE PUSH1 0x11 PUSH1 0x4 MSTORE PUSH1 0x24 PUSH1 0x0 REVERT JUMPDEST PUSH32 0x4E487B7100000000000000000000000000000000000000000000000000000000 PUSH1 0x0 MSTORE PUSH1 0x22 PUSH1 0x4 MSTORE PUSH1 0x24 PUSH1 0x0 REVERT JUMPDEST PUSH32 0x4E487B7100000000000000000000000000000000000000000000000000000000 PUSH1 0x0 MSTORE PUSH1 0x32 PUSH1 0x4 MSTORE PUSH1 0x24 PUSH1 0x0 REVERT JUMPDEST PUSH32 0x4E487B7100000000000000000000000000000000000000000000000000000000 PUSH1 0x0 MSTORE PUSH1 0x41 PUSH1 0x4 MSTORE PUSH1 0x24 PUSH1 0x0 REVERT JUMPDEST PUSH1 0x0 DUP1 REVERT JUMPDEST PUSH1 0x0 DUP1 REVERT JUMPDEST PUSH1 0x0 DUP1 REVERT JUMPDEST PUSH1 0x0 DUP1 REVERT JUMPDEST PUSH1 0x0 DUP1 REVERT JUMPDEST PUSH1 0x0 PUSH1 0x1F NOT PUSH1 0x1F DUP4 ADD AND SWAP1 POP SWAP2 SWAP1 POP JUMP JUMPDEST PUSH1 0x0 DUP2 PUSH1 0x60 SHL SWAP1 POP SWAP2 SWAP1 POP JUMP JUMPDEST PUSH32 0x4C5350373A20746F6B656E20726563656976657220697320454F410000000000 PUSH1 0x0 DUP3 ADD MSTORE POP JUMP JUMPDEST PUSH32 0x4C5350373A206275726E20616D6F756E742065786365656473206F7065726174 PUSH1 0x0 DUP3 ADD MSTORE PUSH32 0x6F7220617574686F72697A656420616D6F756E74000000000000000000000000 PUSH1 0x20 DUP3 ADD MSTORE POP JUMP JUMPDEST PUSH32 0x4C5350373A207472616E7366657220616D6F756E742065786365656473206F70 PUSH1 0x0 DUP3 ADD MSTORE PUSH32 0x657261746F7220617574686F72697A656420616D6F756E740000000000000000 PUSH1 0x20 DUP3 ADD MSTORE POP JUMP JUMPDEST PUSH32 0x4C5350373A207472616E736665724261746368206C697374206C656E67746820 PUSH1 0x0 DUP3 ADD MSTORE PUSH32 0x6D69736D61746368000000000000000000000000000000000000000000000000 PUSH1 0x20 DUP3 ADD MSTORE POP JUMP JUMPDEST PUSH32 0x4F776E61626C653A206F776E65722063616E206F6E6C7920626520696E697469 PUSH1 0x0 DUP3 ADD MSTORE PUSH32 0x61746564206F6E63650000000000000000000000000000000000000000000000 PUSH1 0x20 DUP3 ADD MSTORE POP JUMP JUMPDEST PUSH32 0x4F776E61626C653A206E6577206F776E657220697320746865207A65726F2061 PUSH1 0x0 DUP3 ADD MSTORE PUSH32 0x6464726573730000000000000000000000000000000000000000000000000000 PUSH1 0x20 DUP3 ADD MSTORE POP JUMP JUMPDEST PUSH32 0x4C5350373A206D696E7420746F20746865207A65726F2061646472657373206E PUSH1 0x0 DUP3 ADD MSTORE PUSH32 0x6F7420616C6C6F77656400000000000000000000000000000000000000000000 PUSH1 0x20 DUP3 ADD MSTORE POP JUMP JUMPDEST PUSH32 0x4C5350373A207570646174696E67206F70657261746F72206661696C65642C20 PUSH1 0x0 DUP3 ADD MSTORE PUSH32 0x63616E206E6F742075736520746F6B656E206F776E6572206173206F70657261 PUSH1 0x20 DUP3 ADD MSTORE PUSH32 0x746F720000000000000000000000000000000000000000000000000000000000 PUSH1 0x40 DUP3 ADD MSTORE POP JUMP JUMPDEST PUSH32 0x4C5350373A207570646174696E67206F70657261746F72206661696C65642C20 PUSH1 0x0 DUP3 ADD MSTORE PUSH32 0x63616E206E6F7420736574206F70657261746F7220666F72207A65726F206164 PUSH1 0x20 DUP3 ADD MSTORE PUSH32 0x6472657373000000000000000000000000000000000000000000000000000000 PUSH1 0x40 DUP3 ADD MSTORE POP JUMP JUMPDEST PUSH32 0x4C5350373A207472616E7366657220616D6F756E74206578636565647320746F PUSH1 0x0 DUP3 ADD MSTORE PUSH32 0x6B656E4F776E65722062616C616E636500000000000000000000000000000000 PUSH1 0x20 DUP3 ADD MSTORE POP JUMP JUMPDEST PUSH32 0x4C5350373A20746F6B656E20726563656976657220636F6E7472616374206D69 PUSH1 0x0 DUP3 ADD MSTORE PUSH32 0x7373696E67204C53503120696E74657266616365000000000000000000000000 PUSH1 0x20 DUP3 ADD MSTORE POP JUMP JUMPDEST PUSH32 0x756E617574686F72697A65640000000000000000000000000000000000000000 PUSH1 0x0 DUP3 ADD MSTORE POP JUMP JUMPDEST PUSH32 0x4C5350373A207472616E736665722066726F6D20746865207A65726F20616464 PUSH1 0x0 DUP3 ADD MSTORE PUSH32 0x7265737300000000000000000000000000000000000000000000000000000000 PUSH1 0x20 DUP3 ADD MSTORE POP JUMP JUMPDEST PUSH32 0x4F776E61626C653A2063616C6C6572206973206E6F7420746865206F776E6572 PUSH1 0x0 DUP3 ADD MSTORE POP JUMP JUMPDEST PUSH32 0x4C535037436170706564537570706C793A20746F6B656E537570706C79436170 PUSH1 0x0 DUP3 ADD MSTORE PUSH32 0x2072656163686564000000000000000000000000000000000000000000000000 PUSH1 0x20 DUP3 ADD MSTORE POP JUMP JUMPDEST PUSH32 0x4C5350373A207472616E7366657220746F20746865207A65726F206164647265 PUSH1 0x0 DUP3 ADD MSTORE PUSH32 0x7373000000000000000000000000000000000000000000000000000000000000 PUSH1 0x20 DUP3 ADD MSTORE POP JUMP JUMPDEST PUSH32 0x4C5350373A207570646174696E67206F70657261746F72206661696C65642C20 PUSH1 0x0 DUP3 ADD MSTORE PUSH32 0x6F70657261746F722063616E206E6F74206265207A65726F2061646472657373 PUSH1 0x20 DUP3 ADD MSTORE POP JUMP JUMPDEST PUSH32 0x4C5350373A206275726E2066726F6D20746865207A65726F2061646472657373 PUSH1 0x0 DUP3 ADD MSTORE POP JUMP JUMPDEST PUSH32 0x4B657973206C656E677468206E6F7420657175616C20746F2076616C75657320 PUSH1 0x0 DUP3 ADD MSTORE PUSH32 0x6C656E6774680000000000000000000000000000000000000000000000000000 PUSH1 0x20 DUP3 ADD MSTORE POP JUMP JUMPDEST PUSH32 0x4C5350373A206275726E20616D6F756E74206578636565647320746F6B656E4F PUSH1 0x0 DUP3 ADD MSTORE PUSH32 0x776E65722062616C616E63650000000000000000000000000000000000000000 PUSH1 0x20 DUP3 ADD MSTORE POP JUMP JUMPDEST PUSH2 0x3DB8 DUP2 PUSH2 0x3542 JUMP JUMPDEST DUP2 EQ PUSH2 0x3DC3 JUMPI PUSH1 0x0 DUP1 REVERT JUMPDEST POP JUMP JUMPDEST PUSH2 0x3DCF DUP2 PUSH2 0x3554 JUMP JUMPDEST DUP2 EQ PUSH2 0x3DDA JUMPI PUSH1 0x0 DUP1 REVERT JUMPDEST POP JUMP JUMPDEST PUSH2 0x3DE6 DUP2 PUSH2 0x3560 JUMP JUMPDEST DUP2 EQ PUSH2 0x3DF1 JUMPI PUSH1 0x0 DUP1 REVERT JUMPDEST POP JUMP JUMPDEST PUSH2 0x3DFD DUP2 PUSH2 0x356A JUMP JUMPDEST DUP2 EQ PUSH2 0x3E08 JUMPI PUSH1 0x0 DUP1 REVERT JUMPDEST POP JUMP JUMPDEST PUSH2 0x3E14 DUP2 PUSH2 0x35B6 JUMP JUMPDEST DUP2 EQ PUSH2 0x3E1F JUMPI PUSH1 0x0 DUP1 REVERT JUMPDEST POP JUMP INVALID LOG2 PUSH5 0x6970667358 0x22 SLT KECCAK256 LT 0xE9 0xEA SWAP13 DUP6 RETURN PUSH13 0x9452435F719177AD621BD8E3BE 0x24 0xC SWAP14 PUSH7 0x7884F71BF3A086 INVALID PUSH5 0x736F6C6343 STOP ADDMOD SMOD STOP CALLER LOG2 PUSH5 0x6970667358 0x22 SLT KECCAK256 0xE4 0xC9 DUP13 ISZERO 0xC7 0xEB 0xD6 0xBA 0x2F 0xD1 SWAP4 0xB9 0xA7 0xE7 BLOCKHASH 0x5E PUSH11 0xD71F30349A2047FAE63BF5 0xCB 0x23 0x1E LOG0 PUSH5 0x736F6C6343 STOP ADDMOD SMOD STOP CALLER "
		},
		"gasEstimates": {
			"creation": {
				"codeDepositCost": "4179600",
				"executionCost": "29076",
				"totalCost": "4208676"
			},
			"external": {
				"createToken(string,string,address)": "infinite",
				"tokenAddresses(uint256)": "5064",
				"tokens()": "infinite"
			}
		},
		"methodIdentifiers": {
			"createToken(string,string,address)": "afd8fd5f",
			"tokenAddresses(uint256)": "e5df8b84",
			"tokens()": "9d63848a"
		}
	},
	"abi": [
		{
			"inputs": [],
			"stateMutability": "nonpayable",
			"type": "constructor"
		},
		{
			"anonymous": false,
			"inputs": [
				{
					"indexed": false,
					"internalType": "contract WeCodeToken",
					"name": "tokenAddress",
					"type": "address"
				},
				{
					"indexed": true,
					"internalType": "address",
					"name": "contributor",
					"type": "address"
				}
			],
			"name": "WeCodeTokenCreated",
			"type": "event"
		},
		{
			"inputs": [
				{
					"internalType": "string",
					"name": "name",
					"type": "string"
				},
				{
					"internalType": "string",
					"name": "symbol",
					"type": "string"
				},
				{
					"internalType": "address",
					"name": "contributor",
					"type": "address"
				}
			],
			"name": "createToken",
			"outputs": [],
			"stateMutability": "nonpayable",
			"type": "function"
		},
		{
			"inputs": [
				{
					"internalType": "uint256",
					"name": "",
					"type": "uint256"
				}
			],
			"name": "tokenAddresses",
			"outputs": [
				{
					"internalType": "contract WeCodeToken",
					"name": "",
					"type": "address"
				}
			],
			"stateMutability": "view",
			"type": "function"
		},
		{
			"inputs": [],
			"name": "tokens",
			"outputs": [
				{
					"internalType": "contract WeCodeToken[]",
					"name": "",
					"type": "address[]"
				}
			],
			"stateMutability": "view",
			"type": "function"
		}
	]
}